{
  "address": "0x859697030604Dd9E1Cc393105e35b091a72DCbC8",
  "abi": [
    {
      "anonymous": false,
      "inputs": [
        {
          "indexed": true,
          "internalType": "address",
          "name": "_owner",
          "type": "address"
        },
        {
          "indexed": true,
          "internalType": "address",
          "name": "_operator",
          "type": "address"
        },
        {
          "indexed": false,
          "internalType": "bool",
          "name": "_approved",
          "type": "bool"
        }
      ],
      "name": "ApprovalForAll",
      "type": "event"
    },
    {
      "anonymous": false,
      "inputs": [
        {
          "indexed": true,
          "internalType": "address",
          "name": "_operator",
          "type": "address"
        },
        {
          "indexed": true,
          "internalType": "address",
          "name": "_from",
          "type": "address"
        },
        {
          "indexed": true,
          "internalType": "address",
          "name": "_to",
          "type": "address"
        },
        {
          "indexed": false,
          "internalType": "bytes32[]",
          "name": "_hash",
          "type": "bytes32[]"
        },
        {
          "indexed": false,
          "internalType": "uint256[]",
          "name": "_amounts",
          "type": "uint256[]"
        }
      ],
      "name": "TransferBatch",
      "type": "event"
    },
    {
      "anonymous": false,
      "inputs": [
        {
          "indexed": true,
          "internalType": "address",
          "name": "_operator",
          "type": "address"
        },
        {
          "indexed": true,
          "internalType": "address",
          "name": "_from",
          "type": "address"
        },
        {
          "indexed": true,
          "internalType": "address",
          "name": "_to",
          "type": "address"
        },
        {
          "indexed": false,
          "internalType": "bytes32",
          "name": "_hash",
          "type": "bytes32"
        },
        {
          "indexed": false,
          "internalType": "uint256",
          "name": "_amount",
          "type": "uint256"
        }
      ],
      "name": "TransferSingle",
      "type": "event"
    },
    {
      "anonymous": false,
      "inputs": [
        {
          "indexed": false,
          "internalType": "string",
          "name": "_amount",
          "type": "string"
        },
        {
          "indexed": true,
          "internalType": "bytes32",
          "name": "_hash",
          "type": "bytes32"
        }
      ],
      "name": "URI",
      "type": "event"
    },
    {
      "inputs": [
        {
          "internalType": "address",
          "name": "_owner",
          "type": "address"
        },
        {
          "internalType": "bytes32",
          "name": "_hash",
          "type": "bytes32"
        }
      ],
      "name": "balanceOf",
      "outputs": [
        {
          "internalType": "uint256",
          "name": "",
          "type": "uint256"
        }
      ],
      "stateMutability": "view",
      "type": "function"
    },
    {
      "inputs": [
        {
          "internalType": "address[]",
          "name": "_owners",
          "type": "address[]"
        },
        {
          "internalType": "bytes32[]",
          "name": "_hashes",
          "type": "bytes32[]"
        }
      ],
      "name": "balanceOfBatch",
      "outputs": [
        {
          "internalType": "uint256[]",
          "name": "",
          "type": "uint256[]"
        }
      ],
      "stateMutability": "view",
      "type": "function"
    },
    {
      "inputs": [
        {
          "internalType": "bytes32",
          "name": "_hash",
          "type": "bytes32"
        }
      ],
      "name": "dispensedOf",
      "outputs": [
        {
          "internalType": "uint256",
          "name": "",
          "type": "uint256"
        }
      ],
      "stateMutability": "view",
      "type": "function"
    },
    {
      "inputs": [
        {
          "internalType": "address",
          "name": "_owner",
          "type": "address"
        },
        {
          "internalType": "address",
          "name": "_operator",
          "type": "address"
        }
      ],
      "name": "isApprovedForAll",
      "outputs": [
        {
          "internalType": "bool",
          "name": "isOperator",
          "type": "bool"
        }
      ],
      "stateMutability": "view",
      "type": "function"
    },
    {
      "inputs": [
        {
          "internalType": "address",
          "name": "",
          "type": "address"
        },
        {
          "internalType": "address",
          "name": "from",
          "type": "address"
        },
        {
          "internalType": "uint256",
          "name": "tokenId",
          "type": "uint256"
        },
        {
          "internalType": "bytes",
          "name": "",
          "type": "bytes"
        }
      ],
      "name": "onERC721Received",
      "outputs": [
        {
          "internalType": "bytes4",
          "name": "",
          "type": "bytes4"
        }
      ],
      "stateMutability": "nonpayable",
      "type": "function"
    },
    {
      "inputs": [
        {
          "internalType": "address",
          "name": "_from",
          "type": "address"
        },
        {
          "internalType": "address",
          "name": "_to",
          "type": "address"
        },
        {
          "internalType": "bytes32[]",
          "name": "_hashes",
          "type": "bytes32[]"
        },
        {
          "internalType": "uint256[]",
          "name": "_amounts",
          "type": "uint256[]"
        },
        {
          "internalType": "bytes",
          "name": "_data",
          "type": "bytes"
        }
      ],
      "name": "safeBatchTransferFrom",
      "outputs": [],
      "stateMutability": "nonpayable",
      "type": "function"
    },
    {
      "inputs": [
        {
          "internalType": "address",
          "name": "_from",
          "type": "address"
        },
        {
          "internalType": "address",
          "name": "_to",
          "type": "address"
        },
        {
          "internalType": "bytes32",
          "name": "_hash",
          "type": "bytes32"
        },
        {
          "internalType": "uint256",
          "name": "_amount",
          "type": "uint256"
        },
        {
          "internalType": "bytes",
          "name": "_data",
          "type": "bytes"
        }
      ],
      "name": "safeTransferFrom",
      "outputs": [
        {
          "internalType": "bool",
          "name": "",
          "type": "bool"
        }
      ],
      "stateMutability": "nonpayable",
      "type": "function"
    },
    {
      "inputs": [
        {
          "internalType": "address",
          "name": "_operator",
          "type": "address"
        },
        {
          "internalType": "bool",
          "name": "_approved",
          "type": "bool"
        }
      ],
      "name": "setApprovalForAll",
      "outputs": [],
      "stateMutability": "nonpayable",
      "type": "function"
    },
    {
      "inputs": [
        {
          "internalType": "bytes4",
          "name": "_interfaceID",
          "type": "bytes4"
        }
      ],
      "name": "supportsInterface",
      "outputs": [
        {
          "internalType": "bool",
          "name": "",
          "type": "bool"
        }
      ],
      "stateMutability": "pure",
      "type": "function"
    },
    {
      "inputs": [
        {
          "internalType": "address",
          "name": "_from",
          "type": "address"
        },
        {
          "internalType": "address",
          "name": "_to",
          "type": "address"
        },
        {
          "internalType": "bytes32",
          "name": "_hash",
          "type": "bytes32"
        },
        {
          "internalType": "uint256",
          "name": "_amount",
          "type": "uint256"
        }
      ],
      "name": "transferFrom",
      "outputs": [
        {
          "internalType": "bool",
          "name": "",
          "type": "bool"
        }
      ],
      "stateMutability": "nonpayable",
      "type": "function"
    }
  ],
  "transactionHash": "0x9db76df4e8befb5a1ee4583795d06e1a1f22a8c6040ffe5ed5fb99e55b8b24dd",
  "args": [],
  "solcInputHash": "39212d748706f420edc0ecf223eec088",
  "bytecode": "0x608060405234801561001057600080fd5b50611748806100206000396000f3fe608060405234801561001057600080fd5b50600436106100be5760003560e01c806383d8c7b711610076578063a22cb4651161005b578063a22cb465146105b2578063e6863ac4146105e0578063e985e9c5146106ab576100be565b806383d8c7b71461041e5780638487551414610595576100be565b80633d7ec1e5116100a75780633d7ec1e5146101db5780634d30b6be146103a45780637fe68381146103e2576100be565b806301ffc9a7146100c3578063150b7a0214610116575b600080fd5b610102600480360360208110156100d957600080fd5b50357fffffffff00000000000000000000000000000000000000000000000000000000166106d9565b604080519115158252519081900360200190f35b6101a66004803603608081101561012c57600080fd5b6001600160a01b0382358116926020810135909116916040820135919081019060808101606082013564010000000081111561016757600080fd5b82018360208201111561017957600080fd5b8035906020019184600183028401116401000000008311171561019b57600080fd5b50909250905061073e565b604080517fffffffff000000000000000000000000000000000000000000000000000000009092168252519081900360200190f35b6103a2600480360360a08110156101f157600080fd5b6001600160a01b03823581169260208101359091169181019060608101604082013564010000000081111561022557600080fd5b82018360208201111561023757600080fd5b8035906020019184602083028401116401000000008311171561025957600080fd5b91908080602002602001604051908101604052809392919081815260200183836020028082843760009201919091525092959493602081019350359150506401000000008111156102a957600080fd5b8201836020820111156102bb57600080fd5b803590602001918460208302840111640100000000831117156102dd57600080fd5b919080806020026020016040519081016040528093929190818152602001838360200280828437600092019190915250929594936020810193503591505064010000000081111561032d57600080fd5b82018360208201111561033f57600080fd5b8035906020019184600183028401116401000000008311171561036157600080fd5b91908080601f0160208091040260200160405190810160405280939291908181526020018383808284376000920191909152509295506107d5945050505050565b005b6103d0600480360360408110156103ba57600080fd5b506001600160a01b038135169060200135610892565b60408051918252519081900360200190f35b610102600480360360808110156103f857600080fd5b506001600160a01b038135811691602081013590911690604081013590606001356108b8565b6105456004803603604081101561043457600080fd5b81019060208101813564010000000081111561044f57600080fd5b82018360208201111561046157600080fd5b8035906020019184602083028401116401000000008311171561048357600080fd5b91908080602002602001604051908101604052809392919081815260200183836020028082843760009201919091525092959493602081019350359150506401000000008111156104d357600080fd5b8201836020820111156104e557600080fd5b8035906020019184602083028401116401000000008311171561050757600080fd5b91908080602002602001604051908101604052809392919081815260200183836020028082843760009201919091525092955061096d945050505050565b60408051602080825283518183015283519192839290830191858101910280838360005b83811015610581578181015183820152602001610569565b505050509050019250505060405180910390f35b6103d0600480360360208110156105ab57600080fd5b5035610a85565b6103a2600480360360408110156105c857600080fd5b506001600160a01b0381351690602001351515610a97565b610102600480360360a08110156105f657600080fd5b6001600160a01b03823581169260208101359091169160408201359160608101359181019060a08101608082013564010000000081111561063657600080fd5b82018360208201111561064857600080fd5b8035906020019184600183028401116401000000008311171561066a57600080fd5b91908080601f016020809104026020016040519081016040528093929190818152602001838380828437600092019190915250929550610b23945050505050565b610102600480360360408110156106c157600080fd5b506001600160a01b0381358116916020013516610be7565b60007fffffffff0000000000000000000000000000000000000000000000000000000082167fa5d8011d00000000000000000000000000000000000000000000000000000000141561072d57506001610739565b61073682610c15565b90505b919050565b604080513360601b6020808301919091526034808301879052835180840390910181526054830180855281519183019190912060008181526001909352848320670de0b6b3a76400009081905560749094019094528181529092906107a890889083908590610c5f565b507f150b7a0200000000000000000000000000000000000000000000000000000000979650505050505050565b336001600160a01b03861614806107f157506107f18533610be7565b61082c5760405162461bcd60e51b815260040180806020018281038252602f81526020018061166b602f913960400191505060405180910390fd5b6001600160a01b0384166108715760405162461bcd60e51b815260040180806020018281038252603081526020018061160f6030913960400191505060405180910390fd5b61087d85858585610cf1565b61088b858585855a86610f9c565b5050505050565b6001600160a01b0391909116600090815260208181526040808320938352929052205490565b6000336001600160a01b03861614806108d657506108d68533610be7565b6109115760405162461bcd60e51b815260040180806020018281038252602a8152602001806115b0602a913960400191505060405180910390fd5b6001600160a01b0384166109565760405162461bcd60e51b815260040180806020018281038252602b815260200180611585602b913960400191505060405180910390fd5b610962858585856111c5565b506001949350505050565b606081518351146109af5760405162461bcd60e51b815260040180806020018281038252602c81526020018061163f602c913960400191505060405180910390fd5b6060835167ffffffffffffffff811180156109c957600080fd5b506040519080825280602002602001820160405280156109f3578160200160208202803683370190505b50905060005b8451811015610a7d57600080868381518110610a1157fe5b60200260200101516001600160a01b03166001600160a01b031681526020019081526020016000206000858381518110610a4757fe5b6020026020010151815260200190815260200160002054828281518110610a6a57fe5b60209081029190910101526001016109f9565b509392505050565b60009081526001602052604090205490565b3360008181526002602090815260408083206001600160a01b0387168085529083529281902080547fffffffffffffffffffffffffffffffffffffffffffffffffffffffffffffff0016861515908117909155815190815290519293927f17307eab39ab6107e8899845ad3d59bd9653f200f220920489ca2b5937696c31929181900390910190a35050565b6000336001600160a01b0387161480610b415750610b418633610be7565b610b7c5760405162461bcd60e51b815260040180806020018281038252602a8152602001806115b0602a913960400191505060405180910390fd5b6001600160a01b038516610bc15760405162461bcd60e51b815260040180806020018281038252602b815260200180611585602b913960400191505060405180910390fd5b610bcd868686866111c5565b610bdb868686865a876112a1565b50600195945050505050565b6001600160a01b03918216600090815260026020908152604080832093909416825291909152205460ff1690565b7fffffffff0000000000000000000000000000000000000000000000000000000081167f01ffc9a70000000000000000000000000000000000000000000000000000000014919050565b6001600160a01b038416600090815260208181526040808320868452909152902054610c8b9083611444565b6001600160a01b038516600081815260208181526040808320888452825280832094909455835187815290810186905283519293919233927fae2134db087f9040aa11ac22c005cb287be3c6195793167a1e17cb25e75d6814928290030190a450505050565b8051825114610d315760405162461bcd60e51b81526004018080602001828103825260358152602001806115da6035913960400191505060405180910390fd5b815160005b81811015610ebb57610dac838281518110610d4d57fe5b6020026020010151600080896001600160a01b03166001600160a01b031681526020019081526020016000206000878581518110610d8757fe5b60200260200101518152602001908152602001600020546114a590919063ffffffff16565b600080886001600160a01b03166001600160a01b031681526020019081526020016000206000868481518110610dde57fe5b6020026020010151815260200190815260200160002081905550610e66838281518110610e0757fe5b6020026020010151600080886001600160a01b03166001600160a01b031681526020019081526020016000206000878581518110610e4157fe5b602002602001015181526020019081526020016000205461144490919063ffffffff16565b600080876001600160a01b03166001600160a01b031681526020019081526020016000206000868481518110610e9857fe5b602090810291909101810151825281019190915260400160002055600101610d36565b50836001600160a01b0316856001600160a01b0316336001600160a01b03167f0cd22d55031cee2865950b0f7b21632297e045dda2896a4a418c151b6c60ff2e8686604051808060200180602001838103835285818151815260200191508051906020019060200280838360005b83811015610f41578181015183820152602001610f29565b50505050905001838103825284818151815260200191508051906020019060200280838360005b83811015610f80578181015183820152602001610f68565b5050505090500194505050505060405180910390a45050505050565b610fae856001600160a01b03166114e7565b156111bd576000856001600160a01b0316632c57f66584338a8989886040518763ffffffff1660e01b815260040180866001600160a01b03168152602001856001600160a01b03168152602001806020018060200180602001848103845287818151815260200191508051906020019060200280838360005b8381101561103f578181015183820152602001611027565b50505050905001848103835286818151815260200191508051906020019060200280838360005b8381101561107e578181015183820152602001611066565b50505050905001848103825285818151815260200191508051906020019080838360005b838110156110ba5781810151838201526020016110a2565b50505050905090810190601f1680156110e75780820380516001836020036101000a031916815260200191505b5098505050505050505050602060405180830381600088803b15801561110c57600080fd5b5087f1158015611120573d6000803e3d6000fd5b50505050506040513d602081101561113757600080fd5b505190507fffffffff0000000000000000000000000000000000000000000000000000000081167fbc197c8100000000000000000000000000000000000000000000000000000000146111bb5760405162461bcd60e51b815260040180806020018281038252603f81526020018061169a603f913960400191505060405180910390fd5b505b505050505050565b6001600160a01b0384166000908152602081815260408083208584529091529020546111f190826114a5565b6001600160a01b03808616600090815260208181526040808320878452825280832094909455918616815280825282812085825290915220546112349082611444565b6001600160a01b03808516600081815260208181526040808320888452825291829020949094558051868152938401859052805191939288169233927fae2134db087f9040aa11ac22c005cb287be3c6195793167a1e17cb25e75d6814929181900390910190a450505050565b6112b3856001600160a01b03166114e7565b156111bd576000856001600160a01b031663b820d76d84338a8989886040518763ffffffff1660e01b815260040180866001600160a01b03168152602001856001600160a01b0316815260200184815260200183815260200180602001828103825283818151815260200191508051906020019080838360005b8381101561134557818101518382015260200161132d565b50505050905090810190601f1680156113725780820380516001836020036101000a031916815260200191505b509650505050505050602060405180830381600088803b15801561139557600080fd5b5087f11580156113a9573d6000803e3d6000fd5b50505050506040513d60208110156113c057600080fd5b505190507fffffffff0000000000000000000000000000000000000000000000000000000081167ff23a6e6100000000000000000000000000000000000000000000000000000000146111bb5760405162461bcd60e51b815260040180806020018281038252603a8152602001806116d9603a913960400191505060405180910390fd5b60008282018381101561149e576040805162461bcd60e51b815260206004820152601b60248201527f536166654d6174683a206164646974696f6e206f766572666c6f770000000000604482015290519081900360640190fd5b9392505050565b600061149e83836040518060400160405280601e81526020017f536166654d6174683a207375627472616374696f6e206f766572666c6f7700008152506114ed565b3b151590565b6000818484111561157c5760405162461bcd60e51b81526004018080602001828103825283818151815260200191508051906020019080838360005b83811015611541578181015183820152602001611529565b50505050905090810190601f16801561156e5780820380516001836020036101000a031916815260200191505b509250505060405180910390fd5b50505090039056fe4552433131353523736166655472616e7366657246726f6d3a20494e56414c49445f524543495049454e544552433131353523736166655472616e7366657246726f6d3a20494e56414c49445f4f50455241544f5245524331313535235f7361666542617463685472616e7366657246726f6d3a20494e56414c49445f4152524159535f4c454e47544845524331313535237361666542617463685472616e7366657246726f6d3a20494e56414c49445f524543495049454e54455243313135352362616c616e63654f6642617463683a20494e56414c49445f41525241595f4c454e47544845524331313535237361666542617463685472616e7366657246726f6d3a20494e56414c49445f4f50455241544f5245524331313535235f63616c6c6f6e45524331313535426174636852656365697665643a20494e56414c49445f4f4e5f524543454956455f4d45535341474545524331313535235f63616c6c6f6e4552433131353552656365697665643a20494e56414c49445f4f4e5f524543454956455f4d455353414745a2646970667358221220a7b58c6e18a3667507088a384752360caf0fdb8cb670387a2be1f02c9c12caae64736f6c634300060c0033",
  "devdoc": {
    "details": "Implementation of Multi-Token Standard contract",
    "kind": "dev",
    "methods": {
      "balanceOf(address,bytes32)": {
        "params": {
          "_hash": "Computed hash of erc721 contract address and its tokenId",
          "_owner": "The address of the token holder"
        },
        "returns": {
          "_0": "The _owner's balance of the Token type requested"
        }
      },
      "balanceOfBatch(address[],bytes32[])": {
        "params": {
          "_hashes": "Computed hash of erc721 contract address and its tokenId",
          "_owners": "The addresses of the token holders"
        },
        "returns": {
          "_0": "The _owner's balance of the Token types requested (i.e. balance for each (owner, id) pair)"
        }
      },
      "dispensedOf(bytes32)": {
        "params": {
          "_hash": "Computed hash of erc721 contract address and its tokenId"
        },
        "returns": {
          "_0": "The _owner's balance of the Token type requested"
        }
      },
      "isApprovedForAll(address,address)": {
        "params": {
          "_operator": "Address of authorized operator",
          "_owner": "The owner of the Tokens"
        },
        "returns": {
          "isOperator": "True if the operator is approved, false if not"
        }
      },
      "safeBatchTransferFrom(address,address,bytes32[],uint256[],bytes)": {
        "params": {
          "_amounts": "Transfer amounts per token type",
          "_data": "Additional data with no specified format, sent in call to `_to`",
          "_from": "Source addresses",
          "_hashes": "Computed hash of erc721 contract address and its tokenId",
          "_to": "Target addresses"
        }
      },
      "safeTransferFrom(address,address,bytes32,uint256,bytes)": {
        "params": {
          "_amount": "Transfered amount",
          "_data": "Additional data with no specified format, sent in call to `_to`",
          "_from": "Source address",
          "_hash": "Computed hash of erc721 contract address and its tokenId",
          "_to": "Target address"
        }
      },
      "setApprovalForAll(address,bool)": {
        "params": {
          "_approved": "True if the operator is approved, false to revoke approval",
          "_operator": "Address to add to the set of authorized operators"
        }
      },
      "supportsInterface(bytes4)": {
        "params": {
          "_interfaceID": "The interface identifier, as specified in ERC-165"
        },
        "returns": {
          "_0": "`true` if the contract implements `_interfaceID` and"
        }
      },
      "transferFrom(address,address,bytes32,uint256)": {
        "params": {
          "_amount": "Transfered amount",
          "_from": "Source address",
          "_hash": "Computed hash of erc721 contract address and its tokenId",
          "_to": "Target address"
        }
      }
    },
    "version": 1
  },
  "userdoc": {
    "kind": "user",
    "methods": {
      "balanceOf(address,bytes32)": {
        "notice": "Get the balance of an account's Tokens"
      },
      "balanceOfBatch(address[],bytes32[])": {
        "notice": "Get the balance of multiple account/token pairs"
      },
      "dispensedOf(bytes32)": {
        "notice": "Get the balance of an account's Tokens"
      },
      "isApprovedForAll(address,address)": {
        "notice": "Queries the approval status of an operator for a given owner"
      },
      "onERC721Received(address,address,uint256,bytes)": {
        "notice": "Called by contract from which tokens are transferred"
      },
      "safeBatchTransferFrom(address,address,bytes32[],uint256[],bytes)": {
        "notice": "Send multiple types of Tokens from the _from address to the _to address (with safety call)"
      },
      "safeTransferFrom(address,address,bytes32,uint256,bytes)": {
        "notice": "Transfers amount amount of an _id from the _from address to the _to address specified"
      },
      "setApprovalForAll(address,bool)": {
        "notice": "Enable or disable approval for a third party (\"operator\") to manage all of caller's tokens"
      },
      "supportsInterface(bytes4)": {
        "notice": "Query if a contract implements an interface"
      },
      "transferFrom(address,address,bytes32,uint256)": {
        "notice": "Transfers amount amount of an _id from the _from address to the _to address specified"
      }
    },
    "version": 1
  },
  "storageLayout": {
    "storage": [
      {
        "astId": 1918,
        "contract": "src/erc1155/ERC1155.sol:ERC1155",
        "label": "balances",
        "offset": 0,
        "slot": "0",
        "type": "t_mapping(t_address,t_mapping(t_bytes32,t_uint256))"
      },
      {
        "astId": 1922,
        "contract": "src/erc1155/ERC1155.sol:ERC1155",
        "label": "dispensed",
        "offset": 0,
        "slot": "1",
        "type": "t_mapping(t_bytes32,t_uint256)"
      },
      {
        "astId": 1928,
        "contract": "src/erc1155/ERC1155.sol:ERC1155",
        "label": "operators",
        "offset": 0,
        "slot": "2",
        "type": "t_mapping(t_address,t_mapping(t_address,t_bool))"
      }
    ],
    "types": {
      "t_address": {
        "encoding": "inplace",
        "label": "address",
        "numberOfBytes": "20"
      },
      "t_bool": {
        "encoding": "inplace",
        "label": "bool",
        "numberOfBytes": "1"
      },
      "t_bytes32": {
        "encoding": "inplace",
        "label": "bytes32",
        "numberOfBytes": "32"
      },
      "t_mapping(t_address,t_bool)": {
        "encoding": "mapping",
        "key": "t_address",
        "label": "mapping(address => bool)",
        "numberOfBytes": "32",
        "value": "t_bool"
      },
      "t_mapping(t_address,t_mapping(t_address,t_bool))": {
        "encoding": "mapping",
        "key": "t_address",
        "label": "mapping(address => mapping(address => bool))",
        "numberOfBytes": "32",
        "value": "t_mapping(t_address,t_bool)"
      },
      "t_mapping(t_address,t_mapping(t_bytes32,t_uint256))": {
        "encoding": "mapping",
        "key": "t_address",
        "label": "mapping(address => mapping(bytes32 => uint256))",
        "numberOfBytes": "32",
        "value": "t_mapping(t_bytes32,t_uint256)"
      },
      "t_mapping(t_bytes32,t_uint256)": {
        "encoding": "mapping",
        "key": "t_bytes32",
        "label": "mapping(bytes32 => uint256)",
        "numberOfBytes": "32",
        "value": "t_uint256"
      },
      "t_uint256": {
        "encoding": "inplace",
        "label": "uint256",
        "numberOfBytes": "32"
      }
    }
  }
}