{
  "address": "0x89Ea4De4DdD7c79dC01A679F4636d8386B76FDd6",
  "abi": [
    {
      "inputs": [],
      "stateMutability": "nonpayable",
      "type": "constructor"
    },
    {
      "anonymous": false,
      "inputs": [
        {
          "indexed": true,
          "internalType": "address",
          "name": "owner",
          "type": "address"
        },
        {
          "indexed": true,
          "internalType": "address",
          "name": "spender",
          "type": "address"
        },
        {
          "indexed": false,
          "internalType": "uint256",
          "name": "value",
          "type": "uint256"
        }
      ],
      "name": "Approval",
      "type": "event"
    },
    {
      "anonymous": false,
      "inputs": [
        {
          "indexed": true,
          "internalType": "address",
          "name": "sender",
          "type": "address"
        },
        {
          "indexed": false,
          "internalType": "uint256",
          "name": "tokenAmount",
          "type": "uint256"
        },
        {
          "indexed": false,
          "internalType": "uint256",
          "name": "baseTokenAmount",
          "type": "uint256"
        },
        {
          "indexed": true,
          "internalType": "address",
          "name": "to",
          "type": "address"
        }
      ],
      "name": "Burn",
      "type": "event"
    },
    {
      "anonymous": false,
      "inputs": [
        {
          "indexed": true,
          "internalType": "address",
          "name": "sender",
          "type": "address"
        },
        {
          "indexed": false,
          "internalType": "uint256",
          "name": "tokenAmount",
          "type": "uint256"
        },
        {
          "indexed": false,
          "internalType": "uint256",
          "name": "baseTokenAmount",
          "type": "uint256"
        }
      ],
      "name": "Mint",
      "type": "event"
    },
    {
      "anonymous": false,
      "inputs": [
        {
          "indexed": true,
          "internalType": "address",
          "name": "sender",
          "type": "address"
        },
        {
          "indexed": false,
          "internalType": "uint256",
          "name": "tokenAmountIn",
          "type": "uint256"
        },
        {
          "indexed": false,
          "internalType": "uint256",
          "name": "baseTokenAmountIn",
          "type": "uint256"
        },
        {
          "indexed": false,
          "internalType": "uint256",
          "name": "tokenAmountOut",
          "type": "uint256"
        },
        {
          "indexed": false,
          "internalType": "uint256",
          "name": "baseTokenAmountOut",
          "type": "uint256"
        },
        {
          "indexed": true,
          "internalType": "address",
          "name": "to",
          "type": "address"
        }
      ],
      "name": "Swap",
      "type": "event"
    },
    {
      "anonymous": false,
      "inputs": [
        {
          "indexed": false,
          "internalType": "uint112",
          "name": "tokenReserve",
          "type": "uint112"
        },
        {
          "indexed": false,
          "internalType": "uint112",
          "name": "baseTokenReserve",
          "type": "uint112"
        }
      ],
      "name": "Sync",
      "type": "event"
    },
    {
      "anonymous": false,
      "inputs": [
        {
          "indexed": true,
          "internalType": "address",
          "name": "from",
          "type": "address"
        },
        {
          "indexed": true,
          "internalType": "address",
          "name": "to",
          "type": "address"
        },
        {
          "indexed": false,
          "internalType": "uint256",
          "name": "value",
          "type": "uint256"
        }
      ],
      "name": "Transfer",
      "type": "event"
    },
    {
      "inputs": [],
      "name": "DOMAIN_SEPARATOR",
      "outputs": [
        {
          "internalType": "bytes32",
          "name": "",
          "type": "bytes32"
        }
      ],
      "stateMutability": "view",
      "type": "function"
    },
    {
      "inputs": [],
      "name": "MINIMUM_LIQUIDITY",
      "outputs": [
        {
          "internalType": "uint256",
          "name": "",
          "type": "uint256"
        }
      ],
      "stateMutability": "view",
      "type": "function"
    },
    {
      "inputs": [],
      "name": "PERMIT_TYPEHASH",
      "outputs": [
        {
          "internalType": "bytes32",
          "name": "",
          "type": "bytes32"
        }
      ],
      "stateMutability": "view",
      "type": "function"
    },
    {
      "inputs": [
        {
          "internalType": "address",
          "name": "",
          "type": "address"
        },
        {
          "internalType": "address",
          "name": "",
          "type": "address"
        }
      ],
      "name": "allowance",
      "outputs": [
        {
          "internalType": "uint256",
          "name": "",
          "type": "uint256"
        }
      ],
      "stateMutability": "view",
      "type": "function"
    },
    {
      "inputs": [
        {
          "internalType": "address",
          "name": "spender",
          "type": "address"
        },
        {
          "internalType": "uint256",
          "name": "value",
          "type": "uint256"
        }
      ],
      "name": "approve",
      "outputs": [
        {
          "internalType": "bool",
          "name": "",
          "type": "bool"
        }
      ],
      "stateMutability": "nonpayable",
      "type": "function"
    },
    {
      "inputs": [
        {
          "internalType": "address",
          "name": "",
          "type": "address"
        }
      ],
      "name": "balanceOf",
      "outputs": [
        {
          "internalType": "uint256",
          "name": "",
          "type": "uint256"
        }
      ],
      "stateMutability": "view",
      "type": "function"
    },
    {
      "inputs": [],
      "name": "baseToken",
      "outputs": [
        {
          "internalType": "address",
          "name": "",
          "type": "address"
        }
      ],
      "stateMutability": "view",
      "type": "function"
    },
    {
      "inputs": [],
      "name": "baseTokenCumulativeLast",
      "outputs": [
        {
          "internalType": "uint256",
          "name": "",
          "type": "uint256"
        }
      ],
      "stateMutability": "view",
      "type": "function"
    },
    {
      "inputs": [],
      "name": "baseTokenReserve",
      "outputs": [
        {
          "internalType": "uint112",
          "name": "",
          "type": "uint112"
        }
      ],
      "stateMutability": "view",
      "type": "function"
    },
    {
      "inputs": [],
      "name": "blockTimestampLast",
      "outputs": [
        {
          "internalType": "uint32",
          "name": "",
          "type": "uint32"
        }
      ],
      "stateMutability": "view",
      "type": "function"
    },
    {
      "inputs": [
        {
          "internalType": "address",
          "name": "to",
          "type": "address"
        },
        {
          "internalType": "uint256",
          "name": "exactTokenAmountOut",
          "type": "uint256"
        },
        {
          "internalType": "uint256",
          "name": "exactBaseTokenAmountOut",
          "type": "uint256"
        }
      ],
      "name": "burn",
      "outputs": [
        {
          "internalType": "uint256",
          "name": "tokenAmount",
          "type": "uint256"
        },
        {
          "internalType": "uint256",
          "name": "baseTokenAmount",
          "type": "uint256"
        }
      ],
      "stateMutability": "nonpayable",
      "type": "function"
    },
    {
      "inputs": [],
      "name": "decimals",
      "outputs": [
        {
          "internalType": "uint8",
          "name": "",
          "type": "uint8"
        }
      ],
      "stateMutability": "view",
      "type": "function"
    },
    {
      "inputs": [],
      "name": "dispenser",
      "outputs": [
        {
          "internalType": "address",
          "name": "",
          "type": "address"
        }
      ],
      "stateMutability": "view",
      "type": "function"
    },
    {
      "inputs": [],
      "name": "factory",
      "outputs": [
        {
          "internalType": "address",
          "name": "",
          "type": "address"
        }
      ],
      "stateMutability": "view",
      "type": "function"
    },
    {
      "inputs": [],
      "name": "getReserves",
      "outputs": [
        {
          "internalType": "uint112",
          "name": "_tokenReserve",
          "type": "uint112"
        },
        {
          "internalType": "uint112",
          "name": "_baseTokenReserve",
          "type": "uint112"
        },
        {
          "internalType": "uint32",
          "name": "_blockTimestampLast",
          "type": "uint32"
        }
      ],
      "stateMutability": "view",
      "type": "function"
    },
    {
      "inputs": [
        {
          "internalType": "bytes32",
          "name": "_tokenHash",
          "type": "bytes32"
        },
        {
          "internalType": "address",
          "name": "_dispenser",
          "type": "address"
        },
        {
          "internalType": "address",
          "name": "_baseToken",
          "type": "address"
        }
      ],
      "name": "initialize",
      "outputs": [],
      "stateMutability": "nonpayable",
      "type": "function"
    },
    {
      "inputs": [],
      "name": "kLast",
      "outputs": [
        {
          "internalType": "uint256",
          "name": "",
          "type": "uint256"
        }
      ],
      "stateMutability": "view",
      "type": "function"
    },
    {
      "inputs": [
        {
          "internalType": "address",
          "name": "to",
          "type": "address"
        }
      ],
      "name": "mint",
      "outputs": [
        {
          "internalType": "uint256",
          "name": "liquidity",
          "type": "uint256"
        }
      ],
      "stateMutability": "nonpayable",
      "type": "function"
    },
    {
      "inputs": [],
      "name": "name",
      "outputs": [
        {
          "internalType": "string",
          "name": "",
          "type": "string"
        }
      ],
      "stateMutability": "view",
      "type": "function"
    },
    {
      "inputs": [
        {
          "internalType": "address",
          "name": "",
          "type": "address"
        }
      ],
      "name": "nonces",
      "outputs": [
        {
          "internalType": "uint256",
          "name": "",
          "type": "uint256"
        }
      ],
      "stateMutability": "view",
      "type": "function"
    },
    {
      "inputs": [
        {
          "internalType": "address",
          "name": "owner",
          "type": "address"
        },
        {
          "internalType": "address",
          "name": "spender",
          "type": "address"
        },
        {
          "internalType": "uint256",
          "name": "value",
          "type": "uint256"
        },
        {
          "internalType": "uint256",
          "name": "deadline",
          "type": "uint256"
        },
        {
          "internalType": "uint8",
          "name": "v",
          "type": "uint8"
        },
        {
          "internalType": "bytes32",
          "name": "r",
          "type": "bytes32"
        },
        {
          "internalType": "bytes32",
          "name": "s",
          "type": "bytes32"
        }
      ],
      "name": "permit",
      "outputs": [],
      "stateMutability": "nonpayable",
      "type": "function"
    },
    {
      "inputs": [
        {
          "internalType": "address",
          "name": "to",
          "type": "address"
        }
      ],
      "name": "skim",
      "outputs": [],
      "stateMutability": "nonpayable",
      "type": "function"
    },
    {
      "inputs": [
        {
          "internalType": "uint256",
          "name": "tokenAmountOut",
          "type": "uint256"
        },
        {
          "internalType": "uint256",
          "name": "baseTokenAmountOut",
          "type": "uint256"
        },
        {
          "internalType": "address",
          "name": "to",
          "type": "address"
        },
        {
          "internalType": "bytes",
          "name": "data",
          "type": "bytes"
        }
      ],
      "name": "swap",
      "outputs": [],
      "stateMutability": "nonpayable",
      "type": "function"
    },
    {
      "inputs": [],
      "name": "symbol",
      "outputs": [
        {
          "internalType": "string",
          "name": "",
          "type": "string"
        }
      ],
      "stateMutability": "view",
      "type": "function"
    },
    {
      "inputs": [],
      "name": "sync",
      "outputs": [],
      "stateMutability": "nonpayable",
      "type": "function"
    },
    {
      "inputs": [],
      "name": "tokenCumulativeLast",
      "outputs": [
        {
          "internalType": "uint256",
          "name": "",
          "type": "uint256"
        }
      ],
      "stateMutability": "view",
      "type": "function"
    },
    {
      "inputs": [],
      "name": "tokenHash",
      "outputs": [
        {
          "internalType": "bytes32",
          "name": "",
          "type": "bytes32"
        }
      ],
      "stateMutability": "view",
      "type": "function"
    },
    {
      "inputs": [],
      "name": "tokenReserve",
      "outputs": [
        {
          "internalType": "uint112",
          "name": "",
          "type": "uint112"
        }
      ],
      "stateMutability": "view",
      "type": "function"
    },
    {
      "inputs": [],
      "name": "totalSupply",
      "outputs": [
        {
          "internalType": "uint256",
          "name": "",
          "type": "uint256"
        }
      ],
      "stateMutability": "view",
      "type": "function"
    },
    {
      "inputs": [
        {
          "internalType": "address",
          "name": "to",
          "type": "address"
        },
        {
          "internalType": "uint256",
          "name": "value",
          "type": "uint256"
        }
      ],
      "name": "transfer",
      "outputs": [
        {
          "internalType": "bool",
          "name": "",
          "type": "bool"
        }
      ],
      "stateMutability": "nonpayable",
      "type": "function"
    },
    {
      "inputs": [
        {
          "internalType": "address",
          "name": "from",
          "type": "address"
        },
        {
          "internalType": "address",
          "name": "to",
          "type": "address"
        },
        {
          "internalType": "uint256",
          "name": "value",
          "type": "uint256"
        }
      ],
      "name": "transferFrom",
      "outputs": [
        {
          "internalType": "bool",
          "name": "",
          "type": "bool"
        }
      ],
      "stateMutability": "nonpayable",
      "type": "function"
    }
  ],
  "transactionHash": "0x842a6e2acc333ed0e9e8038aaa71a2859a21ec2c7a46095d9dcdc5308bd98c82",
  "args": [],
  "solcInputHash": "d1a0562918b954ffe9e4a57c2b7a070b",
  "bytecode": "0x60806040526001600d5534801561001557600080fd5b50604080518082018252600a8152692ab734b9bbb0b8102b1960b11b6020918201528151808301835260018152603160f81b9082015281517f8b73c3c69bb8fe3d512ecc4cf759cc79239f7b179b0ffacaa9a75d522b39400f818301527fbfcc8ef98ffbf7b6c3fec7bf5185b566b9863e35a9d83acd49ad6824b5969738818401527fc89efdaa54c0f20c7adf612882df0950f5a951637e0307cdcb4c672f298b8bc660608201524660808201523060a0808301919091528351808303909101815260c09091019092528151910120600355600580546001600160a01b03191633179055612819806101086000396000f3fe608060405234801561001057600080fd5b50600436106101e55760003560e01c806388b117b31161010f578063c5700a02116100a2578063dd62ed3e11610071578063dd62ed3e146105dd578063e09d894d1461060b578063f5298aca14610613578063fff6cae91461065e576101e5565b8063c5700a021461055b578063cbcb31711461057c578063cca4947314610584578063d505accf1461058c576101e5565b8063ba9a7a56116100de578063ba9a7a5614610501578063bc25cf7714610509578063c45a01551461052f578063c55dae6314610553576101e5565b806388b117b31461047557806395d89b41146104a9578063a9059cbb146104b1578063adb5a665146104dd576101e5565b806330adf81f116101875780636a627842116101565780636a627842146103fb57806370a08231146104215780637464fc3d146104475780637ecebe001461044f576101e5565b806330adf81f146103c5578063313ce567146103cd5780633644e515146103eb578063431140a2146103f3576101e5565b8063095ea7b3116101c3578063095ea7b31461032d5780630dd0fd871461036d57806318160ddd1461038757806323b872dd1461038f576101e5565b8063022c0d9f146101ea57806306fdde03146102785780630902f1ac146102f5575b600080fd5b6102766004803603608081101561020057600080fd5b8135916020810135916001600160a01b03604083013516919081019060808101606082013564010000000081111561023757600080fd5b82018360208201111561024957600080fd5b8035906020019184600183028401116401000000008311171561026b57600080fd5b509092509050610666565b005b610280610b8a565b6040805160208082528351818301528351919283929083019185019080838360005b838110156102ba5781810151838201526020016102a2565b50505050905090810190601f1680156102e75780820380516001836020036101000a031916815260200191505b509250505060405180910390f35b6102fd610bc3565b604080516001600160701b03948516815292909316602083015263ffffffff168183015290519081900360600190f35b6103596004803603604081101561034357600080fd5b506001600160a01b038135169060200135610bed565b604080519115158252519081900360200190f35b610375610c04565b60408051918252519081900360200190f35b610375610c0a565b610359600480360360608110156103a557600080fd5b506001600160a01b03813581169160208101359091169060400135610c10565b610375610cc2565b6103d5610ce6565b6040805160ff9092168252519081900360200190f35b610375610ceb565b610375610cf1565b6103756004803603602081101561041157600080fd5b50356001600160a01b0316610cf7565b6103756004803603602081101561043757600080fd5b50356001600160a01b0316610fe9565b610375610ffb565b6103756004803603602081101561046557600080fd5b50356001600160a01b0316611001565b6102766004803603606081101561048b57600080fd5b508035906001600160a01b0360208201358116916040013516611013565b6102806110be565b610359600480360360408110156104c757600080fd5b506001600160a01b0381351690602001356110f7565b6104e5611104565b604080516001600160701b039092168252519081900360200190f35b61037561111a565b6102766004803603602081101561051f57600080fd5b50356001600160a01b0316611120565b61053761129a565b604080516001600160a01b039092168252519081900360200190f35b6105376112a9565b6105636112b8565b6040805163ffffffff9092168252519081900360200190f35b6104e56112cb565b6103756112da565b610276600480360360e08110156105a257600080fd5b506001600160a01b03813581169160208101359091169060408101359060608101359060ff6080820135169060a08101359060c001356112e0565b610375600480360360408110156105f357600080fd5b506001600160a01b0381358116916020013516611508565b610537611525565b6106456004803603606081101561062957600080fd5b506001600160a01b038135169060208101359060400135611534565b6040805192835260208301919091528051918290030190f35b6102766119ee565b600d546001146106bd576040805162461bcd60e51b815260206004820152601160248201527f556e697377617056323a204c4f434b4544000000000000000000000000000000604482015290519081900360640190fd5b6000600d55841515806106d05750600084115b61070b5760405162461bcd60e51b81526004018080602001828103825260258152602001806126ba6025913960400191505060405180910390fd5b600080610716610bc3565b5091509150816001600160701b03168710801561073b5750806001600160701b031686105b6107765760405162461bcd60e51b81526004018080602001828103825260218152602001806127036021913960400191505060405180910390fd5b60085460075460009182916001600160a01b03898116911614156107e1576040805162461bcd60e51b815260206004820152601560248201527f556e697377617056323a20494e56414c49445f544f0000000000000000000000604482015290519081900360640190fd5b89156107f2576107f281898c611b66565b881561080f5760075461080f906001600160a01b0316898b611cf6565b85156108c157876001600160a01b03166310d1e85c338c8c8b8b6040518663ffffffff1660e01b815260040180866001600160a01b03168152602001858152602001848152602001806020018281038252848482818152602001925080828437600081840152601f19601f8201169050808301925050509650505050505050600060405180830381600087803b1580156108a857600080fd5b505af11580156108bc573d6000803e3d6000fd5b505050505b600654604080516326985b5f60e11b81523060048201526024810184905290516001600160a01b0390921691634d30b6be91604480820192602092909190829003018186803b15801561091357600080fd5b505afa158015610927573d6000803e3d6000fd5b505050506040513d602081101561093d57600080fd5b5051600754604080516370a0823160e01b815230600482015290519295506001600160a01b03909116916370a0823191602480820192602092909190829003018186803b15801561098d57600080fd5b505afa1580156109a1573d6000803e3d6000fd5b505050506040513d60208110156109b757600080fd5b50519150600090506001600160701b0385168a900383116109d95760006109e8565b89856001600160701b03160383035b9050600089856001600160701b0316038311610a05576000610a14565b89856001600160701b03160383035b90506000821180610a255750600081115b610a605760405162461bcd60e51b81526004018080602001828103825260248152602001806126df6024913960400191505060405180910390fd5b6000610a82610a70846003611e8c565b610a7c876103e8611e8c565b90611eec565b90506000610a94610a70846003611e8c565b9050610ab9620f4240610ab36001600160701b038b8116908b16611e8c565b90611e8c565b610ac38383611e8c565b1015610b16576040805162461bcd60e51b815260206004820152600c60248201527f556e697377617056323a204b0000000000000000000000000000000000000000604482015290519081900360640190fd5b5050610b2484848888611f2e565b60408051838152602081018390528082018d9052606081018c905290516001600160a01b038b169133917fd78ad95fa46c994b6551d0da85fc275fe613ce37657fb8d5e3d130840159d8229181900360800190a350506001600d55505050505050505050565b6040518060400160405280600a81526020017f556e69737761702056320000000000000000000000000000000000000000000081525081565b6009546001600160701b0380821692600160701b830490911691600160e01b900463ffffffff1690565b6000610bfa338484612116565b5060015b92915050565b600a5481565b60005481565b6001600160a01b03831660009081526002602090815260408083203384529091528120547fffffffffffffffffffffffffffffffffffffffffffffffffffffffffffffffff14610cad576001600160a01b0384166000908152600260209081526040808320338452909152902054610c889083611eec565b6001600160a01b03851660009081526002602090815260408083203384529091529020555b610cb8848484612178565b5060019392505050565b7f6e71edae12b1b97f4d1f60370fef10105fa2faae0126114a169c64845d6126c981565b601281565b60035481565b600b5481565b6000600d54600114610d50576040805162461bcd60e51b815260206004820152601160248201527f556e697377617056323a204c4f434b4544000000000000000000000000000000604482015290519081900360640190fd5b6000600d81905580610d60610bc3565b50600654600854604080516326985b5f60e11b81523060048201526024810192909252519395509193506000926001600160a01b0390911691634d30b6be916044808301926020929190829003018186803b158015610dbe57600080fd5b505afa158015610dd2573d6000803e3d6000fd5b505050506040513d6020811015610de857600080fd5b5051600754604080516370a0823160e01b815230600482015290519293506000926001600160a01b03909216916370a0823191602480820192602092909190829003018186803b158015610e3b57600080fd5b505afa158015610e4f573d6000803e3d6000fd5b505050506040513d6020811015610e6557600080fd5b505190506000610e7e836001600160701b038716611eec565b90506000610e95836001600160701b038716611eec565b90506000610ea38787612226565b60005490915080610eda57610ec66103e8610a7c610ec18787611e8c565b612366565b9850610ed560006103e86123b8565b610f1d565b610f1a6001600160701b038916610ef18684611e8c565b81610ef857fe5b046001600160701b038916610f0d8685611e8c565b81610f1457fe5b04612442565b98505b60008911610f5c5760405162461bcd60e51b815260040180806020018281038252602881526020018061274c6028913960400191505060405180910390fd5b610f668a8a6123b8565b610f7286868a8a611f2e565b8115610f9c57600954610f98906001600160701b0380821691600160701b900416611e8c565b600c555b6040805185815260208101859052815133927f4c209b5fc8ad50758f13e2e1088ba56a560dff690a1c6fef26394f4c03821c4f928290030190a250506001600d5550949695505050505050565b60016020526000908152604090205481565b600c5481565b60046020526000908152604090205481565b6005546001600160a01b03163314611072576040805162461bcd60e51b815260206004820152601460248201527f556e697377617056323a20464f5242494444454e000000000000000000000000604482015290519081900360640190fd5b600892909255600680546001600160a01b039283167fffffffffffffffffffffffff00000000000000000000000000000000000000009182161790915560078054929093169116179055565b6040518060400160405280600681526020017f554e492d5632000000000000000000000000000000000000000000000000000081525081565b6000610bfa338484612178565b600954600160701b90046001600160701b031681565b6103e881565b600d54600114611177576040805162461bcd60e51b815260206004820152601160248201527f556e697377617056323a204c4f434b4544000000000000000000000000000000604482015290519081900360640190fd5b6000600d55600854600954600654604080516326985b5f60e11b8152306004820152602481018590529051611223938593879361121e936001600160701b03909316926001600160a01b0390921691634d30b6be91604480820192602092909190829003018186803b1580156111ec57600080fd5b505afa158015611200573d6000803e3d6000fd5b505050506040513d602081101561121657600080fd5b505190611eec565b611b66565b600754600954604080516370a0823160e01b81523060048201529051611291936001600160a01b031692869261128c92600160701b9092046001600160701b03169185916370a08231916024808301926020929190829003018186803b1580156111ec57600080fd5b611cf6565b50506001600d55565b6005546001600160a01b031681565b6007546001600160a01b031681565b600954600160e01b900463ffffffff1681565b6009546001600160701b031681565b60085481565b42841015611335576040805162461bcd60e51b815260206004820152601260248201527f556e697377617056323a20455850495245440000000000000000000000000000604482015290519081900360640190fd5b6003546001600160a01b0380891660008181526004602090815260408083208054600180820190925582517f6e71edae12b1b97f4d1f60370fef10105fa2faae0126114a169c64845d6126c98186015280840196909652958d166060860152608085018c905260a085019590955260c08085018b90528151808603909101815260e0850182528051908301207f19010000000000000000000000000000000000000000000000000000000000006101008601526101028501969096526101228085019690965280518085039096018652610142840180825286519683019690962095839052610162840180825286905260ff89166101828501526101a284018890526101c28401879052519193926101e280820193601f1981019281900390910190855afa15801561146b573d6000803e3d6000fd5b5050604051601f1901519150506001600160a01b038116158015906114a15750886001600160a01b0316816001600160a01b0316145b6114f2576040805162461bcd60e51b815260206004820152601c60248201527f556e697377617056323a20494e56414c49445f5349474e415455524500000000604482015290519081900360640190fd5b6114fd898989612116565b505050505050505050565b600260209081526000928352604080842090915290825290205481565b6006546001600160a01b031681565b600080600d5460011461158e576040805162461bcd60e51b815260206004820152601160248201527f556e697377617056323a204c4f434b4544000000000000000000000000000000604482015290519081900360640190fd5b6000600d8190558061159e610bc3565b50600854600654604080516326985b5f60e11b815230600482015260248101849052905194965092945090926000926001600160a01b0390921691634d30b6be916044808301926020929190829003018186803b1580156115fe57600080fd5b505afa158015611612573d6000803e3d6000fd5b505050506040513d602081101561162857600080fd5b5051600754604080516370a0823160e01b815230600482015290519293506000926001600160a01b03909216916370a0823191602480820192602092909190829003018186803b15801561167b57600080fd5b505afa15801561168f573d6000803e3d6000fd5b505050506040513d60208110156116a557600080fd5b5051306000908152600160205260408120549192506116c48787612226565b600080549192508c15611743576116eb866116e58f610ab3866103e8611eec565b90612458565b905083811461172b5760405162461bcd60e51b815260040180806020018281038252602a815260200180612774602a913960400191505060405180910390fd5b8c9a5061173c826116e58388611e8c565b99506117d8565b8b156117b55761175d856116e58e610ab3866103e8611eec565b905083811461179d5760405162461bcd60e51b815260040180806020018281038252602a815260200180612774602a913960400191505060405180910390fd5b8b99506117ae826116e58389611e8c565b9a506117d8565b50826117c5826116e58389611e8c565b9a506117d5826116e58388611e8c565b99505b60008b1180156117e8575060008a115b6118235760405162461bcd60e51b81526004018080602001828103825260288152602001806127246028913960400191505060405180910390fd5b61182d308261249a565b611838878f8d611b66565b60075461184f906001600160a01b03168f8c611cf6565b600654600854604080516326985b5f60e11b81523060048201526024810192909252516001600160a01b0390921691634d30b6be91604480820192602092909190829003018186803b1580156118a457600080fd5b505afa1580156118b8573d6000803e3d6000fd5b505050506040513d60208110156118ce57600080fd5b5051600754604080516370a0823160e01b815230600482015290519298506001600160a01b03909116916370a0823191602480820192602092909190829003018186803b15801561191e57600080fd5b505afa158015611932573d6000803e3d6000fd5b505050506040513d602081101561194857600080fd5b5051945061195886868b8b611f2e565b82156119825760095461197e906001600160701b0380821691600160701b900416611e8c565b600c555b8d6001600160a01b0316336001600160a01b03167fdccd412f0b1252819cb1fd330b93224ca42612892bb3f4f789976e6d819364968d8d604051808381526020018281526020019250505060405180910390a35050505050505050506001600d81905550935093915050565b600d54600114611a45576040805162461bcd60e51b815260206004820152601160248201527f556e697377617056323a204c4f434b4544000000000000000000000000000000604482015290519081900360640190fd5b6000600d55600654600854604080516326985b5f60e11b8152306004820152602481019290925251611b5f926001600160a01b031691634d30b6be916044808301926020929190829003018186803b158015611aa057600080fd5b505afa158015611ab4573d6000803e3d6000fd5b505050506040513d6020811015611aca57600080fd5b5051600754604080516370a0823160e01b815230600482015290516001600160a01b03909216916370a0823191602480820192602092909190829003018186803b158015611b1757600080fd5b505afa158015611b2b573d6000803e3d6000fd5b505050506040513d6020811015611b4157600080fd5b50516009546001600160701b0380821691600160701b900416611f2e565b6001600d55565b600654604080513060248201526001600160a01b0385811660448301526064820187905260848083018690528351808403909101815260a490920183526020820180516001600160e01b03167f7fe6838100000000000000000000000000000000000000000000000000000000178152925182516000956060959316939282918083835b60208310611c095780518252601f199092019160209182019101611bea565b6001836020036101000a0380198251168184511680821785525050505050509050019150506000604051808303816000865af19150503d8060008114611c6b576040519150601f19603f3d011682016040523d82523d6000602084013e611c70565b606091505b5091509150818015611c9e575080511580611c9e5750808060200190516020811015611c9b57600080fd5b50515b611cef576040805162461bcd60e51b815260206004820181905260248201527f556e697377617056323a20544f4b454e5f5452414e534645525f4641494c4544604482015290519081900360640190fd5b5050505050565b604080518082018252601981527f7472616e7366657228616464726573732c75696e74323536290000000000000060209182015281516001600160a01b0385811660248301526044808301869052845180840390910181526064909201845291810180516001600160e01b03167fa9059cbb000000000000000000000000000000000000000000000000000000001781529251815160009460609489169392918291908083835b60208310611dbc5780518252601f199092019160209182019101611d9d565b6001836020036101000a0380198251168184511680821785525050505050509050019150506000604051808303816000865af19150503d8060008114611e1e576040519150601f19603f3d011682016040523d82523d6000602084013e611e23565b606091505b5091509150818015611e51575080511580611e515750808060200190516020811015611e4e57600080fd5b50515b611cef5760405162461bcd60e51b815260040180806020018281038252602581526020018061279e6025913960400191505060405180910390fd5b600082611e9b57506000610bfe565b82820282848281611ea857fe5b0414611ee55760405162461bcd60e51b81526004018080602001828103825260218152602001806127c36021913960400191505060405180910390fd5b9392505050565b6000611ee583836040518060400160405280601e81526020017f536166654d6174683a207375627472616374696f6e206f766572666c6f77000081525061252c565b6001600160701b038411801590611f4c57506001600160701b038311155b611f9d576040805162461bcd60e51b815260206004820152601360248201527f556e697377617056323a204f564552464c4f5700000000000000000000000000604482015290519081900360640190fd5b60095463ffffffff42811691600160e01b90048116820390811615801590611fcd57506001600160701b03841615155b8015611fe157506001600160701b03831615155b1561204c578063ffffffff1661200985611ffa866125c3565b6001600160e01b0316906125d5565b600a80546001600160e01b03929092169290920201905563ffffffff811661203484611ffa876125c3565b600b80546001600160e01b0392909216929092020190555b600980547fffffffffffffffffffffffffffffffffffff0000000000000000000000000000166001600160701b03888116919091177fffffffff0000000000000000000000000000ffffffffffffffffffffffffffff16600160701b8883168102919091176001600160e01b0316600160e01b63ffffffff871602179283905560408051848416815291909304909116602082015281517f1c411e9a96e071241c2f21f7726b17ae89e3cab4c78be50e062b03a9fffbbad1929181900390910190a1505050505050565b6001600160a01b03808416600081815260026020908152604080832094871680845294825291829020859055815185815291517f8c5be1e5ebec7d5bd14f71427d1e84f3dd0314c0f7b2291e5b200ac8c7c3b9259281900390910190a3505050565b6001600160a01b03831660009081526001602052604090205461219b9082611eec565b6001600160a01b0380851660009081526001602052604080822093909355908416815220546121ca90826125fa565b6001600160a01b0380841660008181526001602090815260409182902094909455805185815290519193928716927fddf252ad1be2c89b69c2b068fc378daa952ba7f163c4a11628f55a4df523b3ef92918290030190a3505050565b600080600560009054906101000a90046001600160a01b03166001600160a01b031663017e7e586040518163ffffffff1660e01b815260040160206040518083038186803b15801561227757600080fd5b505afa15801561228b573d6000803e3d6000fd5b505050506040513d60208110156122a157600080fd5b5051600c546001600160a01b03821615801594509192509061235257801561234d5760006122de610ec16001600160701b03888116908816611e8c565b905060006122eb83612366565b90508082111561234a57600061230d6123048484611eec565b60005490611e8c565b9050600061232683612320866005611e8c565b906125fa565b9050600081838161233357fe5b04905080156123465761234687826123b8565b5050505b50505b61235e565b801561235e576000600c555b505092915050565b600060038211156123a9575080600160028204015b818110156123a35780915060028182858161239257fe5b04018161239b57fe5b04905061237b565b506123b3565b81156123b3575060015b919050565b6000546123c590826125fa565b60009081556001600160a01b0383168152600160205260409020546123ea90826125fa565b6001600160a01b03831660008181526001602090815260408083209490945583518581529351929391927fddf252ad1be2c89b69c2b068fc378daa952ba7f163c4a11628f55a4df523b3ef9281900390910190a35050565b60008183106124515781611ee5565b5090919050565b6000611ee583836040518060400160405280601a81526020017f536166654d6174683a206469766973696f6e206279207a65726f000000000000815250612654565b6001600160a01b0382166000908152600160205260409020546124bd9082611eec565b6001600160a01b038316600090815260016020526040812091909155546124e49082611eec565b60009081556040805183815290516001600160a01b038516917fddf252ad1be2c89b69c2b068fc378daa952ba7f163c4a11628f55a4df523b3ef919081900360200190a35050565b600081848411156125bb5760405162461bcd60e51b81526004018080602001828103825283818151815260200191508051906020019080838360005b83811015612580578181015183820152602001612568565b50505050905090810190601f1680156125ad5780820380516001836020036101000a031916815260200191505b509250505060405180910390fd5b505050900390565b6001600160701b0316600160701b0290565b60006001600160701b0382166001600160e01b038416816125f257fe5b049392505050565b600082820183811015611ee5576040805162461bcd60e51b815260206004820152601b60248201527f536166654d6174683a206164646974696f6e206f766572666c6f770000000000604482015290519081900360640190fd5b600081836126a35760405162461bcd60e51b8152602060048201818152835160248401528351909283926044909101919085019080838360008315612580578181015183820152602001612568565b5060008385816126af57fe5b049594505050505056fe556e697377617056323a20494e53554646494349454e545f4f55545055545f414d4f554e54556e697377617056323a20494e53554646494349454e545f494e5055545f414d4f554e54556e697377617056323a20494e53554646494349454e545f4c4951554944495459556e697377617056323a20494e53554646494349454e545f4c49515549444954595f4255524e4544556e697377617056323a20494e53554646494349454e545f4c49515549444954595f4d494e544544556e697377617056323a20494e53554646494349454e545f4c49515549444954595f50524f5649444544556e697377617056323a20424153455f544f4b454e5f5452414e534645525f4641494c4544536166654d6174683a206d756c7469706c69636174696f6e206f766572666c6f77a264697066735822122065efc65131a8b6a487c4ea8cef69740cec166d402fae75430f8bad90d8b3b21564736f6c634300060c0033",
  "devdoc": {
    "kind": "dev",
    "methods": {},
    "version": 1
  },
  "userdoc": {
    "kind": "user",
    "methods": {},
    "version": 1
  },
  "storageLayout": {
    "storage": [
      {
        "astId": 4481,
        "contract": "src/uniswap/factory/UniswapV2Pair.sol:UniswapV2Pair",
        "label": "totalSupply",
        "offset": 0,
        "slot": "0",
        "type": "t_uint256"
      },
      {
        "astId": 4486,
        "contract": "src/uniswap/factory/UniswapV2Pair.sol:UniswapV2Pair",
        "label": "balanceOf",
        "offset": 0,
        "slot": "1",
        "type": "t_mapping(t_address,t_uint256)"
      },
      {
        "astId": 4493,
        "contract": "src/uniswap/factory/UniswapV2Pair.sol:UniswapV2Pair",
        "label": "allowance",
        "offset": 0,
        "slot": "2",
        "type": "t_mapping(t_address,t_mapping(t_address,t_uint256))"
      },
      {
        "astId": 4496,
        "contract": "src/uniswap/factory/UniswapV2Pair.sol:UniswapV2Pair",
        "label": "DOMAIN_SEPARATOR",
        "offset": 0,
        "slot": "3",
        "type": "t_bytes32"
      },
      {
        "astId": 4505,
        "contract": "src/uniswap/factory/UniswapV2Pair.sol:UniswapV2Pair",
        "label": "nonces",
        "offset": 0,
        "slot": "4",
        "type": "t_mapping(t_address,t_uint256)"
      },
      {
        "astId": 5085,
        "contract": "src/uniswap/factory/UniswapV2Pair.sol:UniswapV2Pair",
        "label": "factory",
        "offset": 0,
        "slot": "5",
        "type": "t_address"
      },
      {
        "astId": 5088,
        "contract": "src/uniswap/factory/UniswapV2Pair.sol:UniswapV2Pair",
        "label": "dispenser",
        "offset": 0,
        "slot": "6",
        "type": "t_address"
      },
      {
        "astId": 5091,
        "contract": "src/uniswap/factory/UniswapV2Pair.sol:UniswapV2Pair",
        "label": "baseToken",
        "offset": 0,
        "slot": "7",
        "type": "t_address"
      },
      {
        "astId": 5094,
        "contract": "src/uniswap/factory/UniswapV2Pair.sol:UniswapV2Pair",
        "label": "tokenHash",
        "offset": 0,
        "slot": "8",
        "type": "t_bytes32"
      },
      {
        "astId": 5096,
        "contract": "src/uniswap/factory/UniswapV2Pair.sol:UniswapV2Pair",
        "label": "tokenReserve",
        "offset": 0,
        "slot": "9",
        "type": "t_uint112"
      },
      {
        "astId": 5098,
        "contract": "src/uniswap/factory/UniswapV2Pair.sol:UniswapV2Pair",
        "label": "baseTokenReserve",
        "offset": 14,
        "slot": "9",
        "type": "t_uint112"
      },
      {
        "astId": 5100,
        "contract": "src/uniswap/factory/UniswapV2Pair.sol:UniswapV2Pair",
        "label": "blockTimestampLast",
        "offset": 28,
        "slot": "9",
        "type": "t_uint32"
      },
      {
        "astId": 5103,
        "contract": "src/uniswap/factory/UniswapV2Pair.sol:UniswapV2Pair",
        "label": "tokenCumulativeLast",
        "offset": 0,
        "slot": "10",
        "type": "t_uint256"
      },
      {
        "astId": 5106,
        "contract": "src/uniswap/factory/UniswapV2Pair.sol:UniswapV2Pair",
        "label": "baseTokenCumulativeLast",
        "offset": 0,
        "slot": "11",
        "type": "t_uint256"
      },
      {
        "astId": 5109,
        "contract": "src/uniswap/factory/UniswapV2Pair.sol:UniswapV2Pair",
        "label": "kLast",
        "offset": 0,
        "slot": "12",
        "type": "t_uint256"
      },
      {
        "astId": 5112,
        "contract": "src/uniswap/factory/UniswapV2Pair.sol:UniswapV2Pair",
        "label": "unlocked",
        "offset": 0,
        "slot": "13",
        "type": "t_uint256"
      }
    ],
    "types": {
      "t_address": {
        "encoding": "inplace",
        "label": "address",
        "numberOfBytes": "20"
      },
      "t_bytes32": {
        "encoding": "inplace",
        "label": "bytes32",
        "numberOfBytes": "32"
      },
      "t_mapping(t_address,t_mapping(t_address,t_uint256))": {
        "encoding": "mapping",
        "key": "t_address",
        "label": "mapping(address => mapping(address => uint256))",
        "numberOfBytes": "32",
        "value": "t_mapping(t_address,t_uint256)"
      },
      "t_mapping(t_address,t_uint256)": {
        "encoding": "mapping",
        "key": "t_address",
        "label": "mapping(address => uint256)",
        "numberOfBytes": "32",
        "value": "t_uint256"
      },
      "t_uint112": {
        "encoding": "inplace",
        "label": "uint112",
        "numberOfBytes": "14"
      },
      "t_uint256": {
        "encoding": "inplace",
        "label": "uint256",
        "numberOfBytes": "32"
      },
      "t_uint32": {
        "encoding": "inplace",
        "label": "uint32",
        "numberOfBytes": "4"
      }
    }
  }
}