{
  "address": "0xc7056Faf96439E6689597c0aa3B940262Cc539Ff",
  "abi": [
    {
      "inputs": [
        {
          "internalType": "address",
          "name": "_feeToSetter",
          "type": "address"
        },
        {
          "internalType": "address",
          "name": "_baseToken",
          "type": "address"
        },
        {
          "internalType": "address",
          "name": "_dispenser",
          "type": "address"
        }
      ],
      "stateMutability": "nonpayable",
      "type": "constructor"
    },
    {
      "anonymous": false,
      "inputs": [
        {
          "indexed": true,
          "internalType": "address",
          "name": "sender",
          "type": "address"
        },
        {
          "indexed": false,
          "internalType": "bytes32",
          "name": "tokenHash",
          "type": "bytes32"
        },
        {
          "indexed": true,
          "internalType": "address",
          "name": "baseToken",
          "type": "address"
        },
        {
          "indexed": false,
          "internalType": "address",
          "name": "pair",
          "type": "address"
        },
        {
          "indexed": false,
          "internalType": "uint256",
          "name": "allPairsLength",
          "type": "uint256"
        }
      ],
      "name": "PairCreated",
      "type": "event"
    },
    {
      "inputs": [
        {
          "internalType": "uint256",
          "name": "",
          "type": "uint256"
        }
      ],
      "name": "allPairs",
      "outputs": [
        {
          "internalType": "address",
          "name": "",
          "type": "address"
        }
      ],
      "stateMutability": "view",
      "type": "function"
    },
    {
      "inputs": [],
      "name": "allPairsLength",
      "outputs": [
        {
          "internalType": "uint256",
          "name": "",
          "type": "uint256"
        }
      ],
      "stateMutability": "view",
      "type": "function"
    },
    {
      "inputs": [],
      "name": "baseToken",
      "outputs": [
        {
          "internalType": "address",
          "name": "",
          "type": "address"
        }
      ],
      "stateMutability": "view",
      "type": "function"
    },
    {
      "inputs": [
        {
          "internalType": "bytes32",
          "name": "tokenHash",
          "type": "bytes32"
        }
      ],
      "name": "createPair",
      "outputs": [
        {
          "internalType": "address",
          "name": "pair",
          "type": "address"
        }
      ],
      "stateMutability": "nonpayable",
      "type": "function"
    },
    {
      "inputs": [],
      "name": "dispenser",
      "outputs": [
        {
          "internalType": "address",
          "name": "",
          "type": "address"
        }
      ],
      "stateMutability": "view",
      "type": "function"
    },
    {
      "inputs": [],
      "name": "feeTo",
      "outputs": [
        {
          "internalType": "address",
          "name": "",
          "type": "address"
        }
      ],
      "stateMutability": "view",
      "type": "function"
    },
    {
      "inputs": [],
      "name": "feeToSetter",
      "outputs": [
        {
          "internalType": "address",
          "name": "",
          "type": "address"
        }
      ],
      "stateMutability": "view",
      "type": "function"
    },
    {
      "inputs": [
        {
          "internalType": "bytes32",
          "name": "",
          "type": "bytes32"
        }
      ],
      "name": "getPair",
      "outputs": [
        {
          "internalType": "address",
          "name": "",
          "type": "address"
        }
      ],
      "stateMutability": "view",
      "type": "function"
    },
    {
      "inputs": [
        {
          "internalType": "address",
          "name": "_feeTo",
          "type": "address"
        }
      ],
      "name": "setFeeTo",
      "outputs": [],
      "stateMutability": "nonpayable",
      "type": "function"
    },
    {
      "inputs": [
        {
          "internalType": "address",
          "name": "_feeToSetter",
          "type": "address"
        }
      ],
      "name": "setFeeToSetter",
      "outputs": [],
      "stateMutability": "nonpayable",
      "type": "function"
    }
  ],
  "transactionHash": "0xe9bd073844307a9c18c736ce0e68b118577029d96b52791ef789234aa5d8283e",
  "args": [
    "0xaDb2Ce8343Ea0cEB3828AD1C7788BCbE2dfcb76D",
    "0x6792FB8C067D7cDF965F3e249cDC1de1eD768766",
    "0x4F12D00Ce3AD7Ad15429782640E76585a8491bb8"
  ],
  "solcInputHash": "39212d748706f420edc0ecf223eec088",
  "bytecode": "0x60c060405234801561001057600080fd5b50604051612e47380380612e478339818101604052606081101561003357600080fd5b5080516020820151604090920151600180546001600160a01b0319166001600160a01b03938416179055606083811b6001600160601b03199081166080529082901b1660a0529181169116612d9d6100aa600039806102d852806103ea5250806102b4528061040b52806105245250612d9d6000f3fe608060405234801561001057600080fd5b50600436106100be5760003560e01c8063b8e5303d11610076578063e09d894d1161005b578063e09d894d14610173578063ed25a5a21461017b578063f46901ed14610198576100be565b8063b8e5303d1461014e578063c55dae631461016b576100be565b80631e3dd18b116100a75780631e3dd18b146100ef578063574f2ba31461010c578063a2e74af614610126576100be565b8063017e7e58146100c3578063094b7415146100e7575b600080fd5b6100cb6101be565b604080516001600160a01b039092168252519081900360200190f35b6100cb6101cd565b6100cb6004803603602081101561010557600080fd5b50356101dc565b610114610203565b60408051918252519081900360200190f35b61014c6004803603602081101561013c57600080fd5b50356001600160a01b0316610209565b005b6100cb6004803603602081101561016457600080fd5b5035610297565b6100cb6102b2565b6100cb6102d6565b6100cb6004803603602081101561019157600080fd5b50356102fa565b61014c600480360360208110156101ae57600080fd5b50356001600160a01b031661057b565b6000546001600160a01b031681565b6001546001600160a01b031681565b600381815481106101e957fe5b6000918252602090912001546001600160a01b0316905081565b60035490565b6001546001600160a01b03163314610268576040805162461bcd60e51b815260206004820152601460248201527f556e697377617056323a20464f5242494444454e000000000000000000000000604482015290519081900360640190fd5b6001805473ffffffffffffffffffffffffffffffffffffffff19166001600160a01b0392909216919091179055565b6002602052600090815260409020546001600160a01b031681565b7f000000000000000000000000000000000000000000000000000000000000000081565b7f000000000000000000000000000000000000000000000000000000000000000081565b6000818152600260205260408120546001600160a01b031615610364576040805162461bcd60e51b815260206004820152601660248201527f556e697377617056323a20504149525f45584953545300000000000000000000604482015290519081900360640190fd5b60606040518060200161037690610609565b7fffffffffffffffffffffffffffffffffffffffffffffffffffffffffffffffe082820381018352601f9091011660408181526020828101879052815180840382018152928201909152815191810191909120825192935091829184016000f59250826001600160a01b03166388b117b3857f00000000000000000000000000000000000000000000000000000000000000007f00000000000000000000000000000000000000000000000000000000000000006040518463ffffffff1660e01b815260040180848152602001836001600160a01b03168152602001826001600160a01b031681526020019350505050600060405180830381600087803b15801561048057600080fd5b505af1158015610494573d6000803e3d6000fd5b505050600085815260026020908152604080832080546001600160a01b03808a1673ffffffffffffffffffffffffffffffffffffffff19928316811790935560038054600181018255968190527fc2575a0e9e593c00f959f8c92f12db2869c3395a3b0502d05e2516446f71f85b90960180549092168317909155935482518a81529384019190915282820152517f0000000000000000000000000000000000000000000000000000000000000000909216925033917f4347922e9520a790addae2eb379f88c90ab93fa57a96a51ece62cbc91197f22b9181900360600190a35050919050565b6001546001600160a01b031633146105da576040805162461bcd60e51b815260206004820152601460248201527f556e697377617056323a20464f5242494444454e000000000000000000000000604482015290519081900360640190fd5b6000805473ffffffffffffffffffffffffffffffffffffffff19166001600160a01b0392909216919091179055565b612751806106178339019056fe60806040526001600d5534801561001557600080fd5b50604080518082018252600a8152692ab734b9bbb0b8102b1960b11b6020918201528151808301835260018152603160f81b9082015281517f8b73c3c69bb8fe3d512ecc4cf759cc79239f7b179b0ffacaa9a75d522b39400f818301527fbfcc8ef98ffbf7b6c3fec7bf5185b566b9863e35a9d83acd49ad6824b5969738818401527fc89efdaa54c0f20c7adf612882df0950f5a951637e0307cdcb4c672f298b8bc660608201524660808201523060a0808301919091528351808303909101815260c09091019092528151910120600355600580546001600160a01b03191633179055612649806101086000396000f3fe608060405234801561001057600080fd5b50600436106101e55760003560e01c806388b117b31161010f578063c55dae63116100a2578063d505accf11610071578063d505accf146105cb578063dd62ed3e1461061c578063e09d894d1461064a578063fff6cae914610652576101e5565b8063c55dae6314610592578063c5700a021461059a578063cbcb3171146105bb578063cca49473146105c3576101e5565b8063adb5a665116100de578063adb5a6651461051c578063ba9a7a5614610540578063bc25cf7714610548578063c45a01551461056e576101e5565b806388b117b31461047557806389afcb44146104a957806395d89b41146104e8578063a9059cbb146104f0576101e5565b806330adf81f116101875780636a627842116101565780636a627842146103fb57806370a08231146104215780637464fc3d146104475780637ecebe001461044f576101e5565b806330adf81f146103c5578063313ce567146103cd5780633644e515146103eb578063431140a2146103f3576101e5565b8063095ea7b3116101c3578063095ea7b31461032d5780630dd0fd871461036d57806318160ddd1461038757806323b872dd1461038f576101e5565b8063022c0d9f146101ea57806306fdde03146102785780630902f1ac146102f5575b600080fd5b6102766004803603608081101561020057600080fd5b8135916020810135916001600160a01b03604083013516919081019060808101606082013564010000000081111561023757600080fd5b82018360208201111561024957600080fd5b8035906020019184600183028401116401000000008311171561026b57600080fd5b50909250905061065a565b005b610280610b7e565b6040805160208082528351818301528351919283929083019185019080838360005b838110156102ba5781810151838201526020016102a2565b50505050905090810190601f1680156102e75780820380516001836020036101000a031916815260200191505b509250505060405180910390f35b6102fd610bb7565b604080516001600160701b03948516815292909316602083015263ffffffff168183015290519081900360600190f35b6103596004803603604081101561034357600080fd5b506001600160a01b038135169060200135610be1565b604080519115158252519081900360200190f35b610375610bf8565b60408051918252519081900360200190f35b610375610bfe565b610359600480360360608110156103a557600080fd5b506001600160a01b03813581169160208101359091169060400135610c04565b610375610cb6565b6103d5610cda565b6040805160ff9092168252519081900360200190f35b610375610cdf565b610375610ce5565b6103756004803603602081101561041157600080fd5b50356001600160a01b0316610ceb565b6103756004803603602081101561043757600080fd5b50356001600160a01b0316610fdd565b610375610fef565b6103756004803603602081101561046557600080fd5b50356001600160a01b0316610ff5565b6102766004803603606081101561048b57600080fd5b508035906001600160a01b0360208201358116916040013516611007565b6104cf600480360360208110156104bf57600080fd5b50356001600160a01b03166110b2565b6040805192835260208301919091528051918290030190f35b610280611479565b6103596004803603604081101561050657600080fd5b506001600160a01b0381351690602001356114b2565b6105246114bf565b604080516001600160701b039092168252519081900360200190f35b6103756114d5565b6102766004803603602081101561055e57600080fd5b50356001600160a01b03166114db565b610576611655565b604080516001600160a01b039092168252519081900360200190f35b610576611664565b6105a2611673565b6040805163ffffffff9092168252519081900360200190f35b610524611686565b610375611695565b610276600480360360e08110156105e157600080fd5b506001600160a01b03813581169160208101359091169060408101359060608101359060ff6080820135169060a08101359060c0013561169b565b6103756004803603604081101561063257600080fd5b506001600160a01b03813581169160200135166118c3565b6105766118e0565b6102766118ef565b600d546001146106b1576040805162461bcd60e51b815260206004820152601160248201527f556e697377617056323a204c4f434b4544000000000000000000000000000000604482015290519081900360640190fd5b6000600d55841515806106c45750600084115b6106ff5760405162461bcd60e51b81526004018080602001828103825260258152602001806125146025913960400191505060405180910390fd5b60008061070a610bb7565b5091509150816001600160701b03168710801561072f5750806001600160701b031686105b61076a5760405162461bcd60e51b815260040180806020018281038252602181526020018061255d6021913960400191505060405180910390fd5b60085460075460009182916001600160a01b03898116911614156107d5576040805162461bcd60e51b815260206004820152601560248201527f556e697377617056323a20494e56414c49445f544f0000000000000000000000604482015290519081900360640190fd5b89156107e6576107e681898c611a67565b881561080357600754610803906001600160a01b0316898b611bf7565b85156108b557876001600160a01b03166310d1e85c338c8c8b8b6040518663ffffffff1660e01b815260040180866001600160a01b03168152602001858152602001848152602001806020018281038252848482818152602001925080828437600081840152601f19601f8201169050808301925050509650505050505050600060405180830381600087803b15801561089c57600080fd5b505af11580156108b0573d6000803e3d6000fd5b505050505b600654604080516326985b5f60e11b81523060048201526024810184905290516001600160a01b0390921691634d30b6be91604480820192602092909190829003018186803b15801561090757600080fd5b505afa15801561091b573d6000803e3d6000fd5b505050506040513d602081101561093157600080fd5b5051600754604080516370a0823160e01b815230600482015290519295506001600160a01b03909116916370a0823191602480820192602092909190829003018186803b15801561098157600080fd5b505afa158015610995573d6000803e3d6000fd5b505050506040513d60208110156109ab57600080fd5b50519150600090506001600160701b0385168a900383116109cd5760006109dc565b89856001600160701b03160383035b9050600089856001600160701b03160383116109f9576000610a08565b89856001600160701b03160383035b90506000821180610a195750600081115b610a545760405162461bcd60e51b81526004018080602001828103825260248152602001806125396024913960400191505060405180910390fd5b6000610a76610a64846003611d8d565b610a70876103e8611d8d565b90611ded565b90506000610a88610a64846003611d8d565b9050610aad620f4240610aa76001600160701b038b8116908b16611d8d565b90611d8d565b610ab78383611d8d565b1015610b0a576040805162461bcd60e51b815260206004820152600c60248201527f556e697377617056323a204b0000000000000000000000000000000000000000604482015290519081900360640190fd5b5050610b1884848888611e2f565b60408051838152602081018390528082018d9052606081018c905290516001600160a01b038b169133917fd78ad95fa46c994b6551d0da85fc275fe613ce37657fb8d5e3d130840159d8229181900360800190a350506001600d55505050505050505050565b6040518060400160405280600a81526020017f556e69737761702056320000000000000000000000000000000000000000000081525081565b6009546001600160701b0380821692600160701b830490911691600160e01b900463ffffffff1690565b6000610bee338484612017565b5060015b92915050565b600a5481565b60005481565b6001600160a01b03831660009081526002602090815260408083203384529091528120547fffffffffffffffffffffffffffffffffffffffffffffffffffffffffffffffff14610ca1576001600160a01b0384166000908152600260209081526040808320338452909152902054610c7c9083611ded565b6001600160a01b03851660009081526002602090815260408083203384529091529020555b610cac848484612079565b5060019392505050565b7f6e71edae12b1b97f4d1f60370fef10105fa2faae0126114a169c64845d6126c981565b601281565b60035481565b600b5481565b6000600d54600114610d44576040805162461bcd60e51b815260206004820152601160248201527f556e697377617056323a204c4f434b4544000000000000000000000000000000604482015290519081900360640190fd5b6000600d81905580610d54610bb7565b50600654600854604080516326985b5f60e11b81523060048201526024810192909252519395509193506000926001600160a01b0390911691634d30b6be916044808301926020929190829003018186803b158015610db257600080fd5b505afa158015610dc6573d6000803e3d6000fd5b505050506040513d6020811015610ddc57600080fd5b5051600754604080516370a0823160e01b815230600482015290519293506000926001600160a01b03909216916370a0823191602480820192602092909190829003018186803b158015610e2f57600080fd5b505afa158015610e43573d6000803e3d6000fd5b505050506040513d6020811015610e5957600080fd5b505190506000610e72836001600160701b038716611ded565b90506000610e89836001600160701b038716611ded565b90506000610e978787612127565b60005490915080610ece57610eba6103e8610a70610eb58787611d8d565b612267565b9850610ec960006103e86122b9565b610f11565b610f0e6001600160701b038916610ee58684611d8d565b81610eec57fe5b046001600160701b038916610f018685611d8d565b81610f0857fe5b04612343565b98505b60008911610f505760405162461bcd60e51b81526004018080602001828103825260288152602001806125a66028913960400191505060405180910390fd5b610f5a8a8a6122b9565b610f6686868a8a611e2f565b8115610f9057600954610f8c906001600160701b0380821691600160701b900416611d8d565b600c555b6040805185815260208101859052815133927f4c209b5fc8ad50758f13e2e1088ba56a560dff690a1c6fef26394f4c03821c4f928290030190a250506001600d5550949695505050505050565b60016020526000908152604090205481565b600c5481565b60046020526000908152604090205481565b6005546001600160a01b03163314611066576040805162461bcd60e51b815260206004820152601460248201527f556e697377617056323a20464f5242494444454e000000000000000000000000604482015290519081900360640190fd5b600892909255600680546001600160a01b039283167fffffffffffffffffffffffff00000000000000000000000000000000000000009182161790915560078054929093169116179055565b600080600d5460011461110c576040805162461bcd60e51b815260206004820152601160248201527f556e697377617056323a204c4f434b4544000000000000000000000000000000604482015290519081900360640190fd5b6000600d8190558061111c610bb7565b50600854600654604080516326985b5f60e11b815230600482015260248101849052905194965092945090926000926001600160a01b0390921691634d30b6be916044808301926020929190829003018186803b15801561117c57600080fd5b505afa158015611190573d6000803e3d6000fd5b505050506040513d60208110156111a657600080fd5b5051600754604080516370a0823160e01b815230600482015290519293506000926001600160a01b03909216916370a0823191602480820192602092909190829003018186803b1580156111f957600080fd5b505afa15801561120d573d6000803e3d6000fd5b505050506040513d602081101561122357600080fd5b5051306000908152600160205260408120549192506112428787612127565b600054909150806112538487611d8d565b8161125a57fe5b049950806112688486611d8d565b8161126f57fe5b04985060008a1180156112825750600089115b6112bd5760405162461bcd60e51b815260040180806020018281038252602881526020018061257e6028913960400191505060405180910390fd5b6112c73084612359565b6112d2868c8c611a67565b6007546112e9906001600160a01b03168c8b611bf7565b600654600854604080516326985b5f60e11b81523060048201526024810192909252516001600160a01b0390921691634d30b6be91604480820192602092909190829003018186803b15801561133e57600080fd5b505afa158015611352573d6000803e3d6000fd5b505050506040513d602081101561136857600080fd5b5051600754604080516370a0823160e01b815230600482015290519297506001600160a01b03909116916370a0823191602480820192602092909190829003018186803b1580156113b857600080fd5b505afa1580156113cc573d6000803e3d6000fd5b505050506040513d60208110156113e257600080fd5b505193506113f285858a8a611e2f565b811561141c57600954611418906001600160701b0380821691600160701b900416611d8d565b600c555b604080518b8152602081018b905281516001600160a01b038e169233927fdccd412f0b1252819cb1fd330b93224ca42612892bb3f4f789976e6d81936496929081900390910190a350505050505050506001600d81905550915091565b6040518060400160405280600681526020017f554e492d5632000000000000000000000000000000000000000000000000000081525081565b6000610bee338484612079565b600954600160701b90046001600160701b031681565b6103e881565b600d54600114611532576040805162461bcd60e51b815260206004820152601160248201527f556e697377617056323a204c4f434b4544000000000000000000000000000000604482015290519081900360640190fd5b6000600d55600854600954600654604080516326985b5f60e11b81523060048201526024810185905290516115de93859387936115d9936001600160701b03909316926001600160a01b0390921691634d30b6be91604480820192602092909190829003018186803b1580156115a757600080fd5b505afa1580156115bb573d6000803e3d6000fd5b505050506040513d60208110156115d157600080fd5b505190611ded565b611a67565b600754600954604080516370a0823160e01b8152306004820152905161164c936001600160a01b031692869261164792600160701b9092046001600160701b03169185916370a08231916024808301926020929190829003018186803b1580156115a757600080fd5b611bf7565b50506001600d55565b6005546001600160a01b031681565b6007546001600160a01b031681565b600954600160e01b900463ffffffff1681565b6009546001600160701b031681565b60085481565b428410156116f0576040805162461bcd60e51b815260206004820152601260248201527f556e697377617056323a20455850495245440000000000000000000000000000604482015290519081900360640190fd5b6003546001600160a01b0380891660008181526004602090815260408083208054600180820190925582517f6e71edae12b1b97f4d1f60370fef10105fa2faae0126114a169c64845d6126c98186015280840196909652958d166060860152608085018c905260a085019590955260c08085018b90528151808603909101815260e0850182528051908301207f19010000000000000000000000000000000000000000000000000000000000006101008601526101028501969096526101228085019690965280518085039096018652610142840180825286519683019690962095839052610162840180825286905260ff89166101828501526101a284018890526101c28401879052519193926101e280820193601f1981019281900390910190855afa158015611826573d6000803e3d6000fd5b5050604051601f1901519150506001600160a01b0381161580159061185c5750886001600160a01b0316816001600160a01b0316145b6118ad576040805162461bcd60e51b815260206004820152601c60248201527f556e697377617056323a20494e56414c49445f5349474e415455524500000000604482015290519081900360640190fd5b6118b8898989612017565b505050505050505050565b600260209081526000928352604080842090915290825290205481565b6006546001600160a01b031681565b600d54600114611946576040805162461bcd60e51b815260206004820152601160248201527f556e697377617056323a204c4f434b4544000000000000000000000000000000604482015290519081900360640190fd5b6000600d55600654600854604080516326985b5f60e11b8152306004820152602481019290925251611a60926001600160a01b031691634d30b6be916044808301926020929190829003018186803b1580156119a157600080fd5b505afa1580156119b5573d6000803e3d6000fd5b505050506040513d60208110156119cb57600080fd5b5051600754604080516370a0823160e01b815230600482015290516001600160a01b03909216916370a0823191602480820192602092909190829003018186803b158015611a1857600080fd5b505afa158015611a2c573d6000803e3d6000fd5b505050506040513d6020811015611a4257600080fd5b50516009546001600160701b0380821691600160701b900416611e2f565b6001600d55565b600654604080513060248201526001600160a01b0385811660448301526064820187905260848083018690528351808403909101815260a490920183526020820180516001600160e01b03167f7fe6838100000000000000000000000000000000000000000000000000000000178152925182516000956060959316939282918083835b60208310611b0a5780518252601f199092019160209182019101611aeb565b6001836020036101000a0380198251168184511680821785525050505050509050019150506000604051808303816000865af19150503d8060008114611b6c576040519150601f19603f3d011682016040523d82523d6000602084013e611b71565b606091505b5091509150818015611b9f575080511580611b9f5750808060200190516020811015611b9c57600080fd5b50515b611bf0576040805162461bcd60e51b815260206004820181905260248201527f556e697377617056323a20544f4b454e5f5452414e534645525f4641494c4544604482015290519081900360640190fd5b5050505050565b604080518082018252601981527f7472616e7366657228616464726573732c75696e74323536290000000000000060209182015281516001600160a01b0385811660248301526044808301869052845180840390910181526064909201845291810180516001600160e01b03167fa9059cbb000000000000000000000000000000000000000000000000000000001781529251815160009460609489169392918291908083835b60208310611cbd5780518252601f199092019160209182019101611c9e565b6001836020036101000a0380198251168184511680821785525050505050509050019150506000604051808303816000865af19150503d8060008114611d1f576040519150601f19603f3d011682016040523d82523d6000602084013e611d24565b606091505b5091509150818015611d52575080511580611d525750808060200190516020811015611d4f57600080fd5b50515b611bf05760405162461bcd60e51b81526004018080602001828103825260258152602001806125ce6025913960400191505060405180910390fd5b600082611d9c57506000610bf2565b82820282848281611da957fe5b0414611de65760405162461bcd60e51b81526004018080602001828103825260218152602001806125f36021913960400191505060405180910390fd5b9392505050565b6000611de683836040518060400160405280601e81526020017f536166654d6174683a207375627472616374696f6e206f766572666c6f7700008152506123eb565b6001600160701b038411801590611e4d57506001600160701b038311155b611e9e576040805162461bcd60e51b815260206004820152601360248201527f556e697377617056323a204f564552464c4f5700000000000000000000000000604482015290519081900360640190fd5b60095463ffffffff42811691600160e01b90048116820390811615801590611ece57506001600160701b03841615155b8015611ee257506001600160701b03831615155b15611f4d578063ffffffff16611f0a85611efb86612482565b6001600160e01b031690612494565b600a80546001600160e01b03929092169290920201905563ffffffff8116611f3584611efb87612482565b600b80546001600160e01b0392909216929092020190555b600980547fffffffffffffffffffffffffffffffffffff0000000000000000000000000000166001600160701b03888116919091177fffffffff0000000000000000000000000000ffffffffffffffffffffffffffff16600160701b8883168102919091176001600160e01b0316600160e01b63ffffffff871602179283905560408051848416815291909304909116602082015281517f1c411e9a96e071241c2f21f7726b17ae89e3cab4c78be50e062b03a9fffbbad1929181900390910190a1505050505050565b6001600160a01b03808416600081815260026020908152604080832094871680845294825291829020859055815185815291517f8c5be1e5ebec7d5bd14f71427d1e84f3dd0314c0f7b2291e5b200ac8c7c3b9259281900390910190a3505050565b6001600160a01b03831660009081526001602052604090205461209c9082611ded565b6001600160a01b0380851660009081526001602052604080822093909355908416815220546120cb90826124b9565b6001600160a01b0380841660008181526001602090815260409182902094909455805185815290519193928716927fddf252ad1be2c89b69c2b068fc378daa952ba7f163c4a11628f55a4df523b3ef92918290030190a3505050565b600080600560009054906101000a90046001600160a01b03166001600160a01b031663017e7e586040518163ffffffff1660e01b815260040160206040518083038186803b15801561217857600080fd5b505afa15801561218c573d6000803e3d6000fd5b505050506040513d60208110156121a257600080fd5b5051600c546001600160a01b03821615801594509192509061225357801561224e5760006121df610eb56001600160701b03888116908816611d8d565b905060006121ec83612267565b90508082111561224b57600061220e6122058484611ded565b60005490611d8d565b9050600061222783612221866005611d8d565b906124b9565b9050600081838161223457fe5b04905080156122475761224787826122b9565b5050505b50505b61225f565b801561225f576000600c555b505092915050565b600060038211156122aa575080600160028204015b818110156122a45780915060028182858161229357fe5b04018161229c57fe5b04905061227c565b506122b4565b81156122b4575060015b919050565b6000546122c690826124b9565b60009081556001600160a01b0383168152600160205260409020546122eb90826124b9565b6001600160a01b03831660008181526001602090815260408083209490945583518581529351929391927fddf252ad1be2c89b69c2b068fc378daa952ba7f163c4a11628f55a4df523b3ef9281900390910190a35050565b60008183106123525781611de6565b5090919050565b6001600160a01b03821660009081526001602052604090205461237c9082611ded565b6001600160a01b038316600090815260016020526040812091909155546123a39082611ded565b60009081556040805183815290516001600160a01b038516917fddf252ad1be2c89b69c2b068fc378daa952ba7f163c4a11628f55a4df523b3ef919081900360200190a35050565b6000818484111561247a5760405162461bcd60e51b81526004018080602001828103825283818151815260200191508051906020019080838360005b8381101561243f578181015183820152602001612427565b50505050905090810190601f16801561246c5780820380516001836020036101000a031916815260200191505b509250505060405180910390fd5b505050900390565b6001600160701b0316600160701b0290565b60006001600160701b0382166001600160e01b038416816124b157fe5b049392505050565b600082820183811015611de6576040805162461bcd60e51b815260206004820152601b60248201527f536166654d6174683a206164646974696f6e206f766572666c6f770000000000604482015290519081900360640190fdfe556e697377617056323a20494e53554646494349454e545f4f55545055545f414d4f554e54556e697377617056323a20494e53554646494349454e545f494e5055545f414d4f554e54556e697377617056323a20494e53554646494349454e545f4c4951554944495459556e697377617056323a20494e53554646494349454e545f4c49515549444954595f4255524e4544556e697377617056323a20494e53554646494349454e545f4c49515549444954595f4d494e544544556e697377617056323a20424153455f544f4b454e5f5452414e534645525f4641494c4544536166654d6174683a206d756c7469706c69636174696f6e206f766572666c6f77a264697066735822122060ba02ba693a79812860b499a0571616a30a310cc019608e5e4b2fb66d9f4dc264736f6c634300060c0033a26469706673582212208d5bdb9a025c99a633320494e4722b2e8f71900e383be0b12eb0aec47ab7d38a64736f6c634300060c0033",
  "libraries": {
    "UniswapV2Pair": "0xafc0a1d21459a85c266d26B60c65a971BC85F4F9"
  },
  "devdoc": {
    "kind": "dev",
    "methods": {},
    "version": 1
  },
  "userdoc": {
    "kind": "user",
    "methods": {},
    "version": 1
  },
  "storageLayout": {
    "storage": [
      {
        "astId": 4871,
        "contract": "src/uniswap/factory/UniswapV2Factory.sol:UniswapV2Factory",
        "label": "feeTo",
        "offset": 0,
        "slot": "0",
        "type": "t_address"
      },
      {
        "astId": 4874,
        "contract": "src/uniswap/factory/UniswapV2Factory.sol:UniswapV2Factory",
        "label": "feeToSetter",
        "offset": 0,
        "slot": "1",
        "type": "t_address"
      },
      {
        "astId": 4885,
        "contract": "src/uniswap/factory/UniswapV2Factory.sol:UniswapV2Factory",
        "label": "getPair",
        "offset": 0,
        "slot": "2",
        "type": "t_mapping(t_bytes32,t_address)"
      },
      {
        "astId": 4889,
        "contract": "src/uniswap/factory/UniswapV2Factory.sol:UniswapV2Factory",
        "label": "allPairs",
        "offset": 0,
        "slot": "3",
        "type": "t_array(t_address)dyn_storage"
      }
    ],
    "types": {
      "t_address": {
        "encoding": "inplace",
        "label": "address",
        "numberOfBytes": "20"
      },
      "t_array(t_address)dyn_storage": {
        "base": "t_address",
        "encoding": "dynamic_array",
        "label": "address[]",
        "numberOfBytes": "32"
      },
      "t_bytes32": {
        "encoding": "inplace",
        "label": "bytes32",
        "numberOfBytes": "32"
      },
      "t_mapping(t_bytes32,t_address)": {
        "encoding": "mapping",
        "key": "t_bytes32",
        "label": "mapping(bytes32 => address)",
        "numberOfBytes": "32",
        "value": "t_address"
      }
    }
  }
}