{
  "_format": "hh-sol-artifact-1",
  "contractName": "Bridge",
  "sourceName": "src/bridge/Bridge.sol",
  "abi": [
    {
      "inputs": [],
      "stateMutability": "nonpayable",
      "type": "constructor"
    },
    {
      "anonymous": false,
      "inputs": [
        {
          "indexed": true,
          "internalType": "address",
          "name": "recipient",
          "type": "address"
        },
        {
          "indexed": false,
          "internalType": "uint256",
          "name": "value",
          "type": "uint256"
        }
      ],
      "name": "Deposit",
      "type": "event"
    },
    {
      "anonymous": false,
      "inputs": [
        {
          "indexed": true,
          "internalType": "address",
          "name": "sender",
          "type": "address"
        },
        {
          "indexed": false,
          "internalType": "uint256",
          "name": "value",
          "type": "uint256"
        },
        {
          "indexed": true,
          "internalType": "address",
          "name": "recipient",
          "type": "address"
        }
      ],
      "name": "DepositFor",
      "type": "event"
    },
    {
      "anonymous": false,
      "inputs": [
        {
          "indexed": true,
          "internalType": "address",
          "name": "sender",
          "type": "address"
        },
        {
          "indexed": false,
          "internalType": "uint256",
          "name": "amount",
          "type": "uint256"
        },
        {
          "indexed": true,
          "internalType": "address",
          "name": "recipient",
          "type": "address"
        },
        {
          "indexed": true,
          "internalType": "address",
          "name": "tokenAddress",
          "type": "address"
        }
      ],
      "name": "DepositTokenFor",
      "type": "event"
    },
    {
      "anonymous": false,
      "inputs": [
        {
          "indexed": true,
          "internalType": "address",
          "name": "token",
          "type": "address"
        },
        {
          "indexed": false,
          "internalType": "uint256",
          "name": "depositValue",
          "type": "uint256"
        },
        {
          "indexed": false,
          "internalType": "uint256",
          "name": "fee",
          "type": "uint256"
        },
        {
          "indexed": false,
          "internalType": "uint256",
          "name": "withdrawAmount",
          "type": "uint256"
        },
        {
          "indexed": false,
          "internalType": "bytes32",
          "name": "txHash",
          "type": "bytes32"
        },
        {
          "indexed": true,
          "internalType": "address",
          "name": "recipient",
          "type": "address"
        },
        {
          "indexed": false,
          "internalType": "bytes32",
          "name": "depositId",
          "type": "bytes32"
        }
      ],
      "name": "DepositWithdrawn",
      "type": "event"
    },
    {
      "anonymous": false,
      "inputs": [
        {
          "indexed": true,
          "internalType": "address",
          "name": "previousOwner",
          "type": "address"
        },
        {
          "indexed": true,
          "internalType": "address",
          "name": "newOwner",
          "type": "address"
        }
      ],
      "name": "OwnershipTransferred",
      "type": "event"
    },
    {
      "anonymous": false,
      "inputs": [
        {
          "indexed": true,
          "internalType": "address",
          "name": "sender",
          "type": "address"
        },
        {
          "indexed": true,
          "internalType": "address",
          "name": "token",
          "type": "address"
        },
        {
          "indexed": false,
          "internalType": "uint256",
          "name": "value",
          "type": "uint256"
        },
        {
          "indexed": true,
          "internalType": "address",
          "name": "recipient",
          "type": "address"
        }
      ],
      "name": "TokenWithdrawal",
      "type": "event"
    },
    {
      "anonymous": false,
      "inputs": [
        {
          "indexed": true,
          "internalType": "address",
          "name": "src",
          "type": "address"
        },
        {
          "indexed": false,
          "internalType": "uint256",
          "name": "value",
          "type": "uint256"
        }
      ],
      "name": "Withdrawal",
      "type": "event"
    },
    {
      "anonymous": false,
      "inputs": [
        {
          "indexed": true,
          "internalType": "address",
          "name": "sender",
          "type": "address"
        },
        {
          "indexed": false,
          "internalType": "uint256",
          "name": "value",
          "type": "uint256"
        },
        {
          "indexed": true,
          "internalType": "address",
          "name": "recipient",
          "type": "address"
        }
      ],
      "name": "WithdrawalTo",
      "type": "event"
    },
    {
      "inputs": [
        {
          "internalType": "address",
          "name": "account",
          "type": "address"
        }
      ],
      "name": "balanceOf",
      "outputs": [
        {
          "internalType": "uint256",
          "name": "",
          "type": "uint256"
        }
      ],
      "stateMutability": "view",
      "type": "function"
    },
    {
      "inputs": [
        {
          "internalType": "address[]",
          "name": "tokens",
          "type": "address[]"
        }
      ],
      "name": "balanceOfBatch",
      "outputs": [
        {
          "internalType": "uint256[]",
          "name": "",
          "type": "uint256[]"
        }
      ],
      "stateMutability": "view",
      "type": "function"
    },
    {
      "inputs": [
        {
          "internalType": "address",
          "name": "token",
          "type": "address"
        }
      ],
      "name": "balanceOfToken",
      "outputs": [
        {
          "internalType": "uint256",
          "name": "",
          "type": "uint256"
        }
      ],
      "stateMutability": "view",
      "type": "function"
    },
    {
      "inputs": [],
      "name": "deposit",
      "outputs": [],
      "stateMutability": "payable",
      "type": "function"
    },
    {
      "inputs": [
        {
          "internalType": "address",
          "name": "recipient",
          "type": "address"
        }
      ],
      "name": "depositFor",
      "outputs": [],
      "stateMutability": "payable",
      "type": "function"
    },
    {
      "inputs": [
        {
          "internalType": "address",
          "name": "tokenAddress",
          "type": "address"
        },
        {
          "internalType": "uint256",
          "name": "amount",
          "type": "uint256"
        },
        {
          "internalType": "address",
          "name": "recipient",
          "type": "address"
        }
      ],
      "name": "depositTokenFor",
      "outputs": [],
      "stateMutability": "nonpayable",
      "type": "function"
    },
    {
      "inputs": [
        {
          "internalType": "address",
          "name": "tokenAddress",
          "type": "address"
        },
        {
          "internalType": "uint256",
          "name": "amount",
          "type": "uint256"
        },
        {
          "internalType": "address",
          "name": "recipient",
          "type": "address"
        },
        {
          "internalType": "uint256",
          "name": "permitNonce",
          "type": "uint256"
        },
        {
          "internalType": "uint256",
          "name": "permitExpiry",
          "type": "uint256"
        },
        {
          "internalType": "uint8",
          "name": "permitV",
          "type": "uint8"
        },
        {
          "internalType": "bytes32",
          "name": "permitR",
          "type": "bytes32"
        },
        {
          "internalType": "bytes32",
          "name": "permitS",
          "type": "bytes32"
        }
      ],
      "name": "depositWithPermit",
      "outputs": [],
      "stateMutability": "nonpayable",
      "type": "function"
    },
    {
      "inputs": [],
      "name": "owner",
      "outputs": [
        {
          "internalType": "address",
          "name": "",
          "type": "address"
        }
      ],
      "stateMutability": "view",
      "type": "function"
    },
    {
      "inputs": [],
      "name": "renounceOwnership",
      "outputs": [],
      "stateMutability": "nonpayable",
      "type": "function"
    },
    {
      "inputs": [
        {
          "internalType": "address",
          "name": "newOwner",
          "type": "address"
        }
      ],
      "name": "transferOwnership",
      "outputs": [],
      "stateMutability": "nonpayable",
      "type": "function"
    },
    {
      "inputs": [
        {
          "internalType": "uint256",
          "name": "value",
          "type": "uint256"
        }
      ],
      "name": "withdraw",
      "outputs": [],
      "stateMutability": "nonpayable",
      "type": "function"
    },
    {
      "inputs": [
        {
          "internalType": "address",
          "name": "token",
          "type": "address"
        },
        {
          "internalType": "uint256",
          "name": "depositValue",
          "type": "uint256"
        },
        {
          "internalType": "uint256",
          "name": "fee",
          "type": "uint256"
        },
        {
          "internalType": "bytes32",
          "name": "txHash",
          "type": "bytes32"
        },
        {
          "internalType": "address",
          "name": "recipient",
          "type": "address"
        }
      ],
      "name": "withdrawDeposit",
      "outputs": [],
      "stateMutability": "nonpayable",
      "type": "function"
    },
    {
      "inputs": [
        {
          "internalType": "address[]",
          "name": "tokens",
          "type": "address[]"
        },
        {
          "internalType": "uint256[]",
          "name": "depositValues",
          "type": "uint256[]"
        },
        {
          "internalType": "uint256[]",
          "name": "fees",
          "type": "uint256[]"
        },
        {
          "internalType": "bytes32[]",
          "name": "txHashes",
          "type": "bytes32[]"
        },
        {
          "internalType": "address[]",
          "name": "recipients",
          "type": "address[]"
        }
      ],
      "name": "withdrawDepositsBatch",
      "outputs": [],
      "stateMutability": "nonpayable",
      "type": "function"
    },
    {
      "inputs": [
        {
          "internalType": "address",
          "name": "recipient",
          "type": "address"
        },
        {
          "internalType": "uint256",
          "name": "value",
          "type": "uint256"
        }
      ],
      "name": "withdrawTo",
      "outputs": [],
      "stateMutability": "nonpayable",
      "type": "function"
    },
    {
      "inputs": [
        {
          "internalType": "address",
          "name": "token",
          "type": "address"
        },
        {
          "internalType": "uint256",
          "name": "value",
          "type": "uint256"
        },
        {
          "internalType": "address",
          "name": "recipient",
          "type": "address"
        }
      ],
      "name": "withdrawToken",
      "outputs": [],
      "stateMutability": "nonpayable",
      "type": "function"
    },
    {
      "inputs": [
        {
          "internalType": "address[]",
          "name": "tokens",
          "type": "address[]"
        },
        {
          "internalType": "uint256[]",
          "name": "values",
          "type": "uint256[]"
        },
        {
          "internalType": "address[]",
          "name": "recipients",
          "type": "address[]"
        }
      ],
      "name": "withdrawTokens",
      "outputs": [],
      "stateMutability": "nonpayable",
      "type": "function"
    },
    {
      "inputs": [
        {
          "internalType": "bytes32",
          "name": "depositId",
          "type": "bytes32"
        }
      ],
      "name": "withdrawnDepositStatus",
      "outputs": [
        {
          "internalType": "bool",
          "name": "",
          "type": "bool"
        }
      ],
      "stateMutability": "view",
      "type": "function"
    },
    {
      "stateMutability": "payable",
      "type": "receive"
    }
  ],
  "bytecode": "0x608060405234801561001057600080fd5b50600061001b61006a565b600080546001600160a01b0319166001600160a01b0383169081178255604051929350917f8be0079c531659141344cd1fd0a4f28419497f9722a3daafe3b4186f6b6457e0908290a35061006e565b3390565b611b8e8061007d6000396000f3fe6080604052600436106101125760003560e01c8063715018a6116100a5578063ab3a9f3211610074578063b99152d011610059578063b99152d014610763578063d0e30db014610796578063f2fde38b1461079e57610121565b8063ab3a9f321461055b578063b1379c561461059e57610121565b8063715018a6146103ce5780637d3aeb19146103e35780638da5cb5b14610504578063aa67c9191461053557610121565b80633ccdbb28116100e15780633ccdbb2814610216578063458c738e146102595780634c7028d01461032657806370a082311461038957610121565b80630de6f4ce14610126578063205c2878146101645780632685e2ba1461019d5780632e1a7d4d146101ec57610121565b366101215761011f6107d1565b005b600080fd5b34801561013257600080fd5b506101506004803603602081101561014957600080fd5b5035610836565b604080519115158252519081900360200190f35b34801561017057600080fd5b5061011f6004803603604081101561018757600080fd5b506001600160a01b03813516906020013561084b565b3480156101a957600080fd5b5061011f600480360360a08110156101c057600080fd5b506001600160a01b03813581169160208101359160408201359160608101359160809091013516610899565b3480156101f857600080fd5b5061011f6004803603602081101561020f57600080fd5b5035610b06565b34801561022257600080fd5b5061011f6004803603606081101561023957600080fd5b506001600160a01b03813581169160208101359160409091013516610b49565b34801561026557600080fd5b506102d66004803603602081101561027c57600080fd5b81019060208101813564010000000081111561029757600080fd5b8201836020820111156102a957600080fd5b803590602001918460208302840111640100000000831117156102cb57600080fd5b509092509050610cb9565b60408051602080825283518183015283519192839290830191858101910280838360005b838110156103125781810151838201526020016102fa565b505050509050019250505060405180910390f35b34801561033257600080fd5b5061011f600480360361010081101561034a57600080fd5b506001600160a01b0381358116916020810135916040820135169060608101359060808101359060ff60a0820135169060c08101359060e00135610dcf565b34801561039557600080fd5b506103bc600480360360208110156103ac57600080fd5b50356001600160a01b0316610f2c565b60408051918252519081900360200190f35b3480156103da57600080fd5b5061011f610f47565b3480156103ef57600080fd5b5061011f6004803603606081101561040657600080fd5b81019060208101813564010000000081111561042157600080fd5b82018360208201111561043357600080fd5b8035906020019184602083028401116401000000008311171561045557600080fd5b91939092909160208101903564010000000081111561047357600080fd5b82018360208201111561048557600080fd5b803590602001918460208302840111640100000000831117156104a757600080fd5b9193909290916020810190356401000000008111156104c557600080fd5b8201836020820111156104d757600080fd5b803590602001918460208302840111640100000000831117156104f957600080fd5b50909250905061101d565b34801561051057600080fd5b506105196112b7565b604080516001600160a01b039092168252519081900360200190f35b61011f6004803603602081101561054b57600080fd5b50356001600160a01b03166112c6565b34801561056757600080fd5b5061011f6004803603606081101561057e57600080fd5b506001600160a01b03813581169160208101359160409091013516611374565b3480156105aa57600080fd5b5061011f600480360360a08110156105c157600080fd5b8101906020810181356401000000008111156105dc57600080fd5b8201836020820111156105ee57600080fd5b8035906020019184602083028401116401000000008311171561061057600080fd5b91939092909160208101903564010000000081111561062e57600080fd5b82018360208201111561064057600080fd5b8035906020019184602083028401116401000000008311171561066257600080fd5b91939092909160208101903564010000000081111561068057600080fd5b82018360208201111561069257600080fd5b803590602001918460208302840111640100000000831117156106b457600080fd5b9193909290916020810190356401000000008111156106d257600080fd5b8201836020820111156106e457600080fd5b8035906020019184602083028401116401000000008311171561070657600080fd5b91939092909160208101903564010000000081111561072457600080fd5b82018360208201111561073657600080fd5b8035906020019184602083028401116401000000008311171561075857600080fd5b50909250905061145d565b34801561076f57600080fd5b506103bc6004803603602081101561078657600080fd5b50356001600160a01b03166115c9565b61011f6107d1565b3480156107aa57600080fd5b5061011f600480360360208110156107c157600080fd5b50356001600160a01b03166115db565b336000908152600160205260409020546107eb9034611707565b33600081815260016020908152604091829020939093558051348152905191927fe1fffcc4923d04b559f4d29a8bfc6cda04eb5b0d3c460751c2402c5c5cc9109c92918290030190a2565b60009081526002602052604090205460ff1690565b6108558282611768565b6040805182815290516001600160a01b0384169133917f9b1fda80b80509667a61803f963aa15e16b5c6da8e470b39fe99f6d89be4e18c9181900360200190a35050565b6108a16117df565b6001600160a01b03166108b26112b7565b6001600160a01b03161461090d576040805162461bcd60e51b815260206004820181905260248201527f4f776e61626c653a2063616c6c6572206973206e6f7420746865206f776e6572604482015290519081900360640190fd5b604080517fffffffffffffffffffffffffffffffffffffffff000000000000000000000000606088901b166020808301919091526034820187905260548083018690528351808403909101815260749092018352815191810191909120600081815260029092529190205460ff16156109b75760405162461bcd60e51b8152600401808060200182810382526031815260200180611b286031913960400191505060405180910390fd5b60006109c386866117e3565b90506001600160a01b03871615610a5d57866001600160a01b031663a9059cbb84836040518363ffffffff1660e01b815260040180836001600160a01b0316815260200182815260200192505050602060405180830381600087803b158015610a2b57600080fd5b505af1158015610a3f573d6000803e3d6000fd5b505050506040513d6020811015610a5557600080fd5b50610a679050565b610a678382611768565b60008281526002602090815260409182902080547fffffffffffffffffffffffffffffffffffffffffffffffffffffffffffffff001660011790558151888152908101879052808201839052606081018690526080810184905290516001600160a01b0380861692908a16917f0a64600438a7427313182dbc8ac1f1794a35778058ac0199a1cf89b4348bbb059181900360a00190a350505050505050565b610b103382611768565b60408051828152905133917f7fcf532c15f0a6db0bd6d0e038bea71d30d808c7d98cb3bf7268a95bf5081b65919081900360200190a250565b610b516117df565b6001600160a01b0316610b626112b7565b6001600160a01b031614610bbd576040805162461bcd60e51b815260206004820181905260248201527f4f776e61626c653a2063616c6c6572206973206e6f7420746865206f776e6572604482015290519081900360640190fd5b6001600160a01b03831615610c5557826001600160a01b031663a9059cbb82846040518363ffffffff1660e01b815260040180836001600160a01b0316815260200182815260200192505050602060405180830381600087803b158015610c2357600080fd5b505af1158015610c37573d6000803e3d6000fd5b505050506040513d6020811015610c4d57600080fd5b50610c5f9050565b610c5f8183611768565b806001600160a01b0316836001600160a01b0316336001600160a01b03167f30eb3583ad09933b693a45452ab07512244cdbc5868701aa004c27b7b267c249856040518082815260200191505060405180910390a4505050565b6060808267ffffffffffffffff81118015610cd357600080fd5b50604051908082528060200260200182016040528015610cfd578160200160208202803683370190505b50905060005b83811015610dc7576000858583818110610d1957fe5b905060200201356001600160a01b03166001600160a01b031614610d7957610d5c30868684818110610d4757fe5b905060200201356001600160a01b0316611825565b828281518110610d6857fe5b602002602001018181525050610dbf565b60016000610d856112b7565b6001600160a01b03166001600160a01b0316815260200190815260200160002054828281518110610db257fe5b6020026020010181815250505b600101610d03565b509392505050565b604080517fdd62ed3e0000000000000000000000000000000000000000000000000000000081523360048201523060248201529051899189916001600160a01b0384169163dd62ed3e916044808301926020929190829003018186803b158015610e3857600080fd5b505afa158015610e4c573d6000803e3d6000fd5b505050506040513d6020811015610e6257600080fd5b50511015610f1657604080517f8fcbaf0c00000000000000000000000000000000000000000000000000000000815233600482015230602482015260448101889052606481018790526001608482015260ff861660a482015260c4810185905260e4810184905290516001600160a01b03831691638fcbaf0c9161010480830192600092919082900301818387803b158015610efd57600080fd5b505af1158015610f11573d6000803e3d6000fd5b505050505b610f21898989611374565b505050505050505050565b6001600160a01b031660009081526001602052604090205490565b610f4f6117df565b6001600160a01b0316610f606112b7565b6001600160a01b031614610fbb576040805162461bcd60e51b815260206004820181905260248201527f4f776e61626c653a2063616c6c6572206973206e6f7420746865206f776e6572604482015290519081900360640190fd5b600080546040516001600160a01b03909116907f8be0079c531659141344cd1fd0a4f28419497f9722a3daafe3b4186f6b6457e0908390a3600080547fffffffffffffffffffffffff0000000000000000000000000000000000000000169055565b6110256117df565b6001600160a01b03166110366112b7565b6001600160a01b031614611091576040805162461bcd60e51b815260206004820181905260248201527f4f776e61626c653a2063616c6c6572206973206e6f7420746865206f776e6572604482015290519081900360640190fd5b8483146110cf5760405162461bcd60e51b815260040180806020018281038252602b815260200180611a7c602b913960400191505060405180910390fd5b60005b858110156112ae57600060018314611105578383838181106110f057fe5b905060200201356001600160a01b0316611123565b8383600081811061111257fe5b905060200201356001600160a01b03165b9050600088888481811061113357fe5b905060200201356001600160a01b03166001600160a01b0316146112075787878381811061115d57fe5b905060200201356001600160a01b03166001600160a01b031663a9059cbb8288888681811061118857fe5b905060200201356040518363ffffffff1660e01b815260040180836001600160a01b0316815260200182815260200192505050602060405180830381600087803b1580156111d557600080fd5b505af11580156111e9573d6000803e3d6000fd5b505050506040513d60208110156111ff57600080fd5b506112239050565b6112238187878581811061121757fe5b90506020020135611768565b806001600160a01b031688888481811061123957fe5b905060200201356001600160a01b03166001600160a01b0316336001600160a01b03167f30eb3583ad09933b693a45452ab07512244cdbc5868701aa004c27b7b267c24989898781811061128957fe5b905060200201356040518082815260200191505060405180910390a4506001016110d2565b50505050505050565b6000546001600160a01b031690565b6112f634600160006112d66112b7565b6001600160a01b0316815260208101919091526040016000205490611707565b600160006113026112b7565b6001600160a01b03166001600160a01b0316815260200190815260200160002081905550806001600160a01b0316336001600160a01b03167fcce62bfcdb09eddbe4e5ff5ec3bafdbabc25a52e1cf34f014a0a7a0864f9634c346040518082815260200191505060405180910390a350565b604080517f23b872dd00000000000000000000000000000000000000000000000000000000815233600482015230602482015260448101849052905184916001600160a01b038316916323b872dd916064808201926020929091908290030181600087803b1580156113e557600080fd5b505af11580156113f9573d6000803e3d6000fd5b505050506040513d602081101561140f57600080fd5b50506040805184815290516001600160a01b03808716929085169133917f192800135731755687032511a2ca29f376f7d31eb94ef2fc932caacf0ee2d0bc919081900360200190a450505050565b6114656117df565b6001600160a01b03166114766112b7565b6001600160a01b0316146114d1576040805162461bcd60e51b815260206004820181905260248201527f4f776e61626c653a2063616c6c6572206973206e6f7420746865206f776e6572604482015290519081900360640190fd5b88871480156114df57508885145b80156114ea57508883145b80156114f557508881145b6115305760405162461bcd60e51b8152600401808060200182810382526032815260200180611af66032913960400191505060405180910390fd5b60005b898110156115bc576115b48b8b8381811061154a57fe5b905060200201356001600160a01b03168a8a8481811061156657fe5b9050602002013589898581811061157957fe5b9050602002013588888681811061158c57fe5b9050602002013587878781811061159f57fe5b905060200201356001600160a01b0316610899565b600101611533565b5050505050505050505050565b60006115d53083611825565b92915050565b6115e36117df565b6001600160a01b03166115f46112b7565b6001600160a01b03161461164f576040805162461bcd60e51b815260206004820181905260248201527f4f776e61626c653a2063616c6c6572206973206e6f7420746865206f776e6572604482015290519081900360640190fd5b6001600160a01b0381166116945760405162461bcd60e51b8152600401808060200182810382526026815260200180611aa76026913960400191505060405180910390fd5b600080546040516001600160a01b03808516939216917f8be0079c531659141344cd1fd0a4f28419497f9722a3daafe3b4186f6b6457e091a3600080547fffffffffffffffffffffffff0000000000000000000000000000000000000000166001600160a01b0392909216919091179055565b600082820183811015611761576040805162461bcd60e51b815260206004820152601b60248201527f536166654d6174683a206164646974696f6e206f766572666c6f770000000000604482015290519081900360640190fd5b9392505050565b61179c81604051806060016040528060298152602001611acd602991393360009081526001602052604090205491906119e4565b336000908152600160205260408082209290925590516001600160a01b0384169183156108fc02918491818181858888f193505050506117db57600080fd5b5050565b3390565b600061176183836040518060400160405280601e81526020017f536166654d6174683a207375627472616374696f6e206f766572666c6f7700008152506119e4565b600080823b8015610dc757604080516001600160a01b0387811660248084019190915283518084039091018152604490920183526020820180517bffffffffffffffffffffffffffffffffffffffffffffffffffffffff167f70a082310000000000000000000000000000000000000000000000000000000017815292518251600094928916939282918083835b602083106118f057805182527fffffffffffffffffffffffffffffffffffffffffffffffffffffffffffffffe090920191602091820191016118b3565b6001836020036101000a038019825116818451168082178552505050505050905001915050600060405180830381855afa9150503d8060008114611950576040519150601f19603f3d011682016040523d82523d6000602084013e611955565b606091505b5050905080156119db57846001600160a01b03166370a08231876040518263ffffffff1660e01b815260040180826001600160a01b0316815260200191505060206040518083038186803b1580156119ac57600080fd5b505afa1580156119c0573d6000803e3d6000fd5b505050506040513d60208110156119d657600080fd5b505192505b50509392505050565b60008184841115611a735760405162461bcd60e51b81526004018080602001828103825283818151815260200191508051906020019080838360005b83811015611a38578181015183820152602001611a20565b50505050905090810190601f168015611a655780820380516001836020036101000a031916815260200191505b509250505060405180910390fd5b50505090039056fe427269646765237769746864726177546f6b656e733a20494e56414c49445f41525241595f4c454e4754484f776e61626c653a206e6577206f776e657220697320746865207a65726f20616464726573734272696467653a207769746864726177616c20616d6f756e7420657863656564732062616c616e63654272696467652377697468647261774465706f7369747342617463683a20494e56414c49445f41525241595f4c454e4754484272696467652377697468647261774465706f7369743a204445504f5349545f414c52454144595f57495448445241574ea26469706673582212204f66ed3965c7ee34994059cec3282f112c4795828125d8eed42e49ca6d739e1264736f6c634300060c0033",
  "linkReferences": {},
  "deployedLinkReferences": {}
}