{
  "_format": "hh-sol-artifact-1",
  "contractName": "Bridge",
  "sourceName": "src/bridge/Bridge.sol",
  "abi": [
    {
      "inputs": [],
      "stateMutability": "nonpayable",
      "type": "constructor"
    },
    {
      "anonymous": false,
      "inputs": [
        {
          "indexed": true,
          "internalType": "address",
          "name": "recipient",
          "type": "address"
        },
        {
          "indexed": false,
          "internalType": "uint256",
          "name": "value",
          "type": "uint256"
        }
      ],
      "name": "Deposit",
      "type": "event"
    },
    {
      "anonymous": false,
      "inputs": [
        {
          "indexed": true,
          "internalType": "address",
          "name": "sender",
          "type": "address"
        },
        {
          "indexed": false,
          "internalType": "uint256",
          "name": "value",
          "type": "uint256"
        },
        {
          "indexed": true,
          "internalType": "address",
          "name": "recipient",
          "type": "address"
        }
      ],
      "name": "DepositFor",
      "type": "event"
    },
    {
      "anonymous": false,
      "inputs": [
        {
          "indexed": true,
          "internalType": "address",
          "name": "src",
          "type": "address"
        },
        {
          "indexed": false,
          "internalType": "uint256",
          "name": "value",
          "type": "uint256"
        }
      ],
      "name": "Withdrawal",
      "type": "event"
    },
    {
      "inputs": [],
      "name": "deposit",
      "outputs": [],
      "stateMutability": "payable",
      "type": "function"
    },
    {
      "inputs": [
        {
          "internalType": "address",
          "name": "recipient",
          "type": "address"
        }
      ],
      "name": "depositFor",
      "outputs": [],
      "stateMutability": "payable",
      "type": "function"
    },
    {
      "inputs": [
        {
          "internalType": "uint256",
          "name": "value",
          "type": "uint256"
        }
      ],
      "name": "withdraw",
      "outputs": [],
      "stateMutability": "nonpayable",
      "type": "function"
    },
    {
      "stateMutability": "payable",
      "type": "receive"
    }
  ],
  "bytecode": "0x608060405234801561001057600080fd5b50600180546001600160a01b031916331790556103d9806100326000396000f3fe6080604052600436106100385760003560e01c80632e1a7d4d1461004c578063aa67c91914610076578063d0e30db0146100a957610047565b36610047576100456100ad565b005b600080fd5b34801561005857600080fd5b506100456004803603602081101561006f57600080fd5b5035610110565b6100456004803603602081101561008c57600080fd5b503573ffffffffffffffffffffffffffffffffffffffff166101b3565b6100455b336000908152602081905260409020546100c7903461024e565b3360008181526020818152604091829020939093558051348152905191927fe1fffcc4923d04b559f4d29a8bfc6cda04eb5b0d3c460751c2402c5c5cc9109c92918290030190a2565b6101448160405180606001604052806029815260200161037b602991393360009081526020819052604090205491906102c9565b33600081815260208190526040808220939093559151909183156108fc02918491818181858888f1935050505061017a57600080fd5b60408051828152905133917f7fcf532c15f0a6db0bd6d0e038bea71d30d808c7d98cb3bf7268a95bf5081b65919081900360200190a250565b60015473ffffffffffffffffffffffffffffffffffffffff166000908152602081905260409020546101e5903461024e565b60015473ffffffffffffffffffffffffffffffffffffffff9081166000908152602081815260409182902093909355805134815290519184169233927fcce62bfcdb09eddbe4e5ff5ec3bafdbabc25a52e1cf34f014a0a7a0864f9634c9281900390910190a350565b6000828201838110156102c257604080517f08c379a000000000000000000000000000000000000000000000000000000000815260206004820152601b60248201527f536166654d6174683a206164646974696f6e206f766572666c6f770000000000604482015290519081900360640190fd5b9392505050565b60008184841115610372576040517f08c379a00000000000000000000000000000000000000000000000000000000081526004018080602001828103825283818151815260200191508051906020019080838360005b8381101561033757818101518382015260200161031f565b50505050905090810190601f1680156103645780820380516001836020036101000a031916815260200191505b509250505060405180910390fd5b50505090039056fe4272696467653a207769746864726177616c20616d6f756e7420657863656564732062616c616e6365a26469706673582212203ebac1da9bbf63332ef36d8c76f901ef929e316254f1b30abeb1f8ac00469a6964736f6c634300060c0033",
  "linkReferences": {},
  "deployedLinkReferences": {}
}