{
  "_format": "hh-sol-artifact-1",
  "contractName": "ERC721",
  "sourceName": "src/erc721/ERC721.sol",
  "abi": [
    {
      "inputs": [
        {
          "internalType": "string",
          "name": "name",
          "type": "string"
        },
        {
          "internalType": "string",
          "name": "symbol",
          "type": "string"
        }
      ],
      "stateMutability": "nonpayable",
      "type": "constructor"
    },
    {
      "anonymous": false,
      "inputs": [
        {
          "indexed": true,
          "internalType": "address",
          "name": "owner",
          "type": "address"
        },
        {
          "indexed": true,
          "internalType": "address",
          "name": "approved",
          "type": "address"
        },
        {
          "indexed": true,
          "internalType": "uint256",
          "name": "tokenId",
          "type": "uint256"
        }
      ],
      "name": "Approval",
      "type": "event"
    },
    {
      "anonymous": false,
      "inputs": [
        {
          "indexed": true,
          "internalType": "address",
          "name": "owner",
          "type": "address"
        },
        {
          "indexed": true,
          "internalType": "address",
          "name": "operator",
          "type": "address"
        },
        {
          "indexed": false,
          "internalType": "bool",
          "name": "approved",
          "type": "bool"
        }
      ],
      "name": "ApprovalForAll",
      "type": "event"
    },
    {
      "anonymous": false,
      "inputs": [
        {
          "indexed": false,
          "internalType": "address",
          "name": "to",
          "type": "address"
        },
        {
          "indexed": false,
          "internalType": "uint256",
          "name": "tokenId",
          "type": "uint256"
        }
      ],
      "name": "Mint",
      "type": "event"
    },
    {
      "anonymous": false,
      "inputs": [
        {
          "indexed": true,
          "internalType": "address",
          "name": "from",
          "type": "address"
        },
        {
          "indexed": true,
          "internalType": "address",
          "name": "to",
          "type": "address"
        },
        {
          "indexed": true,
          "internalType": "uint256",
          "name": "tokenId",
          "type": "uint256"
        }
      ],
      "name": "Transfer",
      "type": "event"
    },
    {
      "inputs": [
        {
          "internalType": "address",
          "name": "to",
          "type": "address"
        },
        {
          "internalType": "uint256",
          "name": "tokenId",
          "type": "uint256"
        }
      ],
      "name": "approve",
      "outputs": [],
      "stateMutability": "nonpayable",
      "type": "function"
    },
    {
      "inputs": [
        {
          "internalType": "address",
          "name": "owner",
          "type": "address"
        }
      ],
      "name": "balanceOf",
      "outputs": [
        {
          "internalType": "uint256",
          "name": "",
          "type": "uint256"
        }
      ],
      "stateMutability": "view",
      "type": "function"
    },
    {
      "inputs": [],
      "name": "baseURI",
      "outputs": [
        {
          "internalType": "string",
          "name": "",
          "type": "string"
        }
      ],
      "stateMutability": "view",
      "type": "function"
    },
    {
      "inputs": [
        {
          "internalType": "uint256",
          "name": "tokenId",
          "type": "uint256"
        }
      ],
      "name": "getApproved",
      "outputs": [
        {
          "internalType": "address",
          "name": "",
          "type": "address"
        }
      ],
      "stateMutability": "view",
      "type": "function"
    },
    {
      "inputs": [
        {
          "internalType": "address",
          "name": "owner",
          "type": "address"
        },
        {
          "internalType": "address",
          "name": "operator",
          "type": "address"
        }
      ],
      "name": "isApprovedForAll",
      "outputs": [
        {
          "internalType": "bool",
          "name": "",
          "type": "bool"
        }
      ],
      "stateMutability": "view",
      "type": "function"
    },
    {
      "inputs": [],
      "name": "name",
      "outputs": [
        {
          "internalType": "string",
          "name": "",
          "type": "string"
        }
      ],
      "stateMutability": "view",
      "type": "function"
    },
    {
      "inputs": [
        {
          "internalType": "uint256",
          "name": "tokenId",
          "type": "uint256"
        }
      ],
      "name": "ownerOf",
      "outputs": [
        {
          "internalType": "address",
          "name": "",
          "type": "address"
        }
      ],
      "stateMutability": "view",
      "type": "function"
    },
    {
      "inputs": [
        {
          "internalType": "address",
          "name": "to",
          "type": "address"
        },
        {
          "internalType": "uint256",
          "name": "tokenId",
          "type": "uint256"
        }
      ],
      "name": "publicMint",
      "outputs": [],
      "stateMutability": "nonpayable",
      "type": "function"
    },
    {
      "inputs": [
        {
          "internalType": "address",
          "name": "from",
          "type": "address"
        },
        {
          "internalType": "address",
          "name": "to",
          "type": "address"
        },
        {
          "internalType": "uint256",
          "name": "tokenId",
          "type": "uint256"
        }
      ],
      "name": "safeTransferFrom",
      "outputs": [],
      "stateMutability": "nonpayable",
      "type": "function"
    },
    {
      "inputs": [
        {
          "internalType": "address",
          "name": "from",
          "type": "address"
        },
        {
          "internalType": "address",
          "name": "to",
          "type": "address"
        },
        {
          "internalType": "uint256",
          "name": "tokenId",
          "type": "uint256"
        },
        {
          "internalType": "bytes",
          "name": "_data",
          "type": "bytes"
        }
      ],
      "name": "safeTransferFrom",
      "outputs": [],
      "stateMutability": "nonpayable",
      "type": "function"
    },
    {
      "inputs": [
        {
          "internalType": "address",
          "name": "operator",
          "type": "address"
        },
        {
          "internalType": "bool",
          "name": "approved",
          "type": "bool"
        }
      ],
      "name": "setApprovalForAll",
      "outputs": [],
      "stateMutability": "nonpayable",
      "type": "function"
    },
    {
      "inputs": [
        {
          "internalType": "bytes4",
          "name": "interfaceId",
          "type": "bytes4"
        }
      ],
      "name": "supportsInterface",
      "outputs": [
        {
          "internalType": "bool",
          "name": "",
          "type": "bool"
        }
      ],
      "stateMutability": "view",
      "type": "function"
    },
    {
      "inputs": [],
      "name": "symbol",
      "outputs": [
        {
          "internalType": "string",
          "name": "",
          "type": "string"
        }
      ],
      "stateMutability": "view",
      "type": "function"
    },
    {
      "inputs": [
        {
          "internalType": "uint256",
          "name": "index",
          "type": "uint256"
        }
      ],
      "name": "tokenByIndex",
      "outputs": [
        {
          "internalType": "uint256",
          "name": "",
          "type": "uint256"
        }
      ],
      "stateMutability": "view",
      "type": "function"
    },
    {
      "inputs": [
        {
          "internalType": "address",
          "name": "owner",
          "type": "address"
        },
        {
          "internalType": "uint256",
          "name": "index",
          "type": "uint256"
        }
      ],
      "name": "tokenOfOwnerByIndex",
      "outputs": [
        {
          "internalType": "uint256",
          "name": "",
          "type": "uint256"
        }
      ],
      "stateMutability": "view",
      "type": "function"
    },
    {
      "inputs": [
        {
          "internalType": "uint256",
          "name": "tokenId",
          "type": "uint256"
        }
      ],
      "name": "tokenURI",
      "outputs": [
        {
          "internalType": "string",
          "name": "",
          "type": "string"
        }
      ],
      "stateMutability": "view",
      "type": "function"
    },
    {
      "inputs": [],
      "name": "totalSupply",
      "outputs": [
        {
          "internalType": "uint256",
          "name": "",
          "type": "uint256"
        }
      ],
      "stateMutability": "view",
      "type": "function"
    },
    {
      "inputs": [
        {
          "internalType": "address",
          "name": "from",
          "type": "address"
        },
        {
          "internalType": "address",
          "name": "to",
          "type": "address"
        },
        {
          "internalType": "uint256",
          "name": "tokenId",
          "type": "uint256"
        }
      ],
      "name": "transferFrom",
      "outputs": [],
      "stateMutability": "nonpayable",
      "type": "function"
    }
  ],
  "bytecode": "0x60806040523480156200001157600080fd5b5060405162001fd538038062001fd5833981810160405260408110156200003757600080fd5b81019080805160405193929190846401000000008211156200005857600080fd5b9083019060208201858111156200006e57600080fd5b82516401000000008111828201881017156200008957600080fd5b82525081516020918201929091019080838360005b83811015620000b85781810151838201526020016200009e565b50505050905090810190601f168015620000e65780820380516001836020036101000a031916815260200191505b50604052602001805160405193929190846401000000008211156200010a57600080fd5b9083019060208201858111156200012057600080fd5b82516401000000008111828201881017156200013b57600080fd5b82525081516020918201929091019080838360005b838110156200016a57818101518382015260200162000150565b50505050905090810190601f168015620001985780820380516001836020036101000a031916815260200191505b5060405250620001b391506301ffc9a760e01b90506200021d565b8151620001c8906006906020850190620002a2565b508051620001de906007906020840190620002a2565b50620001f16380ac58cd60e01b6200021d565b62000203635b5e139f60e01b6200021d565b6200021563780e9d6360e01b6200021d565b50506200033e565b6001600160e01b031980821614156200027d576040805162461bcd60e51b815260206004820152601c60248201527f4552433136353a20696e76616c696420696e7465726661636520696400000000604482015290519081900360640190fd5b6001600160e01b0319166000908152602081905260409020805460ff19166001179055565b828054600181600116156101000203166002900490600052602060002090601f016020900481019282601f10620002e557805160ff191683800117855562000315565b8280016001018555821562000315579182015b8281111562000315578251825591602001919060010190620002f8565b506200032392915062000327565b5090565b5b8082111562000323576000815560010162000328565b611c87806200034e6000396000f3fe608060405234801561001057600080fd5b50600436106101365760003560e01c80636352211e116100b2578063a22cb46511610081578063c87b56dd11610066578063c87b56dd14610488578063ce6df2b9146104a5578063e985e9c5146104d157610136565b8063a22cb46514610394578063b88d4fde146103c257610136565b80636352211e146103415780636c0360eb1461035e57806370a082311461036657806395d89b411461038c57610136565b806318160ddd116101095780632f745c59116100ee5780632f745c59146102c257806342842e0e146102ee5780634f6ccce71461032457610136565b806318160ddd1461027257806323b872dd1461028c57610136565b806301ffc9a71461013b57806306fdde031461018e578063081812fc1461020b578063095ea7b314610244575b600080fd5b61017a6004803603602081101561015157600080fd5b50357fffffffff00000000000000000000000000000000000000000000000000000000166104ff565b604080519115158252519081900360200190f35b61019661053a565b6040805160208082528351818301528351919283929083019185019080838360005b838110156101d05781810151838201526020016101b8565b50505050905090810190601f1680156101fd5780820380516001836020036101000a031916815260200191505b509250505060405180910390f35b6102286004803603602081101561022157600080fd5b50356105d0565b604080516001600160a01b039092168252519081900360200190f35b6102706004803603604081101561025a57600080fd5b506001600160a01b038135169060200135610632565b005b61027a61070d565b60408051918252519081900360200190f35b610270600480360360608110156102a257600080fd5b506001600160a01b0381358116916020810135909116906040013561071e565b61027a600480360360408110156102d857600080fd5b506001600160a01b038135169060200135610775565b6102706004803603606081101561030457600080fd5b506001600160a01b038135811691602081013590911690604001356107a0565b61027a6004803603602081101561033a57600080fd5b50356107bb565b6102286004803603602081101561035757600080fd5b50356107d1565b6101966107f9565b61027a6004803603602081101561037c57600080fd5b50356001600160a01b031661085a565b6101966108c2565b610270600480360360408110156103aa57600080fd5b506001600160a01b0381351690602001351515610923565b610270600480360360808110156103d857600080fd5b6001600160a01b0382358116926020810135909116916040820135919081019060808101606082013564010000000081111561041357600080fd5b82018360208201111561042557600080fd5b8035906020019184600183028401116401000000008311171561044757600080fd5b91908080601f016020809104026020016040519081016040528093929190818152602001838380828437600092019190915250929550610a46945050505050565b6101966004803603602081101561049e57600080fd5b5035610aa4565b610270600480360360408110156104bb57600080fd5b506001600160a01b038135169060200135610d4b565b61017a600480360360408110156104e757600080fd5b506001600160a01b0381358116916020013516610d9d565b7fffffffff00000000000000000000000000000000000000000000000000000000811660009081526020819052604090205460ff165b919050565b60068054604080516020601f60026000196101006001881615020190951694909404938401819004810282018101909252828152606093909290918301828280156105c65780601f1061059b576101008083540402835291602001916105c6565b820191906000526020600020905b8154815290600101906020018083116105a957829003601f168201915b5050505050905090565b60006105db82610dcb565b6106165760405162461bcd60e51b815260040180806020018281038252602c815260200180611b7c602c913960400191505060405180910390fd5b506000908152600460205260409020546001600160a01b031690565b600061063d826107d1565b9050806001600160a01b0316836001600160a01b031614156106905760405162461bcd60e51b8152600401808060200182810382526021815260200180611c006021913960400191505060405180910390fd5b806001600160a01b03166106a2610dd8565b6001600160a01b031614806106c357506106c3816106be610dd8565b610d9d565b6106fe5760405162461bcd60e51b8152600401808060200182810382526038815260200180611acf6038913960400191505060405180910390fd5b6107088383610ddc565b505050565b60006107196002610e62565b905090565b61072f610729610dd8565b82610e6d565b61076a5760405162461bcd60e51b8152600401808060200182810382526031815260200180611c216031913960400191505060405180910390fd5b610708838383610f11565b6001600160a01b0382166000908152600160205260408120610797908361105d565b90505b92915050565b61070883838360405180602001604052806000815250610a46565b6000806107c9600284611069565b509392505050565b600061079a82604051806060016040528060298152602001611b316029913960029190611085565b60098054604080516020601f60026000196101006001881615020190951694909404938401819004810282018101909252828152606093909290918301828280156105c65780601f1061059b576101008083540402835291602001916105c6565b60006001600160a01b0382166108a15760405162461bcd60e51b815260040180806020018281038252602a815260200180611b07602a913960400191505060405180910390fd5b6001600160a01b038216600090815260016020526040902061079a90610e62565b60078054604080516020601f60026000196101006001881615020190951694909404938401819004810282018101909252828152606093909290918301828280156105c65780601f1061059b576101008083540402835291602001916105c6565b61092b610dd8565b6001600160a01b0316826001600160a01b03161415610991576040805162461bcd60e51b815260206004820152601960248201527f4552433732313a20617070726f766520746f2063616c6c657200000000000000604482015290519081900360640190fd5b806005600061099e610dd8565b6001600160a01b0390811682526020808301939093526040918201600090812091871680825291909352912080547fffffffffffffffffffffffffffffffffffffffffffffffffffffffffffffff001692151592909217909155610a00610dd8565b6001600160a01b03167f17307eab39ab6107e8899845ad3d59bd9653f200f220920489ca2b5937696c318360405180821515815260200191505060405180910390a35050565b610a57610a51610dd8565b83610e6d565b610a925760405162461bcd60e51b8152600401808060200182810382526031815260200180611c216031913960400191505060405180910390fd5b610a9e8484848461109c565b50505050565b6060610aaf82610dcb565b610aea5760405162461bcd60e51b815260040180806020018281038252602f815260200180611bd1602f913960400191505060405180910390fd5b60008281526008602090815260409182902080548351601f6002600019610100600186161502019093169290920491820184900484028101840190945280845260609392830182828015610b7f5780601f10610b5457610100808354040283529160200191610b7f565b820191906000526020600020905b815481529060010190602001808311610b6257829003601f168201915b505060095493945050505060026000196101006001841615020190911604610ba8579050610535565b805115610c79576009816040516020018083805460018160011615610100020316600290048015610c105780601f10610bee576101008083540402835291820191610c10565b820191906000526020600020905b815481529060010190602001808311610bfc575b5050825160208401908083835b60208310610c3c5780518252601f199092019160209182019101610c1d565b6001836020036101000a03801982511681845116808217855250505050505090500192505050604051602081830303815290604052915050610535565b6009610c84846110ee565b6040516020018083805460018160011615610100020316600290048015610ce25780601f10610cc0576101008083540402835291820191610ce2565b820191906000526020600020905b815481529060010190602001808311610cce575b5050825160208401908083835b60208310610d0e5780518252601f199092019160209182019101610cef565b6001836020036101000a03801982511681845116808217855250505050505090500192505050604051602081830303815290604052915050919050565b610d5582826111fd565b604080516001600160a01b03841681526020810183905281517f0f6798a560793a54c3bcfe86a93cde1e73087d944c0ea20544137d4121396885929181900390910190a15050565b6001600160a01b03918216600090815260056020908152604080832093909416825291909152205460ff1690565b600061079a60028361132b565b3390565b600081815260046020526040902080547fffffffffffffffffffffffff0000000000000000000000000000000000000000166001600160a01b0384169081179091558190610e29826107d1565b6001600160a01b03167f8c5be1e5ebec7d5bd14f71427d1e84f3dd0314c0f7b2291e5b200ac8c7c3b92560405160405180910390a45050565b600061079a82611337565b6000610e7882610dcb565b610eb35760405162461bcd60e51b815260040180806020018281038252602c815260200180611aa3602c913960400191505060405180910390fd5b6000610ebe836107d1565b9050806001600160a01b0316846001600160a01b03161480610ef95750836001600160a01b0316610eee846105d0565b6001600160a01b0316145b80610f095750610f098185610d9d565b949350505050565b826001600160a01b0316610f24826107d1565b6001600160a01b031614610f695760405162461bcd60e51b8152600401808060200182810382526029815260200180611ba86029913960400191505060405180910390fd5b6001600160a01b038216610fae5760405162461bcd60e51b8152600401808060200182810382526024815260200180611a7f6024913960400191505060405180910390fd5b610fb9838383610708565b610fc4600082610ddc565b6001600160a01b0383166000908152600160205260409020610fe6908261133b565b506001600160a01b03821660009081526001602052604090206110099082611347565b5061101660028284611353565b5080826001600160a01b0316846001600160a01b03167fddf252ad1be2c89b69c2b068fc378daa952ba7f163c4a11628f55a4df523b3ef60405160405180910390a4505050565b60006107978383611369565b600080808061107886866113cd565b9097909650945050505050565b6000611092848484611448565b90505b9392505050565b6110a7848484610f11565b6110b384848484611512565b610a9e5760405162461bcd60e51b8152600401808060200182810382526032815260200180611a4d6032913960400191505060405180910390fd5b60608161112f575060408051808201909152600181527f30000000000000000000000000000000000000000000000000000000000000006020820152610535565b8160005b811561114757600101600a82049150611133565b60608167ffffffffffffffff8111801561116057600080fd5b506040519080825280601f01601f19166020018201604052801561118b576020820181803683370190505b50859350905060001982015b83156111f457600a840660300160f81b828280600190039350815181106111ba57fe5b60200101907effffffffffffffffffffffffffffffffffffffffffffffffffffffffffffff1916908160001a905350600a84049350611197565b50949350505050565b6001600160a01b038216611258576040805162461bcd60e51b815260206004820181905260248201527f4552433732313a206d696e7420746f20746865207a65726f2061646472657373604482015290519081900360640190fd5b61126181610dcb565b156112b3576040805162461bcd60e51b815260206004820152601c60248201527f4552433732313a20746f6b656e20616c7265616479206d696e74656400000000604482015290519081900360640190fd5b6112bf60008383610708565b6001600160a01b03821660009081526001602052604090206112e19082611347565b506112ee60028284611353565b5060405181906001600160a01b038416906000907fddf252ad1be2c89b69c2b068fc378daa952ba7f163c4a11628f55a4df523b3ef908290a45050565b600061079783836116ee565b5490565b60006107978383611706565b600061079783836117cc565b600061109284846001600160a01b038516611816565b815460009082106113ab5760405162461bcd60e51b8152600401808060200182810382526022815260200180611a2b6022913960400191505060405180910390fd5b8260000182815481106113ba57fe5b9060005260206000200154905092915050565b8154600090819083106114115760405162461bcd60e51b8152600401808060200182810382526022815260200180611b5a6022913960400191505060405180910390fd5b600084600001848154811061142257fe5b906000526020600020906002020190508060000154816001015492509250509250929050565b600082815260018401602052604081205482816114e35760405162461bcd60e51b81526004018080602001828103825283818151815260200191508051906020019080838360005b838110156114a8578181015183820152602001611490565b50505050905090810190601f1680156114d55780820380516001836020036101000a031916815260200191505b509250505060405180910390fd5b508460000160018203815481106114f657fe5b9060005260206000209060020201600101549150509392505050565b6000611526846001600160a01b03166118ad565b61153257506001610f09565b60606116837f150b7a0200000000000000000000000000000000000000000000000000000000611560610dd8565b88878760405160240180856001600160a01b03168152602001846001600160a01b0316815260200183815260200180602001828103825283818151815260200191508051906020019080838360005b838110156115c75781810151838201526020016115af565b50505050905090810190601f1680156115f45780820380516001836020036101000a031916815260200191505b5095505050505050604051602081830303815290604052907bffffffffffffffffffffffffffffffffffffffffffffffffffffffff19166020820180517bffffffffffffffffffffffffffffffffffffffffffffffffffffffff8381831617835250505050604051806060016040528060328152602001611a4d603291396001600160a01b03881691906118b3565b9050600081806020019051602081101561169c57600080fd5b50517fffffffff00000000000000000000000000000000000000000000000000000000167f150b7a02000000000000000000000000000000000000000000000000000000001492505050949350505050565b60009081526001919091016020526040902054151590565b600081815260018301602052604081205480156117c2578354600019808301919081019060009087908390811061173957fe5b906000526020600020015490508087600001848154811061175657fe5b60009182526020808320909101929092558281526001898101909252604090209084019055865487908061178657fe5b6001900381819060005260206000200160009055905586600101600087815260200190815260200160002060009055600194505050505061079a565b600091505061079a565b60006117d883836116ee565b61180e5750815460018181018455600084815260208082209093018490558454848252828601909352604090209190915561079a565b50600061079a565b60008281526001840160205260408120548061187b575050604080518082018252838152602080820184815286546001818101895560008981528481209551600290930290950191825591519082015586548684528188019092529290912055611095565b8285600001600183038154811061188e57fe5b9060005260206000209060020201600101819055506000915050611095565b3b151590565b6060611092848460008560606118c8856118ad565b611919576040805162461bcd60e51b815260206004820152601d60248201527f416464726573733a2063616c6c20746f206e6f6e2d636f6e7472616374000000604482015290519081900360640190fd5b60006060866001600160a01b031685876040518082805190602001908083835b602083106119585780518252601f199092019160209182019101611939565b6001836020036101000a03801982511681845116808217855250505050505090500191505060006040518083038185875af1925050503d80600081146119ba576040519150601f19603f3d011682016040523d82523d6000602084013e6119bf565b606091505b509150915081156119d3579150610f099050565b8051156119e35780518082602001fd5b60405162461bcd60e51b81526020600482018181528651602484015286518793919283926044019190850190808383600083156114a857818101518382015260200161149056fe456e756d657261626c655365743a20696e646578206f7574206f6620626f756e64734552433732313a207472616e7366657220746f206e6f6e20455243373231526563656976657220696d706c656d656e7465724552433732313a207472616e7366657220746f20746865207a65726f20616464726573734552433732313a206f70657261746f7220717565727920666f72206e6f6e6578697374656e7420746f6b656e4552433732313a20617070726f76652063616c6c6572206973206e6f74206f776e6572206e6f7220617070726f76656420666f7220616c6c4552433732313a2062616c616e636520717565727920666f7220746865207a65726f20616464726573734552433732313a206f776e657220717565727920666f72206e6f6e6578697374656e7420746f6b656e456e756d657261626c654d61703a20696e646578206f7574206f6620626f756e64734552433732313a20617070726f76656420717565727920666f72206e6f6e6578697374656e7420746f6b656e4552433732313a207472616e73666572206f6620746f6b656e2074686174206973206e6f74206f776e4552433732314d657461646174613a2055524920717565727920666f72206e6f6e6578697374656e7420746f6b656e4552433732313a20617070726f76616c20746f2063757272656e74206f776e65724552433732313a207472616e736665722063616c6c6572206973206e6f74206f776e6572206e6f7220617070726f766564a26469706673582212200a13312c38cf7940371650492cfc872daaa8be009169c19e64da1464015a4e1264736f6c634300060c0033",
  "linkReferences": {},
  "deployedLinkReferences": {}
}