{
  "_format": "hh-sol-artifact-1",
  "contractName": "PermittableERC20",
  "sourceName": "src/permittableErc20/Permittable.sol",
  "abi": [
    {
      "inputs": [
        {
          "internalType": "string",
          "name": "name",
          "type": "string"
        },
        {
          "internalType": "string",
          "name": "symbol",
          "type": "string"
        }
      ],
      "stateMutability": "nonpayable",
      "type": "constructor"
    },
    {
      "anonymous": false,
      "inputs": [
        {
          "indexed": true,
          "internalType": "address",
          "name": "owner",
          "type": "address"
        },
        {
          "indexed": true,
          "internalType": "address",
          "name": "spender",
          "type": "address"
        },
        {
          "indexed": false,
          "internalType": "uint256",
          "name": "value",
          "type": "uint256"
        }
      ],
      "name": "Approval",
      "type": "event"
    },
    {
      "anonymous": false,
      "inputs": [
        {
          "indexed": true,
          "internalType": "address",
          "name": "recipient",
          "type": "address"
        },
        {
          "indexed": false,
          "internalType": "uint256",
          "name": "value",
          "type": "uint256"
        }
      ],
      "name": "Deposit",
      "type": "event"
    },
    {
      "anonymous": false,
      "inputs": [
        {
          "indexed": true,
          "internalType": "address",
          "name": "from",
          "type": "address"
        },
        {
          "indexed": true,
          "internalType": "address",
          "name": "to",
          "type": "address"
        },
        {
          "indexed": false,
          "internalType": "uint256",
          "name": "value",
          "type": "uint256"
        }
      ],
      "name": "Transfer",
      "type": "event"
    },
    {
      "anonymous": false,
      "inputs": [
        {
          "indexed": true,
          "internalType": "address",
          "name": "src",
          "type": "address"
        },
        {
          "indexed": false,
          "internalType": "uint256",
          "name": "value",
          "type": "uint256"
        }
      ],
      "name": "Withdrawal",
      "type": "event"
    },
    {
      "inputs": [],
      "name": "DOMAIN_SEPARATOR",
      "outputs": [
        {
          "internalType": "bytes32",
          "name": "",
          "type": "bytes32"
        }
      ],
      "stateMutability": "view",
      "type": "function"
    },
    {
      "inputs": [],
      "name": "PERMIT_TYPEHASH",
      "outputs": [
        {
          "internalType": "bytes32",
          "name": "",
          "type": "bytes32"
        }
      ],
      "stateMutability": "view",
      "type": "function"
    },
    {
      "inputs": [
        {
          "internalType": "address",
          "name": "owner",
          "type": "address"
        },
        {
          "internalType": "address",
          "name": "spender",
          "type": "address"
        }
      ],
      "name": "allowance",
      "outputs": [
        {
          "internalType": "uint256",
          "name": "",
          "type": "uint256"
        }
      ],
      "stateMutability": "view",
      "type": "function"
    },
    {
      "inputs": [
        {
          "internalType": "address",
          "name": "spender",
          "type": "address"
        },
        {
          "internalType": "uint256",
          "name": "amount",
          "type": "uint256"
        }
      ],
      "name": "approve",
      "outputs": [
        {
          "internalType": "bool",
          "name": "",
          "type": "bool"
        }
      ],
      "stateMutability": "nonpayable",
      "type": "function"
    },
    {
      "inputs": [
        {
          "internalType": "address",
          "name": "account",
          "type": "address"
        }
      ],
      "name": "balanceOf",
      "outputs": [
        {
          "internalType": "uint256",
          "name": "",
          "type": "uint256"
        }
      ],
      "stateMutability": "view",
      "type": "function"
    },
    {
      "inputs": [],
      "name": "decimals",
      "outputs": [
        {
          "internalType": "uint8",
          "name": "",
          "type": "uint8"
        }
      ],
      "stateMutability": "view",
      "type": "function"
    },
    {
      "inputs": [
        {
          "internalType": "address",
          "name": "spender",
          "type": "address"
        },
        {
          "internalType": "uint256",
          "name": "subtractedValue",
          "type": "uint256"
        }
      ],
      "name": "decreaseAllowance",
      "outputs": [
        {
          "internalType": "bool",
          "name": "",
          "type": "bool"
        }
      ],
      "stateMutability": "nonpayable",
      "type": "function"
    },
    {
      "inputs": [],
      "name": "deposit",
      "outputs": [],
      "stateMutability": "payable",
      "type": "function"
    },
    {
      "inputs": [
        {
          "internalType": "address",
          "name": "spender",
          "type": "address"
        },
        {
          "internalType": "uint256",
          "name": "addedValue",
          "type": "uint256"
        }
      ],
      "name": "increaseAllowance",
      "outputs": [
        {
          "internalType": "bool",
          "name": "",
          "type": "bool"
        }
      ],
      "stateMutability": "nonpayable",
      "type": "function"
    },
    {
      "inputs": [],
      "name": "name",
      "outputs": [
        {
          "internalType": "string",
          "name": "",
          "type": "string"
        }
      ],
      "stateMutability": "view",
      "type": "function"
    },
    {
      "inputs": [
        {
          "internalType": "address",
          "name": "",
          "type": "address"
        }
      ],
      "name": "nonces",
      "outputs": [
        {
          "internalType": "uint256",
          "name": "",
          "type": "uint256"
        }
      ],
      "stateMutability": "view",
      "type": "function"
    },
    {
      "inputs": [
        {
          "internalType": "address",
          "name": "holder",
          "type": "address"
        },
        {
          "internalType": "address",
          "name": "spender",
          "type": "address"
        },
        {
          "internalType": "uint256",
          "name": "nonce",
          "type": "uint256"
        },
        {
          "internalType": "uint256",
          "name": "expiry",
          "type": "uint256"
        },
        {
          "internalType": "bool",
          "name": "allowed",
          "type": "bool"
        },
        {
          "internalType": "uint8",
          "name": "v",
          "type": "uint8"
        },
        {
          "internalType": "bytes32",
          "name": "r",
          "type": "bytes32"
        },
        {
          "internalType": "bytes32",
          "name": "s",
          "type": "bytes32"
        }
      ],
      "name": "permit",
      "outputs": [],
      "stateMutability": "nonpayable",
      "type": "function"
    },
    {
      "inputs": [],
      "name": "symbol",
      "outputs": [
        {
          "internalType": "string",
          "name": "",
          "type": "string"
        }
      ],
      "stateMutability": "view",
      "type": "function"
    },
    {
      "inputs": [],
      "name": "totalSupply",
      "outputs": [
        {
          "internalType": "uint256",
          "name": "",
          "type": "uint256"
        }
      ],
      "stateMutability": "view",
      "type": "function"
    },
    {
      "inputs": [
        {
          "internalType": "address",
          "name": "recipient",
          "type": "address"
        },
        {
          "internalType": "uint256",
          "name": "amount",
          "type": "uint256"
        }
      ],
      "name": "transfer",
      "outputs": [
        {
          "internalType": "bool",
          "name": "",
          "type": "bool"
        }
      ],
      "stateMutability": "nonpayable",
      "type": "function"
    },
    {
      "inputs": [
        {
          "internalType": "address",
          "name": "sender",
          "type": "address"
        },
        {
          "internalType": "address",
          "name": "recipient",
          "type": "address"
        },
        {
          "internalType": "uint256",
          "name": "amount",
          "type": "uint256"
        }
      ],
      "name": "transferFrom",
      "outputs": [
        {
          "internalType": "bool",
          "name": "",
          "type": "bool"
        }
      ],
      "stateMutability": "nonpayable",
      "type": "function"
    },
    {
      "inputs": [
        {
          "internalType": "uint256",
          "name": "value",
          "type": "uint256"
        }
      ],
      "name": "withdraw",
      "outputs": [],
      "stateMutability": "nonpayable",
      "type": "function"
    },
    {
      "stateMutability": "payable",
      "type": "receive"
    }
  ],
  "bytecode": "0x60806040523480156200001157600080fd5b506040516200144138038062001441833981810160405260408110156200003757600080fd5b81019080805160405193929190846401000000008211156200005857600080fd5b9083019060208201858111156200006e57600080fd5b82516401000000008111828201881017156200008957600080fd5b82525081516020918201929091019080838360005b83811015620000b85781810151838201526020016200009e565b50505050905090810190601f168015620000e65780820380516001836020036101000a031916815260200191505b50604052602001805160405193929190846401000000008211156200010a57600080fd5b9083019060208201858111156200012057600080fd5b82516401000000008111828201881017156200013b57600080fd5b82525081516020918201929091019080838360005b838110156200016a57818101518382015260200162000150565b50505050905090810190601f168015620001985780820380516001836020036101000a031916815260200191505b50604052505050818181818160039080519060200190620001bb92919062000289565b508051620001d190600490602084019062000289565b50506005805460ff191660121790555050825160209384012060408051808201825260018152603160f81b9086015280517f8b73c3c69bb8fe3d512ecc4cf759cc79239f7b179b0ffacaa9a75d522b39400f81870152808201929092527fc89efdaa54c0f20c7adf612882df0950f5a951637e0307cdcb4c672f298b8bc660608301524660808301523060a0808401919091528151808403909101815260c09092019052805193019290922060075550620003259050565b828054600181600116156101000203166002900490600052602060002090601f016020900481019282601f10620002cc57805160ff1916838001178555620002fc565b82800160010185558215620002fc579182015b82811115620002fc578251825591602001919060010190620002df565b506200030a9291506200030e565b5090565b5b808211156200030a57600081556001016200030f565b61110c80620003356000396000f3fe6080604052600436106101125760003560e01c806339509351116100a557806395d89b4111610074578063a9059cbb11610059578063a9059cbb1461043a578063d0e30db014610473578063dd62ed3e1461047b57610121565b806395d89b41146103ec578063a457c2d71461040157610121565b806339509351146102e657806370a082311461031f5780637ecebe00146103525780638fcbaf0c1461038557610121565b80632e1a7d4d116100e15780632e1a7d4d1461026757806330adf81f14610291578063313ce567146102a65780633644e515146102d157610121565b806306fdde0314610126578063095ea7b3146101b057806318160ddd146101fd57806323b872dd1461022457610121565b366101215761011f6104b6565b005b600080fd5b34801561013257600080fd5b5061013b610554565b6040805160208082528351818301528351919283929083019185019080838360005b8381101561017557818101518382015260200161015d565b50505050905090810190601f1680156101a25780820380516001836020036101000a031916815260200191505b509250505060405180910390f35b3480156101bc57600080fd5b506101e9600480360360408110156101d357600080fd5b506001600160a01b0381351690602001356105ea565b604080519115158252519081900360200190f35b34801561020957600080fd5b50610212610607565b60408051918252519081900360200190f35b34801561023057600080fd5b506101e96004803603606081101561024757600080fd5b506001600160a01b0381358116916020810135909116906040013561060d565b34801561027357600080fd5b5061011f6004803603602081101561028a57600080fd5b5035610694565b34801561029d57600080fd5b50610212610764565b3480156102b257600080fd5b506102bb610788565b6040805160ff9092168252519081900360200190f35b3480156102dd57600080fd5b50610212610791565b3480156102f257600080fd5b506101e96004803603604081101561030957600080fd5b506001600160a01b038135169060200135610797565b34801561032b57600080fd5b506102126004803603602081101561034257600080fd5b50356001600160a01b03166107e5565b34801561035e57600080fd5b506102126004803603602081101561037557600080fd5b50356001600160a01b0316610800565b34801561039157600080fd5b5061011f60048036036101008110156103a957600080fd5b506001600160a01b038135811691602081013590911690604081013590606081013590608081013515159060ff60a0820135169060c08101359060e00135610812565b3480156103f857600080fd5b5061013b610b51565b34801561040d57600080fd5b506101e96004803603604081101561042457600080fd5b506001600160a01b038135169060200135610bb2565b34801561044657600080fd5b506101e96004803603604081101561045d57600080fd5b506001600160a01b038135169060200135610c1a565b61011f6104b6565b34801561048757600080fd5b506102126004803603604081101561049e57600080fd5b506001600160a01b0381358116916020013516610c2d565b6104e5346000806104c5610c58565b6001600160a01b0316815260208101919091526040016000205490610c5c565b6000806104f0610c58565b6001600160a01b03168152602081019190915260400160002055610512610c58565b6001600160a01b03167fe1fffcc4923d04b559f4d29a8bfc6cda04eb5b0d3c460751c2402c5c5cc9109c346040518082815260200191505060405180910390a2565b60038054604080516020601f60026000196101006001881615020190951694909404938401819004810282018101909252828152606093909290918301828280156105e05780601f106105b5576101008083540402835291602001916105e0565b820191906000526020600020905b8154815290600101906020018083116105c357829003601f168201915b5050505050905090565b60006105fe6105f7610c58565b8484610cb6565b50600192915050565b60025490565b600061061a848484610da2565b61068a84610626610c58565b61068585604051806060016040528060288152602001611019602891396001600160a01b038a16600090815260016020526040812090610664610c58565b6001600160a01b031681526020810191909152604001600020549190610efd565b610cb6565b5060019392505050565b6106bc8160405180606001604052806028815260200161106660289139600080610664610c58565b6000806106c7610c58565b6001600160a01b031681526020810191909152604001600020556106e9610c58565b6001600160a01b03166108fc829081150290604051600060405180830381858888f1935050505061071957600080fd5b610721610c58565b6001600160a01b03167f7fcf532c15f0a6db0bd6d0e038bea71d30d808c7d98cb3bf7268a95bf5081b65826040518082815260200191505060405180910390a250565b7fea2aa0a1be11a07ed86d755c93467f4f82362b452371d1ba94d1715123511acb81565b60055460ff1690565b60075481565b60006105fe6107a4610c58565b8461068585600160006107b5610c58565b6001600160a01b03908116825260208083019390935260409182016000908120918c168152925290205490610c5c565b6001600160a01b031660009081526020819052604090205490565b60066020526000908152604090205481565b600754604080517fea2aa0a1be11a07ed86d755c93467f4f82362b452371d1ba94d1715123511acb6020808301919091526001600160a01b03808d16838501819052908c166060840152608083018b905260a083018a905288151560c0808501919091528451808503909101815260e0840185528051908301207f190100000000000000000000000000000000000000000000000000000000000061010085015261010284019590955261012280840195909552835180840390950185526101429092019092528251929091019190912090610935576040805162461bcd60e51b815260206004820152601160248201527f696e76616c69642d616464726573732d30000000000000000000000000000000604482015290519081900360640190fd5b60018185858560405160008152602001604052604051808581526020018460ff1681526020018381526020018281526020019450505050506020604051602081039080840390855afa15801561098f573d6000803e3d6000fd5b505050602060405103516001600160a01b0316896001600160a01b0316146109fe576040805162461bcd60e51b815260206004820152600e60248201527f696e76616c69642d7065726d6974000000000000000000000000000000000000604482015290519081900360640190fd5b851580610a0b5750854211155b610a5c576040805162461bcd60e51b815260206004820152600e60248201527f7065726d69742d65787069726564000000000000000000000000000000000000604482015290519081900360640190fd5b6001600160a01b03891660009081526006602052604090208054600181019091558714610ad0576040805162461bcd60e51b815260206004820152600d60248201527f696e76616c69642d6e6f6e636500000000000000000000000000000000000000604482015290519081900360640190fd5b600085610ade576000610ae2565b6000195b6001600160a01b03808c166000818152600160209081526040808320948f168084529482529182902085905581518581529151949550929391927f8c5be1e5ebec7d5bd14f71427d1e84f3dd0314c0f7b2291e5b200ac8c7c3b92592918290030190a350505050505050505050565b60048054604080516020601f60026000196101006001881615020190951694909404938401819004810282018101909252828152606093909290918301828280156105e05780601f106105b5576101008083540402835291602001916105e0565b60006105fe610bbf610c58565b84610685856040518060600160405280602581526020016110b26025913960016000610be9610c58565b6001600160a01b03908116825260208083019390935260409182016000908120918d16815292529020549190610efd565b6000610c268383610f94565b9392505050565b6001600160a01b03918216600090815260016020908152604080832093909416825291909152205490565b3390565b600082820183811015610c26576040805162461bcd60e51b815260206004820152601b60248201527f536166654d6174683a206164646974696f6e206f766572666c6f770000000000604482015290519081900360640190fd5b6001600160a01b038316610cfb5760405162461bcd60e51b815260040180806020018281038252602481526020018061108e6024913960400191505060405180910390fd5b6001600160a01b038216610d405760405162461bcd60e51b8152600401808060200182810382526022815260200180610fd16022913960400191505060405180910390fd5b6001600160a01b03808416600081815260016020908152604080832094871680845294825291829020859055815185815291517f8c5be1e5ebec7d5bd14f71427d1e84f3dd0314c0f7b2291e5b200ac8c7c3b9259281900390910190a3505050565b6001600160a01b038316610de75760405162461bcd60e51b81526004018080602001828103825260258152602001806110416025913960400191505060405180910390fd5b6001600160a01b038216610e2c5760405162461bcd60e51b8152600401808060200182810382526023815260200180610fae6023913960400191505060405180910390fd5b610e37838383610fa8565b610e7481604051806060016040528060268152602001610ff3602691396001600160a01b0386166000908152602081905260409020549190610efd565b6001600160a01b038085166000908152602081905260408082209390935590841681522054610ea39082610c5c565b6001600160a01b038084166000818152602081815260409182902094909455805185815290519193928716927fddf252ad1be2c89b69c2b068fc378daa952ba7f163c4a11628f55a4df523b3ef92918290030190a3505050565b60008184841115610f8c5760405162461bcd60e51b81526004018080602001828103825283818151815260200191508051906020019080838360005b83811015610f51578181015183820152602001610f39565b50505050905090810190601f168015610f7e5780820380516001836020036101000a031916815260200191505b509250505060405180910390fd5b505050900390565b60006105fe610fa1610c58565b8484610da2565b50505056fe45524332303a207472616e7366657220746f20746865207a65726f206164647265737345524332303a20617070726f766520746f20746865207a65726f206164647265737345524332303a207472616e7366657220616d6f756e7420657863656564732062616c616e636545524332303a207472616e7366657220616d6f756e74206578636565647320616c6c6f77616e636545524332303a207472616e736665722066726f6d20746865207a65726f206164647265737345524332303a207769746864726177616c20616d6f756e7420657863656564732062616c616e636545524332303a20617070726f76652066726f6d20746865207a65726f206164647265737345524332303a2064656372656173656420616c6c6f77616e63652062656c6f77207a65726fa26469706673582212202fb5087e5b6e0ff62f7c3b2863ef32bf81c83cd04979458cb238c3ffe2f5f88864736f6c634300060c0033",
  "linkReferences": {},
  "deployedLinkReferences": {}
}