{
  "_format": "hh-sol-artifact-1",
  "contractName": "UniswapV2Router",
  "sourceName": "src/uniswap/router/UniswapV2Router.sol",
  "abi": [
    {
      "inputs": [
        {
          "internalType": "address",
          "name": "_factory",
          "type": "address"
        }
      ],
      "stateMutability": "nonpayable",
      "type": "constructor"
    },
    {
      "anonymous": false,
      "inputs": [
        {
          "indexed": false,
          "internalType": "address",
          "name": "sender",
          "type": "address"
        },
        {
          "indexed": false,
          "internalType": "bytes32",
          "name": "tokenHash",
          "type": "bytes32"
        },
        {
          "indexed": false,
          "internalType": "uint256",
          "name": "liquidity",
          "type": "uint256"
        },
        {
          "indexed": false,
          "internalType": "uint256",
          "name": "amountB",
          "type": "uint256"
        },
        {
          "indexed": false,
          "internalType": "uint256",
          "name": "amountA",
          "type": "uint256"
        }
      ],
      "name": "LiquidityAdded",
      "type": "event"
    },
    {
      "anonymous": false,
      "inputs": [
        {
          "indexed": false,
          "internalType": "address",
          "name": "sender",
          "type": "address"
        },
        {
          "indexed": false,
          "internalType": "bytes32",
          "name": "tokenHash",
          "type": "bytes32"
        },
        {
          "indexed": false,
          "internalType": "uint256",
          "name": "liquidity",
          "type": "uint256"
        },
        {
          "indexed": false,
          "internalType": "uint256",
          "name": "amountB",
          "type": "uint256"
        },
        {
          "indexed": false,
          "internalType": "uint256",
          "name": "amountA",
          "type": "uint256"
        }
      ],
      "name": "LiquidityRemoved",
      "type": "event"
    },
    {
      "anonymous": false,
      "inputs": [
        {
          "indexed": false,
          "internalType": "address",
          "name": "sender",
          "type": "address"
        },
        {
          "indexed": false,
          "internalType": "bytes32",
          "name": "tokenHash",
          "type": "bytes32"
        },
        {
          "indexed": false,
          "internalType": "uint256",
          "name": "baseTokenAmountIn",
          "type": "uint256"
        },
        {
          "indexed": false,
          "internalType": "uint256",
          "name": "tokenAmountOut",
          "type": "uint256"
        }
      ],
      "name": "SwapBaseTokensForExactTokens",
      "type": "event"
    },
    {
      "anonymous": false,
      "inputs": [
        {
          "indexed": false,
          "internalType": "address",
          "name": "sender",
          "type": "address"
        },
        {
          "indexed": false,
          "internalType": "bytes32",
          "name": "tokenHash",
          "type": "bytes32"
        },
        {
          "indexed": false,
          "internalType": "uint256",
          "name": "ethAmountIn",
          "type": "uint256"
        },
        {
          "indexed": false,
          "internalType": "uint256",
          "name": "tokenAmountOut",
          "type": "uint256"
        }
      ],
      "name": "SwapETHForExactTokens",
      "type": "event"
    },
    {
      "anonymous": false,
      "inputs": [
        {
          "indexed": false,
          "internalType": "address",
          "name": "sender",
          "type": "address"
        },
        {
          "indexed": false,
          "internalType": "bytes32",
          "name": "tokenHash",
          "type": "bytes32"
        },
        {
          "indexed": false,
          "internalType": "uint256",
          "name": "baseTokenAmountIn",
          "type": "uint256"
        },
        {
          "indexed": false,
          "internalType": "uint256",
          "name": "tokenAmountOut",
          "type": "uint256"
        }
      ],
      "name": "SwapExactBaseTokensForTokens",
      "type": "event"
    },
    {
      "anonymous": false,
      "inputs": [
        {
          "indexed": false,
          "internalType": "address",
          "name": "sender",
          "type": "address"
        },
        {
          "indexed": false,
          "internalType": "bytes32",
          "name": "tokenHash",
          "type": "bytes32"
        },
        {
          "indexed": false,
          "internalType": "uint256",
          "name": "ethAmountIn",
          "type": "uint256"
        },
        {
          "indexed": false,
          "internalType": "uint256",
          "name": "tokenAmountOut",
          "type": "uint256"
        }
      ],
      "name": "SwapExactETHForTokens",
      "type": "event"
    },
    {
      "anonymous": false,
      "inputs": [
        {
          "indexed": false,
          "internalType": "address",
          "name": "sender",
          "type": "address"
        },
        {
          "indexed": false,
          "internalType": "bytes32",
          "name": "tokenHash",
          "type": "bytes32"
        },
        {
          "indexed": false,
          "internalType": "uint256",
          "name": "baseTokenAmountOut",
          "type": "uint256"
        },
        {
          "indexed": false,
          "internalType": "uint256",
          "name": "tokenAmountIn",
          "type": "uint256"
        }
      ],
      "name": "SwapExactTokensForBaseTokens",
      "type": "event"
    },
    {
      "anonymous": false,
      "inputs": [
        {
          "indexed": false,
          "internalType": "address",
          "name": "sender",
          "type": "address"
        },
        {
          "indexed": false,
          "internalType": "bytes32",
          "name": "tokenHash",
          "type": "bytes32"
        },
        {
          "indexed": false,
          "internalType": "uint256",
          "name": "ethAmountOut",
          "type": "uint256"
        },
        {
          "indexed": false,
          "internalType": "uint256",
          "name": "tokenAmountIn",
          "type": "uint256"
        }
      ],
      "name": "SwapExactTokensForETH",
      "type": "event"
    },
    {
      "anonymous": false,
      "inputs": [
        {
          "indexed": false,
          "internalType": "address",
          "name": "sender",
          "type": "address"
        },
        {
          "indexed": false,
          "internalType": "bytes32",
          "name": "tokenHash",
          "type": "bytes32"
        },
        {
          "indexed": false,
          "internalType": "uint256",
          "name": "baseTokenAmountOut",
          "type": "uint256"
        },
        {
          "indexed": false,
          "internalType": "uint256",
          "name": "tokenAmountIn",
          "type": "uint256"
        }
      ],
      "name": "SwapTokensForExactBaseTokens",
      "type": "event"
    },
    {
      "anonymous": false,
      "inputs": [
        {
          "indexed": false,
          "internalType": "address",
          "name": "sender",
          "type": "address"
        },
        {
          "indexed": false,
          "internalType": "bytes32",
          "name": "tokenHash",
          "type": "bytes32"
        },
        {
          "indexed": false,
          "internalType": "uint256",
          "name": "ethAmountOut",
          "type": "uint256"
        },
        {
          "indexed": false,
          "internalType": "uint256",
          "name": "tokenAmountIn",
          "type": "uint256"
        }
      ],
      "name": "SwapTokensForExactETH",
      "type": "event"
    },
    {
      "inputs": [
        {
          "internalType": "bytes32",
          "name": "tokenHash",
          "type": "bytes32"
        },
        {
          "internalType": "uint256",
          "name": "amountADesired",
          "type": "uint256"
        },
        {
          "internalType": "uint256",
          "name": "amountBDesired",
          "type": "uint256"
        },
        {
          "internalType": "uint256",
          "name": "amountAMin",
          "type": "uint256"
        },
        {
          "internalType": "uint256",
          "name": "amountBMin",
          "type": "uint256"
        },
        {
          "internalType": "address",
          "name": "to",
          "type": "address"
        },
        {
          "internalType": "uint256",
          "name": "deadline",
          "type": "uint256"
        }
      ],
      "name": "addLiquidity",
      "outputs": [
        {
          "internalType": "uint256",
          "name": "amountA",
          "type": "uint256"
        },
        {
          "internalType": "uint256",
          "name": "amountB",
          "type": "uint256"
        },
        {
          "internalType": "uint256",
          "name": "liquidity",
          "type": "uint256"
        }
      ],
      "stateMutability": "nonpayable",
      "type": "function"
    },
    {
      "inputs": [
        {
          "internalType": "bytes32",
          "name": "tokenHash",
          "type": "bytes32"
        },
        {
          "internalType": "uint256",
          "name": "amountTokenDesired",
          "type": "uint256"
        },
        {
          "internalType": "uint256",
          "name": "amountTokenMin",
          "type": "uint256"
        },
        {
          "internalType": "uint256",
          "name": "amountETHMin",
          "type": "uint256"
        },
        {
          "internalType": "address",
          "name": "to",
          "type": "address"
        },
        {
          "internalType": "uint256",
          "name": "deadline",
          "type": "uint256"
        }
      ],
      "name": "addLiquidityETH",
      "outputs": [
        {
          "internalType": "uint256",
          "name": "amountToken",
          "type": "uint256"
        },
        {
          "internalType": "uint256",
          "name": "amountETH",
          "type": "uint256"
        },
        {
          "internalType": "uint256",
          "name": "liquidity",
          "type": "uint256"
        }
      ],
      "stateMutability": "payable",
      "type": "function"
    },
    {
      "inputs": [],
      "name": "factory",
      "outputs": [
        {
          "internalType": "address",
          "name": "",
          "type": "address"
        }
      ],
      "stateMutability": "view",
      "type": "function"
    },
    {
      "inputs": [
        {
          "internalType": "uint256",
          "name": "amountOut",
          "type": "uint256"
        },
        {
          "internalType": "uint256",
          "name": "reserveIn",
          "type": "uint256"
        },
        {
          "internalType": "uint256",
          "name": "reserveOut",
          "type": "uint256"
        }
      ],
      "name": "getAmountIn",
      "outputs": [
        {
          "internalType": "uint256",
          "name": "amountIn",
          "type": "uint256"
        }
      ],
      "stateMutability": "pure",
      "type": "function"
    },
    {
      "inputs": [
        {
          "internalType": "uint256",
          "name": "amountIn",
          "type": "uint256"
        },
        {
          "internalType": "uint256",
          "name": "reserveIn",
          "type": "uint256"
        },
        {
          "internalType": "uint256",
          "name": "reserveOut",
          "type": "uint256"
        }
      ],
      "name": "getAmountOut",
      "outputs": [
        {
          "internalType": "uint256",
          "name": "amountOut",
          "type": "uint256"
        }
      ],
      "stateMutability": "pure",
      "type": "function"
    },
    {
      "inputs": [
        {
          "internalType": "uint256",
          "name": "tokenAmountOut",
          "type": "uint256"
        },
        {
          "internalType": "bytes32",
          "name": "tokenHash",
          "type": "bytes32"
        }
      ],
      "name": "getBaseTokenAmountIn",
      "outputs": [
        {
          "internalType": "uint256",
          "name": "amountOut",
          "type": "uint256"
        }
      ],
      "stateMutability": "view",
      "type": "function"
    },
    {
      "inputs": [
        {
          "internalType": "uint256",
          "name": "tokenAmountIn",
          "type": "uint256"
        },
        {
          "internalType": "bytes32",
          "name": "tokenHash",
          "type": "bytes32"
        }
      ],
      "name": "getBaseTokenAmountOut",
      "outputs": [
        {
          "internalType": "uint256",
          "name": "amountOut",
          "type": "uint256"
        }
      ],
      "stateMutability": "view",
      "type": "function"
    },
    {
      "inputs": [
        {
          "internalType": "uint256",
          "name": "baseTokenAmountOut",
          "type": "uint256"
        },
        {
          "internalType": "bytes32",
          "name": "tokenHash",
          "type": "bytes32"
        }
      ],
      "name": "getTokenAmountIn",
      "outputs": [
        {
          "internalType": "uint256",
          "name": "amountOut",
          "type": "uint256"
        }
      ],
      "stateMutability": "view",
      "type": "function"
    },
    {
      "inputs": [
        {
          "internalType": "uint256",
          "name": "baseTokenAmountIn",
          "type": "uint256"
        },
        {
          "internalType": "bytes32",
          "name": "tokenHash",
          "type": "bytes32"
        }
      ],
      "name": "getTokenAmountOut",
      "outputs": [
        {
          "internalType": "uint256",
          "name": "amountOut",
          "type": "uint256"
        }
      ],
      "stateMutability": "view",
      "type": "function"
    },
    {
      "inputs": [
        {
          "internalType": "uint256",
          "name": "amountA",
          "type": "uint256"
        },
        {
          "internalType": "uint256",
          "name": "reserveA",
          "type": "uint256"
        },
        {
          "internalType": "uint256",
          "name": "reserveB",
          "type": "uint256"
        }
      ],
      "name": "quote",
      "outputs": [
        {
          "internalType": "uint256",
          "name": "amountB",
          "type": "uint256"
        }
      ],
      "stateMutability": "pure",
      "type": "function"
    },
    {
      "inputs": [
        {
          "internalType": "bytes32",
          "name": "tokenHash",
          "type": "bytes32"
        },
        {
          "internalType": "uint256",
          "name": "liquidity",
          "type": "uint256"
        },
        {
          "internalType": "uint256",
          "name": "amountAMin",
          "type": "uint256"
        },
        {
          "internalType": "uint256",
          "name": "amountBMin",
          "type": "uint256"
        },
        {
          "internalType": "address",
          "name": "to",
          "type": "address"
        },
        {
          "internalType": "uint256",
          "name": "deadline",
          "type": "uint256"
        }
      ],
      "name": "removeLiquidity",
      "outputs": [
        {
          "internalType": "uint256",
          "name": "amountA",
          "type": "uint256"
        },
        {
          "internalType": "uint256",
          "name": "amountB",
          "type": "uint256"
        }
      ],
      "stateMutability": "nonpayable",
      "type": "function"
    },
    {
      "inputs": [
        {
          "internalType": "bytes32",
          "name": "tokenHash",
          "type": "bytes32"
        },
        {
          "internalType": "uint256",
          "name": "liquidity",
          "type": "uint256"
        },
        {
          "internalType": "uint256",
          "name": "amountTokenMin",
          "type": "uint256"
        },
        {
          "internalType": "uint256",
          "name": "amountETHMin",
          "type": "uint256"
        },
        {
          "internalType": "address",
          "name": "to",
          "type": "address"
        },
        {
          "internalType": "uint256",
          "name": "deadline",
          "type": "uint256"
        }
      ],
      "name": "removeLiquidityETH",
      "outputs": [
        {
          "internalType": "uint256",
          "name": "amountToken",
          "type": "uint256"
        },
        {
          "internalType": "uint256",
          "name": "amountETH",
          "type": "uint256"
        }
      ],
      "stateMutability": "nonpayable",
      "type": "function"
    },
    {
      "inputs": [
        {
          "internalType": "bytes32",
          "name": "tokenHash",
          "type": "bytes32"
        },
        {
          "internalType": "uint256",
          "name": "liquidity",
          "type": "uint256"
        },
        {
          "internalType": "uint256",
          "name": "amountTokenMin",
          "type": "uint256"
        },
        {
          "internalType": "uint256",
          "name": "amountETHMin",
          "type": "uint256"
        },
        {
          "internalType": "address",
          "name": "to",
          "type": "address"
        },
        {
          "internalType": "uint256",
          "name": "deadline",
          "type": "uint256"
        },
        {
          "internalType": "bool",
          "name": "approveMax",
          "type": "bool"
        },
        {
          "internalType": "uint8",
          "name": "v",
          "type": "uint8"
        },
        {
          "internalType": "bytes32",
          "name": "r",
          "type": "bytes32"
        },
        {
          "internalType": "bytes32",
          "name": "s",
          "type": "bytes32"
        }
      ],
      "name": "removeLiquidityETHWithPermit",
      "outputs": [
        {
          "internalType": "uint256",
          "name": "amountToken",
          "type": "uint256"
        },
        {
          "internalType": "uint256",
          "name": "amountETH",
          "type": "uint256"
        }
      ],
      "stateMutability": "nonpayable",
      "type": "function"
    },
    {
      "inputs": [
        {
          "internalType": "bytes32",
          "name": "tokenHash",
          "type": "bytes32"
        },
        {
          "internalType": "uint256",
          "name": "liquidity",
          "type": "uint256"
        },
        {
          "internalType": "uint256",
          "name": "amountAMin",
          "type": "uint256"
        },
        {
          "internalType": "uint256",
          "name": "amountBMin",
          "type": "uint256"
        },
        {
          "internalType": "address",
          "name": "to",
          "type": "address"
        },
        {
          "internalType": "uint256",
          "name": "deadline",
          "type": "uint256"
        },
        {
          "internalType": "bool",
          "name": "approveMax",
          "type": "bool"
        },
        {
          "internalType": "uint8",
          "name": "v",
          "type": "uint8"
        },
        {
          "internalType": "bytes32",
          "name": "r",
          "type": "bytes32"
        },
        {
          "internalType": "bytes32",
          "name": "s",
          "type": "bytes32"
        }
      ],
      "name": "removeLiquidityWithPermit",
      "outputs": [
        {
          "internalType": "uint256",
          "name": "amountA",
          "type": "uint256"
        },
        {
          "internalType": "uint256",
          "name": "amountB",
          "type": "uint256"
        }
      ],
      "stateMutability": "nonpayable",
      "type": "function"
    },
    {
      "inputs": [
        {
          "internalType": "uint256",
          "name": "tokenAmountOut",
          "type": "uint256"
        },
        {
          "internalType": "uint256",
          "name": "baseTokenAmountInMax",
          "type": "uint256"
        },
        {
          "internalType": "bytes32",
          "name": "tokenHash",
          "type": "bytes32"
        },
        {
          "internalType": "address",
          "name": "to",
          "type": "address"
        },
        {
          "internalType": "uint256",
          "name": "deadline",
          "type": "uint256"
        }
      ],
      "name": "swapBaseTokensForExactTokens",
      "outputs": [
        {
          "internalType": "uint256",
          "name": "baseTokenAmountIn",
          "type": "uint256"
        }
      ],
      "stateMutability": "nonpayable",
      "type": "function"
    },
    {
      "inputs": [
        {
          "internalType": "uint256",
          "name": "tokenAmountOut",
          "type": "uint256"
        },
        {
          "internalType": "bytes32",
          "name": "tokenHash",
          "type": "bytes32"
        },
        {
          "internalType": "address",
          "name": "to",
          "type": "address"
        },
        {
          "internalType": "uint256",
          "name": "deadline",
          "type": "uint256"
        }
      ],
      "name": "swapETHForExactTokens",
      "outputs": [
        {
          "internalType": "uint256",
          "name": "ethAmountIn",
          "type": "uint256"
        }
      ],
      "stateMutability": "payable",
      "type": "function"
    },
    {
      "inputs": [
        {
          "internalType": "uint256",
          "name": "baseTokenAmountIn",
          "type": "uint256"
        },
        {
          "internalType": "uint256",
          "name": "tokenAmountOutMin",
          "type": "uint256"
        },
        {
          "internalType": "bytes32",
          "name": "tokenHash",
          "type": "bytes32"
        },
        {
          "internalType": "address",
          "name": "to",
          "type": "address"
        },
        {
          "internalType": "uint256",
          "name": "deadline",
          "type": "uint256"
        }
      ],
      "name": "swapExactBaseTokensForTokens",
      "outputs": [
        {
          "internalType": "uint256",
          "name": "tokenAmountOut",
          "type": "uint256"
        }
      ],
      "stateMutability": "nonpayable",
      "type": "function"
    },
    {
      "inputs": [
        {
          "internalType": "uint256",
          "name": "tokenAmountOutMin",
          "type": "uint256"
        },
        {
          "internalType": "bytes32",
          "name": "tokenHash",
          "type": "bytes32"
        },
        {
          "internalType": "address",
          "name": "to",
          "type": "address"
        },
        {
          "internalType": "uint256",
          "name": "deadline",
          "type": "uint256"
        }
      ],
      "name": "swapExactETHForTokens",
      "outputs": [
        {
          "internalType": "uint256",
          "name": "tokenAmountOut",
          "type": "uint256"
        }
      ],
      "stateMutability": "payable",
      "type": "function"
    },
    {
      "inputs": [
        {
          "internalType": "uint256",
          "name": "tokenAmountIn",
          "type": "uint256"
        },
        {
          "internalType": "uint256",
          "name": "baseTokenAmountOutMin",
          "type": "uint256"
        },
        {
          "internalType": "bytes32",
          "name": "tokenHash",
          "type": "bytes32"
        },
        {
          "internalType": "address",
          "name": "to",
          "type": "address"
        },
        {
          "internalType": "uint256",
          "name": "deadline",
          "type": "uint256"
        }
      ],
      "name": "swapExactTokensForBaseTokens",
      "outputs": [
        {
          "internalType": "uint256",
          "name": "baseTokenAmountOut",
          "type": "uint256"
        }
      ],
      "stateMutability": "nonpayable",
      "type": "function"
    },
    {
      "inputs": [
        {
          "internalType": "uint256",
          "name": "tokenAmountIn",
          "type": "uint256"
        },
        {
          "internalType": "uint256",
          "name": "ethAmountOutMin",
          "type": "uint256"
        },
        {
          "internalType": "bytes32",
          "name": "tokenHash",
          "type": "bytes32"
        },
        {
          "internalType": "address",
          "name": "to",
          "type": "address"
        },
        {
          "internalType": "uint256",
          "name": "deadline",
          "type": "uint256"
        }
      ],
      "name": "swapExactTokensForETH",
      "outputs": [
        {
          "internalType": "uint256",
          "name": "ethAmountOut",
          "type": "uint256"
        }
      ],
      "stateMutability": "nonpayable",
      "type": "function"
    },
    {
      "inputs": [
        {
          "internalType": "uint256",
          "name": "baseTokenAmountOut",
          "type": "uint256"
        },
        {
          "internalType": "uint256",
          "name": "tokenAmountInMax",
          "type": "uint256"
        },
        {
          "internalType": "bytes32",
          "name": "tokenHash",
          "type": "bytes32"
        },
        {
          "internalType": "address",
          "name": "to",
          "type": "address"
        },
        {
          "internalType": "uint256",
          "name": "deadline",
          "type": "uint256"
        }
      ],
      "name": "swapTokensForExactBaseTokens",
      "outputs": [
        {
          "internalType": "uint256",
          "name": "tokenAmountIn",
          "type": "uint256"
        }
      ],
      "stateMutability": "nonpayable",
      "type": "function"
    },
    {
      "inputs": [
        {
          "internalType": "uint256",
          "name": "ethAmountOut",
          "type": "uint256"
        },
        {
          "internalType": "uint256",
          "name": "tokenAmountInMax",
          "type": "uint256"
        },
        {
          "internalType": "bytes32",
          "name": "tokenHash",
          "type": "bytes32"
        },
        {
          "internalType": "address",
          "name": "to",
          "type": "address"
        },
        {
          "internalType": "uint256",
          "name": "deadline",
          "type": "uint256"
        }
      ],
      "name": "swapTokensForExactETH",
      "outputs": [
        {
          "internalType": "uint256",
          "name": "tokenAmountIn",
          "type": "uint256"
        }
      ],
      "stateMutability": "nonpayable",
      "type": "function"
    },
    {
      "stateMutability": "payable",
      "type": "receive"
    }
  ],
  "bytecode": "0x60a060405234801561001057600080fd5b506040516141093803806141098339818101604052602081101561003357600080fd5b5051606081901b6001600160601b0319166080526001600160a01b0316613fe46101256000398061018252806108bf528061096952806109fb5280610bea5280610c945280610e195280610ec7528061104d52806110f7528061127d528061132052806114865280611530528061174252806118435280611b3e5280611be85280611c7a5280611e765280611f205280612120528061221952806122bc5280612343528061250052806125ae528061271b528061274252806127e352806129955280612a435280612bcc5280612c6f5280612d0852806132065280613652528061381352806138b35250613fe46000f3fe6080604052600436106101795760003560e01c8063878d4b92116100cb578063b2f994391161007f578063e41fe22911610059578063e41fe2291461074e578063ec74d34a146107bf578063ef2ced501461080a5761021c565b8063b2f994391461067c578063c45a0155146106ed578063d5e8d1fa1461071e5761021c565b80639350dd31116100b05780639350dd31146105a1578063a26c00c714610616578063ad615dec146106465761021c565b8063878d4b92146105395780638cc2d272146105715761021c565b806333a3e9d81161012d578063602e581811610107578063602e58181461046757806362b89e57146104b857806385f8c259146105035761021c565b806333a3e9d8146103955780634ee93a95146103ff5780635797af20146104375761021c565b806317ddf6221161015e57806317ddf622146102b457806318e525b7146102ff5780631e35f8101461034a5761021c565b8063054d50d4146102215780631536f7af146102695761021c565b3661021c5760007f00000000000000000000000000000000000000000000000000000000000000006001600160a01b031663c55dae636040518163ffffffff1660e01b815260040160206040518083038186803b1580156101d957600080fd5b505afa1580156101ed573d6000803e3d6000fd5b505050506040513d602081101561020357600080fd5b50519050336001600160a01b0382161461021957fe5b50005b600080fd5b34801561022d57600080fd5b506102576004803603606081101561024457600080fd5b508035906020810135906040013561084e565b60408051918252519081900360200190f35b34801561027557600080fd5b50610257600480360360a081101561028c57600080fd5b508035906020810135906040810135906001600160a01b036060820135169060800135610863565b3480156102c057600080fd5b50610257600480360360a08110156102d757600080fd5b508035906020810135906040810135906001600160a01b036060820135169060800135610b8e565b34801561030b57600080fd5b50610257600480360360a081101561032257600080fd5b508035906020810135906040810135906001600160a01b036060820135169060800135610dbd565b34801561035657600080fd5b50610257600480360360a081101561036d57600080fd5b508035906020810135906040810135906001600160a01b036060820135169060800135610ff1565b3480156103a157600080fd5b506103e6600480360360c08110156103b857600080fd5b508035906020810135906040810135906060810135906001600160a01b036080820135169060a00135611220565b6040805192835260208301919091528051918290030190f35b6102576004803603608081101561041557600080fd5b508035906020810135906001600160a01b03604082013516906060013561142a565b34801561044357600080fd5b506102576004803603604081101561045a57600080fd5b508035906020013561173d565b34801561047357600080fd5b506103e6600480360360c081101561048a57600080fd5b508035906020810135906040810135906060810135906001600160a01b036080820135169060a001356117e6565b3480156104c457600080fd5b50610257600480360360a08110156104db57600080fd5b508035906020810135906040810135906001600160a01b036060820135169060800135611ae2565b34801561050f57600080fd5b506102576004803603606081101561052657600080fd5b5080359060208101359060400135611e0d565b6102576004803603608081101561054f57600080fd5b508035906020810135906001600160a01b036040820135169060600135611e1a565b34801561057d57600080fd5b506102576004803603604081101561059457600080fd5b508035906020013561211b565b3480156105ad57600080fd5b506105f8600480360360e08110156105c457600080fd5b508035906020810135906040810135906060810135906080810135906001600160a01b0360a0820135169060c001356121ba565b60408051938452602084019290925282820152519081900360600190f35b34801561062257600080fd5b506102576004803603604081101561063957600080fd5b50803590602001356124fb565b34801561065257600080fd5b506102576004803603606081101561066957600080fd5b508035906020810135906040013561259a565b34801561068857600080fd5b506103e660048036036101408110156106a057600080fd5b508035906020810135906040810135906060810135906001600160a01b036080820135169060a08101359060c081013515159060ff60e082013516906101008101359061012001356125a7565b3480156106f957600080fd5b50610702612719565b604080516001600160a01b039092168252519081900360200190f35b34801561072a57600080fd5b506102576004803603604081101561074157600080fd5b508035906020013561273d565b34801561075a57600080fd5b506103e6600480360361014081101561077257600080fd5b508035906020810135906040810135906060810135906001600160a01b036080820135169060a08101359060c081013515159060ff60e082013516906101008101359061012001356127dc565b3480156107cb57600080fd5b50610257600480360360a08110156107e257600080fd5b508035906020810135906040810135906001600160a01b036060820135169060800135612939565b6105f8600480360360c081101561082057600080fd5b508035906020810135906040810135906060810135906001600160a01b036080820135169060a00135612b6d565b600061085b848484612f67565b949350505050565b600081428110156108bb576040805162461bcd60e51b815260206004820152601860248201527f556e69737761705632526f757465723a20455850495245440000000000000000604482015290519081900360640190fd5b60007f00000000000000000000000000000000000000000000000000000000000000006001600160a01b031663c55dae636040518163ffffffff1660e01b815260040160206040518083038186803b15801561091657600080fd5b505afa15801561092a573d6000803e3d6000fd5b505050506040513d602081101561094057600080fd5b50516040805163b8e5303d60e01b81526004810189905290519192506000916001600160a01b037f0000000000000000000000000000000000000000000000000000000000000000169163b8e5303d916024808301926020929190829003018186803b1580156109af57600080fd5b505afa1580156109c3573d6000803e3d6000fd5b505050506040513d60208110156109d957600080fd5b50516040805163e09d894d60e01b815290519192506000916001600160a01b037f0000000000000000000000000000000000000000000000000000000000000000169163e09d894d916004808301926020929190829003018186803b158015610a4157600080fd5b505afa158015610a55573d6000803e3d6000fd5b505050506040513d6020811015610a6b57600080fd5b50519050610a79828b61303f565b945088851015610aba5760405162461bcd60e51b815260040180806020018281038252602f815260200180613f80602f913960400191505060405180910390fd5b610ac7818933858e613065565b610ad28589306131f8565b826001600160a01b0316632e1a7d4d866040518263ffffffff1660e01b815260040180828152602001915050600060405180830381600087803b158015610b1857600080fd5b505af1158015610b2c573d6000803e3d6000fd5b50505050610b3a87866133ae565b60408051338152602081018a9052808201879052606081018c905290517fa4b548a4389f35e850a725a8d38c3d4031500bbfa603b1e8c1e8cd79a526f7359181900360800190a15050505095945050505050565b60008142811015610be6576040805162461bcd60e51b815260206004820152601860248201527f556e69737761705632526f757465723a20455850495245440000000000000000604482015290519081900360640190fd5b60007f00000000000000000000000000000000000000000000000000000000000000006001600160a01b031663c55dae636040518163ffffffff1660e01b815260040160206040518083038186803b158015610c4157600080fd5b505afa158015610c55573d6000803e3d6000fd5b505050506040513d6020811015610c6b57600080fd5b50516040805163b8e5303d60e01b81526004810189905290519192506000916001600160a01b037f0000000000000000000000000000000000000000000000000000000000000000169163b8e5303d916024808301926020929190829003018186803b158015610cda57600080fd5b505afa158015610cee573d6000803e3d6000fd5b505050506040513d6020811015610d0457600080fd5b50519050610d12818a6134a6565b935087841115610d535760405162461bcd60e51b8152600401808060200182810382526032815260200180613d8e6032913960400191505060405180910390fd5b610d5f823383876134c3565b610d6a89888861364e565b6040805133815260208101899052808201869052606081018b905290517fc4d5ecb1c39f525414af6c436b95ebf8a3ac513d7a420c8c4701fa6a1f8ce74d9181900360800190a150505095945050505050565b60008142811015610e15576040805162461bcd60e51b815260206004820152601860248201527f556e69737761705632526f757465723a20455850495245440000000000000000604482015290519081900360640190fd5b60007f00000000000000000000000000000000000000000000000000000000000000006001600160a01b031663b8e5303d876040518263ffffffff1660e01b81526004018082815260200191505060206040518083038186803b158015610e7b57600080fd5b505afa158015610e8f573d6000803e3d6000fd5b505050506040513d6020811015610ea557600080fd5b50516040805163e09d894d60e01b815290519192506000916001600160a01b037f0000000000000000000000000000000000000000000000000000000000000000169163e09d894d916004808301926020929190829003018186803b158015610f0d57600080fd5b505afa158015610f21573d6000803e3d6000fd5b505050506040513d6020811015610f3757600080fd5b50519050610f45828a61303f565b935087841015610f865760405162461bcd60e51b8152600401808060200182810382526036815260200180613cff6036913960400191505060405180910390fd5b610f93818833858d613065565b610f9e8488886131f8565b6040805133815260208101899052808201869052606081018b905290517feb98bfa5b4238f236ef7c73a71968bf2f4baf43252216e2a9eaf7ae4069fb1689181900360800190a150505095945050505050565b60008142811015611049576040805162461bcd60e51b815260206004820152601860248201527f556e69737761705632526f757465723a20455850495245440000000000000000604482015290519081900360640190fd5b60007f00000000000000000000000000000000000000000000000000000000000000006001600160a01b031663c55dae636040518163ffffffff1660e01b815260040160206040518083038186803b1580156110a457600080fd5b505afa1580156110b8573d6000803e3d6000fd5b505050506040513d60208110156110ce57600080fd5b50516040805163b8e5303d60e01b81526004810189905290519192506000916001600160a01b037f0000000000000000000000000000000000000000000000000000000000000000169163b8e5303d916024808301926020929190829003018186803b15801561113d57600080fd5b505afa158015611151573d6000803e3d6000fd5b505050506040513d602081101561116757600080fd5b50519050611175818a6136fe565b9350878410156111b65760405162461bcd60e51b8152600401808060200182810382526031815260200180613e636031913960400191505060405180910390fd5b6111c28233838c6134c3565b6111cd84888861364e565b60408051338152602081018990528082018b90526060810186905290517f62b82f821e7778a952ef95154d8a11bab72d31e6c829958fae47d3b266353d4b9181900360800190a150505095945050505050565b6000808242811015611279576040805162461bcd60e51b815260206004820152601860248201527f556e69737761705632526f757465723a20455850495245440000000000000000604482015290519081900360640190fd5b60007f00000000000000000000000000000000000000000000000000000000000000006001600160a01b031663c55dae636040518163ffffffff1660e01b815260040160206040518083038186803b1580156112d457600080fd5b505afa1580156112e8573d6000803e3d6000fd5b505050506040513d60208110156112fe57600080fd5b50516040805163e09d894d60e01b815290519192506000916001600160a01b037f0000000000000000000000000000000000000000000000000000000000000000169163e09d894d916004808301926020929190829003018186803b15801561136657600080fd5b505afa15801561137a573d6000803e3d6000fd5b505050506040513d602081101561139057600080fd5b505190506113a28b8b8b8b308b6117e6565b90955093506113b4818c308a89613065565b816001600160a01b0316632e1a7d4d856040518263ffffffff1660e01b815260040180828152602001915050600060405180830381600087803b1580156113fa57600080fd5b505af115801561140e573d6000803e3d6000fd5b5050505061141c87856133ae565b505050965096945050505050565b60008142811015611482576040805162461bcd60e51b815260206004820152601860248201527f556e69737761705632526f757465723a20455850495245440000000000000000604482015290519081900360640190fd5b60007f00000000000000000000000000000000000000000000000000000000000000006001600160a01b031663c55dae636040518163ffffffff1660e01b815260040160206040518083038186803b1580156114dd57600080fd5b505afa1580156114f1573d6000803e3d6000fd5b505050506040513d602081101561150757600080fd5b50516040805163b8e5303d60e01b81526004810189905290519192506000916001600160a01b037f0000000000000000000000000000000000000000000000000000000000000000169163b8e5303d916024808301926020929190829003018186803b15801561157657600080fd5b505afa15801561158a573d6000803e3d6000fd5b505050506040513d60208110156115a057600080fd5b505190506115ae81896134a6565b9350348411156115ef5760405162461bcd60e51b8152600401808060200182810382526027815260200180613eb96027913960400191505060405180910390fd5b816001600160a01b031663d0e30db0856040518263ffffffff1660e01b81526004016000604051808303818588803b15801561162a57600080fd5b505af115801561163e573d6000803e3d6000fd5b5050505050816001600160a01b031663a9059cbb82866040518363ffffffff1660e01b815260040180836001600160a01b0316815260200182815260200192505050602060405180830381600087803b15801561169a57600080fd5b505af11580156116ae573d6000803e3d6000fd5b505050506040513d60208110156116c457600080fd5b50516116cc57fe5b6116d788888861364e565b833411156116eb576116eb338534036133ae565b6040805133815260208101899052808201869052606081018a905290517fdc4e2da3656b4e95b9e177561e430e7cd2de2ec1ea7b365a5aab625fe485bb5c9181900360800190a1505050949350505050565b6000807f00000000000000000000000000000000000000000000000000000000000000006001600160a01b031663b8e5303d846040518263ffffffff1660e01b81526004018082815260200191505060206040518083038186803b1580156117a457600080fd5b505afa1580156117b8573d6000803e3d6000fd5b505050506040513d60208110156117ce57600080fd5b505190506117dc81856134a6565b9150505b92915050565b600080824281101561183f576040805162461bcd60e51b815260206004820152601860248201527f556e69737761705632526f757465723a20455850495245440000000000000000604482015290519081900360640190fd5b60007f00000000000000000000000000000000000000000000000000000000000000006001600160a01b031663b8e5303d8b6040518263ffffffff1660e01b81526004018082815260200191505060206040518083038186803b1580156118a557600080fd5b505afa1580156118b9573d6000803e3d6000fd5b505050506040513d60208110156118cf57600080fd5b5051604080517f23b872dd0000000000000000000000000000000000000000000000000000000081523360048201526001600160a01b03831660248201819052604482018d9052915192935090916323b872dd916064808201926020929091908290030181600087803b15801561194557600080fd5b505af1158015611959573d6000803e3d6000fd5b505050506040513d602081101561196f57600080fd5b5050604080517f89afcb440000000000000000000000000000000000000000000000000000000081526001600160a01b0388811660048301528251908416926389afcb4492602480820193918290030181600087803b1580156119d157600080fd5b505af11580156119e5573d6000803e3d6000fd5b505050506040513d60408110156119fb57600080fd5b508051602090910151909450925087841015611a485760405162461bcd60e51b8152600401808060200182810382526026815260200180613ee06026913960400191505060405180910390fd5b86831015611a875760405162461bcd60e51b8152600401808060200182810382526026815260200180613df46026913960400191505060405180910390fd5b60408051338152602081018c90528082018b9052606081018590526080810186905290517fdcd2a7a2ca607e210edca7c07bebf4592a7fc452d24305ca55ecdff503421fb09181900360a00190a15050965096945050505050565b60008142811015611b3a576040805162461bcd60e51b815260206004820152601860248201527f556e69737761705632526f757465723a20455850495245440000000000000000604482015290519081900360640190fd5b60007f00000000000000000000000000000000000000000000000000000000000000006001600160a01b031663c55dae636040518163ffffffff1660e01b815260040160206040518083038186803b158015611b9557600080fd5b505afa158015611ba9573d6000803e3d6000fd5b505050506040513d6020811015611bbf57600080fd5b50516040805163b8e5303d60e01b81526004810189905290519192506000916001600160a01b037f0000000000000000000000000000000000000000000000000000000000000000169163b8e5303d916024808301926020929190829003018186803b158015611c2e57600080fd5b505afa158015611c42573d6000803e3d6000fd5b505050506040513d6020811015611c5857600080fd5b50516040805163e09d894d60e01b815290519192506000916001600160a01b037f0000000000000000000000000000000000000000000000000000000000000000169163e09d894d916004808301926020929190829003018186803b158015611cc057600080fd5b505afa158015611cd4573d6000803e3d6000fd5b505050506040513d6020811015611cea57600080fd5b50519050611cf8828b61371b565b945088851115611d395760405162461bcd60e51b815260040180806020018281038252602d815260200180613d35602d913960400191505060405180910390fd5b611d468189338589613065565b611d518a89306131f8565b826001600160a01b0316632e1a7d4d8b6040518263ffffffff1660e01b815260040180828152602001915050600060405180830381600087803b158015611d9757600080fd5b505af1158015611dab573d6000803e3d6000fd5b50505050611db9878b6133ae565b60408051338152602081018a90528082018c90526060810187905290517ffd0b9d809c2d16f4a5612f043f58f0e7a8200e07615c2e4c97fbc32051f609969181900360800190a15050505095945050505050565b600061085b848484613734565b60008142811015611e72576040805162461bcd60e51b815260206004820152601860248201527f556e69737761705632526f757465723a20455850495245440000000000000000604482015290519081900360640190fd5b60007f00000000000000000000000000000000000000000000000000000000000000006001600160a01b031663c55dae636040518163ffffffff1660e01b815260040160206040518083038186803b158015611ecd57600080fd5b505afa158015611ee1573d6000803e3d6000fd5b505050506040513d6020811015611ef757600080fd5b50516040805163b8e5303d60e01b81526004810189905290519192506000916001600160a01b037f0000000000000000000000000000000000000000000000000000000000000000169163b8e5303d916024808301926020929190829003018186803b158015611f6657600080fd5b505afa158015611f7a573d6000803e3d6000fd5b505050506040513d6020811015611f9057600080fd5b5051905034611f9f82826136fe565b945088851015611fe05760405162461bcd60e51b815260040180806020018281038252602b815260200180613f06602b913960400191505060405180910390fd5b826001600160a01b031663d0e30db0826040518263ffffffff1660e01b81526004016000604051808303818588803b15801561201b57600080fd5b505af115801561202f573d6000803e3d6000fd5b5050505050826001600160a01b031663a9059cbb83836040518363ffffffff1660e01b815260040180836001600160a01b0316815260200182815260200192505050602060405180830381600087803b15801561208b57600080fd5b505af115801561209f573d6000803e3d6000fd5b505050506040513d60208110156120b557600080fd5b50516120bd57fe5b6120c885898961364e565b60408051338152602081018a90528082018390526060810187905290517f31aca20ac8dabb167d48294233205e20f4fe47ccc5fe0dea37de3e57004e19359181900360800190a150505050949350505050565b6000807f00000000000000000000000000000000000000000000000000000000000000006001600160a01b031663b8e5303d846040518263ffffffff1660e01b81526004018082815260200191505060206040518083038186803b15801561218257600080fd5b505afa158015612196573d6000803e3d6000fd5b505050506040513d60208110156121ac57600080fd5b505190506117dc818561303f565b60008060008342811015612215576040805162461bcd60e51b815260206004820152601860248201527f556e69737761705632526f757465723a20455850495245440000000000000000604482015290519081900360640190fd5b60007f00000000000000000000000000000000000000000000000000000000000000006001600160a01b031663c55dae636040518163ffffffff1660e01b815260040160206040518083038186803b15801561227057600080fd5b505afa158015612284573d6000803e3d6000fd5b505050506040513d602081101561229a57600080fd5b50516040805163e09d894d60e01b815290519192506000916001600160a01b037f0000000000000000000000000000000000000000000000000000000000000000169163e09d894d916004808301926020929190829003018186803b15801561230257600080fd5b505afa158015612316573d6000803e3d6000fd5b505050506040513d602081101561232c57600080fd5b8101908080519060200190929190505050905060007f00000000000000000000000000000000000000000000000000000000000000006001600160a01b031663b8e5303d8f6040518263ffffffff1660e01b81526004018082815260200191505060206040518083038186803b1580156123a557600080fd5b505afa1580156123b9573d6000803e3d6000fd5b505050506040513d60208110156123cf57600080fd5b505190506123e08e8e8e8e8e61380c565b90975095506123f2828f33848b613065565b6123fe833383896134c3565b806001600160a01b0316636a6278428a6040518263ffffffff1660e01b815260040180826001600160a01b03168152602001915050602060405180830381600087803b15801561244d57600080fd5b505af1158015612461573d6000803e3d6000fd5b505050506040513d602081101561247757600080fd5b810190808051906020019092919050505094507fdfdd9dbcc558b79525f53ba7faeaa725e94f45e8795c3152c0e8353bb73025b7338f87898b60405180866001600160a01b031681526020018581526020018481526020018381526020018281526020019550505050505060405180910390a1505050509750975097945050505050565b6000807f00000000000000000000000000000000000000000000000000000000000000006001600160a01b031663b8e5303d846040518263ffffffff1660e01b81526004018082815260200191505060206040518083038186803b15801561256257600080fd5b505afa158015612576573d6000803e3d6000fd5b505050506040513d602081101561258c57600080fd5b505190506117dc818561371b565b600061085b848484613a3f565b60008060007f00000000000000000000000000000000000000000000000000000000000000006001600160a01b031663b8e5303d8e6040518263ffffffff1660e01b81526004018082815260200191505060206040518083038186803b15801561261057600080fd5b505afa158015612624573d6000803e3d6000fd5b505050506040513d602081101561263a57600080fd5b5051905060008761264b578c61264f565b6000195b604080517fd505accf00000000000000000000000000000000000000000000000000000000815233600482015230602482015260448101839052606481018c905260ff8a16608482015260a4810189905260c4810188905290519192506001600160a01b0384169163d505accf9160e48082019260009290919082900301818387803b1580156126de57600080fd5b505af11580156126f2573d6000803e3d6000fd5b505050506127048e8e8e8e8e8e6117e6565b909f909e509c50505050505050505050505050565b7f000000000000000000000000000000000000000000000000000000000000000081565b6000807f00000000000000000000000000000000000000000000000000000000000000006001600160a01b031663b8e5303d846040518263ffffffff1660e01b81526004018082815260200191505060206040518083038186803b1580156127a457600080fd5b505afa1580156127b8573d6000803e3d6000fd5b505050506040513d60208110156127ce57600080fd5b505190506117dc81856136fe565b60008060007f00000000000000000000000000000000000000000000000000000000000000006001600160a01b031663b8e5303d8e6040518263ffffffff1660e01b81526004018082815260200191505060206040518083038186803b15801561284557600080fd5b505afa158015612859573d6000803e3d6000fd5b505050506040513d602081101561286f57600080fd5b50519050600087612880578c612884565b6000195b604080517fd505accf00000000000000000000000000000000000000000000000000000000815233600482015230602482015260448101839052606481018c905260ff8a16608482015260a4810189905260c4810188905290519192506001600160a01b0384169163d505accf9160e48082019260009290919082900301818387803b15801561291357600080fd5b505af1158015612927573d6000803e3d6000fd5b505050506127048e8e8e8e8e8e611220565b60008142811015612991576040805162461bcd60e51b815260206004820152601860248201527f556e69737761705632526f757465723a20455850495245440000000000000000604482015290519081900360640190fd5b60007f00000000000000000000000000000000000000000000000000000000000000006001600160a01b031663b8e5303d876040518263ffffffff1660e01b81526004018082815260200191505060206040518083038186803b1580156129f757600080fd5b505afa158015612a0b573d6000803e3d6000fd5b505050506040513d6020811015612a2157600080fd5b50516040805163e09d894d60e01b815290519192506000916001600160a01b037f0000000000000000000000000000000000000000000000000000000000000000169163e09d894d916004808301926020929190829003018186803b158015612a8957600080fd5b505afa158015612a9d573d6000803e3d6000fd5b505050506040513d6020811015612ab357600080fd5b50519050612ac1828a61371b565b935087841115612b025760405162461bcd60e51b815260040180806020018281038252602d815260200180613d35602d913960400191505060405180910390fd5b612b0f8188338588613065565b612b1a8988886131f8565b60408051338152602081018990528082018b90526060810186905290517f108b746a57815b4a14712eea75c468efca63239839d772a4c964b21fef993c139181900360800190a150505095945050505050565b60008060008342811015612bc8576040805162461bcd60e51b815260206004820152601860248201527f556e69737761705632526f757465723a20455850495245440000000000000000604482015290519081900360640190fd5b60007f00000000000000000000000000000000000000000000000000000000000000006001600160a01b031663c55dae636040518163ffffffff1660e01b815260040160206040518083038186803b158015612c2357600080fd5b505afa158015612c37573d6000803e3d6000fd5b505050506040513d6020811015612c4d57600080fd5b50516040805163e09d894d60e01b815290519192506000916001600160a01b037f0000000000000000000000000000000000000000000000000000000000000000169163e09d894d916004808301926020929190829003018186803b158015612cb557600080fd5b505afa158015612cc9573d6000803e3d6000fd5b505050506040513d6020811015612cdf57600080fd5b50516040805163b8e5303d60e01b8152600481018f905290519192506000916001600160a01b037f0000000000000000000000000000000000000000000000000000000000000000169163b8e5303d916024808301926020929190829003018186803b158015612d4e57600080fd5b505afa158015612d62573d6000803e3d6000fd5b505050506040513d6020811015612d7857600080fd5b50519050612d898d8d348e8e61380c565b9097509550612d9b828e33848b613065565b826001600160a01b031663d0e30db0876040518263ffffffff1660e01b81526004016000604051808303818588803b158015612dd657600080fd5b505af1158015612dea573d6000803e3d6000fd5b5050505050826001600160a01b031663a9059cbb82886040518363ffffffff1660e01b815260040180836001600160a01b0316815260200182815260200192505050602060405180830381600087803b158015612e4657600080fd5b505af1158015612e5a573d6000803e3d6000fd5b505050506040513d6020811015612e7057600080fd5b5051612e7857fe5b806001600160a01b0316636a6278428a6040518263ffffffff1660e01b815260040180826001600160a01b03168152602001915050602060405180830381600087803b158015612ec757600080fd5b505af1158015612edb573d6000803e3d6000fd5b505050506040513d6020811015612ef157600080fd5b5051945034861015612f0957612f09338734036133ae565b60408051338152602081018f9052808201879052606081018990526080810188905290517fdfdd9dbcc558b79525f53ba7faeaa725e94f45e8795c3152c0e8353bb73025b79181900360a00190a15050505096509650969350505050565b6000808411612fa75760405162461bcd60e51b815260040180806020018281038252602b815260200180613f55602b913960400191505060405180910390fd5b600083118015612fb75750600082115b612ff25760405162461bcd60e51b8152600401808060200182810382526028815260200180613e1a6028913960400191505060405180910390fd5b6000613000856103e5613ae5565b9050600061300e8285613ae5565b9050600061302883613022886103e8613ae5565b90613b45565b905080828161303357fe5b04979650505050505050565b600080600061304d85613b9f565b9150915061305c848383612f67565b95945050505050565b604080516001600160a01b03858116602483015284811660448301526064820187905260848083018590528351808403909101815260a490920183526020820180517bffffffffffffffffffffffffffffffffffffffffffffffffffffffff167f7fe683810000000000000000000000000000000000000000000000000000000017815292518251600094606094938b169392918291908083835b6020831061311f5780518252601f199092019160209182019101613100565b6001836020036101000a0380198251168184511680821785525050505050509050019150506000604051808303816000865af19150503d8060008114613181576040519150601f19603f3d011682016040523d82523d6000602084013e613186565b606091505b50915091508180156131b45750805115806131b457508080602001905160208110156131b157600080fd5b50515b6131ef5760405162461bcd60e51b8152600401808060200182810382526024815260200180613f316024913960400191505060405180910390fd5b50505050505050565b6000806000859150915060007f00000000000000000000000000000000000000000000000000000000000000006001600160a01b031663b8e5303d866040518263ffffffff1660e01b81526004018082815260200191505060206040518083038186803b15801561326857600080fd5b505afa15801561327c573d6000803e3d6000fd5b505050506040513d602081101561329257600080fd5b505190506001600160a01b03811663022c0d9f8484876000805b506040519080825280601f01601f1916602001820160405280156132d7576020820181803683370190505b506040518563ffffffff1660e01b815260040180858152602001848152602001836001600160a01b0316815260200180602001828103825283818151815260200191508051906020019080838360005b8381101561333f578181015183820152602001613327565b50505050905090810190601f16801561336c5780820380516001836020036101000a031916815260200191505b5095505050505050600060405180830381600087803b15801561338e57600080fd5b505af11580156133a2573d6000803e3d6000fd5b50505050505050505050565b604080516000808252602082019092526001600160a01b0384169083906040518082805190602001908083835b602083106133fa5780518252601f1990920191602091820191016133db565b6001836020036101000a03801982511681845116808217855250505050505090500191505060006040518083038185875af1925050503d806000811461345c576040519150601f19603f3d011682016040523d82523d6000602084013e613461565b606091505b50509050806134a15760405162461bcd60e51b8152600401808060200182810382526034815260200180613dc06034913960400191505060405180910390fd5b505050565b60008060006134b485613b9f565b9150915061305c848284613734565b604080516001600160a01b0385811660248301528481166044830152606480830185905283518084039091018152608490920183526020820180517bffffffffffffffffffffffffffffffffffffffffffffffffffffffff167f23b872dd0000000000000000000000000000000000000000000000000000000017815292518251600094606094938a169392918291908083835b602083106135765780518252601f199092019160209182019101613557565b6001836020036101000a0380198251168184511680821785525050505050509050019150506000604051808303816000865af19150503d80600081146135d8576040519150601f19603f3d011682016040523d82523d6000602084013e6135dd565b606091505b509150915081801561360b57508051158061360b575080806020019051602081101561360857600080fd5b50515b6136465760405162461bcd60e51b8152600401808060200182810382526024815260200180613f316024913960400191505060405180910390fd5b505050505050565b60007f00000000000000000000000000000000000000000000000000000000000000006001600160a01b031663b8e5303d846040518263ffffffff1660e01b81526004018082815260200191505060206040518083038186803b1580156136b457600080fd5b505afa1580156136c8573d6000803e3d6000fd5b505050506040513d60208110156136de57600080fd5b505190508360006001600160a01b03831663022c0d9f83838781806132ac565b600080600061370c85613b9f565b9150915061305c848284612f67565b600080600061372985613b9f565b9150915061305c8483835b60008084116137745760405162461bcd60e51b815260040180806020018281038252602c815260200180613d62602c913960400191505060405180910390fd5b6000831180156137845750600082115b6137bf5760405162461bcd60e51b8152600401808060200182810382526028815260200180613e1a6028913960400191505060405180910390fd5b60006137d76103e86137d18688613ae5565b90613ae5565b905060006137eb6103e56137d18689613c2a565b905061380260018284816137fb57fe5b0490613b45565b9695505050505050565b60008060007f00000000000000000000000000000000000000000000000000000000000000006001600160a01b031663b8e5303d896040518263ffffffff1660e01b81526004018082815260200191505060206040518083038186803b15801561387557600080fd5b505afa158015613889573d6000803e3d6000fd5b505050506040513d602081101561389f57600080fd5b505190506001600160a01b038116613944577f00000000000000000000000000000000000000000000000000000000000000006001600160a01b031663ed25a5a2896040518263ffffffff1660e01b815260040180828152602001915050602060405180830381600087803b15801561391757600080fd5b505af115801561392b573d6000803e3d6000fd5b505050506040513d602081101561394157600080fd5b50505b60008061395083613b9f565b91509150816000148015613962575080155b1561397257889450879350613a32565b600061397f8a8484613a3f565b90508881116139d257868110156139c75760405162461bcd60e51b8152600401808060200182810382526026815260200180613df46026913960400191505060405180910390fd5b899550935083613a30565b60006139df8a8486613a3f565b90508a8111156139eb57fe5b88811015613a2a5760405162461bcd60e51b8152600401808060200182810382526026815260200180613ee06026913960400191505060405180910390fd5b95508894505b505b5050509550959350505050565b6000808411613a7f5760405162461bcd60e51b8152600401808060200182810382526025815260200180613e946025913960400191505060405180910390fd5b600083118015613a8f5750600082115b613aca5760405162461bcd60e51b8152600401808060200182810382526028815260200180613e1a6028913960400191505060405180910390fd5b82613ad58584613ae5565b81613adc57fe5b04949350505050565b600082613af4575060006117e0565b82820282848281613b0157fe5b0414613b3e5760405162461bcd60e51b8152600401808060200182810382526021815260200180613e426021913960400191505060405180910390fd5b9392505050565b600082820183811015613b3e576040805162461bcd60e51b815260206004820152601b60248201527f536166654d6174683a206164646974696f6e206f766572666c6f770000000000604482015290519081900360640190fd5b600080826001600160a01b0316630902f1ac6040518163ffffffff1660e01b815260040160606040518083038186803b158015613bdb57600080fd5b505afa158015613bef573d6000803e3d6000fd5b505050506040513d6060811015613c0557600080fd5b5080516020909101516dffffffffffffffffffffffffffff9182169591169350915050565b6000613b3e83836040518060400160405280601e81526020017f536166654d6174683a207375627472616374696f6e206f766572666c6f77000081525060008184841115613cf65760405162461bcd60e51b81526004018080602001828103825283818151815260200191508051906020019080838360005b83811015613cbb578181015183820152602001613ca3565b50505050905090810190601f168015613ce85780820380516001836020036101000a031916815260200191505b509250505060405180910390fd5b50505090039056fe556e69737761705632526f757465723a20494e53554646494349454e545f4f55545055545f414d4f554e545f424153455f544f4b454e556e69737761705632526f757465723a204558434553534956455f494e5055545f414d4f554e545f544f4b454e556e697377617056324c6962726172793a20494e53554646494349454e545f4f55545055545f414d4f554e54556e69737761705632526f757465723a204558434553534956455f494e5055545f414d4f554e545f424153455f544f4b454e5472616e7366657248656c7065723a3a736166655472616e736665724554483a20455448207472616e73666572206661696c6564556e69737761705632526f757465723a20494e53554646494349454e545f425f414d4f554e54556e697377617056324c6962726172793a20494e53554646494349454e545f4c4951554944495459536166654d6174683a206d756c7469706c69636174696f6e206f766572666c6f77556e69737761705632526f757465723a20494e53554646494349454e545f4f55545055545f414d4f554e545f544f4b454e556e697377617056324c6962726172793a20494e53554646494349454e545f414d4f554e54556e69737761705632526f757465723a204558434553534956455f494e5055545f414d4f554e54556e69737761705632526f757465723a20494e53554646494349454e545f415f414d4f554e54556e69737761705632526f757465723a20494e53554646494349454e545f4f55545055545f414d4f554e545472616e7366657248656c7065723a205452414e534645525f46524f4d5f4641494c4544556e697377617056324c6962726172793a20494e53554646494349454e545f494e5055545f414d4f554e54556e69737761705632526f757465723a20494e53554646494349454e545f4f55545055545f414d4f554e545f455448a26469706673582212205d11f28018a088afbfd550988fa389de104a21dc8211e644739b770efd84e3f864736f6c634300060c0033",
  "linkReferences": {},
  "deployedLinkReferences": {}
}