{
  "_format": "hh-sol-artifact-1",
  "contractName": "UniswapV2Router",
  "sourceName": "src/uniswap/router/UniswapV2Router.sol",
  "abi": [
    {
      "inputs": [
        {
          "internalType": "address",
          "name": "factory",
          "type": "address"
        }
      ],
      "stateMutability": "nonpayable",
      "type": "constructor"
    },
    {
      "anonymous": false,
      "inputs": [
        {
          "indexed": false,
          "internalType": "address",
          "name": "sender",
          "type": "address"
        },
        {
          "indexed": false,
          "internalType": "bytes32",
          "name": "tokenHash",
          "type": "bytes32"
        },
        {
          "indexed": false,
          "internalType": "uint256",
          "name": "liquidity",
          "type": "uint256"
        },
        {
          "indexed": false,
          "internalType": "uint256",
          "name": "stonkAmount",
          "type": "uint256"
        },
        {
          "indexed": false,
          "internalType": "uint256",
          "name": "tokenAmount",
          "type": "uint256"
        }
      ],
      "name": "LiquidityAdded",
      "type": "event"
    },
    {
      "anonymous": false,
      "inputs": [
        {
          "indexed": false,
          "internalType": "address",
          "name": "sender",
          "type": "address"
        },
        {
          "indexed": false,
          "internalType": "bytes32",
          "name": "tokenHash",
          "type": "bytes32"
        },
        {
          "indexed": false,
          "internalType": "uint256",
          "name": "liquidity",
          "type": "uint256"
        },
        {
          "indexed": false,
          "internalType": "uint256",
          "name": "stonkAmount",
          "type": "uint256"
        },
        {
          "indexed": false,
          "internalType": "uint256",
          "name": "tokenAmount",
          "type": "uint256"
        }
      ],
      "name": "LiquidityRemoved",
      "type": "event"
    },
    {
      "anonymous": false,
      "inputs": [
        {
          "indexed": false,
          "internalType": "address",
          "name": "sender",
          "type": "address"
        },
        {
          "indexed": false,
          "internalType": "bytes32",
          "name": "tokenHash",
          "type": "bytes32"
        },
        {
          "indexed": false,
          "internalType": "uint256",
          "name": "stonkAmount",
          "type": "uint256"
        },
        {
          "indexed": false,
          "internalType": "uint256",
          "name": "tokenAmount",
          "type": "uint256"
        }
      ],
      "name": "SwapExactStonksToTokens",
      "type": "event"
    },
    {
      "anonymous": false,
      "inputs": [
        {
          "indexed": false,
          "internalType": "address",
          "name": "sender",
          "type": "address"
        },
        {
          "indexed": false,
          "internalType": "bytes32",
          "name": "tokenHash",
          "type": "bytes32"
        },
        {
          "indexed": false,
          "internalType": "uint256",
          "name": "stonkAmount",
          "type": "uint256"
        },
        {
          "indexed": false,
          "internalType": "uint256",
          "name": "tokenAmount",
          "type": "uint256"
        }
      ],
      "name": "SwapExactTokensToStonks",
      "type": "event"
    },
    {
      "anonymous": false,
      "inputs": [
        {
          "indexed": false,
          "internalType": "address",
          "name": "sender",
          "type": "address"
        },
        {
          "indexed": false,
          "internalType": "bytes32",
          "name": "tokenHash",
          "type": "bytes32"
        },
        {
          "indexed": false,
          "internalType": "uint256",
          "name": "stonkAmount",
          "type": "uint256"
        },
        {
          "indexed": false,
          "internalType": "uint256",
          "name": "tokenAmount",
          "type": "uint256"
        }
      ],
      "name": "SwapStonksToExactTokens",
      "type": "event"
    },
    {
      "anonymous": false,
      "inputs": [
        {
          "indexed": false,
          "internalType": "address",
          "name": "sender",
          "type": "address"
        },
        {
          "indexed": false,
          "internalType": "bytes32",
          "name": "tokenHash",
          "type": "bytes32"
        },
        {
          "indexed": false,
          "internalType": "uint256",
          "name": "stonkAmount",
          "type": "uint256"
        },
        {
          "indexed": false,
          "internalType": "uint256",
          "name": "tokenAmount",
          "type": "uint256"
        }
      ],
      "name": "SwapTokensToExactStonks",
      "type": "event"
    },
    {
      "inputs": [
        {
          "internalType": "bytes32",
          "name": "tokenHash",
          "type": "bytes32"
        },
        {
          "internalType": "uint256",
          "name": "tokenAmountDesired",
          "type": "uint256"
        },
        {
          "internalType": "uint256",
          "name": "stonkAmountDesired",
          "type": "uint256"
        },
        {
          "internalType": "uint256",
          "name": "tokenAmountMin",
          "type": "uint256"
        },
        {
          "internalType": "uint256",
          "name": "stonkAmountMin",
          "type": "uint256"
        },
        {
          "internalType": "address",
          "name": "to",
          "type": "address"
        },
        {
          "internalType": "uint256",
          "name": "deadline",
          "type": "uint256"
        }
      ],
      "name": "addLiquidity",
      "outputs": [
        {
          "internalType": "uint256",
          "name": "tokenAmount",
          "type": "uint256"
        },
        {
          "internalType": "uint256",
          "name": "stonkAmount",
          "type": "uint256"
        },
        {
          "internalType": "uint256",
          "name": "liquidity",
          "type": "uint256"
        }
      ],
      "stateMutability": "nonpayable",
      "type": "function"
    },
    {
      "inputs": [],
      "name": "factory",
      "outputs": [
        {
          "internalType": "address",
          "name": "",
          "type": "address"
        }
      ],
      "stateMutability": "view",
      "type": "function"
    },
    {
      "inputs": [
        {
          "internalType": "uint256",
          "name": "amountOut",
          "type": "uint256"
        },
        {
          "internalType": "uint256",
          "name": "reserveIn",
          "type": "uint256"
        },
        {
          "internalType": "uint256",
          "name": "reserveOut",
          "type": "uint256"
        }
      ],
      "name": "getAmountIn",
      "outputs": [
        {
          "internalType": "uint256",
          "name": "amountIn",
          "type": "uint256"
        }
      ],
      "stateMutability": "pure",
      "type": "function"
    },
    {
      "inputs": [
        {
          "internalType": "uint256",
          "name": "amountIn",
          "type": "uint256"
        },
        {
          "internalType": "uint256",
          "name": "reserveIn",
          "type": "uint256"
        },
        {
          "internalType": "uint256",
          "name": "reserveOut",
          "type": "uint256"
        }
      ],
      "name": "getAmountOut",
      "outputs": [
        {
          "internalType": "uint256",
          "name": "amountOut",
          "type": "uint256"
        }
      ],
      "stateMutability": "pure",
      "type": "function"
    },
    {
      "inputs": [
        {
          "internalType": "uint256",
          "name": "tokenAmountOut",
          "type": "uint256"
        },
        {
          "internalType": "bytes32",
          "name": "tokenHash",
          "type": "bytes32"
        }
      ],
      "name": "getStonkAmountIn",
      "outputs": [
        {
          "internalType": "uint256",
          "name": "amountOut",
          "type": "uint256"
        }
      ],
      "stateMutability": "view",
      "type": "function"
    },
    {
      "inputs": [
        {
          "internalType": "uint256",
          "name": "tokenAmountIn",
          "type": "uint256"
        },
        {
          "internalType": "bytes32",
          "name": "tokenHash",
          "type": "bytes32"
        }
      ],
      "name": "getStonkAmountOut",
      "outputs": [
        {
          "internalType": "uint256",
          "name": "amountOut",
          "type": "uint256"
        }
      ],
      "stateMutability": "view",
      "type": "function"
    },
    {
      "inputs": [
        {
          "internalType": "uint256",
          "name": "stonkAmountOut",
          "type": "uint256"
        },
        {
          "internalType": "bytes32",
          "name": "tokenHash",
          "type": "bytes32"
        }
      ],
      "name": "getTokenAmountIn",
      "outputs": [
        {
          "internalType": "uint256",
          "name": "amountOut",
          "type": "uint256"
        }
      ],
      "stateMutability": "view",
      "type": "function"
    },
    {
      "inputs": [
        {
          "internalType": "uint256",
          "name": "stonkAmountIn",
          "type": "uint256"
        },
        {
          "internalType": "bytes32",
          "name": "tokenHash",
          "type": "bytes32"
        }
      ],
      "name": "getTokenAmountOut",
      "outputs": [
        {
          "internalType": "uint256",
          "name": "amountOut",
          "type": "uint256"
        }
      ],
      "stateMutability": "view",
      "type": "function"
    },
    {
      "inputs": [
        {
          "internalType": "uint256",
          "name": "amountA",
          "type": "uint256"
        },
        {
          "internalType": "uint256",
          "name": "reserveA",
          "type": "uint256"
        },
        {
          "internalType": "uint256",
          "name": "reserveB",
          "type": "uint256"
        }
      ],
      "name": "quote",
      "outputs": [
        {
          "internalType": "uint256",
          "name": "amountB",
          "type": "uint256"
        }
      ],
      "stateMutability": "pure",
      "type": "function"
    },
    {
      "inputs": [
        {
          "internalType": "bytes32",
          "name": "tokenHash",
          "type": "bytes32"
        },
        {
          "internalType": "uint256",
          "name": "liquidity",
          "type": "uint256"
        },
        {
          "internalType": "uint256",
          "name": "tokenAmountMin",
          "type": "uint256"
        },
        {
          "internalType": "uint256",
          "name": "stonkAmountMin",
          "type": "uint256"
        },
        {
          "internalType": "address",
          "name": "to",
          "type": "address"
        },
        {
          "internalType": "uint256",
          "name": "deadline",
          "type": "uint256"
        }
      ],
      "name": "removeLiquidity",
      "outputs": [
        {
          "internalType": "uint256",
          "name": "tokenAmount",
          "type": "uint256"
        },
        {
          "internalType": "uint256",
          "name": "stonkAmount",
          "type": "uint256"
        }
      ],
      "stateMutability": "nonpayable",
      "type": "function"
    },
    {
      "inputs": [
        {
          "internalType": "bytes32",
          "name": "tokenHash",
          "type": "bytes32"
        },
        {
          "internalType": "uint256",
          "name": "liquidity",
          "type": "uint256"
        },
        {
          "internalType": "uint256",
          "name": "tokenAmountMin",
          "type": "uint256"
        },
        {
          "internalType": "uint256",
          "name": "stonkAmountMin",
          "type": "uint256"
        },
        {
          "internalType": "address",
          "name": "to",
          "type": "address"
        },
        {
          "internalType": "uint256",
          "name": "deadline",
          "type": "uint256"
        },
        {
          "internalType": "bool",
          "name": "approveMax",
          "type": "bool"
        },
        {
          "internalType": "uint8",
          "name": "v",
          "type": "uint8"
        },
        {
          "internalType": "bytes32",
          "name": "r",
          "type": "bytes32"
        },
        {
          "internalType": "bytes32",
          "name": "s",
          "type": "bytes32"
        }
      ],
      "name": "removeLiquidityWithPermit",
      "outputs": [
        {
          "internalType": "uint256",
          "name": "tokenAmount",
          "type": "uint256"
        },
        {
          "internalType": "uint256",
          "name": "stonkAmount",
          "type": "uint256"
        }
      ],
      "stateMutability": "nonpayable",
      "type": "function"
    },
    {
      "inputs": [
        {
          "internalType": "uint256",
          "name": "stonkAmountIn",
          "type": "uint256"
        },
        {
          "internalType": "uint256",
          "name": "tokenAmountOutMin",
          "type": "uint256"
        },
        {
          "internalType": "bytes32",
          "name": "tokenHash",
          "type": "bytes32"
        },
        {
          "internalType": "address",
          "name": "to",
          "type": "address"
        },
        {
          "internalType": "uint256",
          "name": "deadline",
          "type": "uint256"
        }
      ],
      "name": "swapExactStonksForTokens",
      "outputs": [
        {
          "internalType": "uint256",
          "name": "tokenAmountOut",
          "type": "uint256"
        }
      ],
      "stateMutability": "nonpayable",
      "type": "function"
    },
    {
      "inputs": [
        {
          "internalType": "uint256",
          "name": "tokenAmountIn",
          "type": "uint256"
        },
        {
          "internalType": "uint256",
          "name": "stonkAmountOutMin",
          "type": "uint256"
        },
        {
          "internalType": "bytes32",
          "name": "tokenHash",
          "type": "bytes32"
        },
        {
          "internalType": "address",
          "name": "to",
          "type": "address"
        },
        {
          "internalType": "uint256",
          "name": "deadline",
          "type": "uint256"
        }
      ],
      "name": "swapExactTokensForStonks",
      "outputs": [
        {
          "internalType": "uint256",
          "name": "stonkAmountOut",
          "type": "uint256"
        }
      ],
      "stateMutability": "nonpayable",
      "type": "function"
    },
    {
      "inputs": [
        {
          "internalType": "uint256",
          "name": "tokenAmountOut",
          "type": "uint256"
        },
        {
          "internalType": "uint256",
          "name": "stonkAmountInMax",
          "type": "uint256"
        },
        {
          "internalType": "bytes32",
          "name": "tokenHash",
          "type": "bytes32"
        },
        {
          "internalType": "address",
          "name": "to",
          "type": "address"
        },
        {
          "internalType": "uint256",
          "name": "deadline",
          "type": "uint256"
        }
      ],
      "name": "swapStonksForExactTokens",
      "outputs": [
        {
          "internalType": "uint256",
          "name": "stonkAmountIn",
          "type": "uint256"
        }
      ],
      "stateMutability": "nonpayable",
      "type": "function"
    },
    {
      "inputs": [
        {
          "internalType": "uint256",
          "name": "stonkAmountOut",
          "type": "uint256"
        },
        {
          "internalType": "uint256",
          "name": "tokenAmountInMax",
          "type": "uint256"
        },
        {
          "internalType": "bytes32",
          "name": "tokenHash",
          "type": "bytes32"
        },
        {
          "internalType": "address",
          "name": "to",
          "type": "address"
        },
        {
          "internalType": "uint256",
          "name": "deadline",
          "type": "uint256"
        }
      ],
      "name": "swapTokensForExactStonks",
      "outputs": [
        {
          "internalType": "uint256",
          "name": "tokenAmountIn",
          "type": "uint256"
        }
      ],
      "stateMutability": "nonpayable",
      "type": "function"
    }
  ],
  "bytecode": "0x60a060405234801561001057600080fd5b506040516127e73803806127e78339818101604052602081101561003357600080fd5b5051606081901b6001600160601b0319166080526001600160a01b03166127176100d0600039806104c952806105a852806106f452806107b7528061093d5280610c385280610cfb5280610e905280610f4c5280610fd35280611190528061124852806113d352806114515280611530528061162552806116c452806117635280611a9c5280611df05280611f94528061203452506127176000f3fe608060405234801561001057600080fd5b50600436106100f55760003560e01c8063a26c00c711610097578063cddf9e3911610066578063cddf9e39146103b1578063d49ce3d9146103ef578063d5e8d1fa14610412578063f4e3404014610435576100f5565b8063a26c00c7146102dd578063ad615dec14610300578063b2f9943914610329578063c45a01551461038d576100f5565b8063602e5818116100d3578063602e5818146101b15780637edf6de91461020e57806385f8c2591461024c5780639350dd3114610275576100f5565b8063054d50d4146100fa578063463170f9146101355780634900f85714610173575b600080fd5b6101236004803603606081101561011057600080fd5b5080359060208101359060400135610458565b60408051918252519081900360200190f35b610123600480360360a081101561014b57600080fd5b508035906020810135906040810135906001600160a01b03606082013516906080013561046d565b610123600480360360a081101561018957600080fd5b508035906020810135906040810135906001600160a01b036060820135169060800135610698565b6101f5600480360360c08110156101c757600080fd5b508035906020810135906040810135906060810135906001600160a01b036080820135169060a001356108e0565b6040805192835260208301919091528051918290030190f35b610123600480360360a081101561022457600080fd5b508035906020810135906040810135906001600160a01b036060820135169060800135610bdc565b6101236004803603606081101561026257600080fd5b5080359060208101359060400135610e24565b6102bf600480360360e081101561028b57600080fd5b508035906020810135906040810135906060810135906080810135906001600160a01b0360a0820135169060c00135610e31565b60408051938452602084019290925282820152519081900360600190f35b610123600480360360408110156102f357600080fd5b508035906020013561118b565b6101236004803603606081101561031657600080fd5b5080359060208101359060400135611234565b6101f5600480360361014081101561034057600080fd5b508035906020810135906040810135906060810135906001600160a01b036080820135169060a08101359060c081013515159060ff60e08201351690610100810135906101200135611241565b6103956113d1565b604080516001600160a01b039092168252519081900360200190f35b610123600480360360a08110156103c757600080fd5b508035906020810135906040810135906001600160a01b0360608201351690608001356113f5565b6101236004803603604081101561040557600080fd5b5080359060200135611620565b6101236004803603604081101561042857600080fd5b50803590602001356116bf565b6101236004803603604081101561044b57600080fd5b508035906020013561175e565b60006104658484846117fd565b949350505050565b600081428110156104c5576040805162461bcd60e51b815260206004820152601860248201527f556e69737761705632526f757465723a20455850495245440000000000000000604482015290519081900360640190fd5b60007f00000000000000000000000000000000000000000000000000000000000000006001600160a01b031663b8e5303d876040518263ffffffff1660e01b81526004018082815260200191505060206040518083038186803b15801561052b57600080fd5b505afa15801561053f573d6000803e3d6000fd5b505050506040513d602081101561055557600080fd5b5051905061056381896118d5565b9250868311156105a45760405162461bcd60e51b815260040180806020018281038252602d8152602001806124ca602d913960400191505060405180910390fd5b60007f00000000000000000000000000000000000000000000000000000000000000006001600160a01b031663e09d894d6040518163ffffffff1660e01b815260040160206040518083038186803b1580156105ff57600080fd5b505afa158015610613573d6000803e3d6000fd5b505050506040513d602081101561062957600080fd5b5051905061063a81883385886118fb565b610645898888611a8e565b60408051338152602081018990528082018b90526060810186905290517f36b8c661289a0eab283a461c44f59ec458785c605212f11d830811d82e5e4e419181900360800190a150505095945050505050565b600081428110156106f0576040805162461bcd60e51b815260206004820152601860248201527f556e69737761705632526f757465723a20455850495245440000000000000000604482015290519081900360640190fd5b60007f00000000000000000000000000000000000000000000000000000000000000006001600160a01b031663b7c3f6226040518163ffffffff1660e01b815260040160206040518083038186803b15801561074b57600080fd5b505afa15801561075f573d6000803e3d6000fd5b505050506040513d602081101561077557600080fd5b5051604080517fb8e5303d0000000000000000000000000000000000000000000000000000000081526004810189905290519192506000916001600160a01b037f0000000000000000000000000000000000000000000000000000000000000000169163b8e5303d916024808301926020929190829003018186803b1580156107fd57600080fd5b505afa158015610811573d6000803e3d6000fd5b505050506040513d602081101561082757600080fd5b50519050610835818a611c44565b9350878410156108765760405162461bcd60e51b81526004018080602001828103825260318152602001806125ed6031913960400191505060405180910390fd5b6108828233838c611c61565b61088d848888611dec565b60408051338152602081018990528082018b90526060810186905290517f1f3ca469663c088b22513ccccd10a312db90d02f513173bcff0e3a364a1c55f39181900360800190a150505095945050505050565b6000808242811015610939576040805162461bcd60e51b815260206004820152601860248201527f556e69737761705632526f757465723a20455850495245440000000000000000604482015290519081900360640190fd5b60007f00000000000000000000000000000000000000000000000000000000000000006001600160a01b031663b8e5303d8b6040518263ffffffff1660e01b81526004018082815260200191505060206040518083038186803b15801561099f57600080fd5b505afa1580156109b3573d6000803e3d6000fd5b505050506040513d60208110156109c957600080fd5b5051604080517f23b872dd0000000000000000000000000000000000000000000000000000000081523360048201526001600160a01b03831660248201819052604482018d9052915192935090916323b872dd916064808201926020929091908290030181600087803b158015610a3f57600080fd5b505af1158015610a53573d6000803e3d6000fd5b505050506040513d6020811015610a6957600080fd5b5050604080517f89afcb440000000000000000000000000000000000000000000000000000000081526001600160a01b0388811660048301528251908416926389afcb4492602480820193918290030181600087803b158015610acb57600080fd5b505af1158015610adf573d6000803e3d6000fd5b505050506040513d6040811015610af557600080fd5b508051602090910151909450925087841015610b425760405162461bcd60e51b815260040180806020018281038252602681526020018061266d6026913960400191505060405180910390fd5b86831015610b815760405162461bcd60e51b81526004018080602001828103825260268152602001806125236026913960400191505060405180910390fd5b60408051338152602081018c90528082018b9052606081018590526080810186905290517fdcd2a7a2ca607e210edca7c07bebf4592a7fc452d24305ca55ecdff503421fb09181900360a00190a15050965096945050505050565b60008142811015610c34576040805162461bcd60e51b815260206004820152601860248201527f556e69737761705632526f757465723a20455850495245440000000000000000604482015290519081900360640190fd5b60007f00000000000000000000000000000000000000000000000000000000000000006001600160a01b031663b7c3f6226040518163ffffffff1660e01b815260040160206040518083038186803b158015610c8f57600080fd5b505afa158015610ca3573d6000803e3d6000fd5b505050506040513d6020811015610cb957600080fd5b5051604080517fb8e5303d0000000000000000000000000000000000000000000000000000000081526004810189905290519192506000916001600160a01b037f0000000000000000000000000000000000000000000000000000000000000000169163b8e5303d916024808301926020929190829003018186803b158015610d4157600080fd5b505afa158015610d55573d6000803e3d6000fd5b505050506040513d6020811015610d6b57600080fd5b50519050610d79818a611e9c565b935087841115610dba5760405162461bcd60e51b815260040180806020018281038252602d81526020018061249d602d913960400191505060405180910390fd5b610dc682338387611c61565b610dd1898888611dec565b6040805133815260208101899052808201869052606081018b905290517f59c84283a73f33fb637845bdae01c49514fe780ef2673ae584ef062d587c5ce59181900360800190a150505095945050505050565b6000610465848484611eb5565b60008060008342811015610e8c576040805162461bcd60e51b815260206004820152601860248201527f556e69737761705632526f757465723a20455850495245440000000000000000604482015290519081900360640190fd5b60007f00000000000000000000000000000000000000000000000000000000000000006001600160a01b031663b7c3f6226040518163ffffffff1660e01b815260040160206040518083038186803b158015610ee757600080fd5b505afa158015610efb573d6000803e3d6000fd5b505050506040513d6020811015610f1157600080fd5b5051604080517fe09d894d00000000000000000000000000000000000000000000000000000000815290519192506000916001600160a01b037f0000000000000000000000000000000000000000000000000000000000000000169163e09d894d916004808301926020929190829003018186803b158015610f9257600080fd5b505afa158015610fa6573d6000803e3d6000fd5b505050506040513d6020811015610fbc57600080fd5b8101908080519060200190929190505050905060007f00000000000000000000000000000000000000000000000000000000000000006001600160a01b031663b8e5303d8f6040518263ffffffff1660e01b81526004018082815260200191505060206040518083038186803b15801561103557600080fd5b505afa158015611049573d6000803e3d6000fd5b505050506040513d602081101561105f57600080fd5b505190506110708e8e8e8e8e611f8d565b9097509550611082828f33848b6118fb565b61108e83338389611c61565b806001600160a01b0316636a6278428a6040518263ffffffff1660e01b815260040180826001600160a01b03168152602001915050602060405180830381600087803b1580156110dd57600080fd5b505af11580156110f1573d6000803e3d6000fd5b505050506040513d602081101561110757600080fd5b810190808051906020019092919050505094507fdfdd9dbcc558b79525f53ba7faeaa725e94f45e8795c3152c0e8353bb73025b7338f87898b60405180866001600160a01b031681526020018581526020018481526020018381526020018281526020019550505050505060405180910390a1505050509750975097945050505050565b6000807f00000000000000000000000000000000000000000000000000000000000000006001600160a01b031663b8e5303d846040518263ffffffff1660e01b81526004018082815260200191505060206040518083038186803b1580156111f257600080fd5b505afa158015611206573d6000803e3d6000fd5b505050506040513d602081101561121c57600080fd5b5051905061122a81856118d5565b9150505b92915050565b60006104658484846121c0565b60008060007f00000000000000000000000000000000000000000000000000000000000000006001600160a01b031663b8e5303d8e6040518263ffffffff1660e01b81526004018082815260200191505060206040518083038186803b1580156112aa57600080fd5b505afa1580156112be573d6000803e3d6000fd5b505050506040513d60208110156112d457600080fd5b505190506000876112e5578c611307565b7fffffffffffffffffffffffffffffffffffffffffffffffffffffffffffffffff5b604080517fd505accf00000000000000000000000000000000000000000000000000000000815233600482015230602482015260448101839052606481018c905260ff8a16608482015260a4810189905260c4810188905290519192506001600160a01b0384169163d505accf9160e48082019260009290919082900301818387803b15801561139657600080fd5b505af11580156113aa573d6000803e3d6000fd5b505050506113bc8e8e8e8e8e8e6108e0565b909f909e509c50505050505050505050505050565b7f000000000000000000000000000000000000000000000000000000000000000090565b6000814281101561144d576040805162461bcd60e51b815260206004820152601860248201527f556e69737761705632526f757465723a20455850495245440000000000000000604482015290519081900360640190fd5b60007f00000000000000000000000000000000000000000000000000000000000000006001600160a01b031663b8e5303d876040518263ffffffff1660e01b81526004018082815260200191505060206040518083038186803b1580156114b357600080fd5b505afa1580156114c7573d6000803e3d6000fd5b505050506040513d60208110156114dd57600080fd5b505190506114eb8189612266565b92508683101561152c5760405162461bcd60e51b81526004018080602001828103825260318152602001806125716031913960400191505060405180910390fd5b60007f00000000000000000000000000000000000000000000000000000000000000006001600160a01b031663e09d894d6040518163ffffffff1660e01b815260040160206040518083038186803b15801561158757600080fd5b505afa15801561159b573d6000803e3d6000fd5b505050506040513d60208110156115b157600080fd5b505190506115c2818833858d6118fb565b6115cd848888611a8e565b6040805133815260208101899052808201869052606081018b905290517fe1261963fe56df7c5e38a62fc12c3ed8cac3e92fcce5bc88e63799a6cbace4469181900360800190a150505095945050505050565b6000807f00000000000000000000000000000000000000000000000000000000000000006001600160a01b031663b8e5303d846040518263ffffffff1660e01b81526004018082815260200191505060206040518083038186803b15801561168757600080fd5b505afa15801561169b573d6000803e3d6000fd5b505050506040513d60208110156116b157600080fd5b5051905061122a8185612266565b6000807f00000000000000000000000000000000000000000000000000000000000000006001600160a01b031663b8e5303d846040518263ffffffff1660e01b81526004018082815260200191505060206040518083038186803b15801561172657600080fd5b505afa15801561173a573d6000803e3d6000fd5b505050506040513d602081101561175057600080fd5b5051905061122a8185611c44565b6000807f00000000000000000000000000000000000000000000000000000000000000006001600160a01b031663b8e5303d846040518263ffffffff1660e01b81526004018082815260200191505060206040518083038186803b1580156117c557600080fd5b505afa1580156117d9573d6000803e3d6000fd5b505050506040513d60208110156117ef57600080fd5b5051905061122a8185611e9c565b600080841161183d5760405162461bcd60e51b815260040180806020018281038252602b8152602001806126b7602b913960400191505060405180910390fd5b60008311801561184d5750600082115b6118885760405162461bcd60e51b81526004018080602001828103825260288152602001806125496028913960400191505060405180910390fd5b6000611896856103e5612283565b905060006118a48285612283565b905060006118be836118b8886103e8612283565b906122e3565b90508082816118c957fe5b04979650505050505050565b60008060006118e38561233d565b915091506118f2848383611eb5565b95945050505050565b604080516001600160a01b03858116602483015284811660448301526064820187905260848083018590528351808403909101815260a490920183526020820180517bffffffffffffffffffffffffffffffffffffffffffffffffffffffff167f7fe683810000000000000000000000000000000000000000000000000000000017815292518251600094606094938b169392918291908083835b602083106119b55780518252601f199092019160209182019101611996565b6001836020036101000a0380198251168184511680821785525050505050509050019150506000604051808303816000865af19150503d8060008114611a17576040519150601f19603f3d011682016040523d82523d6000602084013e611a1c565b606091505b5091509150818015611a4a575080511580611a4a5750808060200190516020811015611a4757600080fd5b50515b611a855760405162461bcd60e51b81526004018080602001828103825260248152602001806126936024913960400191505060405180910390fd5b50505050505050565b6000806000859150915060007f00000000000000000000000000000000000000000000000000000000000000006001600160a01b031663b8e5303d866040518263ffffffff1660e01b81526004018082815260200191505060206040518083038186803b158015611afe57600080fd5b505afa158015611b12573d6000803e3d6000fd5b505050506040513d6020811015611b2857600080fd5b505190506001600160a01b03811663022c0d9f8484876000805b506040519080825280601f01601f191660200182016040528015611b6d576020820181803683370190505b506040518563ffffffff1660e01b815260040180858152602001848152602001836001600160a01b0316815260200180602001828103825283818151815260200191508051906020019080838360005b83811015611bd5578181015183820152602001611bbd565b50505050905090810190601f168015611c025780820380516001836020036101000a031916815260200191505b5095505050505050600060405180830381600087803b158015611c2457600080fd5b505af1158015611c38573d6000803e3d6000fd5b50505050505050505050565b6000806000611c528561233d565b915091506118f28482846117fd565b604080516001600160a01b0385811660248301528481166044830152606480830185905283518084039091018152608490920183526020820180517bffffffffffffffffffffffffffffffffffffffffffffffffffffffff167f23b872dd0000000000000000000000000000000000000000000000000000000017815292518251600094606094938a169392918291908083835b60208310611d145780518252601f199092019160209182019101611cf5565b6001836020036101000a0380198251168184511680821785525050505050509050019150506000604051808303816000865af19150503d8060008114611d76576040519150601f19603f3d011682016040523d82523d6000602084013e611d7b565b606091505b5091509150818015611da9575080511580611da95750808060200190516020811015611da657600080fd5b50515b611de45760405162461bcd60e51b81526004018080602001828103825260248152602001806126936024913960400191505060405180910390fd5b505050505050565b60007f00000000000000000000000000000000000000000000000000000000000000006001600160a01b031663b8e5303d846040518263ffffffff1660e01b81526004018082815260200191505060206040518083038186803b158015611e5257600080fd5b505afa158015611e66573d6000803e3d6000fd5b505050506040513d6020811015611e7c57600080fd5b505190508360006001600160a01b03831663022c0d9f8383878180611b42565b6000806000611eaa8561233d565b915091506118f28482845b6000808411611ef55760405162461bcd60e51b815260040180806020018281038252602c8152602001806124f7602c913960400191505060405180910390fd5b600083118015611f055750600082115b611f405760405162461bcd60e51b81526004018080602001828103825260288152602001806125496028913960400191505060405180910390fd5b6000611f586103e8611f528688612283565b90612283565b90506000611f6c6103e5611f5286896123c8565b9050611f836001828481611f7c57fe5b04906122e3565b9695505050505050565b60008060007f00000000000000000000000000000000000000000000000000000000000000006001600160a01b031663b8e5303d896040518263ffffffff1660e01b81526004018082815260200191505060206040518083038186803b158015611ff657600080fd5b505afa15801561200a573d6000803e3d6000fd5b505050506040513d602081101561202057600080fd5b505190506001600160a01b0381166120c5577f00000000000000000000000000000000000000000000000000000000000000006001600160a01b031663ed25a5a2896040518263ffffffff1660e01b815260040180828152602001915050602060405180830381600087803b15801561209857600080fd5b505af11580156120ac573d6000803e3d6000fd5b505050506040513d60208110156120c257600080fd5b50505b6000806120d18361233d565b915091508160001480156120e3575080155b156120f3578894508793506121b3565b60006121008a84846121c0565b905088811161215357868110156121485760405162461bcd60e51b815260040180806020018281038252602a8152602001806125a2602a913960400191505060405180910390fd5b8995509350836121b1565b60006121608a84866121c0565b90508a81111561216c57fe5b888110156121ab5760405162461bcd60e51b815260040180806020018281038252602a815260200180612643602a913960400191505060405180910390fd5b95508894505b505b5050509550959350505050565b60008084116122005760405162461bcd60e51b815260040180806020018281038252602581526020018061261e6025913960400191505060405180910390fd5b6000831180156122105750600082115b61224b5760405162461bcd60e51b81526004018080602001828103825260288152602001806125496028913960400191505060405180910390fd5b826122568584612283565b8161225d57fe5b04949350505050565b60008060006122748561233d565b915091506118f28483836117fd565b6000826122925750600061122e565b8282028284828161229f57fe5b04146122dc5760405162461bcd60e51b81526004018080602001828103825260218152602001806125cc6021913960400191505060405180910390fd5b9392505050565b6000828201838110156122dc576040805162461bcd60e51b815260206004820152601b60248201527f536166654d6174683a206164646974696f6e206f766572666c6f770000000000604482015290519081900360640190fd5b600080826001600160a01b0316630902f1ac6040518163ffffffff1660e01b815260040160606040518083038186803b15801561237957600080fd5b505afa15801561238d573d6000803e3d6000fd5b505050506040513d60608110156123a357600080fd5b5080516020909101516dffffffffffffffffffffffffffff9182169591169350915050565b60006122dc83836040518060400160405280601e81526020017f536166654d6174683a207375627472616374696f6e206f766572666c6f770000815250600081848411156124945760405162461bcd60e51b81526004018080602001828103825283818151815260200191508051906020019080838360005b83811015612459578181015183820152602001612441565b50505050905090810190601f1680156124865780820380516001836020036101000a031916815260200191505b509250505060405180910390fd5b50505090039056fe556e69737761705632526f757465723a204558434553534956455f494e5055545f414d4f554e545f53544f4e4b556e69737761705632526f757465723a204558434553534956455f494e5055545f414d4f554e545f544f4b454e556e697377617056324c6962726172793a20494e53554646494349454e545f4f55545055545f414d4f554e54556e69737761705632526f757465723a20494e53554646494349454e545f425f414d4f554e54556e697377617056324c6962726172793a20494e53554646494349454e545f4c4951554944495459556e69737761705632526f757465723a20494e53554646494349454e545f4f55545055545f414d4f554e545f53544f4e4b556e69737761705632526f757465723a20494e53554646494349454e545f53544f4e4b5f414d4f554e54536166654d6174683a206d756c7469706c69636174696f6e206f766572666c6f77556e69737761705632526f757465723a20494e53554646494349454e545f4f55545055545f414d4f554e545f544f4b454e556e697377617056324c6962726172793a20494e53554646494349454e545f414d4f554e54556e69737761705632526f757465723a20494e53554646494349454e545f544f4b454e5f414d4f554e54556e69737761705632526f757465723a20494e53554646494349454e545f415f414d4f554e545472616e7366657248656c7065723a205452414e534645525f46524f4d5f4641494c4544556e697377617056324c6962726172793a20494e53554646494349454e545f494e5055545f414d4f554e54a264697066735822122029cba02158cc698562a9cb846c752d9b92e257a3f0a0631923e0d007aada217d64736f6c634300060c0033",
  "linkReferences": {},
  "deployedLinkReferences": {}
}