{
  "_format": "hh-sol-artifact-1",
  "contractName": "UniswapV2Router",
  "sourceName": "src/uniswap/router/UniswapV2Router.sol",
  "abi": [
    {
      "inputs": [
        {
          "internalType": "address",
          "name": "_factory",
          "type": "address"
        }
      ],
      "stateMutability": "nonpayable",
      "type": "constructor"
    },
    {
      "anonymous": false,
      "inputs": [
        {
          "indexed": false,
          "internalType": "address",
          "name": "sender",
          "type": "address"
        },
        {
          "indexed": false,
          "internalType": "bytes32",
          "name": "tokenHash",
          "type": "bytes32"
        },
        {
          "indexed": false,
          "internalType": "uint256",
          "name": "liquidity",
          "type": "uint256"
        },
        {
          "indexed": false,
          "internalType": "uint256",
          "name": "amountBaseToken",
          "type": "uint256"
        },
        {
          "indexed": false,
          "internalType": "uint256",
          "name": "amountToken",
          "type": "uint256"
        }
      ],
      "name": "LiquidityAdded",
      "type": "event"
    },
    {
      "anonymous": false,
      "inputs": [
        {
          "indexed": false,
          "internalType": "address",
          "name": "sender",
          "type": "address"
        },
        {
          "indexed": false,
          "internalType": "bytes32",
          "name": "tokenHash",
          "type": "bytes32"
        },
        {
          "indexed": false,
          "internalType": "uint256",
          "name": "liquidity",
          "type": "uint256"
        },
        {
          "indexed": false,
          "internalType": "uint256",
          "name": "amountBaseToken",
          "type": "uint256"
        },
        {
          "indexed": false,
          "internalType": "uint256",
          "name": "amountToken",
          "type": "uint256"
        }
      ],
      "name": "LiquidityRemoved",
      "type": "event"
    },
    {
      "anonymous": false,
      "inputs": [
        {
          "indexed": false,
          "internalType": "address",
          "name": "sender",
          "type": "address"
        },
        {
          "indexed": false,
          "internalType": "bytes32",
          "name": "tokenHash",
          "type": "bytes32"
        },
        {
          "indexed": false,
          "internalType": "uint256",
          "name": "baseTokenAmountIn",
          "type": "uint256"
        },
        {
          "indexed": false,
          "internalType": "uint256",
          "name": "tokenAmountOut",
          "type": "uint256"
        }
      ],
      "name": "SwapBaseTokensForExactTokens",
      "type": "event"
    },
    {
      "anonymous": false,
      "inputs": [
        {
          "indexed": false,
          "internalType": "address",
          "name": "sender",
          "type": "address"
        },
        {
          "indexed": false,
          "internalType": "bytes32",
          "name": "tokenHash",
          "type": "bytes32"
        },
        {
          "indexed": false,
          "internalType": "uint256",
          "name": "ethAmountIn",
          "type": "uint256"
        },
        {
          "indexed": false,
          "internalType": "uint256",
          "name": "tokenAmountOut",
          "type": "uint256"
        }
      ],
      "name": "SwapETHForExactTokens",
      "type": "event"
    },
    {
      "anonymous": false,
      "inputs": [
        {
          "indexed": false,
          "internalType": "address",
          "name": "sender",
          "type": "address"
        },
        {
          "indexed": false,
          "internalType": "bytes32",
          "name": "tokenHash",
          "type": "bytes32"
        },
        {
          "indexed": false,
          "internalType": "uint256",
          "name": "baseTokenAmountIn",
          "type": "uint256"
        },
        {
          "indexed": false,
          "internalType": "uint256",
          "name": "tokenAmountOut",
          "type": "uint256"
        }
      ],
      "name": "SwapExactBaseTokensForTokens",
      "type": "event"
    },
    {
      "anonymous": false,
      "inputs": [
        {
          "indexed": false,
          "internalType": "address",
          "name": "sender",
          "type": "address"
        },
        {
          "indexed": false,
          "internalType": "bytes32",
          "name": "tokenHash",
          "type": "bytes32"
        },
        {
          "indexed": false,
          "internalType": "uint256",
          "name": "ethAmountIn",
          "type": "uint256"
        },
        {
          "indexed": false,
          "internalType": "uint256",
          "name": "tokenAmountOut",
          "type": "uint256"
        }
      ],
      "name": "SwapExactETHForTokens",
      "type": "event"
    },
    {
      "anonymous": false,
      "inputs": [
        {
          "indexed": false,
          "internalType": "address",
          "name": "sender",
          "type": "address"
        },
        {
          "indexed": false,
          "internalType": "bytes32",
          "name": "tokenHash",
          "type": "bytes32"
        },
        {
          "indexed": false,
          "internalType": "uint256",
          "name": "baseTokenAmountOut",
          "type": "uint256"
        },
        {
          "indexed": false,
          "internalType": "uint256",
          "name": "tokenAmountIn",
          "type": "uint256"
        }
      ],
      "name": "SwapExactTokensForBaseTokens",
      "type": "event"
    },
    {
      "anonymous": false,
      "inputs": [
        {
          "indexed": false,
          "internalType": "address",
          "name": "sender",
          "type": "address"
        },
        {
          "indexed": false,
          "internalType": "bytes32",
          "name": "tokenHash",
          "type": "bytes32"
        },
        {
          "indexed": false,
          "internalType": "uint256",
          "name": "ethAmountOut",
          "type": "uint256"
        },
        {
          "indexed": false,
          "internalType": "uint256",
          "name": "tokenAmountIn",
          "type": "uint256"
        }
      ],
      "name": "SwapExactTokensForETH",
      "type": "event"
    },
    {
      "anonymous": false,
      "inputs": [
        {
          "indexed": false,
          "internalType": "address",
          "name": "sender",
          "type": "address"
        },
        {
          "indexed": false,
          "internalType": "bytes32",
          "name": "tokenHash",
          "type": "bytes32"
        },
        {
          "indexed": false,
          "internalType": "uint256",
          "name": "baseTokenAmountOut",
          "type": "uint256"
        },
        {
          "indexed": false,
          "internalType": "uint256",
          "name": "tokenAmountIn",
          "type": "uint256"
        }
      ],
      "name": "SwapTokensForExactBaseTokens",
      "type": "event"
    },
    {
      "anonymous": false,
      "inputs": [
        {
          "indexed": false,
          "internalType": "address",
          "name": "sender",
          "type": "address"
        },
        {
          "indexed": false,
          "internalType": "bytes32",
          "name": "tokenHash",
          "type": "bytes32"
        },
        {
          "indexed": false,
          "internalType": "uint256",
          "name": "ethAmountOut",
          "type": "uint256"
        },
        {
          "indexed": false,
          "internalType": "uint256",
          "name": "tokenAmountIn",
          "type": "uint256"
        }
      ],
      "name": "SwapTokensForExactETH",
      "type": "event"
    },
    {
      "inputs": [
        {
          "internalType": "bytes32",
          "name": "tokenHash",
          "type": "bytes32"
        },
        {
          "internalType": "uint256",
          "name": "amountTokenDesired",
          "type": "uint256"
        },
        {
          "internalType": "uint256",
          "name": "amountBaseTokenDesired",
          "type": "uint256"
        },
        {
          "internalType": "uint256",
          "name": "amountTokenMin",
          "type": "uint256"
        },
        {
          "internalType": "uint256",
          "name": "amountBaseTokenMin",
          "type": "uint256"
        },
        {
          "internalType": "address",
          "name": "to",
          "type": "address"
        },
        {
          "internalType": "uint256",
          "name": "deadline",
          "type": "uint256"
        }
      ],
      "name": "addLiquidity",
      "outputs": [
        {
          "internalType": "uint256",
          "name": "amountToken",
          "type": "uint256"
        },
        {
          "internalType": "uint256",
          "name": "amountBaseToken",
          "type": "uint256"
        },
        {
          "internalType": "uint256",
          "name": "liquidity",
          "type": "uint256"
        }
      ],
      "stateMutability": "nonpayable",
      "type": "function"
    },
    {
      "inputs": [
        {
          "internalType": "bytes32",
          "name": "tokenHash",
          "type": "bytes32"
        },
        {
          "internalType": "uint256",
          "name": "amountTokenDesired",
          "type": "uint256"
        },
        {
          "internalType": "uint256",
          "name": "amountTokenMin",
          "type": "uint256"
        },
        {
          "internalType": "uint256",
          "name": "amountETHMin",
          "type": "uint256"
        },
        {
          "internalType": "address",
          "name": "to",
          "type": "address"
        },
        {
          "internalType": "uint256",
          "name": "deadline",
          "type": "uint256"
        }
      ],
      "name": "addLiquidityETH",
      "outputs": [
        {
          "internalType": "uint256",
          "name": "amountToken",
          "type": "uint256"
        },
        {
          "internalType": "uint256",
          "name": "amountETH",
          "type": "uint256"
        },
        {
          "internalType": "uint256",
          "name": "liquidity",
          "type": "uint256"
        }
      ],
      "stateMutability": "payable",
      "type": "function"
    },
    {
      "inputs": [
        {
          "internalType": "bytes32",
          "name": "tokenHash",
          "type": "bytes32"
        },
        {
          "internalType": "uint256",
          "name": "amountTokensToReturn",
          "type": "uint256"
        },
        {
          "internalType": "uint256",
          "name": "amountBaseTokensToReturn",
          "type": "uint256"
        }
      ],
      "name": "calculateLiquidityNeededToGetTokensOut",
      "outputs": [
        {
          "internalType": "uint256",
          "name": "liquidity",
          "type": "uint256"
        }
      ],
      "stateMutability": "view",
      "type": "function"
    },
    {
      "inputs": [],
      "name": "factory",
      "outputs": [
        {
          "internalType": "address",
          "name": "",
          "type": "address"
        }
      ],
      "stateMutability": "view",
      "type": "function"
    },
    {
      "inputs": [
        {
          "internalType": "uint256",
          "name": "amountOut",
          "type": "uint256"
        },
        {
          "internalType": "uint256",
          "name": "reserveIn",
          "type": "uint256"
        },
        {
          "internalType": "uint256",
          "name": "reserveOut",
          "type": "uint256"
        }
      ],
      "name": "getAmountIn",
      "outputs": [
        {
          "internalType": "uint256",
          "name": "amountIn",
          "type": "uint256"
        }
      ],
      "stateMutability": "pure",
      "type": "function"
    },
    {
      "inputs": [
        {
          "internalType": "uint256",
          "name": "amountIn",
          "type": "uint256"
        },
        {
          "internalType": "uint256",
          "name": "reserveIn",
          "type": "uint256"
        },
        {
          "internalType": "uint256",
          "name": "reserveOut",
          "type": "uint256"
        }
      ],
      "name": "getAmountOut",
      "outputs": [
        {
          "internalType": "uint256",
          "name": "amountOut",
          "type": "uint256"
        }
      ],
      "stateMutability": "pure",
      "type": "function"
    },
    {
      "inputs": [
        {
          "internalType": "uint256",
          "name": "tokenAmountOut",
          "type": "uint256"
        },
        {
          "internalType": "bytes32",
          "name": "tokenHash",
          "type": "bytes32"
        }
      ],
      "name": "getBaseTokenAmountIn",
      "outputs": [
        {
          "internalType": "uint256",
          "name": "amountOut",
          "type": "uint256"
        }
      ],
      "stateMutability": "view",
      "type": "function"
    },
    {
      "inputs": [
        {
          "internalType": "uint256",
          "name": "tokenAmountIn",
          "type": "uint256"
        },
        {
          "internalType": "bytes32",
          "name": "tokenHash",
          "type": "bytes32"
        }
      ],
      "name": "getBaseTokenAmountOut",
      "outputs": [
        {
          "internalType": "uint256",
          "name": "amountOut",
          "type": "uint256"
        }
      ],
      "stateMutability": "view",
      "type": "function"
    },
    {
      "inputs": [
        {
          "internalType": "uint256",
          "name": "baseTokenAmountOut",
          "type": "uint256"
        },
        {
          "internalType": "bytes32",
          "name": "tokenHash",
          "type": "bytes32"
        }
      ],
      "name": "getTokenAmountIn",
      "outputs": [
        {
          "internalType": "uint256",
          "name": "amountOut",
          "type": "uint256"
        }
      ],
      "stateMutability": "view",
      "type": "function"
    },
    {
      "inputs": [
        {
          "internalType": "uint256",
          "name": "baseTokenAmountIn",
          "type": "uint256"
        },
        {
          "internalType": "bytes32",
          "name": "tokenHash",
          "type": "bytes32"
        }
      ],
      "name": "getTokenAmountOut",
      "outputs": [
        {
          "internalType": "uint256",
          "name": "amountOut",
          "type": "uint256"
        }
      ],
      "stateMutability": "view",
      "type": "function"
    },
    {
      "inputs": [
        {
          "internalType": "uint256",
          "name": "amountA",
          "type": "uint256"
        },
        {
          "internalType": "uint256",
          "name": "reserveA",
          "type": "uint256"
        },
        {
          "internalType": "uint256",
          "name": "reserveB",
          "type": "uint256"
        }
      ],
      "name": "quote",
      "outputs": [
        {
          "internalType": "uint256",
          "name": "amountB",
          "type": "uint256"
        }
      ],
      "stateMutability": "pure",
      "type": "function"
    },
    {
      "inputs": [
        {
          "internalType": "bytes32",
          "name": "tokenHash",
          "type": "bytes32"
        },
        {
          "internalType": "uint256",
          "name": "liquidity",
          "type": "uint256"
        },
        {
          "internalType": "uint256",
          "name": "amountTokenMin",
          "type": "uint256"
        },
        {
          "internalType": "uint256",
          "name": "amountBaseTokenMin",
          "type": "uint256"
        },
        {
          "internalType": "address",
          "name": "to",
          "type": "address"
        },
        {
          "internalType": "uint256",
          "name": "deadline",
          "type": "uint256"
        }
      ],
      "name": "removeLiquidity",
      "outputs": [
        {
          "internalType": "uint256",
          "name": "amountToken",
          "type": "uint256"
        },
        {
          "internalType": "uint256",
          "name": "amountBaseToken",
          "type": "uint256"
        }
      ],
      "stateMutability": "nonpayable",
      "type": "function"
    },
    {
      "inputs": [
        {
          "internalType": "bytes32",
          "name": "tokenHash",
          "type": "bytes32"
        },
        {
          "internalType": "uint256",
          "name": "liquidity",
          "type": "uint256"
        },
        {
          "internalType": "uint256",
          "name": "amountTokenMin",
          "type": "uint256"
        },
        {
          "internalType": "uint256",
          "name": "amountETHMin",
          "type": "uint256"
        },
        {
          "internalType": "address",
          "name": "to",
          "type": "address"
        },
        {
          "internalType": "uint256",
          "name": "deadline",
          "type": "uint256"
        }
      ],
      "name": "removeLiquidityETH",
      "outputs": [
        {
          "internalType": "uint256",
          "name": "amountToken",
          "type": "uint256"
        },
        {
          "internalType": "uint256",
          "name": "amountETH",
          "type": "uint256"
        }
      ],
      "stateMutability": "nonpayable",
      "type": "function"
    },
    {
      "inputs": [
        {
          "internalType": "bytes32",
          "name": "tokenHash",
          "type": "bytes32"
        },
        {
          "internalType": "uint256",
          "name": "liquidity",
          "type": "uint256"
        },
        {
          "internalType": "uint256",
          "name": "amountTokenMin",
          "type": "uint256"
        },
        {
          "internalType": "uint256",
          "name": "amountETHMin",
          "type": "uint256"
        },
        {
          "internalType": "address",
          "name": "to",
          "type": "address"
        },
        {
          "internalType": "uint256",
          "name": "deadline",
          "type": "uint256"
        },
        {
          "internalType": "bool",
          "name": "approveMax",
          "type": "bool"
        },
        {
          "internalType": "uint8",
          "name": "v",
          "type": "uint8"
        },
        {
          "internalType": "bytes32",
          "name": "r",
          "type": "bytes32"
        },
        {
          "internalType": "bytes32",
          "name": "s",
          "type": "bytes32"
        }
      ],
      "name": "removeLiquidityETHWithPermit",
      "outputs": [
        {
          "internalType": "uint256",
          "name": "amountToken",
          "type": "uint256"
        },
        {
          "internalType": "uint256",
          "name": "amountETH",
          "type": "uint256"
        }
      ],
      "stateMutability": "nonpayable",
      "type": "function"
    },
    {
      "inputs": [
        {
          "internalType": "bytes32",
          "name": "tokenHash",
          "type": "bytes32"
        },
        {
          "internalType": "uint256",
          "name": "amountTokensToReturn",
          "type": "uint256"
        },
        {
          "internalType": "uint256",
          "name": "amountBaseTokensToReturn",
          "type": "uint256"
        },
        {
          "internalType": "bool",
          "name": "returnETH",
          "type": "bool"
        },
        {
          "internalType": "address",
          "name": "to",
          "type": "address"
        },
        {
          "internalType": "uint256",
          "name": "deadline",
          "type": "uint256"
        }
      ],
      "name": "removeLiquidityGetExactTokensBack",
      "outputs": [
        {
          "internalType": "uint256",
          "name": "amountToken",
          "type": "uint256"
        },
        {
          "internalType": "uint256",
          "name": "amountETH",
          "type": "uint256"
        }
      ],
      "stateMutability": "nonpayable",
      "type": "function"
    },
    {
      "inputs": [
        {
          "internalType": "bytes32",
          "name": "tokenHash",
          "type": "bytes32"
        },
        {
          "internalType": "uint256",
          "name": "liquidity",
          "type": "uint256"
        },
        {
          "internalType": "uint256",
          "name": "amountAMin",
          "type": "uint256"
        },
        {
          "internalType": "uint256",
          "name": "amountBMin",
          "type": "uint256"
        },
        {
          "internalType": "address",
          "name": "to",
          "type": "address"
        },
        {
          "internalType": "uint256",
          "name": "deadline",
          "type": "uint256"
        },
        {
          "internalType": "bool",
          "name": "approveMax",
          "type": "bool"
        },
        {
          "internalType": "uint8",
          "name": "v",
          "type": "uint8"
        },
        {
          "internalType": "bytes32",
          "name": "r",
          "type": "bytes32"
        },
        {
          "internalType": "bytes32",
          "name": "s",
          "type": "bytes32"
        }
      ],
      "name": "removeLiquidityWithPermit",
      "outputs": [
        {
          "internalType": "uint256",
          "name": "amountA",
          "type": "uint256"
        },
        {
          "internalType": "uint256",
          "name": "amountB",
          "type": "uint256"
        }
      ],
      "stateMutability": "nonpayable",
      "type": "function"
    },
    {
      "inputs": [
        {
          "internalType": "uint256",
          "name": "tokenAmountOut",
          "type": "uint256"
        },
        {
          "internalType": "uint256",
          "name": "baseTokenAmountInMax",
          "type": "uint256"
        },
        {
          "internalType": "bytes32",
          "name": "tokenHash",
          "type": "bytes32"
        },
        {
          "internalType": "address",
          "name": "to",
          "type": "address"
        },
        {
          "internalType": "uint256",
          "name": "deadline",
          "type": "uint256"
        }
      ],
      "name": "swapBaseTokensForExactTokens",
      "outputs": [
        {
          "internalType": "uint256",
          "name": "baseTokenAmountIn",
          "type": "uint256"
        }
      ],
      "stateMutability": "nonpayable",
      "type": "function"
    },
    {
      "inputs": [
        {
          "internalType": "uint256",
          "name": "tokenAmountOut",
          "type": "uint256"
        },
        {
          "internalType": "bytes32",
          "name": "tokenHash",
          "type": "bytes32"
        },
        {
          "internalType": "address",
          "name": "to",
          "type": "address"
        },
        {
          "internalType": "uint256",
          "name": "deadline",
          "type": "uint256"
        }
      ],
      "name": "swapETHForExactTokens",
      "outputs": [
        {
          "internalType": "uint256",
          "name": "ethAmountIn",
          "type": "uint256"
        }
      ],
      "stateMutability": "payable",
      "type": "function"
    },
    {
      "inputs": [
        {
          "internalType": "uint256",
          "name": "baseTokenAmountIn",
          "type": "uint256"
        },
        {
          "internalType": "uint256",
          "name": "tokenAmountOutMin",
          "type": "uint256"
        },
        {
          "internalType": "bytes32",
          "name": "tokenHash",
          "type": "bytes32"
        },
        {
          "internalType": "address",
          "name": "to",
          "type": "address"
        },
        {
          "internalType": "uint256",
          "name": "deadline",
          "type": "uint256"
        }
      ],
      "name": "swapExactBaseTokensForTokens",
      "outputs": [
        {
          "internalType": "uint256",
          "name": "tokenAmountOut",
          "type": "uint256"
        }
      ],
      "stateMutability": "nonpayable",
      "type": "function"
    },
    {
      "inputs": [
        {
          "internalType": "uint256",
          "name": "tokenAmountOutMin",
          "type": "uint256"
        },
        {
          "internalType": "bytes32",
          "name": "tokenHash",
          "type": "bytes32"
        },
        {
          "internalType": "address",
          "name": "to",
          "type": "address"
        },
        {
          "internalType": "uint256",
          "name": "deadline",
          "type": "uint256"
        }
      ],
      "name": "swapExactETHForTokens",
      "outputs": [
        {
          "internalType": "uint256",
          "name": "tokenAmountOut",
          "type": "uint256"
        }
      ],
      "stateMutability": "payable",
      "type": "function"
    },
    {
      "inputs": [
        {
          "internalType": "uint256",
          "name": "tokenAmountIn",
          "type": "uint256"
        },
        {
          "internalType": "uint256",
          "name": "baseTokenAmountOutMin",
          "type": "uint256"
        },
        {
          "internalType": "bytes32",
          "name": "tokenHash",
          "type": "bytes32"
        },
        {
          "internalType": "address",
          "name": "to",
          "type": "address"
        },
        {
          "internalType": "uint256",
          "name": "deadline",
          "type": "uint256"
        }
      ],
      "name": "swapExactTokensForBaseTokens",
      "outputs": [
        {
          "internalType": "uint256",
          "name": "baseTokenAmountOut",
          "type": "uint256"
        }
      ],
      "stateMutability": "nonpayable",
      "type": "function"
    },
    {
      "inputs": [
        {
          "internalType": "uint256",
          "name": "tokenAmountIn",
          "type": "uint256"
        },
        {
          "internalType": "uint256",
          "name": "ethAmountOutMin",
          "type": "uint256"
        },
        {
          "internalType": "bytes32",
          "name": "tokenHash",
          "type": "bytes32"
        },
        {
          "internalType": "address",
          "name": "to",
          "type": "address"
        },
        {
          "internalType": "uint256",
          "name": "deadline",
          "type": "uint256"
        }
      ],
      "name": "swapExactTokensForETH",
      "outputs": [
        {
          "internalType": "uint256",
          "name": "ethAmountOut",
          "type": "uint256"
        }
      ],
      "stateMutability": "nonpayable",
      "type": "function"
    },
    {
      "inputs": [
        {
          "internalType": "uint256",
          "name": "baseTokenAmountOut",
          "type": "uint256"
        },
        {
          "internalType": "uint256",
          "name": "tokenAmountInMax",
          "type": "uint256"
        },
        {
          "internalType": "bytes32",
          "name": "tokenHash",
          "type": "bytes32"
        },
        {
          "internalType": "address",
          "name": "to",
          "type": "address"
        },
        {
          "internalType": "uint256",
          "name": "deadline",
          "type": "uint256"
        }
      ],
      "name": "swapTokensForExactBaseTokens",
      "outputs": [
        {
          "internalType": "uint256",
          "name": "tokenAmountIn",
          "type": "uint256"
        }
      ],
      "stateMutability": "nonpayable",
      "type": "function"
    },
    {
      "inputs": [
        {
          "internalType": "uint256",
          "name": "ethAmountOut",
          "type": "uint256"
        },
        {
          "internalType": "uint256",
          "name": "tokenAmountInMax",
          "type": "uint256"
        },
        {
          "internalType": "bytes32",
          "name": "tokenHash",
          "type": "bytes32"
        },
        {
          "internalType": "address",
          "name": "to",
          "type": "address"
        },
        {
          "internalType": "uint256",
          "name": "deadline",
          "type": "uint256"
        }
      ],
      "name": "swapTokensForExactETH",
      "outputs": [
        {
          "internalType": "uint256",
          "name": "tokenAmountIn",
          "type": "uint256"
        }
      ],
      "stateMutability": "nonpayable",
      "type": "function"
    },
    {
      "stateMutability": "payable",
      "type": "receive"
    }
  ],
  "bytecode": "0x60a060405234801561001057600080fd5b50604051620048a8380380620048a88339818101604052602081101561003557600080fd5b5051606081901b6001600160601b0319166080526001600160a01b031661476c6200013c6000398061019852806109595280610a035280610a955280610c7f5280610d295280610ea95280610f5752806110d85280611182528061130352806113a6528061150752806115b152806117c352806118bf5280611b955280611c3f5280611cd15280611e695280611f71528061201b528061221b528061230f52806123b2528061243952806125f652806126a45280612811528061283852806129395280612c075280612caa5280612daa5280612f5752806130055280613189528061322c52806132c552806137ba5280613bed5280613e235280613ec3525061476c6000f3fe60806040526004361061018f5760003560e01c8063878d4b92116100d6578063c45a01551161007f578063e41fe22911610059578063e41fe229146107ed578063ec74d34a1461085e578063ef2ced50146108a957610232565b8063c45a015514610739578063d5e8d1fa1461076a578063dea0521a1461079a57610232565b8063a26c00c7116100b0578063a26c00c714610662578063ad615dec14610692578063b2f99439146106c857610232565b8063878d4b92146105855780638cc2d272146105bd5780639350dd31146105ed57610232565b80634ee93a951161013857806362b89e571161011257806362b89e57146104ce57806365376e781461051957806385f8c2591461054f57610232565b80634ee93a95146104155780635797af201461044d578063602e58181461047d57610232565b806318e525b71161016957806318e525b7146103155780631e35f8101461036057806333a3e9d8146103ab57610232565b8063054d50d4146102375780631536f7af1461027f57806317ddf622146102ca57610232565b366102325760007f00000000000000000000000000000000000000000000000000000000000000006001600160a01b031663c55dae636040518163ffffffff1660e01b815260040160206040518083038186803b1580156101ef57600080fd5b505afa158015610203573d6000803e3d6000fd5b505050506040513d602081101561021957600080fd5b50519050336001600160a01b0382161461022f57fe5b50005b600080fd5b34801561024357600080fd5b5061026d6004803603606081101561025a57600080fd5b50803590602081013590604001356108ed565b60408051918252519081900360200190f35b34801561028b57600080fd5b5061026d600480360360a08110156102a257600080fd5b508035906020810135906040810135906001600160a01b036060820135169060800135610902565b3480156102d657600080fd5b5061026d600480360360a08110156102ed57600080fd5b508035906020810135906040810135906001600160a01b036060820135169060800135610c28565b34801561032157600080fd5b5061026d600480360360a081101561033857600080fd5b508035906020810135906040810135906001600160a01b036060820135169060800135610e52565b34801561036c57600080fd5b5061026d600480360360a081101561038357600080fd5b508035906020810135906040810135906001600160a01b036060820135169060800135611081565b3480156103b757600080fd5b506103fc600480360360c08110156103ce57600080fd5b508035906020810135906040810135906060810135906001600160a01b036080820135169060a001356112ab565b6040805192835260208301919091528051918290030190f35b61026d6004803603608081101561042b57600080fd5b508035906020810135906001600160a01b0360408201351690606001356114b0565b34801561045957600080fd5b5061026d6004803603604081101561047057600080fd5b50803590602001356117be565b34801561048957600080fd5b506103fc600480360360c08110156104a057600080fd5b508035906020810135906040810135906060810135906001600160a01b036080820135169060a00135611867565b3480156104da57600080fd5b5061026d600480360360a08110156104f157600080fd5b508035906020810135906040810135906001600160a01b036060820135169060800135611b3e565b34801561052557600080fd5b5061026d6004803603606081101561053c57600080fd5b5080359060208101359060400135611e64565b34801561055b57600080fd5b5061026d6004803603606081101561057257600080fd5b5080359060208101359060400135611f0d565b61026d6004803603608081101561059b57600080fd5b508035906020810135906001600160a01b036040820135169060600135611f1a565b3480156105c957600080fd5b5061026d600480360360408110156105e057600080fd5b5080359060200135612216565b3480156105f957600080fd5b50610644600480360360e081101561061057600080fd5b508035906020810135906040810135906060810135906080810135906001600160a01b0360a0820135169060c001356122b5565b60408051938452602084019290925282820152519081900360600190f35b34801561066e57600080fd5b5061026d6004803603604081101561068557600080fd5b50803590602001356125f1565b34801561069e57600080fd5b5061026d600480360360608110156106b557600080fd5b5080359060208101359060400135612690565b3480156106d457600080fd5b506103fc60048036036101408110156106ec57600080fd5b508035906020810135906040810135906060810135906001600160a01b036080820135169060a08101359060c081013515159060ff60e0820135169061010081013590610120013561269d565b34801561074557600080fd5b5061074e61280f565b604080516001600160a01b039092168252519081900360200190f35b34801561077657600080fd5b5061026d6004803603604081101561078d57600080fd5b5080359060200135612833565b3480156107a657600080fd5b506103fc600480360360c08110156107bd57600080fd5b5080359060208101359060408101359060608101351515906001600160a01b036080820135169060a001356128d2565b3480156107f957600080fd5b506103fc600480360361014081101561081157600080fd5b508035906020810135906040810135906060810135906001600160a01b036080820135169060a08101359060c081013515159060ff60e08201351690610100810135906101200135612da3565b34801561086a57600080fd5b5061026d600480360360a081101561088157600080fd5b508035906020810135906040810135906001600160a01b036060820135169060800135612f00565b610644600480360360c08110156108bf57600080fd5b508035906020810135906040810135906060810135906001600160a01b036080820135169060a0013561312f565b60006108fa848484613524565b949350505050565b60008142811015610955576040805162461bcd60e51b8152602060048201526018602482015277155b9a5cddd85c158c949bdd5d195c8e881156141254915160421b604482015290519081900360640190fd5b60007f00000000000000000000000000000000000000000000000000000000000000006001600160a01b031663c55dae636040518163ffffffff1660e01b815260040160206040518083038186803b1580156109b057600080fd5b505afa1580156109c4573d6000803e3d6000fd5b505050506040513d60208110156109da57600080fd5b50516040805163b8e5303d60e01b81526004810189905290519192506000916001600160a01b037f0000000000000000000000000000000000000000000000000000000000000000169163b8e5303d916024808301926020929190829003018186803b158015610a4957600080fd5b505afa158015610a5d573d6000803e3d6000fd5b505050506040513d6020811015610a7357600080fd5b50516040805163e09d894d60e01b815290519192506000916001600160a01b037f0000000000000000000000000000000000000000000000000000000000000000169163e09d894d916004808301926020929190829003018186803b158015610adb57600080fd5b505afa158015610aef573d6000803e3d6000fd5b505050506040513d6020811015610b0557600080fd5b50519050610b13828b6135fc565b945088851015610b545760405162461bcd60e51b815260040180806020018281038252602f815260200180614708602f913960400191505060405180910390fd5b610b61818933858e613619565b610b6c8589306137ac565b826001600160a01b0316632e1a7d4d866040518263ffffffff1660e01b815260040180828152602001915050600060405180830381600087803b158015610bb257600080fd5b505af1158015610bc6573d6000803e3d6000fd5b50505050610bd48786613962565b60408051338152602081018a9052808201879052606081018c905290517fa4b548a4389f35e850a725a8d38c3d4031500bbfa603b1e8c1e8cd79a526f7359181900360800190a15050505095945050505050565b60008142811015610c7b576040805162461bcd60e51b8152602060048201526018602482015277155b9a5cddd85c158c949bdd5d195c8e881156141254915160421b604482015290519081900360640190fd5b60007f00000000000000000000000000000000000000000000000000000000000000006001600160a01b031663c55dae636040518163ffffffff1660e01b815260040160206040518083038186803b158015610cd657600080fd5b505afa158015610cea573d6000803e3d6000fd5b505050506040513d6020811015610d0057600080fd5b50516040805163b8e5303d60e01b81526004810189905290519192506000916001600160a01b037f0000000000000000000000000000000000000000000000000000000000000000169163b8e5303d916024808301926020929190829003018186803b158015610d6f57600080fd5b505afa158015610d83573d6000803e3d6000fd5b505050506040513d6020811015610d9957600080fd5b50519050610da7818a613a5a565b935087841115610de85760405162461bcd60e51b81526004018080602001828103825260328152602001806145166032913960400191505060405180910390fd5b610df482338387613a77565b610dff898888613be9565b6040805133815260208101899052808201869052606081018b905290517fc4d5ecb1c39f525414af6c436b95ebf8a3ac513d7a420c8c4701fa6a1f8ce74d9181900360800190a150505095945050505050565b60008142811015610ea5576040805162461bcd60e51b8152602060048201526018602482015277155b9a5cddd85c158c949bdd5d195c8e881156141254915160421b604482015290519081900360640190fd5b60007f00000000000000000000000000000000000000000000000000000000000000006001600160a01b031663b8e5303d876040518263ffffffff1660e01b81526004018082815260200191505060206040518083038186803b158015610f0b57600080fd5b505afa158015610f1f573d6000803e3d6000fd5b505050506040513d6020811015610f3557600080fd5b50516040805163e09d894d60e01b815290519192506000916001600160a01b037f0000000000000000000000000000000000000000000000000000000000000000169163e09d894d916004808301926020929190829003018186803b158015610f9d57600080fd5b505afa158015610fb1573d6000803e3d6000fd5b505050506040513d6020811015610fc757600080fd5b50519050610fd5828a6135fc565b9350878410156110165760405162461bcd60e51b81526004018080602001828103825260368152602001806144876036913960400191505060405180910390fd5b611023818833858d613619565b61102e8488886137ac565b6040805133815260208101899052808201869052606081018b905290517feb98bfa5b4238f236ef7c73a71968bf2f4baf43252216e2a9eaf7ae4069fb1689181900360800190a150505095945050505050565b600081428110156110d4576040805162461bcd60e51b8152602060048201526018602482015277155b9a5cddd85c158c949bdd5d195c8e881156141254915160421b604482015290519081900360640190fd5b60007f00000000000000000000000000000000000000000000000000000000000000006001600160a01b031663c55dae636040518163ffffffff1660e01b815260040160206040518083038186803b15801561112f57600080fd5b505afa158015611143573d6000803e3d6000fd5b505050506040513d602081101561115957600080fd5b50516040805163b8e5303d60e01b81526004810189905290519192506000916001600160a01b037f0000000000000000000000000000000000000000000000000000000000000000169163b8e5303d916024808301926020929190829003018186803b1580156111c857600080fd5b505afa1580156111dc573d6000803e3d6000fd5b505050506040513d60208110156111f257600080fd5b50519050611200818a613c99565b9350878410156112415760405162461bcd60e51b81526004018080602001828103825260318152602001806145eb6031913960400191505060405180910390fd5b61124d8233838c613a77565b611258848888613be9565b60408051338152602081018990528082018b90526060810186905290517f62b82f821e7778a952ef95154d8a11bab72d31e6c829958fae47d3b266353d4b9181900360800190a150505095945050505050565b60008082428110156112ff576040805162461bcd60e51b8152602060048201526018602482015277155b9a5cddd85c158c949bdd5d195c8e881156141254915160421b604482015290519081900360640190fd5b60007f00000000000000000000000000000000000000000000000000000000000000006001600160a01b031663c55dae636040518163ffffffff1660e01b815260040160206040518083038186803b15801561135a57600080fd5b505afa15801561136e573d6000803e3d6000fd5b505050506040513d602081101561138457600080fd5b50516040805163e09d894d60e01b815290519192506000916001600160a01b037f0000000000000000000000000000000000000000000000000000000000000000169163e09d894d916004808301926020929190829003018186803b1580156113ec57600080fd5b505afa158015611400573d6000803e3d6000fd5b505050506040513d602081101561141657600080fd5b505190506114288b8b8b8b308b611867565b909550935061143a818c308a89613619565b816001600160a01b0316632e1a7d4d856040518263ffffffff1660e01b815260040180828152602001915050600060405180830381600087803b15801561148057600080fd5b505af1158015611494573d6000803e3d6000fd5b505050506114a28785613962565b505050965096945050505050565b60008142811015611503576040805162461bcd60e51b8152602060048201526018602482015277155b9a5cddd85c158c949bdd5d195c8e881156141254915160421b604482015290519081900360640190fd5b60007f00000000000000000000000000000000000000000000000000000000000000006001600160a01b031663c55dae636040518163ffffffff1660e01b815260040160206040518083038186803b15801561155e57600080fd5b505afa158015611572573d6000803e3d6000fd5b505050506040513d602081101561158857600080fd5b50516040805163b8e5303d60e01b81526004810189905290519192506000916001600160a01b037f0000000000000000000000000000000000000000000000000000000000000000169163b8e5303d916024808301926020929190829003018186803b1580156115f757600080fd5b505afa15801561160b573d6000803e3d6000fd5b505050506040513d602081101561162157600080fd5b5051905061162f8189613a5a565b9350348411156116705760405162461bcd60e51b81526004018080602001828103825260278152602001806146416027913960400191505060405180910390fd5b816001600160a01b031663d0e30db0856040518263ffffffff1660e01b81526004016000604051808303818588803b1580156116ab57600080fd5b505af11580156116bf573d6000803e3d6000fd5b5050505050816001600160a01b031663a9059cbb82866040518363ffffffff1660e01b815260040180836001600160a01b0316815260200182815260200192505050602060405180830381600087803b15801561171b57600080fd5b505af115801561172f573d6000803e3d6000fd5b505050506040513d602081101561174557600080fd5b505161174d57fe5b611758888888613be9565b8334111561176c5761176c33853403613962565b6040805133815260208101899052808201869052606081018a905290517fdc4e2da3656b4e95b9e177561e430e7cd2de2ec1ea7b365a5aab625fe485bb5c9181900360800190a1505050949350505050565b6000807f00000000000000000000000000000000000000000000000000000000000000006001600160a01b031663b8e5303d846040518263ffffffff1660e01b81526004018082815260200191505060206040518083038186803b15801561182557600080fd5b505afa158015611839573d6000803e3d6000fd5b505050506040513d602081101561184f57600080fd5b5051905061185d8185613a5a565b9150505b92915050565b60008082428110156118bb576040805162461bcd60e51b8152602060048201526018602482015277155b9a5cddd85c158c949bdd5d195c8e881156141254915160421b604482015290519081900360640190fd5b60007f00000000000000000000000000000000000000000000000000000000000000006001600160a01b031663b8e5303d8b6040518263ffffffff1660e01b81526004018082815260200191505060206040518083038186803b15801561192157600080fd5b505afa158015611935573d6000803e3d6000fd5b505050506040513d602081101561194b57600080fd5b5051604080516323b872dd60e01b81523360048201526001600160a01b03831660248201819052604482018d9052915192935090916323b872dd916064808201926020929091908290030181600087803b1580156119a857600080fd5b505af11580156119bc573d6000803e3d6000fd5b505050506040513d60208110156119d257600080fd5b505060408051637a94c56560e11b81526001600160a01b0388811660048301526000602483018190526044830181905283519185169363f5298aca936064808201949293918390030190829087803b158015611a2d57600080fd5b505af1158015611a41573d6000803e3d6000fd5b505050506040513d6040811015611a5757600080fd5b508051602090910151909450925087841015611aa45760405162461bcd60e51b81526004018080602001828103825260268152602001806146686026913960400191505060405180910390fd5b86831015611ae35760405162461bcd60e51b815260040180806020018281038252602681526020018061457c6026913960400191505060405180910390fd5b60408051338152602081018c90528082018b9052606081018590526080810186905290517fdcd2a7a2ca607e210edca7c07bebf4592a7fc452d24305ca55ecdff503421fb09181900360a00190a15050965096945050505050565b60008142811015611b91576040805162461bcd60e51b8152602060048201526018602482015277155b9a5cddd85c158c949bdd5d195c8e881156141254915160421b604482015290519081900360640190fd5b60007f00000000000000000000000000000000000000000000000000000000000000006001600160a01b031663c55dae636040518163ffffffff1660e01b815260040160206040518083038186803b158015611bec57600080fd5b505afa158015611c00573d6000803e3d6000fd5b505050506040513d6020811015611c1657600080fd5b50516040805163b8e5303d60e01b81526004810189905290519192506000916001600160a01b037f0000000000000000000000000000000000000000000000000000000000000000169163b8e5303d916024808301926020929190829003018186803b158015611c8557600080fd5b505afa158015611c99573d6000803e3d6000fd5b505050506040513d6020811015611caf57600080fd5b50516040805163e09d894d60e01b815290519192506000916001600160a01b037f0000000000000000000000000000000000000000000000000000000000000000169163e09d894d916004808301926020929190829003018186803b158015611d1757600080fd5b505afa158015611d2b573d6000803e3d6000fd5b505050506040513d6020811015611d4157600080fd5b50519050611d4f828b613cb6565b945088851115611d905760405162461bcd60e51b815260040180806020018281038252602d8152602001806144bd602d913960400191505060405180910390fd5b611d9d8189338589613619565b611da88a89306137ac565b826001600160a01b0316632e1a7d4d8b6040518263ffffffff1660e01b815260040180828152602001915050600060405180830381600087803b158015611dee57600080fd5b505af1158015611e02573d6000803e3d6000fd5b50505050611e10878b613962565b60408051338152602081018a90528082018c90526060810187905290517ffd0b9d809c2d16f4a5612f043f58f0e7a8200e07615c2e4c97fbc32051f609969181900360800190a15050505095945050505050565b6000807f00000000000000000000000000000000000000000000000000000000000000006001600160a01b031663b8e5303d866040518263ffffffff1660e01b81526004018082815260200191505060206040518083038186803b158015611ecb57600080fd5b505afa158015611edf573d6000803e3d6000fd5b505050506040513d6020811015611ef557600080fd5b50519050611f04818585613cd3565b95945050505050565b60006108fa848484613d4a565b60008142811015611f6d576040805162461bcd60e51b8152602060048201526018602482015277155b9a5cddd85c158c949bdd5d195c8e881156141254915160421b604482015290519081900360640190fd5b60007f00000000000000000000000000000000000000000000000000000000000000006001600160a01b031663c55dae636040518163ffffffff1660e01b815260040160206040518083038186803b158015611fc857600080fd5b505afa158015611fdc573d6000803e3d6000fd5b505050506040513d6020811015611ff257600080fd5b50516040805163b8e5303d60e01b81526004810189905290519192506000916001600160a01b037f0000000000000000000000000000000000000000000000000000000000000000169163b8e5303d916024808301926020929190829003018186803b15801561206157600080fd5b505afa158015612075573d6000803e3d6000fd5b505050506040513d602081101561208b57600080fd5b505190503461209a8282613c99565b9450888510156120db5760405162461bcd60e51b815260040180806020018281038252602b81526020018061468e602b913960400191505060405180910390fd5b826001600160a01b031663d0e30db0826040518263ffffffff1660e01b81526004016000604051808303818588803b15801561211657600080fd5b505af115801561212a573d6000803e3d6000fd5b5050505050826001600160a01b031663a9059cbb83836040518363ffffffff1660e01b815260040180836001600160a01b0316815260200182815260200192505050602060405180830381600087803b15801561218657600080fd5b505af115801561219a573d6000803e3d6000fd5b505050506040513d60208110156121b057600080fd5b50516121b857fe5b6121c3858989613be9565b60408051338152602081018a90528082018390526060810187905290517f31aca20ac8dabb167d48294233205e20f4fe47ccc5fe0dea37de3e57004e19359181900360800190a150505050949350505050565b6000807f00000000000000000000000000000000000000000000000000000000000000006001600160a01b031663b8e5303d846040518263ffffffff1660e01b81526004018082815260200191505060206040518083038186803b15801561227d57600080fd5b505afa158015612291573d6000803e3d6000fd5b505050506040513d60208110156122a757600080fd5b5051905061185d81856135fc565b6000806000834281101561230b576040805162461bcd60e51b8152602060048201526018602482015277155b9a5cddd85c158c949bdd5d195c8e881156141254915160421b604482015290519081900360640190fd5b60007f00000000000000000000000000000000000000000000000000000000000000006001600160a01b031663c55dae636040518163ffffffff1660e01b815260040160206040518083038186803b15801561236657600080fd5b505afa15801561237a573d6000803e3d6000fd5b505050506040513d602081101561239057600080fd5b50516040805163e09d894d60e01b815290519192506000916001600160a01b037f0000000000000000000000000000000000000000000000000000000000000000169163e09d894d916004808301926020929190829003018186803b1580156123f857600080fd5b505afa15801561240c573d6000803e3d6000fd5b505050506040513d602081101561242257600080fd5b8101908080519060200190929190505050905060007f00000000000000000000000000000000000000000000000000000000000000006001600160a01b031663b8e5303d8f6040518263ffffffff1660e01b81526004018082815260200191505060206040518083038186803b15801561249b57600080fd5b505afa1580156124af573d6000803e3d6000fd5b505050506040513d60208110156124c557600080fd5b505190506124d68e8e8e8e8e613e1c565b90975095506124e8828f33848b613619565b6124f483338389613a77565b806001600160a01b0316636a6278428a6040518263ffffffff1660e01b815260040180826001600160a01b03168152602001915050602060405180830381600087803b15801561254357600080fd5b505af1158015612557573d6000803e3d6000fd5b505050506040513d602081101561256d57600080fd5b810190808051906020019092919050505094507fdfdd9dbcc558b79525f53ba7faeaa725e94f45e8795c3152c0e8353bb73025b7338f87898b60405180866001600160a01b031681526020018581526020018481526020018381526020018281526020019550505050505060405180910390a1505050509750975097945050505050565b6000807f00000000000000000000000000000000000000000000000000000000000000006001600160a01b031663b8e5303d846040518263ffffffff1660e01b81526004018082815260200191505060206040518083038186803b15801561265857600080fd5b505afa15801561266c573d6000803e3d6000fd5b505050506040513d602081101561268257600080fd5b5051905061185d8185613cb6565b60006108fa84848461404f565b60008060007f00000000000000000000000000000000000000000000000000000000000000006001600160a01b031663b8e5303d8e6040518263ffffffff1660e01b81526004018082815260200191505060206040518083038186803b15801561270657600080fd5b505afa15801561271a573d6000803e3d6000fd5b505050506040513d602081101561273057600080fd5b50519050600087612741578c612745565b6000195b604080517fd505accf00000000000000000000000000000000000000000000000000000000815233600482015230602482015260448101839052606481018c905260ff8a16608482015260a4810189905260c4810188905290519192506001600160a01b0384169163d505accf9160e48082019260009290919082900301818387803b1580156127d457600080fd5b505af11580156127e8573d6000803e3d6000fd5b505050506127fa8e8e8e8e8e8e611867565b909f909e509c50505050505050505050505050565b7f000000000000000000000000000000000000000000000000000000000000000081565b6000807f00000000000000000000000000000000000000000000000000000000000000006001600160a01b031663b8e5303d846040518263ffffffff1660e01b81526004018082815260200191505060206040518083038186803b15801561289a57600080fd5b505afa1580156128ae573d6000803e3d6000fd5b505050506040513d60208110156128c457600080fd5b5051905061185d8185613c99565b6000808242811015612926576040805162461bcd60e51b8152602060048201526018602482015277155b9a5cddd85c158c949bdd5d195c8e881156141254915160421b604482015290519081900360640190fd5b60006129338a8a8a611e64565b905060007f00000000000000000000000000000000000000000000000000000000000000006001600160a01b031663b8e5303d8c6040518263ffffffff1660e01b81526004018082815260200191505060206040518083038186803b15801561299b57600080fd5b505afa1580156129af573d6000803e3d6000fd5b505050506040513d60208110156129c557600080fd5b5051604080516323b872dd60e01b81523360048201526001600160a01b0383166024820181905260448201869052915192935090916323b872dd916064808201926020929091908290030181600087803b158015612a2257600080fd5b505af1158015612a36573d6000803e3d6000fd5b505050506040513d6020811015612a4c57600080fd5b50508715612ae35760408051637a94c56560e11b8152306004820152602481018c9052604481018b905281516001600160a01b0384169263f5298aca92606480820193918290030181600087803b158015612aa657600080fd5b505af1158015612aba573d6000803e3d6000fd5b505050506040513d6040811015612ad057600080fd5b5080516020909101519095509350612b71565b60408051637a94c56560e11b81526001600160a01b038981166004830152602482018d9052604482018c905282519084169263f5298aca92606480820193918290030181600087803b158015612b3857600080fd5b505af1158015612b4c573d6000803e3d6000fd5b505050506040513d6040811015612b6257600080fd5b50805160209091015190955093505b898514612baf5760405162461bcd60e51b81526004018080602001828103825260248152602001806144636024913960400191505060405180910390fd5b60408051338152602081018d9052808201849052606081018690526080810187905290517fdcd2a7a2ca607e210edca7c07bebf4592a7fc452d24305ca55ecdff503421fb09181900360a00190a187156114a25760007f00000000000000000000000000000000000000000000000000000000000000006001600160a01b031663c55dae636040518163ffffffff1660e01b815260040160206040518083038186803b158015612c5e57600080fd5b505afa158015612c72573d6000803e3d6000fd5b505050506040513d6020811015612c8857600080fd5b50516040805163e09d894d60e01b815290519192506000916001600160a01b037f0000000000000000000000000000000000000000000000000000000000000000169163e09d894d916004808301926020929190829003018186803b158015612cf057600080fd5b505afa158015612d04573d6000803e3d6000fd5b505050506040513d6020811015612d1a57600080fd5b50519050612d2b818e308c8b613619565b816001600160a01b0316632e1a7d4d876040518263ffffffff1660e01b815260040180828152602001915050600060405180830381600087803b158015612d7157600080fd5b505af1158015612d85573d6000803e3d6000fd5b50505050612d938987613962565b5050505050965096945050505050565b60008060007f00000000000000000000000000000000000000000000000000000000000000006001600160a01b031663b8e5303d8e6040518263ffffffff1660e01b81526004018082815260200191505060206040518083038186803b158015612e0c57600080fd5b505afa158015612e20573d6000803e3d6000fd5b505050506040513d6020811015612e3657600080fd5b50519050600087612e47578c612e4b565b6000195b604080517fd505accf00000000000000000000000000000000000000000000000000000000815233600482015230602482015260448101839052606481018c905260ff8a16608482015260a4810189905260c4810188905290519192506001600160a01b0384169163d505accf9160e48082019260009290919082900301818387803b158015612eda57600080fd5b505af1158015612eee573d6000803e3d6000fd5b505050506127fa8e8e8e8e8e8e6112ab565b60008142811015612f53576040805162461bcd60e51b8152602060048201526018602482015277155b9a5cddd85c158c949bdd5d195c8e881156141254915160421b604482015290519081900360640190fd5b60007f00000000000000000000000000000000000000000000000000000000000000006001600160a01b031663b8e5303d876040518263ffffffff1660e01b81526004018082815260200191505060206040518083038186803b158015612fb957600080fd5b505afa158015612fcd573d6000803e3d6000fd5b505050506040513d6020811015612fe357600080fd5b50516040805163e09d894d60e01b815290519192506000916001600160a01b037f0000000000000000000000000000000000000000000000000000000000000000169163e09d894d916004808301926020929190829003018186803b15801561304b57600080fd5b505afa15801561305f573d6000803e3d6000fd5b505050506040513d602081101561307557600080fd5b50519050613083828a613cb6565b9350878411156130c45760405162461bcd60e51b815260040180806020018281038252602d8152602001806144bd602d913960400191505060405180910390fd5b6130d18188338588613619565b6130dc8988886137ac565b60408051338152602081018990528082018b90526060810186905290517f108b746a57815b4a14712eea75c468efca63239839d772a4c964b21fef993c139181900360800190a150505095945050505050565b60008060008342811015613185576040805162461bcd60e51b8152602060048201526018602482015277155b9a5cddd85c158c949bdd5d195c8e881156141254915160421b604482015290519081900360640190fd5b60007f00000000000000000000000000000000000000000000000000000000000000006001600160a01b031663c55dae636040518163ffffffff1660e01b815260040160206040518083038186803b1580156131e057600080fd5b505afa1580156131f4573d6000803e3d6000fd5b505050506040513d602081101561320a57600080fd5b50516040805163e09d894d60e01b815290519192506000916001600160a01b037f0000000000000000000000000000000000000000000000000000000000000000169163e09d894d916004808301926020929190829003018186803b15801561327257600080fd5b505afa158015613286573d6000803e3d6000fd5b505050506040513d602081101561329c57600080fd5b50516040805163b8e5303d60e01b8152600481018f905290519192506000916001600160a01b037f0000000000000000000000000000000000000000000000000000000000000000169163b8e5303d916024808301926020929190829003018186803b15801561330b57600080fd5b505afa15801561331f573d6000803e3d6000fd5b505050506040513d602081101561333557600080fd5b505190506133468d8d348e8e613e1c565b9097509550613358828e33848b613619565b826001600160a01b031663d0e30db0876040518263ffffffff1660e01b81526004016000604051808303818588803b15801561339357600080fd5b505af11580156133a7573d6000803e3d6000fd5b5050505050826001600160a01b031663a9059cbb82886040518363ffffffff1660e01b815260040180836001600160a01b0316815260200182815260200192505050602060405180830381600087803b15801561340357600080fd5b505af1158015613417573d6000803e3d6000fd5b505050506040513d602081101561342d57600080fd5b505161343557fe5b806001600160a01b0316636a6278428a6040518263ffffffff1660e01b815260040180826001600160a01b03168152602001915050602060405180830381600087803b15801561348457600080fd5b505af1158015613498573d6000803e3d6000fd5b505050506040513d60208110156134ae57600080fd5b50519450348610156134c6576134c633873403613962565b60408051338152602081018f9052808201879052606081018890526080810189905290517fdfdd9dbcc558b79525f53ba7faeaa725e94f45e8795c3152c0e8353bb73025b79181900360a00190a15050505096509650969350505050565b60008084116135645760405162461bcd60e51b815260040180806020018281038252602b8152602001806146dd602b913960400191505060405180910390fd5b6000831180156135745750600082115b6135af5760405162461bcd60e51b81526004018080602001828103825260288152602001806145a26028913960400191505060405180910390fd5b60006135bd856103e56140f5565b905060006135cb82856140f5565b905060006135e5836135df886103e86140f5565b90614155565b90508082816135f057fe5b04979650505050505050565b600080600061360a856141af565b91509150611f04848383613524565b604080516001600160a01b03858116602483015284811660448301526064820187905260848083018590528351808403909101815260a490920183526020820180517bffffffffffffffffffffffffffffffffffffffffffffffffffffffff167f7fe683810000000000000000000000000000000000000000000000000000000017815292518251600094606094938b169392918291908083835b602083106136d35780518252601f1990920191602091820191016136b4565b6001836020036101000a0380198251168184511680821785525050505050509050019150506000604051808303816000865af19150503d8060008114613735576040519150601f19603f3d011682016040523d82523d6000602084013e61373a565b606091505b5091509150818015613768575080511580613768575080806020019051602081101561376557600080fd5b50515b6137a35760405162461bcd60e51b81526004018080602001828103825260248152602001806146b96024913960400191505060405180910390fd5b50505050505050565b6000806000859150915060007f00000000000000000000000000000000000000000000000000000000000000006001600160a01b031663b8e5303d866040518263ffffffff1660e01b81526004018082815260200191505060206040518083038186803b15801561381c57600080fd5b505afa158015613830573d6000803e3d6000fd5b505050506040513d602081101561384657600080fd5b505190506001600160a01b03811663022c0d9f8484876000805b506040519080825280601f01601f19166020018201604052801561388b576020820181803683370190505b506040518563ffffffff1660e01b815260040180858152602001848152602001836001600160a01b0316815260200180602001828103825283818151815260200191508051906020019080838360005b838110156138f35781810151838201526020016138db565b50505050905090810190601f1680156139205780820380516001836020036101000a031916815260200191505b5095505050505050600060405180830381600087803b15801561394257600080fd5b505af1158015613956573d6000803e3d6000fd5b50505050505050505050565b604080516000808252602082019092526001600160a01b0384169083906040518082805190602001908083835b602083106139ae5780518252601f19909201916020918201910161398f565b6001836020036101000a03801982511681845116808217855250505050505090500191505060006040518083038185875af1925050503d8060008114613a10576040519150601f19603f3d011682016040523d82523d6000602084013e613a15565b606091505b5050905080613a555760405162461bcd60e51b81526004018080602001828103825260348152602001806145486034913960400191505060405180910390fd5b505050565b6000806000613a68856141af565b91509150611f04848284613d4a565b604080516001600160a01b0385811660248301528481166044830152606480830185905283518084039091018152608490920183526020820180517bffffffffffffffffffffffffffffffffffffffffffffffffffffffff166323b872dd60e01b17815292518251600094606094938a169392918291908083835b60208310613b115780518252601f199092019160209182019101613af2565b6001836020036101000a0380198251168184511680821785525050505050509050019150506000604051808303816000865af19150503d8060008114613b73576040519150601f19603f3d011682016040523d82523d6000602084013e613b78565b606091505b5091509150818015613ba6575080511580613ba65750808060200190516020811015613ba357600080fd5b50515b613be15760405162461bcd60e51b81526004018080602001828103825260248152602001806146b96024913960400191505060405180910390fd5b505050505050565b60007f00000000000000000000000000000000000000000000000000000000000000006001600160a01b031663b8e5303d846040518263ffffffff1660e01b81526004018082815260200191505060206040518083038186803b158015613c4f57600080fd5b505afa158015613c63573d6000803e3d6000fd5b505050506040513d6020811015613c7957600080fd5b505190508360006001600160a01b03831663022c0d9f8383878180613860565b6000806000613ca7856141af565b91509150611f04848284613524565b6000806000613cc4856141af565b91509150611f04848383613d4a565b6000806000613ce1866141af565b915091506000613cf08761423a565b90506000613cfd886142a7565b90508615613d2a57613d2384613d1d89613d1786866142e2565b906140f5565b90614324565b9450613d3f565b613d3c83613d1d88613d1786866142e2565b94505b505050509392505050565b6000808411613d8a5760405162461bcd60e51b815260040180806020018281038252602c8152602001806144ea602c913960400191505060405180910390fd5b600083118015613d9a5750600082115b613dd55760405162461bcd60e51b81526004018080602001828103825260288152602001806145a26028913960400191505060405180910390fd5b6000613de76103e8613d1786886140f5565b90506000613dfb6103e5613d1786896142e2565b9050613e126001828481613e0b57fe5b0490614155565b9695505050505050565b60008060007f00000000000000000000000000000000000000000000000000000000000000006001600160a01b031663b8e5303d896040518263ffffffff1660e01b81526004018082815260200191505060206040518083038186803b158015613e8557600080fd5b505afa158015613e99573d6000803e3d6000fd5b505050506040513d6020811015613eaf57600080fd5b505190506001600160a01b038116613f54577f00000000000000000000000000000000000000000000000000000000000000006001600160a01b031663ed25a5a2896040518263ffffffff1660e01b815260040180828152602001915050602060405180830381600087803b158015613f2757600080fd5b505af1158015613f3b573d6000803e3d6000fd5b505050506040513d6020811015613f5157600080fd5b50505b600080613f60836141af565b91509150816000148015613f72575080155b15613f8257889450879350614042565b6000613f8f8a848461404f565b9050888111613fe25786811015613fd75760405162461bcd60e51b815260040180806020018281038252602681526020018061457c6026913960400191505060405180910390fd5b899550935083614040565b6000613fef8a848661404f565b90508a811115613ffb57fe5b8881101561403a5760405162461bcd60e51b81526004018080602001828103825260268152602001806146686026913960400191505060405180910390fd5b95508894505b505b5050509550959350505050565b600080841161408f5760405162461bcd60e51b815260040180806020018281038252602581526020018061461c6025913960400191505060405180910390fd5b60008311801561409f5750600082115b6140da5760405162461bcd60e51b81526004018080602001828103825260288152602001806145a26028913960400191505060405180910390fd5b826140e585846140f5565b816140ec57fe5b04949350505050565b60008261410457506000611861565b8282028284828161411157fe5b041461414e5760405162461bcd60e51b81526004018080602001828103825260218152602001806145ca6021913960400191505060405180910390fd5b9392505050565b60008282018381101561414e576040805162461bcd60e51b815260206004820152601b60248201527f536166654d6174683a206164646974696f6e206f766572666c6f770000000000604482015290519081900360640190fd5b600080826001600160a01b0316630902f1ac6040518163ffffffff1660e01b815260040160606040518083038186803b1580156141eb57600080fd5b505afa1580156141ff573d6000803e3d6000fd5b505050506040513d606081101561421557600080fd5b5080516020909101516dffffffffffffffffffffffffffff9182169591169350915050565b6000816001600160a01b03166318160ddd6040518163ffffffff1660e01b815260040160206040518083038186803b15801561427557600080fd5b505afa158015614289573d6000803e3d6000fd5b505050506040513d602081101561429f57600080fd5b505192915050565b6000816001600160a01b031663ba9a7a566040518163ffffffff1660e01b815260040160206040518083038186803b15801561427557600080fd5b600061414e83836040518060400160405280601e81526020017f536166654d6174683a207375627472616374696f6e206f766572666c6f770000815250614366565b600061414e83836040518060400160405280601a81526020017f536166654d6174683a206469766973696f6e206279207a65726f0000000000008152506143fd565b600081848411156143f55760405162461bcd60e51b81526004018080602001828103825283818151815260200191508051906020019080838360005b838110156143ba5781810151838201526020016143a2565b50505050905090810190601f1680156143e75780820380516001836020036101000a031916815260200191505b509250505060405180910390fd5b505050900390565b6000818361444c5760405162461bcd60e51b81526020600482018181528351602484015283519092839260449091019190850190808383600083156143ba5781810151838201526020016143a2565b50600083858161445857fe5b049594505050505056fe556e69737761705632526f757465723a2057524f4e475f414d4f554e545f4255524e4544556e69737761705632526f757465723a20494e53554646494349454e545f4f55545055545f414d4f554e545f424153455f544f4b454e556e69737761705632526f757465723a204558434553534956455f494e5055545f414d4f554e545f544f4b454e556e697377617056324c6962726172793a20494e53554646494349454e545f4f55545055545f414d4f554e54556e69737761705632526f757465723a204558434553534956455f494e5055545f414d4f554e545f424153455f544f4b454e5472616e7366657248656c7065723a3a736166655472616e736665724554483a20455448207472616e73666572206661696c6564556e69737761705632526f757465723a20494e53554646494349454e545f425f414d4f554e54556e697377617056324c6962726172793a20494e53554646494349454e545f4c4951554944495459536166654d6174683a206d756c7469706c69636174696f6e206f766572666c6f77556e69737761705632526f757465723a20494e53554646494349454e545f4f55545055545f414d4f554e545f544f4b454e556e697377617056324c6962726172793a20494e53554646494349454e545f414d4f554e54556e69737761705632526f757465723a204558434553534956455f494e5055545f414d4f554e54556e69737761705632526f757465723a20494e53554646494349454e545f415f414d4f554e54556e69737761705632526f757465723a20494e53554646494349454e545f4f55545055545f414d4f554e545472616e7366657248656c7065723a205452414e534645525f46524f4d5f4641494c4544556e697377617056324c6962726172793a20494e53554646494349454e545f494e5055545f414d4f554e54556e69737761705632526f757465723a20494e53554646494349454e545f4f55545055545f414d4f554e545f455448a26469706673582212205ca06643ed8c8e3eef4ae74c5347abb729092cac81d40c93656962519d01d85264736f6c634300060c0033",
  "linkReferences": {},
  "deployedLinkReferences": {}
}