{
  "_format": "hh-sol-artifact-1",
  "contractName": "UniswapV2Factory",
  "sourceName": "src/uniswap/factory/UniswapV2Factory.sol",
  "abi": [
    {
      "inputs": [
        {
          "internalType": "address",
          "name": "feeToSetter",
          "type": "address"
        },
        {
          "internalType": "address",
          "name": "stonkToken",
          "type": "address"
        },
        {
          "internalType": "address",
          "name": "dispenser",
          "type": "address"
        }
      ],
      "stateMutability": "nonpayable",
      "type": "constructor"
    },
    {
      "anonymous": false,
      "inputs": [
        {
          "indexed": false,
          "internalType": "address",
          "name": "sender",
          "type": "address"
        },
        {
          "indexed": false,
          "internalType": "bytes32",
          "name": "tokenHash",
          "type": "bytes32"
        },
        {
          "indexed": false,
          "internalType": "address",
          "name": "stonkToken",
          "type": "address"
        },
        {
          "indexed": false,
          "internalType": "address",
          "name": "pair",
          "type": "address"
        },
        {
          "indexed": false,
          "internalType": "uint256",
          "name": "",
          "type": "uint256"
        }
      ],
      "name": "PairCreated",
      "type": "event"
    },
    {
      "anonymous": false,
      "inputs": [
        {
          "indexed": true,
          "internalType": "bytes32",
          "name": "tokenHash",
          "type": "bytes32"
        },
        {
          "indexed": true,
          "internalType": "address",
          "name": "stonkToken",
          "type": "address"
        },
        {
          "indexed": false,
          "internalType": "address",
          "name": "pair",
          "type": "address"
        },
        {
          "indexed": false,
          "internalType": "uint256",
          "name": "",
          "type": "uint256"
        }
      ],
      "name": "PairCreated",
      "type": "event"
    },
    {
      "inputs": [
        {
          "internalType": "uint256",
          "name": "i",
          "type": "uint256"
        }
      ],
      "name": "allPairs",
      "outputs": [
        {
          "internalType": "address",
          "name": "",
          "type": "address"
        }
      ],
      "stateMutability": "view",
      "type": "function"
    },
    {
      "inputs": [],
      "name": "allPairsLength",
      "outputs": [
        {
          "internalType": "uint256",
          "name": "",
          "type": "uint256"
        }
      ],
      "stateMutability": "view",
      "type": "function"
    },
    {
      "inputs": [
        {
          "internalType": "bytes32",
          "name": "tokenHash",
          "type": "bytes32"
        }
      ],
      "name": "createPair",
      "outputs": [
        {
          "internalType": "address",
          "name": "pair",
          "type": "address"
        }
      ],
      "stateMutability": "nonpayable",
      "type": "function"
    },
    {
      "inputs": [],
      "name": "dispenser",
      "outputs": [
        {
          "internalType": "address",
          "name": "",
          "type": "address"
        }
      ],
      "stateMutability": "view",
      "type": "function"
    },
    {
      "inputs": [],
      "name": "feeTo",
      "outputs": [
        {
          "internalType": "address",
          "name": "",
          "type": "address"
        }
      ],
      "stateMutability": "view",
      "type": "function"
    },
    {
      "inputs": [],
      "name": "feeToSetter",
      "outputs": [
        {
          "internalType": "address",
          "name": "",
          "type": "address"
        }
      ],
      "stateMutability": "view",
      "type": "function"
    },
    {
      "inputs": [
        {
          "internalType": "bytes32",
          "name": "tokenHash",
          "type": "bytes32"
        }
      ],
      "name": "getPair",
      "outputs": [
        {
          "internalType": "address",
          "name": "",
          "type": "address"
        }
      ],
      "stateMutability": "view",
      "type": "function"
    },
    {
      "inputs": [
        {
          "internalType": "address",
          "name": "feeTo",
          "type": "address"
        }
      ],
      "name": "setFeeTo",
      "outputs": [],
      "stateMutability": "nonpayable",
      "type": "function"
    },
    {
      "inputs": [
        {
          "internalType": "address",
          "name": "feeToSetter",
          "type": "address"
        }
      ],
      "name": "setFeeToSetter",
      "outputs": [],
      "stateMutability": "nonpayable",
      "type": "function"
    },
    {
      "inputs": [],
      "name": "stonkToken",
      "outputs": [
        {
          "internalType": "address",
          "name": "",
          "type": "address"
        }
      ],
      "stateMutability": "view",
      "type": "function"
    }
  ],
  "bytecode": "0x608060405234801561001057600080fd5b50604051612d35380380612d358339818101604052606081101561003357600080fd5b5080516020820151604090920151600180546001600160a01b03199081166001600160a01b039485161790915560028054821694841694909417909355600380549093169116179055612caa8061008b6000396000f3fe608060405234801561001057600080fd5b50600436106100be5760003560e01c8063b7c3f62211610076578063e09d894d1161005b578063e09d894d14610173578063ed25a5a21461017b578063f46901ed14610198576100be565b8063b7c3f6221461014e578063b8e5303d14610156576100be565b80631e3dd18b116100a75780631e3dd18b146100ef578063574f2ba31461010c578063a2e74af614610126576100be565b8063017e7e58146100c3578063094b7415146100e7575b600080fd5b6100cb6101be565b604080516001600160a01b039092168252519081900360200190f35b6100cb6101cd565b6100cb6004803603602081101561010557600080fd5b50356101dc565b610114610206565b60408051918252519081900360200190f35b61014c6004803603602081101561013c57600080fd5b50356001600160a01b031661020c565b005b6100cb61029a565b6100cb6004803603602081101561016c57600080fd5b50356102a9565b6100cb6102c4565b6100cb6004803603602081101561019157600080fd5b50356102d3565b61014c600480360360208110156101ae57600080fd5b50356001600160a01b0316610511565b6000546001600160a01b031690565b6001546001600160a01b031690565b6000600582815481106101eb57fe5b6000918252602090912001546001600160a01b031692915050565b60055490565b6001546001600160a01b0316331461026b576040805162461bcd60e51b815260206004820152601460248201527f556e697377617056323a20464f5242494444454e000000000000000000000000604482015290519081900360640190fd5b6001805473ffffffffffffffffffffffffffffffffffffffff19166001600160a01b0392909216919091179055565b6002546001600160a01b031690565b6000908152600460205260409020546001600160a01b031690565b6003546001600160a01b031690565b6000818152600460205260408120546001600160a01b03161561033d576040805162461bcd60e51b815260206004820152601660248201527f556e697377617056323a20504149525f45584953545300000000000000000000604482015290519081900360640190fd5b60606040518060200161034f9061059f565b7fffffffffffffffffffffffffffffffffffffffffffffffffffffffffffffffe082820381018352601f9091011660408181526020828101879052815180840382018152928201909152815191810191909120825192935091829184016000f5600354600254604080517f88b117b3000000000000000000000000000000000000000000000000000000008152600481018990526001600160a01b039384166024820152918316604483015251929550908516916388b117b39160648082019260009290919082900301818387803b15801561042a57600080fd5b505af115801561043e573d6000803e3d6000fd5b505050600085815260046020908152604080832080546001600160a01b03808a1673ffffffffffffffffffffffffffffffffffffffff19928316811790935560058054600181018255968190527f036b6384b5eca791c62761152d0c79bb0604c104a5fb6f4eb0703f3154bb3db090960180549092168317909155600254945483513381529485018b90529416838301526060830152608082019290925290517f4347922e9520a790addae2eb379f88c90ab93fa57a96a51ece62cbc91197f22b92509081900360a00190a15050919050565b6001546001600160a01b03163314610570576040805162461bcd60e51b815260206004820152601460248201527f556e697377617056323a20464f5242494444454e000000000000000000000000604482015290519081900360640190fd5b6000805473ffffffffffffffffffffffffffffffffffffffff19166001600160a01b0392909216919091179055565b6126c8806105ad8339019056fe60806040526001600d5534801561001557600080fd5b50604080518082018252600a8152692ab734b9bbb0b8102b1960b11b6020918201528151808301835260018152603160f81b9082015281517f8b73c3c69bb8fe3d512ecc4cf759cc79239f7b179b0ffacaa9a75d522b39400f818301527fbfcc8ef98ffbf7b6c3fec7bf5185b566b9863e35a9d83acd49ad6824b5969738818401527fc89efdaa54c0f20c7adf612882df0950f5a951637e0307cdcb4c672f298b8bc660608201524660808201523060a0808301919091528351808303909101815260c09091019092528151910120600355600580546001600160a01b031916331790556125c0806101086000396000f3fe608060405234801561001057600080fd5b50600436106101c45760003560e01c80637ecebe00116100f9578063bc25cf7711610097578063d505accf11610071578063d505accf1461055d578063dd62ed3e146105ae578063e09d894d146105dc578063fff6cae9146105e4576101c4565b8063bc25cf7714610527578063c45a01551461054d578063cca4947314610555576101c4565b806395d89b41116100d357806395d89b41146104c7578063a9059cbb146104cf578063b7c3f622146104fb578063ba9a7a561461051f576101c4565b80637ecebe001461042e57806388b117b31461045457806389afcb4414610488576101c4565b80632f613aa0116101665780633644e515116101405780633644e515146103d25780636a627842146103da57806370a08231146104005780637464fc3d14610426576101c4565b80632f613aa0146103a457806330adf81f146103ac578063313ce567146103b4576101c4565b8063095ea7b3116101a2578063095ea7b31461030c5780630dd0fd871461034c57806318160ddd1461036657806323b872dd1461036e576101c4565b8063022c0d9f146101c957806306fdde03146102575780630902f1ac146102d4575b600080fd5b610255600480360360808110156101df57600080fd5b8135916020810135916001600160a01b03604083013516919081019060808101606082013564010000000081111561021657600080fd5b82018360208201111561022857600080fd5b8035906020019184600183028401116401000000008311171561024a57600080fd5b5090925090506105ec565b005b61025f610b10565b6040805160208082528351818301528351919283929083019185019080838360005b83811015610299578181015183820152602001610281565b50505050905090810190601f1680156102c65780820380516001836020036101000a031916815260200191505b509250505060405180910390f35b6102dc610b47565b604080516001600160701b03948516815292909316602083015263ffffffff168183015290519081900360600190f35b6103386004803603604081101561032257600080fd5b506001600160a01b038135169060200135610b71565b604080519115158252519081900360200190f35b610354610b88565b60408051918252519081900360200190f35b610354610b8e565b6103386004803603606081101561038457600080fd5b506001600160a01b03813581169160208101359091169060400135610b94565b610354610c46565b610354610c4c565b6103bc610c70565b6040805160ff9092168252519081900360200190f35b610354610c75565b610354600480360360208110156103f057600080fd5b50356001600160a01b0316610c7b565b6103546004803603602081101561041657600080fd5b50356001600160a01b0316610f75565b610354610f94565b6103546004803603602081101561044457600080fd5b50356001600160a01b0316610f9a565b6102556004803603606081101561046a57600080fd5b508035906001600160a01b0360208201358116916040013516610fb5565b6104ae6004803603602081101561049e57600080fd5b50356001600160a01b0316611060565b6040805192835260208301919091528051918290030190f35b61025f61142d565b610338600480360360408110156104e557600080fd5b506001600160a01b038135169060200135611464565b610503611471565b604080516001600160a01b039092168252519081900360200190f35b610354611480565b6102556004803603602081101561053d57600080fd5b50356001600160a01b0316611486565b610503611600565b61035461160f565b610255600480360360e081101561057357600080fd5b506001600160a01b03813581169160208101359091169060408101359060608101359060ff6080820135169060a08101359060c00135611615565b610354600480360360408110156105c457600080fd5b506001600160a01b038135811691602001351661183d565b610503611868565b610255611877565b600d54600114610643576040805162461bcd60e51b815260206004820152601160248201527f556e697377617056323a204c4f434b4544000000000000000000000000000000604482015290519081900360640190fd5b6000600d55841515806106565750600084115b6106915760405162461bcd60e51b81526004018080602001828103825260258152602001806124b06025913960400191505060405180910390fd5b60008061069c610b47565b5091509150816001600160701b0316871080156106c15750806001600160701b031686105b6106fc5760405162461bcd60e51b81526004018080602001828103825260218152602001806124f96021913960400191505060405180910390fd5b60085460075460009182916001600160a01b0389811691161415610767576040805162461bcd60e51b815260206004820152601560248201527f556e697377617056323a20494e56414c49445f544f0000000000000000000000604482015290519081900360640190fd5b89156107785761077881898c6119ef565b881561079557600754610795906001600160a01b0316898b611b7f565b851561084757876001600160a01b03166310d1e85c338c8c8b8b6040518663ffffffff1660e01b815260040180866001600160a01b03168152602001858152602001848152602001806020018281038252848482818152602001925080828437600081840152601f19601f8201169050808301925050509650505050505050600060405180830381600087803b15801561082e57600080fd5b505af1158015610842573d6000803e3d6000fd5b505050505b600654604080516326985b5f60e11b81523060048201526024810184905290516001600160a01b0390921691634d30b6be91604480820192602092909190829003018186803b15801561089957600080fd5b505afa1580156108ad573d6000803e3d6000fd5b505050506040513d60208110156108c357600080fd5b5051600754604080516370a0823160e01b815230600482015290519295506001600160a01b03909116916370a0823191602480820192602092909190829003018186803b15801561091357600080fd5b505afa158015610927573d6000803e3d6000fd5b505050506040513d602081101561093d57600080fd5b50519150600090506001600160701b0385168a9003831161095f57600061096e565b89856001600160701b03160383035b9050600089856001600160701b031603831161098b57600061099a565b89856001600160701b03160383035b905060008211806109ab5750600081115b6109e65760405162461bcd60e51b81526004018080602001828103825260248152602001806124d56024913960400191505060405180910390fd5b6000610a086109f6846003611d2b565b610a02876103e8611d2b565b90611d8b565b90506000610a1a6109f6846003611d2b565b9050610a3f620f4240610a396001600160701b038b8116908b16611d2b565b90611d2b565b610a498383611d2b565b1015610a9c576040805162461bcd60e51b815260206004820152600c60248201527f556e697377617056323a204b0000000000000000000000000000000000000000604482015290519081900360640190fd5b5050610aaa84848888611dcd565b60408051838152602081018390528082018d9052606081018c905290516001600160a01b038b169133917fd78ad95fa46c994b6551d0da85fc275fe613ce37657fb8d5e3d130840159d8229181900360800190a350506001600d55505050505050505050565b60408051808201909152600a81527f556e697377617020563200000000000000000000000000000000000000000000602082015290565b6009546001600160701b0380821692600160701b830490911691600160e01b900463ffffffff1690565b6000610b7e338484611fb5565b5060015b92915050565b600a5490565b60005490565b6001600160a01b03831660009081526002602090815260408083203384529091528120547fffffffffffffffffffffffffffffffffffffffffffffffffffffffffffffffff14610c31576001600160a01b0384166000908152600260209081526040808320338452909152902054610c0c9083611d8b565b6001600160a01b03851660009081526002602090815260408083203384529091529020555b610c3c848484612017565b5060019392505050565b600b5490565b7f6e71edae12b1b97f4d1f60370fef10105fa2faae0126114a169c64845d6126c990565b601290565b60035490565b6000600d54600114610cd4576040805162461bcd60e51b815260206004820152601160248201527f556e697377617056323a204c4f434b4544000000000000000000000000000000604482015290519081900360640190fd5b6000600d81905580610ce4610b47565b50600654600854604080516326985b5f60e11b81523060048201526024810192909252519395509193506000926001600160a01b0390911691634d30b6be916044808301926020929190829003018186803b158015610d4257600080fd5b505afa158015610d56573d6000803e3d6000fd5b505050506040513d6020811015610d6c57600080fd5b5051600754604080516370a0823160e01b815230600482015290519293506000926001600160a01b03909216916370a0823191602480820192602092909190829003018186803b158015610dbf57600080fd5b505afa158015610dd3573d6000803e3d6000fd5b505050506040513d6020811015610de957600080fd5b505190506000610e02836001600160701b038716611d8b565b90506000610e19836001600160701b038716611d8b565b90506000610e2787876120c5565b90506000610e33610b8e565b905080610e6657610e526103e8610a02610e4d8787611d2b565b612204565b9850610e6160006103e8612255565b610ea9565b610ea66001600160701b038916610e7d8684611d2b565b81610e8457fe5b046001600160701b038916610e998685611d2b565b81610ea057fe5b046122df565b98505b60008911610ee85760405162461bcd60e51b81526004018080602001828103825260288152602001806125426028913960400191505060405180910390fd5b610ef28a8a612255565b610efe86868a8a611dcd565b8115610f2857600954610f24906001600160701b0380821691600160701b900416611d2b565b600c555b6040805185815260208101859052815133927f4c209b5fc8ad50758f13e2e1088ba56a560dff690a1c6fef26394f4c03821c4f928290030190a250506001600d5550949695505050505050565b6001600160a01b0381166000908152600160205260409020545b919050565b600c5490565b6001600160a01b031660009081526004602052604090205490565b6005546001600160a01b03163314611014576040805162461bcd60e51b815260206004820152601460248201527f556e697377617056323a20464f5242494444454e000000000000000000000000604482015290519081900360640190fd5b600892909255600680546001600160a01b039283167fffffffffffffffffffffffff00000000000000000000000000000000000000009182161790915560078054929093169116179055565b600080600d546001146110ba576040805162461bcd60e51b815260206004820152601160248201527f556e697377617056323a204c4f434b4544000000000000000000000000000000604482015290519081900360640190fd5b6000600d819055806110ca610b47565b50600854600654604080516326985b5f60e11b815230600482015260248101849052905194965092945090926000926001600160a01b0390921691634d30b6be916044808301926020929190829003018186803b15801561112a57600080fd5b505afa15801561113e573d6000803e3d6000fd5b505050506040513d602081101561115457600080fd5b5051600754604080516370a0823160e01b815230600482015290519293506000926001600160a01b03909216916370a0823191602480820192602092909190829003018186803b1580156111a757600080fd5b505afa1580156111bb573d6000803e3d6000fd5b505050506040513d60208110156111d157600080fd5b5051905060006111e030610f75565b905060006111ee87876120c5565b905060006111fa610b8e565b9050806112078487611d2b565b8161120e57fe5b0499508061121c8486611d2b565b8161122357fe5b04985060008a1180156112365750600089115b6112715760405162461bcd60e51b815260040180806020018281038252602881526020018061251a6028913960400191505060405180910390fd5b61127b30846122f5565b611286868c8c6119ef565b60075461129d906001600160a01b03168c8b611b7f565b600654600854604080516326985b5f60e11b81523060048201526024810192909252516001600160a01b0390921691634d30b6be91604480820192602092909190829003018186803b1580156112f257600080fd5b505afa158015611306573d6000803e3d6000fd5b505050506040513d602081101561131c57600080fd5b5051600754604080516370a0823160e01b815230600482015290519297506001600160a01b03909116916370a0823191602480820192602092909190829003018186803b15801561136c57600080fd5b505afa158015611380573d6000803e3d6000fd5b505050506040513d602081101561139657600080fd5b505193506113a685858a8a611dcd565b81156113d0576009546113cc906001600160701b0380821691600160701b900416611d2b565b600c555b604080518b8152602081018b905281516001600160a01b038e169233927fdccd412f0b1252819cb1fd330b93224ca42612892bb3f4f789976e6d81936496929081900390910190a350505050505050506001600d81905550915091565b60408051808201909152600681527f554e492d56320000000000000000000000000000000000000000000000000000602082015290565b6000610b7e338484612017565b6007546001600160a01b031690565b6103e890565b600d546001146114dd576040805162461bcd60e51b815260206004820152601160248201527f556e697377617056323a204c4f434b4544000000000000000000000000000000604482015290519081900360640190fd5b6000600d55600854600954600654604080516326985b5f60e11b81523060048201526024810185905290516115899385938793611584936001600160701b03909316926001600160a01b0390921691634d30b6be91604480820192602092909190829003018186803b15801561155257600080fd5b505afa158015611566573d6000803e3d6000fd5b505050506040513d602081101561157c57600080fd5b505190611d8b565b6119ef565b600754600954604080516370a0823160e01b815230600482015290516115f7936001600160a01b03169286926115f292600160701b9092046001600160701b03169185916370a08231916024808301926020929190829003018186803b15801561155257600080fd5b611b7f565b50506001600d55565b6005546001600160a01b031690565b60085490565b4284101561166a576040805162461bcd60e51b815260206004820152601260248201527f556e697377617056323a20455850495245440000000000000000000000000000604482015290519081900360640190fd5b6003546001600160a01b0380891660008181526004602090815260408083208054600180820190925582517f6e71edae12b1b97f4d1f60370fef10105fa2faae0126114a169c64845d6126c98186015280840196909652958d166060860152608085018c905260a085019590955260c08085018b90528151808603909101815260e0850182528051908301207f19010000000000000000000000000000000000000000000000000000000000006101008601526101028501969096526101228085019690965280518085039096018652610142840180825286519683019690962095839052610162840180825286905260ff89166101828501526101a284018890526101c28401879052519193926101e280820193601f1981019281900390910190855afa1580156117a0573d6000803e3d6000fd5b5050604051601f1901519150506001600160a01b038116158015906117d65750886001600160a01b0316816001600160a01b0316145b611827576040805162461bcd60e51b815260206004820152601c60248201527f556e697377617056323a20494e56414c49445f5349474e415455524500000000604482015290519081900360640190fd5b611832898989611fb5565b505050505050505050565b6001600160a01b03918216600090815260026020908152604080832093909416825291909152205490565b6006546001600160a01b031690565b600d546001146118ce576040805162461bcd60e51b815260206004820152601160248201527f556e697377617056323a204c4f434b4544000000000000000000000000000000604482015290519081900360640190fd5b6000600d55600654600854604080516326985b5f60e11b81523060048201526024810192909252516119e8926001600160a01b031691634d30b6be916044808301926020929190829003018186803b15801561192957600080fd5b505afa15801561193d573d6000803e3d6000fd5b505050506040513d602081101561195357600080fd5b5051600754604080516370a0823160e01b815230600482015290516001600160a01b03909216916370a0823191602480820192602092909190829003018186803b1580156119a057600080fd5b505afa1580156119b4573d6000803e3d6000fd5b505050506040513d60208110156119ca57600080fd5b50516009546001600160701b0380821691600160701b900416611dcd565b6001600d55565b600654604080513060248201526001600160a01b0385811660448301526064820187905260848083018690528351808403909101815260a490920183526020820180516001600160e01b03167f7fe6838100000000000000000000000000000000000000000000000000000000178152925182516000956060959316939282918083835b60208310611a925780518252601f199092019160209182019101611a73565b6001836020036101000a0380198251168184511680821785525050505050509050019150506000604051808303816000865af19150503d8060008114611af4576040519150601f19603f3d011682016040523d82523d6000602084013e611af9565b606091505b5091509150818015611b27575080511580611b275750808060200190516020811015611b2457600080fd5b50515b611b78576040805162461bcd60e51b815260206004820181905260248201527f556e697377617056323a20544f4b454e5f5452414e534645525f4641494c4544604482015290519081900360640190fd5b5050505050565b604080518082018252601981527f7472616e7366657228616464726573732c75696e74323536290000000000000060209182015281516001600160a01b0385811660248301526044808301869052845180840390910181526064909201845291810180516001600160e01b03167fa9059cbb000000000000000000000000000000000000000000000000000000001781529251815160009460609489169392918291908083835b60208310611c455780518252601f199092019160209182019101611c26565b6001836020036101000a0380198251168184511680821785525050505050509050019150506000604051808303816000865af19150503d8060008114611ca7576040519150601f19603f3d011682016040523d82523d6000602084013e611cac565b606091505b5091509150818015611cda575080511580611cda5750808060200190516020811015611cd757600080fd5b50515b611b78576040805162461bcd60e51b815260206004820181905260248201527f556e697377617056323a2053544f4e4b5f5452414e534645525f4641494c4544604482015290519081900360640190fd5b600082611d3a57506000610b82565b82820282848281611d4757fe5b0414611d845760405162461bcd60e51b815260040180806020018281038252602181526020018061256a6021913960400191505060405180910390fd5b9392505050565b6000611d8483836040518060400160405280601e81526020017f536166654d6174683a207375627472616374696f6e206f766572666c6f770000815250612387565b6001600160701b038411801590611deb57506001600160701b038311155b611e3c576040805162461bcd60e51b815260206004820152601360248201527f556e697377617056323a204f564552464c4f5700000000000000000000000000604482015290519081900360640190fd5b60095463ffffffff42811691600160e01b90048116820390811615801590611e6c57506001600160701b03841615155b8015611e8057506001600160701b03831615155b15611eeb578063ffffffff16611ea885611e998661241e565b6001600160e01b031690612430565b600a80546001600160e01b03929092169290920201905563ffffffff8116611ed384611e998761241e565b600b80546001600160e01b0392909216929092020190555b600980547fffffffffffffffffffffffffffffffffffff0000000000000000000000000000166001600160701b03888116919091177fffffffff0000000000000000000000000000ffffffffffffffffffffffffffff16600160701b8883168102919091176001600160e01b0316600160e01b63ffffffff871602179283905560408051848416815291909304909116602082015281517f1c411e9a96e071241c2f21f7726b17ae89e3cab4c78be50e062b03a9fffbbad1929181900390910190a1505050505050565b6001600160a01b03808416600081815260026020908152604080832094871680845294825291829020859055815185815291517f8c5be1e5ebec7d5bd14f71427d1e84f3dd0314c0f7b2291e5b200ac8c7c3b9259281900390910190a3505050565b6001600160a01b03831660009081526001602052604090205461203a9082611d8b565b6001600160a01b0380851660009081526001602052604080822093909355908416815220546120699082612455565b6001600160a01b0380841660008181526001602090815260409182902094909455805185815290519193928716927fddf252ad1be2c89b69c2b068fc378daa952ba7f163c4a11628f55a4df523b3ef92918290030190a3505050565b600080600560009054906101000a90046001600160a01b03166001600160a01b031663017e7e586040518163ffffffff1660e01b815260040160206040518083038186803b15801561211657600080fd5b505afa15801561212a573d6000803e3d6000fd5b505050506040513d602081101561214057600080fd5b5051600c546001600160a01b0382161580159450919250906121f05780156121eb57600061217d610e4d6001600160701b03888116908816611d2b565b9050600061218a83612204565b9050808211156121e85760006121ab6121a38484611d8b565b610a39610b8e565b905060006121c4836121be866005611d2b565b90612455565b905060008183816121d157fe5b04905080156121e4576121e48782612255565b5050505b50505b6121fc565b80156121fc576000600c555b505092915050565b60006003821115612247575080600160028204015b818110156122415780915060028182858161223057fe5b04018161223957fe5b049050612219565b50610f8f565b8115610f8f57506001919050565b6000546122629082612455565b60009081556001600160a01b0383168152600160205260409020546122879082612455565b6001600160a01b03831660008181526001602090815260408083209490945583518581529351929391927fddf252ad1be2c89b69c2b068fc378daa952ba7f163c4a11628f55a4df523b3ef9281900390910190a35050565b60008183106122ee5781611d84565b5090919050565b6001600160a01b0382166000908152600160205260409020546123189082611d8b565b6001600160a01b0383166000908152600160205260408120919091555461233f9082611d8b565b60009081556040805183815290516001600160a01b038516917fddf252ad1be2c89b69c2b068fc378daa952ba7f163c4a11628f55a4df523b3ef919081900360200190a35050565b600081848411156124165760405162461bcd60e51b81526004018080602001828103825283818151815260200191508051906020019080838360005b838110156123db5781810151838201526020016123c3565b50505050905090810190601f1680156124085780820380516001836020036101000a031916815260200191505b509250505060405180910390fd5b505050900390565b6001600160701b0316600160701b0290565b60006001600160701b0382166001600160e01b0384168161244d57fe5b049392505050565b600082820183811015611d84576040805162461bcd60e51b815260206004820152601b60248201527f536166654d6174683a206164646974696f6e206f766572666c6f770000000000604482015290519081900360640190fdfe556e697377617056323a20494e53554646494349454e545f4f55545055545f414d4f554e54556e697377617056323a20494e53554646494349454e545f494e5055545f414d4f554e54556e697377617056323a20494e53554646494349454e545f4c4951554944495459556e697377617056323a20494e53554646494349454e545f4c49515549444954595f4255524e4544556e697377617056323a20494e53554646494349454e545f4c49515549444954595f4d494e544544536166654d6174683a206d756c7469706c69636174696f6e206f766572666c6f77a26469706673582212208bea23bc5b4ff8d0604b80ea03fbfd46f6e117a3ed6fb1ddbe4d9f5019d8429464736f6c634300060c0033a26469706673582212207c22af67ed100a94dcfaf5c4f6a2d66f9e5ea5182ffaea86f1577af2c8c8149b64736f6c634300060c0033",
  "linkReferences": {},
  "deployedLinkReferences": {}
}