{
  "_format": "hh-sol-artifact-1",
  "contractName": "UniswapV2Router",
  "sourceName": "src/uniswap/router/UniswapV2Router.sol",
  "abi": [
    {
      "inputs": [
        {
          "internalType": "address",
          "name": "_factory",
          "type": "address"
        }
      ],
      "stateMutability": "nonpayable",
      "type": "constructor"
    },
    {
      "anonymous": false,
      "inputs": [
        {
          "indexed": false,
          "internalType": "address",
          "name": "sender",
          "type": "address"
        },
        {
          "indexed": false,
          "internalType": "bytes32",
          "name": "tokenHash",
          "type": "bytes32"
        },
        {
          "indexed": false,
          "internalType": "uint256",
          "name": "liquidity",
          "type": "uint256"
        },
        {
          "indexed": false,
          "internalType": "uint256",
          "name": "amountBaseToken",
          "type": "uint256"
        },
        {
          "indexed": false,
          "internalType": "uint256",
          "name": "amountToken",
          "type": "uint256"
        }
      ],
      "name": "LiquidityAdded",
      "type": "event"
    },
    {
      "anonymous": false,
      "inputs": [
        {
          "indexed": false,
          "internalType": "address",
          "name": "sender",
          "type": "address"
        },
        {
          "indexed": false,
          "internalType": "bytes32",
          "name": "tokenHash",
          "type": "bytes32"
        },
        {
          "indexed": false,
          "internalType": "uint256",
          "name": "liquidity",
          "type": "uint256"
        },
        {
          "indexed": false,
          "internalType": "uint256",
          "name": "amountBaseToken",
          "type": "uint256"
        },
        {
          "indexed": false,
          "internalType": "uint256",
          "name": "amountToken",
          "type": "uint256"
        }
      ],
      "name": "LiquidityRemoved",
      "type": "event"
    },
    {
      "anonymous": false,
      "inputs": [
        {
          "indexed": false,
          "internalType": "address",
          "name": "sender",
          "type": "address"
        },
        {
          "indexed": false,
          "internalType": "bytes32",
          "name": "tokenHash",
          "type": "bytes32"
        },
        {
          "indexed": false,
          "internalType": "uint256",
          "name": "baseTokenAmountIn",
          "type": "uint256"
        },
        {
          "indexed": false,
          "internalType": "uint256",
          "name": "tokenAmountOut",
          "type": "uint256"
        }
      ],
      "name": "SwapBaseTokensForExactTokens",
      "type": "event"
    },
    {
      "anonymous": false,
      "inputs": [
        {
          "indexed": false,
          "internalType": "address",
          "name": "sender",
          "type": "address"
        },
        {
          "indexed": false,
          "internalType": "bytes32",
          "name": "tokenHash",
          "type": "bytes32"
        },
        {
          "indexed": false,
          "internalType": "uint256",
          "name": "ethAmountIn",
          "type": "uint256"
        },
        {
          "indexed": false,
          "internalType": "uint256",
          "name": "tokenAmountOut",
          "type": "uint256"
        }
      ],
      "name": "SwapETHForExactTokens",
      "type": "event"
    },
    {
      "anonymous": false,
      "inputs": [
        {
          "indexed": false,
          "internalType": "address",
          "name": "sender",
          "type": "address"
        },
        {
          "indexed": false,
          "internalType": "bytes32",
          "name": "tokenHash",
          "type": "bytes32"
        },
        {
          "indexed": false,
          "internalType": "uint256",
          "name": "baseTokenAmountIn",
          "type": "uint256"
        },
        {
          "indexed": false,
          "internalType": "uint256",
          "name": "tokenAmountOut",
          "type": "uint256"
        }
      ],
      "name": "SwapExactBaseTokensForTokens",
      "type": "event"
    },
    {
      "anonymous": false,
      "inputs": [
        {
          "indexed": false,
          "internalType": "address",
          "name": "sender",
          "type": "address"
        },
        {
          "indexed": false,
          "internalType": "bytes32",
          "name": "tokenHash",
          "type": "bytes32"
        },
        {
          "indexed": false,
          "internalType": "uint256",
          "name": "ethAmountIn",
          "type": "uint256"
        },
        {
          "indexed": false,
          "internalType": "uint256",
          "name": "tokenAmountOut",
          "type": "uint256"
        }
      ],
      "name": "SwapExactETHForTokens",
      "type": "event"
    },
    {
      "anonymous": false,
      "inputs": [
        {
          "indexed": false,
          "internalType": "address",
          "name": "sender",
          "type": "address"
        },
        {
          "indexed": false,
          "internalType": "bytes32",
          "name": "tokenHash",
          "type": "bytes32"
        },
        {
          "indexed": false,
          "internalType": "uint256",
          "name": "baseTokenAmountOut",
          "type": "uint256"
        },
        {
          "indexed": false,
          "internalType": "uint256",
          "name": "tokenAmountIn",
          "type": "uint256"
        }
      ],
      "name": "SwapExactTokensForBaseTokens",
      "type": "event"
    },
    {
      "anonymous": false,
      "inputs": [
        {
          "indexed": false,
          "internalType": "address",
          "name": "sender",
          "type": "address"
        },
        {
          "indexed": false,
          "internalType": "bytes32",
          "name": "tokenHash",
          "type": "bytes32"
        },
        {
          "indexed": false,
          "internalType": "uint256",
          "name": "ethAmountOut",
          "type": "uint256"
        },
        {
          "indexed": false,
          "internalType": "uint256",
          "name": "tokenAmountIn",
          "type": "uint256"
        }
      ],
      "name": "SwapExactTokensForETH",
      "type": "event"
    },
    {
      "anonymous": false,
      "inputs": [
        {
          "indexed": false,
          "internalType": "address",
          "name": "sender",
          "type": "address"
        },
        {
          "indexed": false,
          "internalType": "bytes32",
          "name": "tokenHash",
          "type": "bytes32"
        },
        {
          "indexed": false,
          "internalType": "uint256",
          "name": "baseTokenAmountOut",
          "type": "uint256"
        },
        {
          "indexed": false,
          "internalType": "uint256",
          "name": "tokenAmountIn",
          "type": "uint256"
        }
      ],
      "name": "SwapTokensForExactBaseTokens",
      "type": "event"
    },
    {
      "anonymous": false,
      "inputs": [
        {
          "indexed": false,
          "internalType": "address",
          "name": "sender",
          "type": "address"
        },
        {
          "indexed": false,
          "internalType": "bytes32",
          "name": "tokenHash",
          "type": "bytes32"
        },
        {
          "indexed": false,
          "internalType": "uint256",
          "name": "ethAmountOut",
          "type": "uint256"
        },
        {
          "indexed": false,
          "internalType": "uint256",
          "name": "tokenAmountIn",
          "type": "uint256"
        }
      ],
      "name": "SwapTokensForExactETH",
      "type": "event"
    },
    {
      "inputs": [
        {
          "internalType": "bytes32",
          "name": "tokenHash",
          "type": "bytes32"
        },
        {
          "internalType": "uint256",
          "name": "amountTokenDesired",
          "type": "uint256"
        },
        {
          "internalType": "uint256",
          "name": "amountBaseTokenDesired",
          "type": "uint256"
        },
        {
          "internalType": "uint256",
          "name": "amountTokenMin",
          "type": "uint256"
        },
        {
          "internalType": "uint256",
          "name": "amountBaseTokenMin",
          "type": "uint256"
        },
        {
          "internalType": "address",
          "name": "to",
          "type": "address"
        },
        {
          "internalType": "uint256",
          "name": "deadline",
          "type": "uint256"
        }
      ],
      "name": "addLiquidity",
      "outputs": [
        {
          "internalType": "uint256",
          "name": "amountToken",
          "type": "uint256"
        },
        {
          "internalType": "uint256",
          "name": "amountBaseToken",
          "type": "uint256"
        },
        {
          "internalType": "uint256",
          "name": "liquidity",
          "type": "uint256"
        }
      ],
      "stateMutability": "nonpayable",
      "type": "function"
    },
    {
      "inputs": [
        {
          "internalType": "bytes32",
          "name": "tokenHash",
          "type": "bytes32"
        },
        {
          "internalType": "uint256",
          "name": "amountTokenDesired",
          "type": "uint256"
        },
        {
          "internalType": "uint256",
          "name": "amountTokenMin",
          "type": "uint256"
        },
        {
          "internalType": "uint256",
          "name": "amountETHMin",
          "type": "uint256"
        },
        {
          "internalType": "address",
          "name": "to",
          "type": "address"
        },
        {
          "internalType": "uint256",
          "name": "deadline",
          "type": "uint256"
        }
      ],
      "name": "addLiquidityETH",
      "outputs": [
        {
          "internalType": "uint256",
          "name": "amountToken",
          "type": "uint256"
        },
        {
          "internalType": "uint256",
          "name": "amountETH",
          "type": "uint256"
        },
        {
          "internalType": "uint256",
          "name": "liquidity",
          "type": "uint256"
        }
      ],
      "stateMutability": "payable",
      "type": "function"
    },
    {
      "inputs": [
        {
          "internalType": "bytes32",
          "name": "tokenHash",
          "type": "bytes32"
        },
        {
          "internalType": "uint256",
          "name": "amountTokensToReturn",
          "type": "uint256"
        },
        {
          "internalType": "uint256",
          "name": "amountBaseTokensToReturn",
          "type": "uint256"
        }
      ],
      "name": "calculateLiquidityRequiredToGetTokensOut",
      "outputs": [
        {
          "internalType": "uint256",
          "name": "liquidity",
          "type": "uint256"
        }
      ],
      "stateMutability": "view",
      "type": "function"
    },
    {
      "inputs": [],
      "name": "factory",
      "outputs": [
        {
          "internalType": "address",
          "name": "",
          "type": "address"
        }
      ],
      "stateMutability": "view",
      "type": "function"
    },
    {
      "inputs": [
        {
          "internalType": "uint256",
          "name": "amountOut",
          "type": "uint256"
        },
        {
          "internalType": "uint256",
          "name": "reserveIn",
          "type": "uint256"
        },
        {
          "internalType": "uint256",
          "name": "reserveOut",
          "type": "uint256"
        }
      ],
      "name": "getAmountIn",
      "outputs": [
        {
          "internalType": "uint256",
          "name": "amountIn",
          "type": "uint256"
        }
      ],
      "stateMutability": "pure",
      "type": "function"
    },
    {
      "inputs": [
        {
          "internalType": "uint256",
          "name": "amountIn",
          "type": "uint256"
        },
        {
          "internalType": "uint256",
          "name": "reserveIn",
          "type": "uint256"
        },
        {
          "internalType": "uint256",
          "name": "reserveOut",
          "type": "uint256"
        }
      ],
      "name": "getAmountOut",
      "outputs": [
        {
          "internalType": "uint256",
          "name": "amountOut",
          "type": "uint256"
        }
      ],
      "stateMutability": "pure",
      "type": "function"
    },
    {
      "inputs": [
        {
          "internalType": "uint256",
          "name": "tokenAmountOut",
          "type": "uint256"
        },
        {
          "internalType": "bytes32",
          "name": "tokenHash",
          "type": "bytes32"
        }
      ],
      "name": "getBaseTokenAmountIn",
      "outputs": [
        {
          "internalType": "uint256",
          "name": "amountOut",
          "type": "uint256"
        }
      ],
      "stateMutability": "view",
      "type": "function"
    },
    {
      "inputs": [
        {
          "internalType": "uint256",
          "name": "tokenAmountIn",
          "type": "uint256"
        },
        {
          "internalType": "bytes32",
          "name": "tokenHash",
          "type": "bytes32"
        }
      ],
      "name": "getBaseTokenAmountOut",
      "outputs": [
        {
          "internalType": "uint256",
          "name": "amountOut",
          "type": "uint256"
        }
      ],
      "stateMutability": "view",
      "type": "function"
    },
    {
      "inputs": [
        {
          "internalType": "uint256",
          "name": "baseTokenAmountOut",
          "type": "uint256"
        },
        {
          "internalType": "bytes32",
          "name": "tokenHash",
          "type": "bytes32"
        }
      ],
      "name": "getTokenAmountIn",
      "outputs": [
        {
          "internalType": "uint256",
          "name": "amountOut",
          "type": "uint256"
        }
      ],
      "stateMutability": "view",
      "type": "function"
    },
    {
      "inputs": [
        {
          "internalType": "uint256",
          "name": "baseTokenAmountIn",
          "type": "uint256"
        },
        {
          "internalType": "bytes32",
          "name": "tokenHash",
          "type": "bytes32"
        }
      ],
      "name": "getTokenAmountOut",
      "outputs": [
        {
          "internalType": "uint256",
          "name": "amountOut",
          "type": "uint256"
        }
      ],
      "stateMutability": "view",
      "type": "function"
    },
    {
      "inputs": [
        {
          "internalType": "uint256",
          "name": "amountA",
          "type": "uint256"
        },
        {
          "internalType": "uint256",
          "name": "reserveA",
          "type": "uint256"
        },
        {
          "internalType": "uint256",
          "name": "reserveB",
          "type": "uint256"
        }
      ],
      "name": "quote",
      "outputs": [
        {
          "internalType": "uint256",
          "name": "amountB",
          "type": "uint256"
        }
      ],
      "stateMutability": "pure",
      "type": "function"
    },
    {
      "inputs": [
        {
          "internalType": "bytes32",
          "name": "tokenHash",
          "type": "bytes32"
        },
        {
          "internalType": "address",
          "name": "addressToQuote",
          "type": "address"
        }
      ],
      "name": "quoteAddressLiquidity",
      "outputs": [
        {
          "internalType": "uint256",
          "name": "addressLiquidity",
          "type": "uint256"
        },
        {
          "internalType": "uint256",
          "name": "tokenAmount",
          "type": "uint256"
        },
        {
          "internalType": "uint256",
          "name": "baseTokenAmount",
          "type": "uint256"
        }
      ],
      "stateMutability": "view",
      "type": "function"
    },
    {
      "inputs": [
        {
          "internalType": "bytes32",
          "name": "tokenHash",
          "type": "bytes32"
        },
        {
          "internalType": "uint256",
          "name": "liquidity",
          "type": "uint256"
        },
        {
          "internalType": "uint256",
          "name": "amountTokenMin",
          "type": "uint256"
        },
        {
          "internalType": "uint256",
          "name": "amountBaseTokenMin",
          "type": "uint256"
        },
        {
          "internalType": "address",
          "name": "to",
          "type": "address"
        },
        {
          "internalType": "uint256",
          "name": "deadline",
          "type": "uint256"
        }
      ],
      "name": "removeLiquidity",
      "outputs": [
        {
          "internalType": "uint256",
          "name": "amountToken",
          "type": "uint256"
        },
        {
          "internalType": "uint256",
          "name": "amountBaseToken",
          "type": "uint256"
        }
      ],
      "stateMutability": "nonpayable",
      "type": "function"
    },
    {
      "inputs": [
        {
          "internalType": "bytes32",
          "name": "tokenHash",
          "type": "bytes32"
        },
        {
          "internalType": "uint256",
          "name": "liquidity",
          "type": "uint256"
        },
        {
          "internalType": "uint256",
          "name": "amountTokenMin",
          "type": "uint256"
        },
        {
          "internalType": "uint256",
          "name": "amountETHMin",
          "type": "uint256"
        },
        {
          "internalType": "address",
          "name": "to",
          "type": "address"
        },
        {
          "internalType": "uint256",
          "name": "deadline",
          "type": "uint256"
        }
      ],
      "name": "removeLiquidityETH",
      "outputs": [
        {
          "internalType": "uint256",
          "name": "amountToken",
          "type": "uint256"
        },
        {
          "internalType": "uint256",
          "name": "amountETH",
          "type": "uint256"
        }
      ],
      "stateMutability": "nonpayable",
      "type": "function"
    },
    {
      "inputs": [
        {
          "internalType": "bytes32",
          "name": "tokenHash",
          "type": "bytes32"
        },
        {
          "internalType": "uint256",
          "name": "liquidity",
          "type": "uint256"
        },
        {
          "internalType": "uint256",
          "name": "amountTokenMin",
          "type": "uint256"
        },
        {
          "internalType": "uint256",
          "name": "amountETHMin",
          "type": "uint256"
        },
        {
          "internalType": "address",
          "name": "to",
          "type": "address"
        },
        {
          "internalType": "uint256",
          "name": "deadline",
          "type": "uint256"
        },
        {
          "internalType": "bool",
          "name": "approveMax",
          "type": "bool"
        },
        {
          "internalType": "uint8",
          "name": "v",
          "type": "uint8"
        },
        {
          "internalType": "bytes32",
          "name": "r",
          "type": "bytes32"
        },
        {
          "internalType": "bytes32",
          "name": "s",
          "type": "bytes32"
        }
      ],
      "name": "removeLiquidityETHWithPermit",
      "outputs": [
        {
          "internalType": "uint256",
          "name": "amountToken",
          "type": "uint256"
        },
        {
          "internalType": "uint256",
          "name": "amountETH",
          "type": "uint256"
        }
      ],
      "stateMutability": "nonpayable",
      "type": "function"
    },
    {
      "inputs": [
        {
          "internalType": "bytes32",
          "name": "tokenHash",
          "type": "bytes32"
        },
        {
          "internalType": "uint256",
          "name": "amountTokensToReturn",
          "type": "uint256"
        },
        {
          "internalType": "uint256",
          "name": "amountBaseTokensToReturn",
          "type": "uint256"
        },
        {
          "internalType": "bool",
          "name": "returnETH",
          "type": "bool"
        },
        {
          "internalType": "address",
          "name": "to",
          "type": "address"
        },
        {
          "internalType": "uint256",
          "name": "deadline",
          "type": "uint256"
        }
      ],
      "name": "removeLiquidityGetExactTokensBack",
      "outputs": [
        {
          "internalType": "uint256",
          "name": "amountToken",
          "type": "uint256"
        },
        {
          "internalType": "uint256",
          "name": "amountETH",
          "type": "uint256"
        }
      ],
      "stateMutability": "nonpayable",
      "type": "function"
    },
    {
      "inputs": [
        {
          "internalType": "bytes32",
          "name": "tokenHash",
          "type": "bytes32"
        },
        {
          "internalType": "uint256",
          "name": "liquidity",
          "type": "uint256"
        },
        {
          "internalType": "uint256",
          "name": "amountAMin",
          "type": "uint256"
        },
        {
          "internalType": "uint256",
          "name": "amountBMin",
          "type": "uint256"
        },
        {
          "internalType": "address",
          "name": "to",
          "type": "address"
        },
        {
          "internalType": "uint256",
          "name": "deadline",
          "type": "uint256"
        },
        {
          "internalType": "bool",
          "name": "approveMax",
          "type": "bool"
        },
        {
          "internalType": "uint8",
          "name": "v",
          "type": "uint8"
        },
        {
          "internalType": "bytes32",
          "name": "r",
          "type": "bytes32"
        },
        {
          "internalType": "bytes32",
          "name": "s",
          "type": "bytes32"
        }
      ],
      "name": "removeLiquidityWithPermit",
      "outputs": [
        {
          "internalType": "uint256",
          "name": "amountA",
          "type": "uint256"
        },
        {
          "internalType": "uint256",
          "name": "amountB",
          "type": "uint256"
        }
      ],
      "stateMutability": "nonpayable",
      "type": "function"
    },
    {
      "inputs": [
        {
          "internalType": "uint256",
          "name": "tokenAmountOut",
          "type": "uint256"
        },
        {
          "internalType": "uint256",
          "name": "baseTokenAmountInMax",
          "type": "uint256"
        },
        {
          "internalType": "bytes32",
          "name": "tokenHash",
          "type": "bytes32"
        },
        {
          "internalType": "address",
          "name": "to",
          "type": "address"
        },
        {
          "internalType": "uint256",
          "name": "deadline",
          "type": "uint256"
        }
      ],
      "name": "swapBaseTokensForExactTokens",
      "outputs": [
        {
          "internalType": "uint256",
          "name": "baseTokenAmountIn",
          "type": "uint256"
        }
      ],
      "stateMutability": "nonpayable",
      "type": "function"
    },
    {
      "inputs": [
        {
          "internalType": "uint256",
          "name": "tokenAmountOut",
          "type": "uint256"
        },
        {
          "internalType": "bytes32",
          "name": "tokenHash",
          "type": "bytes32"
        },
        {
          "internalType": "address",
          "name": "to",
          "type": "address"
        },
        {
          "internalType": "uint256",
          "name": "deadline",
          "type": "uint256"
        }
      ],
      "name": "swapETHForExactTokens",
      "outputs": [
        {
          "internalType": "uint256",
          "name": "ethAmountIn",
          "type": "uint256"
        }
      ],
      "stateMutability": "payable",
      "type": "function"
    },
    {
      "inputs": [
        {
          "internalType": "uint256",
          "name": "baseTokenAmountIn",
          "type": "uint256"
        },
        {
          "internalType": "uint256",
          "name": "tokenAmountOutMin",
          "type": "uint256"
        },
        {
          "internalType": "bytes32",
          "name": "tokenHash",
          "type": "bytes32"
        },
        {
          "internalType": "address",
          "name": "to",
          "type": "address"
        },
        {
          "internalType": "uint256",
          "name": "deadline",
          "type": "uint256"
        }
      ],
      "name": "swapExactBaseTokensForTokens",
      "outputs": [
        {
          "internalType": "uint256",
          "name": "tokenAmountOut",
          "type": "uint256"
        }
      ],
      "stateMutability": "nonpayable",
      "type": "function"
    },
    {
      "inputs": [
        {
          "internalType": "uint256",
          "name": "tokenAmountOutMin",
          "type": "uint256"
        },
        {
          "internalType": "bytes32",
          "name": "tokenHash",
          "type": "bytes32"
        },
        {
          "internalType": "address",
          "name": "to",
          "type": "address"
        },
        {
          "internalType": "uint256",
          "name": "deadline",
          "type": "uint256"
        }
      ],
      "name": "swapExactETHForTokens",
      "outputs": [
        {
          "internalType": "uint256",
          "name": "tokenAmountOut",
          "type": "uint256"
        }
      ],
      "stateMutability": "payable",
      "type": "function"
    },
    {
      "inputs": [
        {
          "internalType": "uint256",
          "name": "tokenAmountIn",
          "type": "uint256"
        },
        {
          "internalType": "uint256",
          "name": "baseTokenAmountOutMin",
          "type": "uint256"
        },
        {
          "internalType": "bytes32",
          "name": "tokenHash",
          "type": "bytes32"
        },
        {
          "internalType": "address",
          "name": "to",
          "type": "address"
        },
        {
          "internalType": "uint256",
          "name": "deadline",
          "type": "uint256"
        }
      ],
      "name": "swapExactTokensForBaseTokens",
      "outputs": [
        {
          "internalType": "uint256",
          "name": "baseTokenAmountOut",
          "type": "uint256"
        }
      ],
      "stateMutability": "nonpayable",
      "type": "function"
    },
    {
      "inputs": [
        {
          "internalType": "uint256",
          "name": "tokenAmountIn",
          "type": "uint256"
        },
        {
          "internalType": "uint256",
          "name": "ethAmountOutMin",
          "type": "uint256"
        },
        {
          "internalType": "bytes32",
          "name": "tokenHash",
          "type": "bytes32"
        },
        {
          "internalType": "address",
          "name": "to",
          "type": "address"
        },
        {
          "internalType": "uint256",
          "name": "deadline",
          "type": "uint256"
        }
      ],
      "name": "swapExactTokensForETH",
      "outputs": [
        {
          "internalType": "uint256",
          "name": "ethAmountOut",
          "type": "uint256"
        }
      ],
      "stateMutability": "nonpayable",
      "type": "function"
    },
    {
      "inputs": [
        {
          "internalType": "uint256",
          "name": "baseTokenAmountOut",
          "type": "uint256"
        },
        {
          "internalType": "uint256",
          "name": "tokenAmountInMax",
          "type": "uint256"
        },
        {
          "internalType": "bytes32",
          "name": "tokenHash",
          "type": "bytes32"
        },
        {
          "internalType": "address",
          "name": "to",
          "type": "address"
        },
        {
          "internalType": "uint256",
          "name": "deadline",
          "type": "uint256"
        }
      ],
      "name": "swapTokensForExactBaseTokens",
      "outputs": [
        {
          "internalType": "uint256",
          "name": "tokenAmountIn",
          "type": "uint256"
        }
      ],
      "stateMutability": "nonpayable",
      "type": "function"
    },
    {
      "inputs": [
        {
          "internalType": "uint256",
          "name": "ethAmountOut",
          "type": "uint256"
        },
        {
          "internalType": "uint256",
          "name": "tokenAmountInMax",
          "type": "uint256"
        },
        {
          "internalType": "bytes32",
          "name": "tokenHash",
          "type": "bytes32"
        },
        {
          "internalType": "address",
          "name": "to",
          "type": "address"
        },
        {
          "internalType": "uint256",
          "name": "deadline",
          "type": "uint256"
        }
      ],
      "name": "swapTokensForExactETH",
      "outputs": [
        {
          "internalType": "uint256",
          "name": "tokenAmountIn",
          "type": "uint256"
        }
      ],
      "stateMutability": "nonpayable",
      "type": "function"
    },
    {
      "stateMutability": "payable",
      "type": "receive"
    }
  ],
  "bytecode": "0x60a060405234801561001057600080fd5b5060405162004ab138038062004ab18339818101604052602081101561003557600080fd5b5051606081901b6001600160601b0319166080526001600160a01b031661497062000141600039806101a3528061099d5280610a475280610ad95280610cc35280610d6d5280610eed5280610f9b528061111c52806111c652806112f452806113f0528061149352806115f4528061169e52806118b052806119ac5280611c825280611d2c5280611dbe5280611fb5528061205f528061225f528061235352806123f6528061247d528061263a52806126e85280612855528061287f528061292d5280612a2e5280612cfc5280612d9f5280612e9f528061304c52806130fa528061327e528061332152806133ba52806138af5280613ce25280613f145280613fb452506149706000f3fe60806040526004361061019a5760003560e01c8063878d4b92116100e1578063c45a01551161008a578063dea0521a11610064578063dea0521a146107de578063e41fe22914610831578063ec74d34a146108a2578063ef2ced50146108ed5761023d565b8063c45a015514610744578063cc4b1e6714610775578063d5e8d1fa146107ae5761023d565b8063a26c00c7116100bb578063a26c00c71461066d578063ad615dec1461069d578063b2f99439146106d35761023d565b8063878d4b92146105905780638cc2d272146105c85780639350dd31146105f85761023d565b806333a3e9d811610143578063602e58181161011d578063602e5818146104be57806362b89e571461050f57806385f8c2591461055a5761023d565b806333a3e9d8146103ec5780634ee93a95146104565780635797af201461048e5761023d565b806318e525b71161017457806318e525b7146103205780631e35f8101461036b5780632a7ac58a146103b65761023d565b8063054d50d4146102425780631536f7af1461028a57806317ddf622146102d55761023d565b3661023d5760007f00000000000000000000000000000000000000000000000000000000000000006001600160a01b031663c55dae636040518163ffffffff1660e01b815260040160206040518083038186803b1580156101fa57600080fd5b505afa15801561020e573d6000803e3d6000fd5b505050506040513d602081101561022457600080fd5b50519050336001600160a01b0382161461023a57fe5b50005b600080fd5b34801561024e57600080fd5b506102786004803603606081101561026557600080fd5b5080359060208101359060400135610931565b60408051918252519081900360200190f35b34801561029657600080fd5b50610278600480360360a08110156102ad57600080fd5b508035906020810135906040810135906001600160a01b036060820135169060800135610946565b3480156102e157600080fd5b50610278600480360360a08110156102f857600080fd5b508035906020810135906040810135906001600160a01b036060820135169060800135610c6c565b34801561032c57600080fd5b50610278600480360360a081101561034357600080fd5b508035906020810135906040810135906001600160a01b036060820135169060800135610e96565b34801561037757600080fd5b50610278600480360360a081101561038e57600080fd5b508035906020810135906040810135906001600160a01b0360608201351690608001356110c5565b3480156103c257600080fd5b50610278600480360360608110156103d957600080fd5b50803590602081013590604001356112ef565b3480156103f857600080fd5b5061043d600480360360c081101561040f57600080fd5b508035906020810135906040810135906060810135906001600160a01b036080820135169060a00135611398565b6040805192835260208301919091528051918290030190f35b6102786004803603608081101561046c57600080fd5b508035906020810135906001600160a01b03604082013516906060013561159d565b34801561049a57600080fd5b50610278600480360360408110156104b157600080fd5b50803590602001356118ab565b3480156104ca57600080fd5b5061043d600480360360c08110156104e157600080fd5b508035906020810135906040810135906060810135906001600160a01b036080820135169060a00135611954565b34801561051b57600080fd5b50610278600480360360a081101561053257600080fd5b508035906020810135906040810135906001600160a01b036060820135169060800135611c2b565b34801561056657600080fd5b506102786004803603606081101561057d57600080fd5b5080359060208101359060400135611f51565b610278600480360360808110156105a657600080fd5b508035906020810135906001600160a01b036040820135169060600135611f5e565b3480156105d457600080fd5b50610278600480360360408110156105eb57600080fd5b508035906020013561225a565b34801561060457600080fd5b5061064f600480360360e081101561061b57600080fd5b508035906020810135906040810135906060810135906080810135906001600160a01b0360a0820135169060c001356122f9565b60408051938452602084019290925282820152519081900360600190f35b34801561067957600080fd5b506102786004803603604081101561069057600080fd5b5080359060200135612635565b3480156106a957600080fd5b50610278600480360360608110156106c057600080fd5b50803590602081013590604001356126d4565b3480156106df57600080fd5b5061043d60048036036101408110156106f757600080fd5b508035906020810135906040810135906060810135906001600160a01b036080820135169060a08101359060c081013515159060ff60e082013516906101008101359061012001356126e1565b34801561075057600080fd5b50610759612853565b604080516001600160a01b039092168252519081900360200190f35b34801561078157600080fd5b5061064f6004803603604081101561079857600080fd5b50803590602001356001600160a01b0316612877565b3480156107ba57600080fd5b50610278600480360360408110156107d157600080fd5b5080359060200135612928565b3480156107ea57600080fd5b5061043d600480360360c081101561080157600080fd5b5080359060208101359060408101359060608101351515906001600160a01b036080820135169060a001356129c7565b34801561083d57600080fd5b5061043d600480360361014081101561085557600080fd5b508035906020810135906040810135906060810135906001600160a01b036080820135169060a08101359060c081013515159060ff60e08201351690610100810135906101200135612e98565b3480156108ae57600080fd5b50610278600480360360a08110156108c557600080fd5b508035906020810135906040810135906001600160a01b036060820135169060800135612ff5565b61064f600480360360c081101561090357600080fd5b508035906020810135906040810135906060810135906001600160a01b036080820135169060a00135613224565b600061093e848484613619565b949350505050565b60008142811015610999576040805162461bcd60e51b8152602060048201526018602482015277155b9a5cddd85c158c949bdd5d195c8e881156141254915160421b604482015290519081900360640190fd5b60007f00000000000000000000000000000000000000000000000000000000000000006001600160a01b031663c55dae636040518163ffffffff1660e01b815260040160206040518083038186803b1580156109f457600080fd5b505afa158015610a08573d6000803e3d6000fd5b505050506040513d6020811015610a1e57600080fd5b50516040805163b8e5303d60e01b81526004810189905290519192506000916001600160a01b037f0000000000000000000000000000000000000000000000000000000000000000169163b8e5303d916024808301926020929190829003018186803b158015610a8d57600080fd5b505afa158015610aa1573d6000803e3d6000fd5b505050506040513d6020811015610ab757600080fd5b50516040805163e09d894d60e01b815290519192506000916001600160a01b037f0000000000000000000000000000000000000000000000000000000000000000169163e09d894d916004808301926020929190829003018186803b158015610b1f57600080fd5b505afa158015610b33573d6000803e3d6000fd5b505050506040513d6020811015610b4957600080fd5b50519050610b57828b6136f1565b945088851015610b985760405162461bcd60e51b815260040180806020018281038252602f81526020018061490c602f913960400191505060405180910390fd5b610ba5818933858e61370e565b610bb08589306138a1565b826001600160a01b0316632e1a7d4d866040518263ffffffff1660e01b815260040180828152602001915050600060405180830381600087803b158015610bf657600080fd5b505af1158015610c0a573d6000803e3d6000fd5b50505050610c188786613a57565b60408051338152602081018a9052808201879052606081018c905290517fa4b548a4389f35e850a725a8d38c3d4031500bbfa603b1e8c1e8cd79a526f7359181900360800190a15050505095945050505050565b60008142811015610cbf576040805162461bcd60e51b8152602060048201526018602482015277155b9a5cddd85c158c949bdd5d195c8e881156141254915160421b604482015290519081900360640190fd5b60007f00000000000000000000000000000000000000000000000000000000000000006001600160a01b031663c55dae636040518163ffffffff1660e01b815260040160206040518083038186803b158015610d1a57600080fd5b505afa158015610d2e573d6000803e3d6000fd5b505050506040513d6020811015610d4457600080fd5b50516040805163b8e5303d60e01b81526004810189905290519192506000916001600160a01b037f0000000000000000000000000000000000000000000000000000000000000000169163b8e5303d916024808301926020929190829003018186803b158015610db357600080fd5b505afa158015610dc7573d6000803e3d6000fd5b505050506040513d6020811015610ddd57600080fd5b50519050610deb818a613b4f565b935087841115610e2c5760405162461bcd60e51b815260040180806020018281038252603281526020018061471a6032913960400191505060405180910390fd5b610e3882338387613b6c565b610e43898888613cde565b6040805133815260208101899052808201869052606081018b905290517fc4d5ecb1c39f525414af6c436b95ebf8a3ac513d7a420c8c4701fa6a1f8ce74d9181900360800190a150505095945050505050565b60008142811015610ee9576040805162461bcd60e51b8152602060048201526018602482015277155b9a5cddd85c158c949bdd5d195c8e881156141254915160421b604482015290519081900360640190fd5b60007f00000000000000000000000000000000000000000000000000000000000000006001600160a01b031663b8e5303d876040518263ffffffff1660e01b81526004018082815260200191505060206040518083038186803b158015610f4f57600080fd5b505afa158015610f63573d6000803e3d6000fd5b505050506040513d6020811015610f7957600080fd5b50516040805163e09d894d60e01b815290519192506000916001600160a01b037f0000000000000000000000000000000000000000000000000000000000000000169163e09d894d916004808301926020929190829003018186803b158015610fe157600080fd5b505afa158015610ff5573d6000803e3d6000fd5b505050506040513d602081101561100b57600080fd5b50519050611019828a6136f1565b93508784101561105a5760405162461bcd60e51b815260040180806020018281038252603681526020018061468b6036913960400191505060405180910390fd5b611067818833858d61370e565b6110728488886138a1565b6040805133815260208101899052808201869052606081018b905290517feb98bfa5b4238f236ef7c73a71968bf2f4baf43252216e2a9eaf7ae4069fb1689181900360800190a150505095945050505050565b60008142811015611118576040805162461bcd60e51b8152602060048201526018602482015277155b9a5cddd85c158c949bdd5d195c8e881156141254915160421b604482015290519081900360640190fd5b60007f00000000000000000000000000000000000000000000000000000000000000006001600160a01b031663c55dae636040518163ffffffff1660e01b815260040160206040518083038186803b15801561117357600080fd5b505afa158015611187573d6000803e3d6000fd5b505050506040513d602081101561119d57600080fd5b50516040805163b8e5303d60e01b81526004810189905290519192506000916001600160a01b037f0000000000000000000000000000000000000000000000000000000000000000169163b8e5303d916024808301926020929190829003018186803b15801561120c57600080fd5b505afa158015611220573d6000803e3d6000fd5b505050506040513d602081101561123657600080fd5b50519050611244818a613d8e565b9350878410156112855760405162461bcd60e51b81526004018080602001828103825260318152602001806147ef6031913960400191505060405180910390fd5b6112918233838c613b6c565b61129c848888613cde565b60408051338152602081018990528082018b90526060810186905290517f62b82f821e7778a952ef95154d8a11bab72d31e6c829958fae47d3b266353d4b9181900360800190a150505095945050505050565b6000807f00000000000000000000000000000000000000000000000000000000000000006001600160a01b031663b8e5303d866040518263ffffffff1660e01b81526004018082815260200191505060206040518083038186803b15801561135657600080fd5b505afa15801561136a573d6000803e3d6000fd5b505050506040513d602081101561138057600080fd5b5051905061138f818585613dab565b95945050505050565b60008082428110156113ec576040805162461bcd60e51b8152602060048201526018602482015277155b9a5cddd85c158c949bdd5d195c8e881156141254915160421b604482015290519081900360640190fd5b60007f00000000000000000000000000000000000000000000000000000000000000006001600160a01b031663c55dae636040518163ffffffff1660e01b815260040160206040518083038186803b15801561144757600080fd5b505afa15801561145b573d6000803e3d6000fd5b505050506040513d602081101561147157600080fd5b50516040805163e09d894d60e01b815290519192506000916001600160a01b037f0000000000000000000000000000000000000000000000000000000000000000169163e09d894d916004808301926020929190829003018186803b1580156114d957600080fd5b505afa1580156114ed573d6000803e3d6000fd5b505050506040513d602081101561150357600080fd5b505190506115158b8b8b8b308b611954565b9095509350611527818c308a8961370e565b816001600160a01b0316632e1a7d4d856040518263ffffffff1660e01b815260040180828152602001915050600060405180830381600087803b15801561156d57600080fd5b505af1158015611581573d6000803e3d6000fd5b5050505061158f8785613a57565b505050965096945050505050565b600081428110156115f0576040805162461bcd60e51b8152602060048201526018602482015277155b9a5cddd85c158c949bdd5d195c8e881156141254915160421b604482015290519081900360640190fd5b60007f00000000000000000000000000000000000000000000000000000000000000006001600160a01b031663c55dae636040518163ffffffff1660e01b815260040160206040518083038186803b15801561164b57600080fd5b505afa15801561165f573d6000803e3d6000fd5b505050506040513d602081101561167557600080fd5b50516040805163b8e5303d60e01b81526004810189905290519192506000916001600160a01b037f0000000000000000000000000000000000000000000000000000000000000000169163b8e5303d916024808301926020929190829003018186803b1580156116e457600080fd5b505afa1580156116f8573d6000803e3d6000fd5b505050506040513d602081101561170e57600080fd5b5051905061171c8189613b4f565b93503484111561175d5760405162461bcd60e51b81526004018080602001828103825260278152602001806148456027913960400191505060405180910390fd5b816001600160a01b031663d0e30db0856040518263ffffffff1660e01b81526004016000604051808303818588803b15801561179857600080fd5b505af11580156117ac573d6000803e3d6000fd5b5050505050816001600160a01b031663a9059cbb82866040518363ffffffff1660e01b815260040180836001600160a01b0316815260200182815260200192505050602060405180830381600087803b15801561180857600080fd5b505af115801561181c573d6000803e3d6000fd5b505050506040513d602081101561183257600080fd5b505161183a57fe5b611845888888613cde565b833411156118595761185933853403613a57565b6040805133815260208101899052808201869052606081018a905290517fdc4e2da3656b4e95b9e177561e430e7cd2de2ec1ea7b365a5aab625fe485bb5c9181900360800190a1505050949350505050565b6000807f00000000000000000000000000000000000000000000000000000000000000006001600160a01b031663b8e5303d846040518263ffffffff1660e01b81526004018082815260200191505060206040518083038186803b15801561191257600080fd5b505afa158015611926573d6000803e3d6000fd5b505050506040513d602081101561193c57600080fd5b5051905061194a8185613b4f565b9150505b92915050565b60008082428110156119a8576040805162461bcd60e51b8152602060048201526018602482015277155b9a5cddd85c158c949bdd5d195c8e881156141254915160421b604482015290519081900360640190fd5b60007f00000000000000000000000000000000000000000000000000000000000000006001600160a01b031663b8e5303d8b6040518263ffffffff1660e01b81526004018082815260200191505060206040518083038186803b158015611a0e57600080fd5b505afa158015611a22573d6000803e3d6000fd5b505050506040513d6020811015611a3857600080fd5b5051604080516323b872dd60e01b81523360048201526001600160a01b03831660248201819052604482018d9052915192935090916323b872dd916064808201926020929091908290030181600087803b158015611a9557600080fd5b505af1158015611aa9573d6000803e3d6000fd5b505050506040513d6020811015611abf57600080fd5b505060408051637a94c56560e11b81526001600160a01b0388811660048301526000602483018190526044830181905283519185169363f5298aca936064808201949293918390030190829087803b158015611b1a57600080fd5b505af1158015611b2e573d6000803e3d6000fd5b505050506040513d6040811015611b4457600080fd5b508051602090910151909450925087841015611b915760405162461bcd60e51b815260040180806020018281038252602681526020018061486c6026913960400191505060405180910390fd5b86831015611bd05760405162461bcd60e51b81526004018080602001828103825260268152602001806147806026913960400191505060405180910390fd5b60408051338152602081018c90528082018b9052606081018590526080810186905290517fdcd2a7a2ca607e210edca7c07bebf4592a7fc452d24305ca55ecdff503421fb09181900360a00190a15050965096945050505050565b60008142811015611c7e576040805162461bcd60e51b8152602060048201526018602482015277155b9a5cddd85c158c949bdd5d195c8e881156141254915160421b604482015290519081900360640190fd5b60007f00000000000000000000000000000000000000000000000000000000000000006001600160a01b031663c55dae636040518163ffffffff1660e01b815260040160206040518083038186803b158015611cd957600080fd5b505afa158015611ced573d6000803e3d6000fd5b505050506040513d6020811015611d0357600080fd5b50516040805163b8e5303d60e01b81526004810189905290519192506000916001600160a01b037f0000000000000000000000000000000000000000000000000000000000000000169163b8e5303d916024808301926020929190829003018186803b158015611d7257600080fd5b505afa158015611d86573d6000803e3d6000fd5b505050506040513d6020811015611d9c57600080fd5b50516040805163e09d894d60e01b815290519192506000916001600160a01b037f0000000000000000000000000000000000000000000000000000000000000000169163e09d894d916004808301926020929190829003018186803b158015611e0457600080fd5b505afa158015611e18573d6000803e3d6000fd5b505050506040513d6020811015611e2e57600080fd5b50519050611e3c828b613e22565b945088851115611e7d5760405162461bcd60e51b815260040180806020018281038252602d8152602001806146c1602d913960400191505060405180910390fd5b611e8a818933858961370e565b611e958a89306138a1565b826001600160a01b0316632e1a7d4d8b6040518263ffffffff1660e01b815260040180828152602001915050600060405180830381600087803b158015611edb57600080fd5b505af1158015611eef573d6000803e3d6000fd5b50505050611efd878b613a57565b60408051338152602081018a90528082018c90526060810187905290517ffd0b9d809c2d16f4a5612f043f58f0e7a8200e07615c2e4c97fbc32051f609969181900360800190a15050505095945050505050565b600061093e848484613e3b565b60008142811015611fb1576040805162461bcd60e51b8152602060048201526018602482015277155b9a5cddd85c158c949bdd5d195c8e881156141254915160421b604482015290519081900360640190fd5b60007f00000000000000000000000000000000000000000000000000000000000000006001600160a01b031663c55dae636040518163ffffffff1660e01b815260040160206040518083038186803b15801561200c57600080fd5b505afa158015612020573d6000803e3d6000fd5b505050506040513d602081101561203657600080fd5b50516040805163b8e5303d60e01b81526004810189905290519192506000916001600160a01b037f0000000000000000000000000000000000000000000000000000000000000000169163b8e5303d916024808301926020929190829003018186803b1580156120a557600080fd5b505afa1580156120b9573d6000803e3d6000fd5b505050506040513d60208110156120cf57600080fd5b50519050346120de8282613d8e565b94508885101561211f5760405162461bcd60e51b815260040180806020018281038252602b815260200180614892602b913960400191505060405180910390fd5b826001600160a01b031663d0e30db0826040518263ffffffff1660e01b81526004016000604051808303818588803b15801561215a57600080fd5b505af115801561216e573d6000803e3d6000fd5b5050505050826001600160a01b031663a9059cbb83836040518363ffffffff1660e01b815260040180836001600160a01b0316815260200182815260200192505050602060405180830381600087803b1580156121ca57600080fd5b505af11580156121de573d6000803e3d6000fd5b505050506040513d60208110156121f457600080fd5b50516121fc57fe5b612207858989613cde565b60408051338152602081018a90528082018390526060810187905290517f31aca20ac8dabb167d48294233205e20f4fe47ccc5fe0dea37de3e57004e19359181900360800190a150505050949350505050565b6000807f00000000000000000000000000000000000000000000000000000000000000006001600160a01b031663b8e5303d846040518263ffffffff1660e01b81526004018082815260200191505060206040518083038186803b1580156122c157600080fd5b505afa1580156122d5573d6000803e3d6000fd5b505050506040513d60208110156122eb57600080fd5b5051905061194a81856136f1565b6000806000834281101561234f576040805162461bcd60e51b8152602060048201526018602482015277155b9a5cddd85c158c949bdd5d195c8e881156141254915160421b604482015290519081900360640190fd5b60007f00000000000000000000000000000000000000000000000000000000000000006001600160a01b031663c55dae636040518163ffffffff1660e01b815260040160206040518083038186803b1580156123aa57600080fd5b505afa1580156123be573d6000803e3d6000fd5b505050506040513d60208110156123d457600080fd5b50516040805163e09d894d60e01b815290519192506000916001600160a01b037f0000000000000000000000000000000000000000000000000000000000000000169163e09d894d916004808301926020929190829003018186803b15801561243c57600080fd5b505afa158015612450573d6000803e3d6000fd5b505050506040513d602081101561246657600080fd5b8101908080519060200190929190505050905060007f00000000000000000000000000000000000000000000000000000000000000006001600160a01b031663b8e5303d8f6040518263ffffffff1660e01b81526004018082815260200191505060206040518083038186803b1580156124df57600080fd5b505afa1580156124f3573d6000803e3d6000fd5b505050506040513d602081101561250957600080fd5b5051905061251a8e8e8e8e8e613f0d565b909750955061252c828f33848b61370e565b61253883338389613b6c565b806001600160a01b0316636a6278428a6040518263ffffffff1660e01b815260040180826001600160a01b03168152602001915050602060405180830381600087803b15801561258757600080fd5b505af115801561259b573d6000803e3d6000fd5b505050506040513d60208110156125b157600080fd5b810190808051906020019092919050505094507fdfdd9dbcc558b79525f53ba7faeaa725e94f45e8795c3152c0e8353bb73025b7338f87898b60405180866001600160a01b031681526020018581526020018481526020018381526020018281526020019550505050505060405180910390a1505050509750975097945050505050565b6000807f00000000000000000000000000000000000000000000000000000000000000006001600160a01b031663b8e5303d846040518263ffffffff1660e01b81526004018082815260200191505060206040518083038186803b15801561269c57600080fd5b505afa1580156126b0573d6000803e3d6000fd5b505050506040513d60208110156126c657600080fd5b5051905061194a8185613e22565b600061093e848484614140565b60008060007f00000000000000000000000000000000000000000000000000000000000000006001600160a01b031663b8e5303d8e6040518263ffffffff1660e01b81526004018082815260200191505060206040518083038186803b15801561274a57600080fd5b505afa15801561275e573d6000803e3d6000fd5b505050506040513d602081101561277457600080fd5b50519050600087612785578c612789565b6000195b604080517fd505accf00000000000000000000000000000000000000000000000000000000815233600482015230602482015260448101839052606481018c905260ff8a16608482015260a4810189905260c4810188905290519192506001600160a01b0384169163d505accf9160e48082019260009290919082900301818387803b15801561281857600080fd5b505af115801561282c573d6000803e3d6000fd5b5050505061283e8e8e8e8e8e8e611954565b909f909e509c50505050505050505050505050565b7f000000000000000000000000000000000000000000000000000000000000000081565b6000806000807f00000000000000000000000000000000000000000000000000000000000000006001600160a01b031663b8e5303d876040518263ffffffff1660e01b81526004018082815260200191505060206040518083038186803b1580156128e157600080fd5b505afa1580156128f5573d6000803e3d6000fd5b505050506040513d602081101561290b57600080fd5b5051905061291981866141e6565b935093509350505b9250925092565b6000807f00000000000000000000000000000000000000000000000000000000000000006001600160a01b031663b8e5303d846040518263ffffffff1660e01b81526004018082815260200191505060206040518083038186803b15801561298f57600080fd5b505afa1580156129a3573d6000803e3d6000fd5b505050506040513d60208110156129b957600080fd5b5051905061194a8185613d8e565b6000808242811015612a1b576040805162461bcd60e51b8152602060048201526018602482015277155b9a5cddd85c158c949bdd5d195c8e881156141254915160421b604482015290519081900360640190fd5b6000612a288a8a8a6112ef565b905060007f00000000000000000000000000000000000000000000000000000000000000006001600160a01b031663b8e5303d8c6040518263ffffffff1660e01b81526004018082815260200191505060206040518083038186803b158015612a9057600080fd5b505afa158015612aa4573d6000803e3d6000fd5b505050506040513d6020811015612aba57600080fd5b5051604080516323b872dd60e01b81523360048201526001600160a01b0383166024820181905260448201869052915192935090916323b872dd916064808201926020929091908290030181600087803b158015612b1757600080fd5b505af1158015612b2b573d6000803e3d6000fd5b505050506040513d6020811015612b4157600080fd5b50508715612bd85760408051637a94c56560e11b8152306004820152602481018c9052604481018b905281516001600160a01b0384169263f5298aca92606480820193918290030181600087803b158015612b9b57600080fd5b505af1158015612baf573d6000803e3d6000fd5b505050506040513d6040811015612bc557600080fd5b5080516020909101519095509350612c66565b60408051637a94c56560e11b81526001600160a01b038981166004830152602482018d9052604482018c905282519084169263f5298aca92606480820193918290030181600087803b158015612c2d57600080fd5b505af1158015612c41573d6000803e3d6000fd5b505050506040513d6040811015612c5757600080fd5b50805160209091015190955093505b898514612ca45760405162461bcd60e51b81526004018080602001828103825260248152602001806146676024913960400191505060405180910390fd5b60408051338152602081018d9052808201849052606081018690526080810187905290517fdcd2a7a2ca607e210edca7c07bebf4592a7fc452d24305ca55ecdff503421fb09181900360a00190a1871561158f5760007f00000000000000000000000000000000000000000000000000000000000000006001600160a01b031663c55dae636040518163ffffffff1660e01b815260040160206040518083038186803b158015612d5357600080fd5b505afa158015612d67573d6000803e3d6000fd5b505050506040513d6020811015612d7d57600080fd5b50516040805163e09d894d60e01b815290519192506000916001600160a01b037f0000000000000000000000000000000000000000000000000000000000000000169163e09d894d916004808301926020929190829003018186803b158015612de557600080fd5b505afa158015612df9573d6000803e3d6000fd5b505050506040513d6020811015612e0f57600080fd5b50519050612e20818e308c8b61370e565b816001600160a01b0316632e1a7d4d876040518263ffffffff1660e01b815260040180828152602001915050600060405180830381600087803b158015612e6657600080fd5b505af1158015612e7a573d6000803e3d6000fd5b50505050612e888987613a57565b5050505050965096945050505050565b60008060007f00000000000000000000000000000000000000000000000000000000000000006001600160a01b031663b8e5303d8e6040518263ffffffff1660e01b81526004018082815260200191505060206040518083038186803b158015612f0157600080fd5b505afa158015612f15573d6000803e3d6000fd5b505050506040513d6020811015612f2b57600080fd5b50519050600087612f3c578c612f40565b6000195b604080517fd505accf00000000000000000000000000000000000000000000000000000000815233600482015230602482015260448101839052606481018c905260ff8a16608482015260a4810189905260c4810188905290519192506001600160a01b0384169163d505accf9160e48082019260009290919082900301818387803b158015612fcf57600080fd5b505af1158015612fe3573d6000803e3d6000fd5b5050505061283e8e8e8e8e8e8e611398565b60008142811015613048576040805162461bcd60e51b8152602060048201526018602482015277155b9a5cddd85c158c949bdd5d195c8e881156141254915160421b604482015290519081900360640190fd5b60007f00000000000000000000000000000000000000000000000000000000000000006001600160a01b031663b8e5303d876040518263ffffffff1660e01b81526004018082815260200191505060206040518083038186803b1580156130ae57600080fd5b505afa1580156130c2573d6000803e3d6000fd5b505050506040513d60208110156130d857600080fd5b50516040805163e09d894d60e01b815290519192506000916001600160a01b037f0000000000000000000000000000000000000000000000000000000000000000169163e09d894d916004808301926020929190829003018186803b15801561314057600080fd5b505afa158015613154573d6000803e3d6000fd5b505050506040513d602081101561316a57600080fd5b50519050613178828a613e22565b9350878411156131b95760405162461bcd60e51b815260040180806020018281038252602d8152602001806146c1602d913960400191505060405180910390fd5b6131c6818833858861370e565b6131d18988886138a1565b60408051338152602081018990528082018b90526060810186905290517f108b746a57815b4a14712eea75c468efca63239839d772a4c964b21fef993c139181900360800190a150505095945050505050565b6000806000834281101561327a576040805162461bcd60e51b8152602060048201526018602482015277155b9a5cddd85c158c949bdd5d195c8e881156141254915160421b604482015290519081900360640190fd5b60007f00000000000000000000000000000000000000000000000000000000000000006001600160a01b031663c55dae636040518163ffffffff1660e01b815260040160206040518083038186803b1580156132d557600080fd5b505afa1580156132e9573d6000803e3d6000fd5b505050506040513d60208110156132ff57600080fd5b50516040805163e09d894d60e01b815290519192506000916001600160a01b037f0000000000000000000000000000000000000000000000000000000000000000169163e09d894d916004808301926020929190829003018186803b15801561336757600080fd5b505afa15801561337b573d6000803e3d6000fd5b505050506040513d602081101561339157600080fd5b50516040805163b8e5303d60e01b8152600481018f905290519192506000916001600160a01b037f0000000000000000000000000000000000000000000000000000000000000000169163b8e5303d916024808301926020929190829003018186803b15801561340057600080fd5b505afa158015613414573d6000803e3d6000fd5b505050506040513d602081101561342a57600080fd5b5051905061343b8d8d348e8e613f0d565b909750955061344d828e33848b61370e565b826001600160a01b031663d0e30db0876040518263ffffffff1660e01b81526004016000604051808303818588803b15801561348857600080fd5b505af115801561349c573d6000803e3d6000fd5b5050505050826001600160a01b031663a9059cbb82886040518363ffffffff1660e01b815260040180836001600160a01b0316815260200182815260200192505050602060405180830381600087803b1580156134f857600080fd5b505af115801561350c573d6000803e3d6000fd5b505050506040513d602081101561352257600080fd5b505161352a57fe5b806001600160a01b0316636a6278428a6040518263ffffffff1660e01b815260040180826001600160a01b03168152602001915050602060405180830381600087803b15801561357957600080fd5b505af115801561358d573d6000803e3d6000fd5b505050506040513d60208110156135a357600080fd5b50519450348610156135bb576135bb33873403613a57565b60408051338152602081018f9052808201879052606081018890526080810189905290517fdfdd9dbcc558b79525f53ba7faeaa725e94f45e8795c3152c0e8353bb73025b79181900360a00190a15050505096509650969350505050565b60008084116136595760405162461bcd60e51b815260040180806020018281038252602b8152602001806148e1602b913960400191505060405180910390fd5b6000831180156136695750600082115b6136a45760405162461bcd60e51b81526004018080602001828103825260288152602001806147a66028913960400191505060405180910390fd5b60006136b2856103e5614277565b905060006136c08285614277565b905060006136da836136d4886103e8614277565b906142d7565b90508082816136e557fe5b04979650505050505050565b60008060006136ff85614331565b9150915061138f848383613619565b604080516001600160a01b03858116602483015284811660448301526064820187905260848083018590528351808403909101815260a490920183526020820180517bffffffffffffffffffffffffffffffffffffffffffffffffffffffff167f7fe683810000000000000000000000000000000000000000000000000000000017815292518251600094606094938b169392918291908083835b602083106137c85780518252601f1990920191602091820191016137a9565b6001836020036101000a0380198251168184511680821785525050505050509050019150506000604051808303816000865af19150503d806000811461382a576040519150601f19603f3d011682016040523d82523d6000602084013e61382f565b606091505b509150915081801561385d57508051158061385d575080806020019051602081101561385a57600080fd5b50515b6138985760405162461bcd60e51b81526004018080602001828103825260248152602001806148bd6024913960400191505060405180910390fd5b50505050505050565b6000806000859150915060007f00000000000000000000000000000000000000000000000000000000000000006001600160a01b031663b8e5303d866040518263ffffffff1660e01b81526004018082815260200191505060206040518083038186803b15801561391157600080fd5b505afa158015613925573d6000803e3d6000fd5b505050506040513d602081101561393b57600080fd5b505190506001600160a01b03811663022c0d9f8484876000805b506040519080825280601f01601f191660200182016040528015613980576020820181803683370190505b506040518563ffffffff1660e01b815260040180858152602001848152602001836001600160a01b0316815260200180602001828103825283818151815260200191508051906020019080838360005b838110156139e85781810151838201526020016139d0565b50505050905090810190601f168015613a155780820380516001836020036101000a031916815260200191505b5095505050505050600060405180830381600087803b158015613a3757600080fd5b505af1158015613a4b573d6000803e3d6000fd5b50505050505050505050565b604080516000808252602082019092526001600160a01b0384169083906040518082805190602001908083835b60208310613aa35780518252601f199092019160209182019101613a84565b6001836020036101000a03801982511681845116808217855250505050505090500191505060006040518083038185875af1925050503d8060008114613b05576040519150601f19603f3d011682016040523d82523d6000602084013e613b0a565b606091505b5050905080613b4a5760405162461bcd60e51b815260040180806020018281038252603481526020018061474c6034913960400191505060405180910390fd5b505050565b6000806000613b5d85614331565b9150915061138f848284613e3b565b604080516001600160a01b0385811660248301528481166044830152606480830185905283518084039091018152608490920183526020820180517bffffffffffffffffffffffffffffffffffffffffffffffffffffffff166323b872dd60e01b17815292518251600094606094938a169392918291908083835b60208310613c065780518252601f199092019160209182019101613be7565b6001836020036101000a0380198251168184511680821785525050505050509050019150506000604051808303816000865af19150503d8060008114613c68576040519150601f19603f3d011682016040523d82523d6000602084013e613c6d565b606091505b5091509150818015613c9b575080511580613c9b5750808060200190516020811015613c9857600080fd5b50515b613cd65760405162461bcd60e51b81526004018080602001828103825260248152602001806148bd6024913960400191505060405180910390fd5b505050505050565b60007f00000000000000000000000000000000000000000000000000000000000000006001600160a01b031663b8e5303d846040518263ffffffff1660e01b81526004018082815260200191505060206040518083038186803b158015613d4457600080fd5b505afa158015613d58573d6000803e3d6000fd5b505050506040513d6020811015613d6e57600080fd5b505190508360006001600160a01b03831663022c0d9f8383878180613955565b6000806000613d9c85614331565b9150915061138f848284613619565b6000806000613db986614331565b915091506000613dc8876143bc565b90506000613dd588614429565b90508615613e0257613dfb84613df589613def8686614464565b90614277565b906144a6565b9450613e17565b613e1483613df588613def8686614464565b94505b505050509392505050565b6000806000613e3085614331565b9150915061138f8483835b6000808411613e7b5760405162461bcd60e51b815260040180806020018281038252602c8152602001806146ee602c913960400191505060405180910390fd5b600083118015613e8b5750600082115b613ec65760405162461bcd60e51b81526004018080602001828103825260288152602001806147a66028913960400191505060405180910390fd5b6000613ed86103e8613def8688614277565b90506000613eec6103e5613def8689614464565b9050613f036001828481613efc57fe5b04906142d7565b9695505050505050565b60008060007f00000000000000000000000000000000000000000000000000000000000000006001600160a01b031663b8e5303d896040518263ffffffff1660e01b81526004018082815260200191505060206040518083038186803b158015613f7657600080fd5b505afa158015613f8a573d6000803e3d6000fd5b505050506040513d6020811015613fa057600080fd5b505190506001600160a01b038116614045577f00000000000000000000000000000000000000000000000000000000000000006001600160a01b031663ed25a5a2896040518263ffffffff1660e01b815260040180828152602001915050602060405180830381600087803b15801561401857600080fd5b505af115801561402c573d6000803e3d6000fd5b505050506040513d602081101561404257600080fd5b50505b60008061405183614331565b91509150816000148015614063575080155b1561407357889450879350614133565b60006140808a8484614140565b90508881116140d357868110156140c85760405162461bcd60e51b81526004018080602001828103825260268152602001806147806026913960400191505060405180910390fd5b899550935083614131565b60006140e08a8486614140565b90508a8111156140ec57fe5b8881101561412b5760405162461bcd60e51b815260040180806020018281038252602681526020018061486c6026913960400191505060405180910390fd5b95508894505b505b5050509550959350505050565b60008084116141805760405162461bcd60e51b81526004018080602001828103825260258152602001806148206025913960400191505060405180910390fd5b6000831180156141905750600082115b6141cb5760405162461bcd60e51b81526004018080602001828103825260288152602001806147a66028913960400191505060405180910390fd5b826141d68584614277565b816141dd57fe5b04949350505050565b60008060008060006141f787614331565b915091506000614206886143bc565b9050600061421389614429565b905061421f89896144e8565b96508661423a57600080600096509650965050505050612921565b6142516142478383614464565b613df58987614277565b955061426a6142608383614464565b613df58986614277565b9450505050509250925092565b6000826142865750600061194e565b8282028284828161429357fe5b04146142d05760405162461bcd60e51b81526004018080602001828103825260218152602001806147ce6021913960400191505060405180910390fd5b9392505050565b6000828201838110156142d0576040805162461bcd60e51b815260206004820152601b60248201527f536166654d6174683a206164646974696f6e206f766572666c6f770000000000604482015290519081900360640190fd5b600080826001600160a01b0316630902f1ac6040518163ffffffff1660e01b815260040160606040518083038186803b15801561436d57600080fd5b505afa158015614381573d6000803e3d6000fd5b505050506040513d606081101561439757600080fd5b5080516020909101516dffffffffffffffffffffffffffff9182169591169350915050565b6000816001600160a01b03166318160ddd6040518163ffffffff1660e01b815260040160206040518083038186803b1580156143f757600080fd5b505afa15801561440b573d6000803e3d6000fd5b505050506040513d602081101561442157600080fd5b505192915050565b6000816001600160a01b031663ba9a7a566040518163ffffffff1660e01b815260040160206040518083038186803b1580156143f757600080fd5b60006142d083836040518060400160405280601e81526020017f536166654d6174683a207375627472616374696f6e206f766572666c6f77000081525061456a565b60006142d083836040518060400160405280601a81526020017f536166654d6174683a206469766973696f6e206279207a65726f000000000000815250614601565b6000826001600160a01b03166370a08231836040518263ffffffff1660e01b815260040180826001600160a01b0316815260200191505060206040518083038186803b15801561453757600080fd5b505afa15801561454b573d6000803e3d6000fd5b505050506040513d602081101561456157600080fd5b50519392505050565b600081848411156145f95760405162461bcd60e51b81526004018080602001828103825283818151815260200191508051906020019080838360005b838110156145be5781810151838201526020016145a6565b50505050905090810190601f1680156145eb5780820380516001836020036101000a031916815260200191505b509250505060405180910390fd5b505050900390565b600081836146505760405162461bcd60e51b81526020600482018181528351602484015283519092839260449091019190850190808383600083156145be5781810151838201526020016145a6565b50600083858161465c57fe5b049594505050505056fe556e69737761705632526f757465723a2057524f4e475f414d4f554e545f4255524e4544556e69737761705632526f757465723a20494e53554646494349454e545f4f55545055545f414d4f554e545f424153455f544f4b454e556e69737761705632526f757465723a204558434553534956455f494e5055545f414d4f554e545f544f4b454e556e697377617056324c6962726172793a20494e53554646494349454e545f4f55545055545f414d4f554e54556e69737761705632526f757465723a204558434553534956455f494e5055545f414d4f554e545f424153455f544f4b454e5472616e7366657248656c7065723a3a736166655472616e736665724554483a20455448207472616e73666572206661696c6564556e69737761705632526f757465723a20494e53554646494349454e545f425f414d4f554e54556e697377617056324c6962726172793a20494e53554646494349454e545f4c4951554944495459536166654d6174683a206d756c7469706c69636174696f6e206f766572666c6f77556e69737761705632526f757465723a20494e53554646494349454e545f4f55545055545f414d4f554e545f544f4b454e556e697377617056324c6962726172793a20494e53554646494349454e545f414d4f554e54556e69737761705632526f757465723a204558434553534956455f494e5055545f414d4f554e54556e69737761705632526f757465723a20494e53554646494349454e545f415f414d4f554e54556e69737761705632526f757465723a20494e53554646494349454e545f4f55545055545f414d4f554e545472616e7366657248656c7065723a205452414e534645525f46524f4d5f4641494c4544556e697377617056324c6962726172793a20494e53554646494349454e545f494e5055545f414d4f554e54556e69737761705632526f757465723a20494e53554646494349454e545f4f55545055545f414d4f554e545f455448a26469706673582212206cecf409afc21310a8e3a65fa177a5ef96beb859639cece24119906ac63b13c964736f6c634300060c0033",
  "linkReferences": {},
  "deployedLinkReferences": {}
}