{
  "_format": "hh-sol-artifact-1",
  "contractName": "UniswapV2Router",
  "sourceName": "src/uniswap/router/UniswapV2Router.sol",
  "abi": [
    {
      "inputs": [
        {
          "internalType": "address",
          "name": "_factory",
          "type": "address"
        }
      ],
      "stateMutability": "nonpayable",
      "type": "constructor"
    },
    {
      "anonymous": false,
      "inputs": [
        {
          "indexed": false,
          "internalType": "address",
          "name": "sender",
          "type": "address"
        },
        {
          "indexed": false,
          "internalType": "bytes32",
          "name": "tokenHash",
          "type": "bytes32"
        },
        {
          "indexed": false,
          "internalType": "uint256",
          "name": "liquidity",
          "type": "uint256"
        },
        {
          "indexed": false,
          "internalType": "uint256",
          "name": "amountB",
          "type": "uint256"
        },
        {
          "indexed": false,
          "internalType": "uint256",
          "name": "amountA",
          "type": "uint256"
        }
      ],
      "name": "LiquidityAdded",
      "type": "event"
    },
    {
      "anonymous": false,
      "inputs": [
        {
          "indexed": false,
          "internalType": "address",
          "name": "sender",
          "type": "address"
        },
        {
          "indexed": false,
          "internalType": "bytes32",
          "name": "tokenHash",
          "type": "bytes32"
        },
        {
          "indexed": false,
          "internalType": "uint256",
          "name": "liquidity",
          "type": "uint256"
        },
        {
          "indexed": false,
          "internalType": "uint256",
          "name": "amountB",
          "type": "uint256"
        },
        {
          "indexed": false,
          "internalType": "uint256",
          "name": "amountA",
          "type": "uint256"
        }
      ],
      "name": "LiquidityRemoved",
      "type": "event"
    },
    {
      "anonymous": false,
      "inputs": [
        {
          "indexed": false,
          "internalType": "address",
          "name": "sender",
          "type": "address"
        },
        {
          "indexed": false,
          "internalType": "bytes32",
          "name": "tokenHash",
          "type": "bytes32"
        },
        {
          "indexed": false,
          "internalType": "uint256",
          "name": "baseTokenmountIn",
          "type": "uint256"
        },
        {
          "indexed": false,
          "internalType": "uint256",
          "name": "tokenAmount",
          "type": "uint256"
        }
      ],
      "name": "SwapBaseTokensForExactTokens",
      "type": "event"
    },
    {
      "anonymous": false,
      "inputs": [
        {
          "indexed": false,
          "internalType": "address",
          "name": "sender",
          "type": "address"
        },
        {
          "indexed": false,
          "internalType": "bytes32",
          "name": "tokenHash",
          "type": "bytes32"
        },
        {
          "indexed": false,
          "internalType": "uint256",
          "name": "baseTokenAmountIn",
          "type": "uint256"
        },
        {
          "indexed": false,
          "internalType": "uint256",
          "name": "tokenAmount",
          "type": "uint256"
        }
      ],
      "name": "SwapExactBaseTokensForTokens",
      "type": "event"
    },
    {
      "anonymous": false,
      "inputs": [
        {
          "indexed": false,
          "internalType": "address",
          "name": "sender",
          "type": "address"
        },
        {
          "indexed": false,
          "internalType": "bytes32",
          "name": "tokenHash",
          "type": "bytes32"
        },
        {
          "indexed": false,
          "internalType": "uint256",
          "name": "baseTokenAmount",
          "type": "uint256"
        },
        {
          "indexed": false,
          "internalType": "uint256",
          "name": "tokenAmount",
          "type": "uint256"
        }
      ],
      "name": "SwapExactTokensForBaseTokens",
      "type": "event"
    },
    {
      "anonymous": false,
      "inputs": [
        {
          "indexed": false,
          "internalType": "address",
          "name": "sender",
          "type": "address"
        },
        {
          "indexed": false,
          "internalType": "bytes32",
          "name": "tokenHash",
          "type": "bytes32"
        },
        {
          "indexed": false,
          "internalType": "uint256",
          "name": "baseTokenAmount",
          "type": "uint256"
        },
        {
          "indexed": false,
          "internalType": "uint256",
          "name": "tokenAmount",
          "type": "uint256"
        }
      ],
      "name": "SwapTokensForExactBaseTokens",
      "type": "event"
    },
    {
      "inputs": [
        {
          "internalType": "bytes32",
          "name": "tokenHash",
          "type": "bytes32"
        },
        {
          "internalType": "uint256",
          "name": "amountADesired",
          "type": "uint256"
        },
        {
          "internalType": "uint256",
          "name": "amountBDesired",
          "type": "uint256"
        },
        {
          "internalType": "uint256",
          "name": "amountAMin",
          "type": "uint256"
        },
        {
          "internalType": "uint256",
          "name": "amountBMin",
          "type": "uint256"
        },
        {
          "internalType": "address",
          "name": "to",
          "type": "address"
        },
        {
          "internalType": "uint256",
          "name": "deadline",
          "type": "uint256"
        }
      ],
      "name": "addLiquidity",
      "outputs": [
        {
          "internalType": "uint256",
          "name": "amountA",
          "type": "uint256"
        },
        {
          "internalType": "uint256",
          "name": "amountB",
          "type": "uint256"
        },
        {
          "internalType": "uint256",
          "name": "liquidity",
          "type": "uint256"
        }
      ],
      "stateMutability": "nonpayable",
      "type": "function"
    },
    {
      "inputs": [],
      "name": "factory",
      "outputs": [
        {
          "internalType": "address",
          "name": "",
          "type": "address"
        }
      ],
      "stateMutability": "view",
      "type": "function"
    },
    {
      "inputs": [
        {
          "internalType": "uint256",
          "name": "amountOut",
          "type": "uint256"
        },
        {
          "internalType": "uint256",
          "name": "reserveIn",
          "type": "uint256"
        },
        {
          "internalType": "uint256",
          "name": "reserveOut",
          "type": "uint256"
        }
      ],
      "name": "getAmountIn",
      "outputs": [
        {
          "internalType": "uint256",
          "name": "amountIn",
          "type": "uint256"
        }
      ],
      "stateMutability": "pure",
      "type": "function"
    },
    {
      "inputs": [
        {
          "internalType": "uint256",
          "name": "amountIn",
          "type": "uint256"
        },
        {
          "internalType": "uint256",
          "name": "reserveIn",
          "type": "uint256"
        },
        {
          "internalType": "uint256",
          "name": "reserveOut",
          "type": "uint256"
        }
      ],
      "name": "getAmountOut",
      "outputs": [
        {
          "internalType": "uint256",
          "name": "amountOut",
          "type": "uint256"
        }
      ],
      "stateMutability": "pure",
      "type": "function"
    },
    {
      "inputs": [
        {
          "internalType": "uint256",
          "name": "tokenAmountOut",
          "type": "uint256"
        },
        {
          "internalType": "bytes32",
          "name": "tokenHash",
          "type": "bytes32"
        }
      ],
      "name": "getBaseTokenAmountIn",
      "outputs": [
        {
          "internalType": "uint256",
          "name": "amountOut",
          "type": "uint256"
        }
      ],
      "stateMutability": "view",
      "type": "function"
    },
    {
      "inputs": [
        {
          "internalType": "uint256",
          "name": "tokenAmountIn",
          "type": "uint256"
        },
        {
          "internalType": "bytes32",
          "name": "tokenHash",
          "type": "bytes32"
        }
      ],
      "name": "getBaseTokenAmountOut",
      "outputs": [
        {
          "internalType": "uint256",
          "name": "amountOut",
          "type": "uint256"
        }
      ],
      "stateMutability": "view",
      "type": "function"
    },
    {
      "inputs": [
        {
          "internalType": "uint256",
          "name": "baseTokenAmountOut",
          "type": "uint256"
        },
        {
          "internalType": "bytes32",
          "name": "tokenHash",
          "type": "bytes32"
        }
      ],
      "name": "getTokenAmountIn",
      "outputs": [
        {
          "internalType": "uint256",
          "name": "amountOut",
          "type": "uint256"
        }
      ],
      "stateMutability": "view",
      "type": "function"
    },
    {
      "inputs": [
        {
          "internalType": "uint256",
          "name": "baseTokenAmountIn",
          "type": "uint256"
        },
        {
          "internalType": "bytes32",
          "name": "tokenHash",
          "type": "bytes32"
        }
      ],
      "name": "getTokenAmountOut",
      "outputs": [
        {
          "internalType": "uint256",
          "name": "amountOut",
          "type": "uint256"
        }
      ],
      "stateMutability": "view",
      "type": "function"
    },
    {
      "inputs": [
        {
          "internalType": "uint256",
          "name": "amountA",
          "type": "uint256"
        },
        {
          "internalType": "uint256",
          "name": "reserveA",
          "type": "uint256"
        },
        {
          "internalType": "uint256",
          "name": "reserveB",
          "type": "uint256"
        }
      ],
      "name": "quote",
      "outputs": [
        {
          "internalType": "uint256",
          "name": "amountB",
          "type": "uint256"
        }
      ],
      "stateMutability": "pure",
      "type": "function"
    },
    {
      "inputs": [
        {
          "internalType": "bytes32",
          "name": "tokenHash",
          "type": "bytes32"
        },
        {
          "internalType": "uint256",
          "name": "liquidity",
          "type": "uint256"
        },
        {
          "internalType": "uint256",
          "name": "amountAMin",
          "type": "uint256"
        },
        {
          "internalType": "uint256",
          "name": "amountBMin",
          "type": "uint256"
        },
        {
          "internalType": "address",
          "name": "to",
          "type": "address"
        },
        {
          "internalType": "uint256",
          "name": "deadline",
          "type": "uint256"
        }
      ],
      "name": "removeLiquidity",
      "outputs": [
        {
          "internalType": "uint256",
          "name": "amountA",
          "type": "uint256"
        },
        {
          "internalType": "uint256",
          "name": "amountB",
          "type": "uint256"
        }
      ],
      "stateMutability": "nonpayable",
      "type": "function"
    },
    {
      "inputs": [
        {
          "internalType": "bytes32",
          "name": "tokenHash",
          "type": "bytes32"
        },
        {
          "internalType": "uint256",
          "name": "liquidity",
          "type": "uint256"
        },
        {
          "internalType": "uint256",
          "name": "amountAMin",
          "type": "uint256"
        },
        {
          "internalType": "uint256",
          "name": "amountBMin",
          "type": "uint256"
        },
        {
          "internalType": "address",
          "name": "to",
          "type": "address"
        },
        {
          "internalType": "uint256",
          "name": "deadline",
          "type": "uint256"
        },
        {
          "internalType": "bool",
          "name": "approveMax",
          "type": "bool"
        },
        {
          "internalType": "uint8",
          "name": "v",
          "type": "uint8"
        },
        {
          "internalType": "bytes32",
          "name": "r",
          "type": "bytes32"
        },
        {
          "internalType": "bytes32",
          "name": "s",
          "type": "bytes32"
        }
      ],
      "name": "removeLiquidityWithPermit",
      "outputs": [
        {
          "internalType": "uint256",
          "name": "amountA",
          "type": "uint256"
        },
        {
          "internalType": "uint256",
          "name": "amountB",
          "type": "uint256"
        }
      ],
      "stateMutability": "nonpayable",
      "type": "function"
    },
    {
      "inputs": [
        {
          "internalType": "uint256",
          "name": "tokenAmountOut",
          "type": "uint256"
        },
        {
          "internalType": "uint256",
          "name": "baseTokenAmountInMax",
          "type": "uint256"
        },
        {
          "internalType": "bytes32",
          "name": "tokenHash",
          "type": "bytes32"
        },
        {
          "internalType": "address",
          "name": "to",
          "type": "address"
        },
        {
          "internalType": "uint256",
          "name": "deadline",
          "type": "uint256"
        }
      ],
      "name": "swapBaseTokensForExactTokens",
      "outputs": [
        {
          "internalType": "uint256",
          "name": "baseTokenAmountIn",
          "type": "uint256"
        }
      ],
      "stateMutability": "nonpayable",
      "type": "function"
    },
    {
      "inputs": [
        {
          "internalType": "uint256",
          "name": "baseTokenAmountIn",
          "type": "uint256"
        },
        {
          "internalType": "uint256",
          "name": "tokenAmountOutMin",
          "type": "uint256"
        },
        {
          "internalType": "bytes32",
          "name": "tokenHash",
          "type": "bytes32"
        },
        {
          "internalType": "address",
          "name": "to",
          "type": "address"
        },
        {
          "internalType": "uint256",
          "name": "deadline",
          "type": "uint256"
        }
      ],
      "name": "swapExactBaseTokensForTokens",
      "outputs": [
        {
          "internalType": "uint256",
          "name": "tokenAmountOut",
          "type": "uint256"
        }
      ],
      "stateMutability": "nonpayable",
      "type": "function"
    },
    {
      "inputs": [
        {
          "internalType": "uint256",
          "name": "tokenAmountIn",
          "type": "uint256"
        },
        {
          "internalType": "uint256",
          "name": "baseTokenAmountOutMin",
          "type": "uint256"
        },
        {
          "internalType": "bytes32",
          "name": "tokenHash",
          "type": "bytes32"
        },
        {
          "internalType": "address",
          "name": "to",
          "type": "address"
        },
        {
          "internalType": "uint256",
          "name": "deadline",
          "type": "uint256"
        }
      ],
      "name": "swapExactTokensForBaseTokens",
      "outputs": [
        {
          "internalType": "uint256",
          "name": "baseTokenAmountOut",
          "type": "uint256"
        }
      ],
      "stateMutability": "nonpayable",
      "type": "function"
    },
    {
      "inputs": [
        {
          "internalType": "uint256",
          "name": "baseTokenAmountOut",
          "type": "uint256"
        },
        {
          "internalType": "uint256",
          "name": "tokenAmountInMax",
          "type": "uint256"
        },
        {
          "internalType": "bytes32",
          "name": "tokenHash",
          "type": "bytes32"
        },
        {
          "internalType": "address",
          "name": "to",
          "type": "address"
        },
        {
          "internalType": "uint256",
          "name": "deadline",
          "type": "uint256"
        }
      ],
      "name": "swapTokensForExactBaseTokens",
      "outputs": [
        {
          "internalType": "uint256",
          "name": "tokenAmountIn",
          "type": "uint256"
        }
      ],
      "stateMutability": "nonpayable",
      "type": "function"
    }
  ],
  "bytecode": "0x60a060405234801561001057600080fd5b506040516127a13803806127a18339818101604052602081101561003357600080fd5b5051606081901b6001600160601b0319166080526001600160a01b03166126d16100d0600039806104c9528061058c528061071152806107f0528061093c52806109ff5280610b2d5280610c2e5280610edf5280610fd85280611094528061111b52806112d8528061138652806115115280611538528061162e528061170d5280611a8a5280611df25280611f98528061203852506126d16000f3fe608060405234801561001057600080fd5b50600436106100f55760003560e01c80638cc2d27211610097578063b2f9943911610066578063b2f994391461036f578063c45a0155146103d3578063d5e8d1fa146103f7578063ec74d34a1461041a576100f5565b80638cc2d272146102985780639350dd31146102bb578063a26c00c714610323578063ad615dec14610346576100f5565b80631e35f810116100d35780631e35f810146101b15780635797af20146101ef578063602e58181461021257806385f8c2591461026f576100f5565b8063054d50d4146100fa57806317ddf6221461013557806318e525b714610173575b600080fd5b6101236004803603606081101561011057600080fd5b5080359060208101359060400135610458565b60408051918252519081900360200190f35b610123600480360360a081101561014b57600080fd5b508035906020810135906040810135906001600160a01b03606082013516906080013561046d565b610123600480360360a081101561018957600080fd5b508035906020810135906040810135906001600160a01b0360608201351690608001356106b5565b610123600480360360a08110156101c757600080fd5b508035906020810135906040810135906001600160a01b0360608201351690608001356108e0565b6101236004803603604081101561020557600080fd5b5080359060200135610b28565b610256600480360360c081101561022857600080fd5b508035906020810135906040810135906060810135906001600160a01b036080820135169060a00135610bd1565b6040805192835260208301919091528051918290030190f35b6101236004803603606081101561028557600080fd5b5080359060208101359060400135610ecd565b610123600480360360408110156102ae57600080fd5b5080359060200135610eda565b610305600480360360e08110156102d157600080fd5b508035906020810135906040810135906060810135906080810135906001600160a01b0360a0820135169060c00135610f79565b60408051938452602084019290925282820152519081900360600190f35b6101236004803603604081101561033957600080fd5b50803590602001356112d3565b6101236004803603606081101561035c57600080fd5b5080359060208101359060400135611372565b610256600480360361014081101561038657600080fd5b508035906020810135906040810135906060810135906001600160a01b036080820135169060a08101359060c081013515159060ff60e0820135169061010081013590610120013561137f565b6103db61150f565b604080516001600160a01b039092168252519081900360200190f35b6101236004803603604081101561040d57600080fd5b5080359060200135611533565b610123600480360360a081101561043057600080fd5b508035906020810135906040810135906001600160a01b0360608201351690608001356115d2565b60006104658484846117fd565b949350505050565b600081428110156104c5576040805162461bcd60e51b815260206004820152601860248201527f556e69737761705632526f757465723a20455850495245440000000000000000604482015290519081900360640190fd5b60007f00000000000000000000000000000000000000000000000000000000000000006001600160a01b031663c55dae636040518163ffffffff1660e01b815260040160206040518083038186803b15801561052057600080fd5b505afa158015610534573d6000803e3d6000fd5b505050506040513d602081101561054a57600080fd5b5051604080517fb8e5303d0000000000000000000000000000000000000000000000000000000081526004810189905290519192506000916001600160a01b037f0000000000000000000000000000000000000000000000000000000000000000169163b8e5303d916024808301926020929190829003018186803b1580156105d257600080fd5b505afa1580156105e6573d6000803e3d6000fd5b505050506040513d60208110156105fc57600080fd5b5051905061060a818a6118d5565b93508784111561064b5760405162461bcd60e51b81526004018080602001828103825260328152602001806125306032913960400191505060405180910390fd5b610657823383876118fb565b610662898888611a86565b6040805133815260208101899052808201869052606081018b905290517fc4d5ecb1c39f525414af6c436b95ebf8a3ac513d7a420c8c4701fa6a1f8ce74d9181900360800190a150505095945050505050565b6000814281101561070d576040805162461bcd60e51b815260206004820152601860248201527f556e69737761705632526f757465723a20455850495245440000000000000000604482015290519081900360640190fd5b60007f00000000000000000000000000000000000000000000000000000000000000006001600160a01b031663b8e5303d876040518263ffffffff1660e01b81526004018082815260200191505060206040518083038186803b15801561077357600080fd5b505afa158015610787573d6000803e3d6000fd5b505050506040513d602081101561079d57600080fd5b505190506107ab8189611c34565b9250868310156107ec5760405162461bcd60e51b81526004018080602001828103825260368152602001806124a16036913960400191505060405180910390fd5b60007f00000000000000000000000000000000000000000000000000000000000000006001600160a01b031663e09d894d6040518163ffffffff1660e01b815260040160206040518083038186803b15801561084757600080fd5b505afa15801561085b573d6000803e3d6000fd5b505050506040513d602081101561087157600080fd5b50519050610882818833858d611c51565b61088d848888611de4565b6040805133815260208101899052808201869052606081018b905290517feb98bfa5b4238f236ef7c73a71968bf2f4baf43252216e2a9eaf7ae4069fb1689181900360800190a150505095945050505050565b60008142811015610938576040805162461bcd60e51b815260206004820152601860248201527f556e69737761705632526f757465723a20455850495245440000000000000000604482015290519081900360640190fd5b60007f00000000000000000000000000000000000000000000000000000000000000006001600160a01b031663c55dae636040518163ffffffff1660e01b815260040160206040518083038186803b15801561099357600080fd5b505afa1580156109a7573d6000803e3d6000fd5b505050506040513d60208110156109bd57600080fd5b5051604080517fb8e5303d0000000000000000000000000000000000000000000000000000000081526004810189905290519192506000916001600160a01b037f0000000000000000000000000000000000000000000000000000000000000000169163b8e5303d916024808301926020929190829003018186803b158015610a4557600080fd5b505afa158015610a59573d6000803e3d6000fd5b505050506040513d6020811015610a6f57600080fd5b50519050610a7d818a611e9c565b935087841015610abe5760405162461bcd60e51b81526004018080602001828103825260318152602001806125d16031913960400191505060405180910390fd5b610aca8233838c6118fb565b610ad5848888611a86565b60408051338152602081018990528082018b90526060810186905290517f62b82f821e7778a952ef95154d8a11bab72d31e6c829958fae47d3b266353d4b9181900360800190a150505095945050505050565b6000807f00000000000000000000000000000000000000000000000000000000000000006001600160a01b031663b8e5303d846040518263ffffffff1660e01b81526004018082815260200191505060206040518083038186803b158015610b8f57600080fd5b505afa158015610ba3573d6000803e3d6000fd5b505050506040513d6020811015610bb957600080fd5b50519050610bc781856118d5565b9150505b92915050565b6000808242811015610c2a576040805162461bcd60e51b815260206004820152601860248201527f556e69737761705632526f757465723a20455850495245440000000000000000604482015290519081900360640190fd5b60007f00000000000000000000000000000000000000000000000000000000000000006001600160a01b031663b8e5303d8b6040518263ffffffff1660e01b81526004018082815260200191505060206040518083038186803b158015610c9057600080fd5b505afa158015610ca4573d6000803e3d6000fd5b505050506040513d6020811015610cba57600080fd5b5051604080517f23b872dd0000000000000000000000000000000000000000000000000000000081523360048201526001600160a01b03831660248201819052604482018d9052915192935090916323b872dd916064808201926020929091908290030181600087803b158015610d3057600080fd5b505af1158015610d44573d6000803e3d6000fd5b505050506040513d6020811015610d5a57600080fd5b5050604080517f89afcb440000000000000000000000000000000000000000000000000000000081526001600160a01b0388811660048301528251908416926389afcb4492602480820193918290030181600087803b158015610dbc57600080fd5b505af1158015610dd0573d6000803e3d6000fd5b505050506040513d6040811015610de657600080fd5b508051602090910151909450925087841015610e335760405162461bcd60e51b81526004018080602001828103825260268152602001806126276026913960400191505060405180910390fd5b86831015610e725760405162461bcd60e51b81526004018080602001828103825260268152602001806125626026913960400191505060405180910390fd5b60408051338152602081018c90528082018b9052606081018590526080810186905290517fdcd2a7a2ca607e210edca7c07bebf4592a7fc452d24305ca55ecdff503421fb09181900360a00190a15050965096945050505050565b6000610465848484611eb9565b6000807f00000000000000000000000000000000000000000000000000000000000000006001600160a01b031663b8e5303d846040518263ffffffff1660e01b81526004018082815260200191505060206040518083038186803b158015610f4157600080fd5b505afa158015610f55573d6000803e3d6000fd5b505050506040513d6020811015610f6b57600080fd5b50519050610bc78185611c34565b60008060008342811015610fd4576040805162461bcd60e51b815260206004820152601860248201527f556e69737761705632526f757465723a20455850495245440000000000000000604482015290519081900360640190fd5b60007f00000000000000000000000000000000000000000000000000000000000000006001600160a01b031663c55dae636040518163ffffffff1660e01b815260040160206040518083038186803b15801561102f57600080fd5b505afa158015611043573d6000803e3d6000fd5b505050506040513d602081101561105957600080fd5b5051604080517fe09d894d00000000000000000000000000000000000000000000000000000000815290519192506000916001600160a01b037f0000000000000000000000000000000000000000000000000000000000000000169163e09d894d916004808301926020929190829003018186803b1580156110da57600080fd5b505afa1580156110ee573d6000803e3d6000fd5b505050506040513d602081101561110457600080fd5b8101908080519060200190929190505050905060007f00000000000000000000000000000000000000000000000000000000000000006001600160a01b031663b8e5303d8f6040518263ffffffff1660e01b81526004018082815260200191505060206040518083038186803b15801561117d57600080fd5b505afa158015611191573d6000803e3d6000fd5b505050506040513d60208110156111a757600080fd5b505190506111b88e8e8e8e8e611f91565b90975095506111ca828f33848b611c51565b6111d6833383896118fb565b806001600160a01b0316636a6278428a6040518263ffffffff1660e01b815260040180826001600160a01b03168152602001915050602060405180830381600087803b15801561122557600080fd5b505af1158015611239573d6000803e3d6000fd5b505050506040513d602081101561124f57600080fd5b810190808051906020019092919050505094507fdfdd9dbcc558b79525f53ba7faeaa725e94f45e8795c3152c0e8353bb73025b7338f87898b60405180866001600160a01b031681526020018581526020018481526020018381526020018281526020019550505050505060405180910390a1505050509750975097945050505050565b6000807f00000000000000000000000000000000000000000000000000000000000000006001600160a01b031663b8e5303d846040518263ffffffff1660e01b81526004018082815260200191505060206040518083038186803b15801561133a57600080fd5b505afa15801561134e573d6000803e3d6000fd5b505050506040513d602081101561136457600080fd5b50519050610bc781856121c4565b60006104658484846121e1565b60008060007f00000000000000000000000000000000000000000000000000000000000000006001600160a01b031663b8e5303d8e6040518263ffffffff1660e01b81526004018082815260200191505060206040518083038186803b1580156113e857600080fd5b505afa1580156113fc573d6000803e3d6000fd5b505050506040513d602081101561141257600080fd5b50519050600087611423578c611445565b7fffffffffffffffffffffffffffffffffffffffffffffffffffffffffffffffff5b604080517fd505accf00000000000000000000000000000000000000000000000000000000815233600482015230602482015260448101839052606481018c905260ff8a16608482015260a4810189905260c4810188905290519192506001600160a01b0384169163d505accf9160e48082019260009290919082900301818387803b1580156114d457600080fd5b505af11580156114e8573d6000803e3d6000fd5b505050506114fa8e8e8e8e8e8e610bd1565b909f909e509c50505050505050505050505050565b7f000000000000000000000000000000000000000000000000000000000000000081565b6000807f00000000000000000000000000000000000000000000000000000000000000006001600160a01b031663b8e5303d846040518263ffffffff1660e01b81526004018082815260200191505060206040518083038186803b15801561159a57600080fd5b505afa1580156115ae573d6000803e3d6000fd5b505050506040513d60208110156115c457600080fd5b50519050610bc78185611e9c565b6000814281101561162a576040805162461bcd60e51b815260206004820152601860248201527f556e69737761705632526f757465723a20455850495245440000000000000000604482015290519081900360640190fd5b60007f00000000000000000000000000000000000000000000000000000000000000006001600160a01b031663b8e5303d876040518263ffffffff1660e01b81526004018082815260200191505060206040518083038186803b15801561169057600080fd5b505afa1580156116a4573d6000803e3d6000fd5b505050506040513d60208110156116ba57600080fd5b505190506116c881896121c4565b9250868311156117095760405162461bcd60e51b815260040180806020018281038252602d8152602001806124d7602d913960400191505060405180910390fd5b60007f00000000000000000000000000000000000000000000000000000000000000006001600160a01b031663e09d894d6040518163ffffffff1660e01b815260040160206040518083038186803b15801561176457600080fd5b505afa158015611778573d6000803e3d6000fd5b505050506040513d602081101561178e57600080fd5b5051905061179f8188338588611c51565b6117aa898888611de4565b60408051338152602081018990528082018b90526060810186905290517f108b746a57815b4a14712eea75c468efca63239839d772a4c964b21fef993c139181900360800190a150505095945050505050565b600080841161183d5760405162461bcd60e51b815260040180806020018281038252602b815260200180612671602b913960400191505060405180910390fd5b60008311801561184d5750600082115b6118885760405162461bcd60e51b81526004018080602001828103825260288152602001806125886028913960400191505060405180910390fd5b6000611896856103e5612287565b905060006118a48285612287565b905060006118be836118b8886103e8612287565b906122e7565b90508082816118c957fe5b04979650505050505050565b60008060006118e385612341565b915091506118f2848284611eb9565b95945050505050565b604080516001600160a01b0385811660248301528481166044830152606480830185905283518084039091018152608490920183526020820180517bffffffffffffffffffffffffffffffffffffffffffffffffffffffff167f23b872dd0000000000000000000000000000000000000000000000000000000017815292518251600094606094938a169392918291908083835b602083106119ae5780518252601f19909201916020918201910161198f565b6001836020036101000a0380198251168184511680821785525050505050509050019150506000604051808303816000865af19150503d8060008114611a10576040519150601f19603f3d011682016040523d82523d6000602084013e611a15565b606091505b5091509150818015611a43575080511580611a435750808060200190516020811015611a4057600080fd5b50515b611a7e5760405162461bcd60e51b815260040180806020018281038252602481526020018061264d6024913960400191505060405180910390fd5b505050505050565b60007f00000000000000000000000000000000000000000000000000000000000000006001600160a01b031663b8e5303d846040518263ffffffff1660e01b81526004018082815260200191505060206040518083038186803b158015611aec57600080fd5b505afa158015611b00573d6000803e3d6000fd5b505050506040513d6020811015611b1657600080fd5b505190508360006001600160a01b03831663022c0d9f83838781805b506040519080825280601f01601f191660200182016040528015611b5d576020820181803683370190505b506040518563ffffffff1660e01b815260040180858152602001848152602001836001600160a01b0316815260200180602001828103825283818151815260200191508051906020019080838360005b83811015611bc5578181015183820152602001611bad565b50505050905090810190601f168015611bf25780820380516001836020036101000a031916815260200191505b5095505050505050600060405180830381600087803b158015611c1457600080fd5b505af1158015611c28573d6000803e3d6000fd5b50505050505050505050565b6000806000611c4285612341565b915091506118f28483836117fd565b604080516001600160a01b03858116602483015284811660448301526064820187905260848083018590528351808403909101815260a490920183526020820180517bffffffffffffffffffffffffffffffffffffffffffffffffffffffff167f7fe683810000000000000000000000000000000000000000000000000000000017815292518251600094606094938b169392918291908083835b60208310611d0b5780518252601f199092019160209182019101611cec565b6001836020036101000a0380198251168184511680821785525050505050509050019150506000604051808303816000865af19150503d8060008114611d6d576040519150601f19603f3d011682016040523d82523d6000602084013e611d72565b606091505b5091509150818015611da0575080511580611da05750808060200190516020811015611d9d57600080fd5b50515b611ddb5760405162461bcd60e51b815260040180806020018281038252602481526020018061264d6024913960400191505060405180910390fd5b50505050505050565b6000806000859150915060007f00000000000000000000000000000000000000000000000000000000000000006001600160a01b031663b8e5303d866040518263ffffffff1660e01b81526004018082815260200191505060206040518083038186803b158015611e5457600080fd5b505afa158015611e68573d6000803e3d6000fd5b505050506040513d6020811015611e7e57600080fd5b505190506001600160a01b03811663022c0d9f848487600080611b32565b6000806000611eaa85612341565b915091506118f28482846117fd565b6000808411611ef95760405162461bcd60e51b815260040180806020018281038252602c815260200180612504602c913960400191505060405180910390fd5b600083118015611f095750600082115b611f445760405162461bcd60e51b81526004018080602001828103825260288152602001806125886028913960400191505060405180910390fd5b6000611f5c6103e8611f568688612287565b90612287565b90506000611f706103e5611f5686896123cc565b9050611f876001828481611f8057fe5b04906122e7565b9695505050505050565b60008060007f00000000000000000000000000000000000000000000000000000000000000006001600160a01b031663b8e5303d896040518263ffffffff1660e01b81526004018082815260200191505060206040518083038186803b158015611ffa57600080fd5b505afa15801561200e573d6000803e3d6000fd5b505050506040513d602081101561202457600080fd5b505190506001600160a01b0381166120c9577f00000000000000000000000000000000000000000000000000000000000000006001600160a01b031663ed25a5a2896040518263ffffffff1660e01b815260040180828152602001915050602060405180830381600087803b15801561209c57600080fd5b505af11580156120b0573d6000803e3d6000fd5b505050506040513d60208110156120c657600080fd5b50505b6000806120d583612341565b915091508160001480156120e7575080155b156120f7578894508793506121b7565b60006121048a84846121e1565b9050888111612157578681101561214c5760405162461bcd60e51b81526004018080602001828103825260268152602001806125626026913960400191505060405180910390fd5b8995509350836121b5565b60006121648a84866121e1565b90508a81111561217057fe5b888110156121af5760405162461bcd60e51b81526004018080602001828103825260268152602001806126276026913960400191505060405180910390fd5b95508894505b505b5050509550959350505050565b60008060006121d285612341565b915091506118f2848383611eb9565b60008084116122215760405162461bcd60e51b81526004018080602001828103825260258152602001806126026025913960400191505060405180910390fd5b6000831180156122315750600082115b61226c5760405162461bcd60e51b81526004018080602001828103825260288152602001806125886028913960400191505060405180910390fd5b826122778584612287565b8161227e57fe5b04949350505050565b60008261229657506000610bcb565b828202828482816122a357fe5b04146122e05760405162461bcd60e51b81526004018080602001828103825260218152602001806125b06021913960400191505060405180910390fd5b9392505050565b6000828201838110156122e0576040805162461bcd60e51b815260206004820152601b60248201527f536166654d6174683a206164646974696f6e206f766572666c6f770000000000604482015290519081900360640190fd5b600080826001600160a01b0316630902f1ac6040518163ffffffff1660e01b815260040160606040518083038186803b15801561237d57600080fd5b505afa158015612391573d6000803e3d6000fd5b505050506040513d60608110156123a757600080fd5b5080516020909101516dffffffffffffffffffffffffffff9182169591169350915050565b60006122e083836040518060400160405280601e81526020017f536166654d6174683a207375627472616374696f6e206f766572666c6f770000815250600081848411156124985760405162461bcd60e51b81526004018080602001828103825283818151815260200191508051906020019080838360005b8381101561245d578181015183820152602001612445565b50505050905090810190601f16801561248a5780820380516001836020036101000a031916815260200191505b509250505060405180910390fd5b50505090039056fe556e69737761705632526f757465723a20494e53554646494349454e545f4f55545055545f414d4f554e545f424153455f544f4b454e556e69737761705632526f757465723a204558434553534956455f494e5055545f414d4f554e545f544f4b454e556e697377617056324c6962726172793a20494e53554646494349454e545f4f55545055545f414d4f554e54556e69737761705632526f757465723a204558434553534956455f494e5055545f414d4f554e545f424153455f544f4b454e556e69737761705632526f757465723a20494e53554646494349454e545f425f414d4f554e54556e697377617056324c6962726172793a20494e53554646494349454e545f4c4951554944495459536166654d6174683a206d756c7469706c69636174696f6e206f766572666c6f77556e69737761705632526f757465723a20494e53554646494349454e545f4f55545055545f414d4f554e545f544f4b454e556e697377617056324c6962726172793a20494e53554646494349454e545f414d4f554e54556e69737761705632526f757465723a20494e53554646494349454e545f415f414d4f554e545472616e7366657248656c7065723a205452414e534645525f46524f4d5f4641494c4544556e697377617056324c6962726172793a20494e53554646494349454e545f494e5055545f414d4f554e54a2646970667358221220d08fad30393697d873e683e26faeddaa8a8aab346351b7a98fe58c967d32cf2e64736f6c634300060c0033",
  "linkReferences": {},
  "deployedLinkReferences": {}
}