{
  "_format": "hh-sol-artifact-1",
  "contractName": "UniswapV2Router",
  "sourceName": "src/uniswap/router/UniswapV2Router.sol",
  "abi": [
    {
      "inputs": [
        {
          "internalType": "address",
          "name": "_factory",
          "type": "address"
        }
      ],
      "stateMutability": "nonpayable",
      "type": "constructor"
    },
    {
      "anonymous": false,
      "inputs": [
        {
          "indexed": false,
          "internalType": "address",
          "name": "sender",
          "type": "address"
        },
        {
          "indexed": false,
          "internalType": "bytes32",
          "name": "tokenHash",
          "type": "bytes32"
        },
        {
          "indexed": false,
          "internalType": "uint256",
          "name": "liquidity",
          "type": "uint256"
        },
        {
          "indexed": false,
          "internalType": "uint256",
          "name": "amountB",
          "type": "uint256"
        },
        {
          "indexed": false,
          "internalType": "uint256",
          "name": "amountA",
          "type": "uint256"
        }
      ],
      "name": "LiquidityAdded",
      "type": "event"
    },
    {
      "anonymous": false,
      "inputs": [
        {
          "indexed": false,
          "internalType": "address",
          "name": "sender",
          "type": "address"
        },
        {
          "indexed": false,
          "internalType": "bytes32",
          "name": "tokenHash",
          "type": "bytes32"
        },
        {
          "indexed": false,
          "internalType": "uint256",
          "name": "liquidity",
          "type": "uint256"
        },
        {
          "indexed": false,
          "internalType": "uint256",
          "name": "amountB",
          "type": "uint256"
        },
        {
          "indexed": false,
          "internalType": "uint256",
          "name": "amountA",
          "type": "uint256"
        }
      ],
      "name": "LiquidityRemoved",
      "type": "event"
    },
    {
      "anonymous": false,
      "inputs": [
        {
          "indexed": false,
          "internalType": "address",
          "name": "sender",
          "type": "address"
        },
        {
          "indexed": false,
          "internalType": "bytes32",
          "name": "tokenHash",
          "type": "bytes32"
        },
        {
          "indexed": false,
          "internalType": "uint256",
          "name": "baseTokenAmountIn",
          "type": "uint256"
        },
        {
          "indexed": false,
          "internalType": "uint256",
          "name": "tokenAmountOut",
          "type": "uint256"
        }
      ],
      "name": "SwapBaseTokensForExactTokens",
      "type": "event"
    },
    {
      "anonymous": false,
      "inputs": [
        {
          "indexed": false,
          "internalType": "address",
          "name": "sender",
          "type": "address"
        },
        {
          "indexed": false,
          "internalType": "bytes32",
          "name": "tokenHash",
          "type": "bytes32"
        },
        {
          "indexed": false,
          "internalType": "uint256",
          "name": "ethAmountIn",
          "type": "uint256"
        },
        {
          "indexed": false,
          "internalType": "uint256",
          "name": "tokenAmountOut",
          "type": "uint256"
        }
      ],
      "name": "SwapETHForExactTokens",
      "type": "event"
    },
    {
      "anonymous": false,
      "inputs": [
        {
          "indexed": false,
          "internalType": "address",
          "name": "sender",
          "type": "address"
        },
        {
          "indexed": false,
          "internalType": "bytes32",
          "name": "tokenHash",
          "type": "bytes32"
        },
        {
          "indexed": false,
          "internalType": "uint256",
          "name": "baseTokenAmountIn",
          "type": "uint256"
        },
        {
          "indexed": false,
          "internalType": "uint256",
          "name": "tokenAmountOut",
          "type": "uint256"
        }
      ],
      "name": "SwapExactBaseTokensForTokens",
      "type": "event"
    },
    {
      "anonymous": false,
      "inputs": [
        {
          "indexed": false,
          "internalType": "address",
          "name": "sender",
          "type": "address"
        },
        {
          "indexed": false,
          "internalType": "bytes32",
          "name": "tokenHash",
          "type": "bytes32"
        },
        {
          "indexed": false,
          "internalType": "uint256",
          "name": "ethAmountIn",
          "type": "uint256"
        },
        {
          "indexed": false,
          "internalType": "uint256",
          "name": "tokenAmountOut",
          "type": "uint256"
        }
      ],
      "name": "SwapExactETHForTokens",
      "type": "event"
    },
    {
      "anonymous": false,
      "inputs": [
        {
          "indexed": false,
          "internalType": "address",
          "name": "sender",
          "type": "address"
        },
        {
          "indexed": false,
          "internalType": "bytes32",
          "name": "tokenHash",
          "type": "bytes32"
        },
        {
          "indexed": false,
          "internalType": "uint256",
          "name": "baseTokenAmountOut",
          "type": "uint256"
        },
        {
          "indexed": false,
          "internalType": "uint256",
          "name": "tokenAmountIn",
          "type": "uint256"
        }
      ],
      "name": "SwapExactTokensForBaseTokens",
      "type": "event"
    },
    {
      "anonymous": false,
      "inputs": [
        {
          "indexed": false,
          "internalType": "address",
          "name": "sender",
          "type": "address"
        },
        {
          "indexed": false,
          "internalType": "bytes32",
          "name": "tokenHash",
          "type": "bytes32"
        },
        {
          "indexed": false,
          "internalType": "uint256",
          "name": "ethAmountOut",
          "type": "uint256"
        },
        {
          "indexed": false,
          "internalType": "uint256",
          "name": "tokenAmountIn",
          "type": "uint256"
        }
      ],
      "name": "SwapExactTokensForETH",
      "type": "event"
    },
    {
      "anonymous": false,
      "inputs": [
        {
          "indexed": false,
          "internalType": "address",
          "name": "sender",
          "type": "address"
        },
        {
          "indexed": false,
          "internalType": "bytes32",
          "name": "tokenHash",
          "type": "bytes32"
        },
        {
          "indexed": false,
          "internalType": "uint256",
          "name": "baseTokenAmountOut",
          "type": "uint256"
        },
        {
          "indexed": false,
          "internalType": "uint256",
          "name": "tokenAmountIn",
          "type": "uint256"
        }
      ],
      "name": "SwapTokensForExactBaseTokens",
      "type": "event"
    },
    {
      "anonymous": false,
      "inputs": [
        {
          "indexed": false,
          "internalType": "address",
          "name": "sender",
          "type": "address"
        },
        {
          "indexed": false,
          "internalType": "bytes32",
          "name": "tokenHash",
          "type": "bytes32"
        },
        {
          "indexed": false,
          "internalType": "uint256",
          "name": "ethAmountOut",
          "type": "uint256"
        },
        {
          "indexed": false,
          "internalType": "uint256",
          "name": "tokenAmountIn",
          "type": "uint256"
        }
      ],
      "name": "SwapTokensForExactETH",
      "type": "event"
    },
    {
      "inputs": [
        {
          "internalType": "bytes32",
          "name": "tokenHash",
          "type": "bytes32"
        },
        {
          "internalType": "uint256",
          "name": "amountADesired",
          "type": "uint256"
        },
        {
          "internalType": "uint256",
          "name": "amountBDesired",
          "type": "uint256"
        },
        {
          "internalType": "uint256",
          "name": "amountAMin",
          "type": "uint256"
        },
        {
          "internalType": "uint256",
          "name": "amountBMin",
          "type": "uint256"
        },
        {
          "internalType": "address",
          "name": "to",
          "type": "address"
        },
        {
          "internalType": "uint256",
          "name": "deadline",
          "type": "uint256"
        }
      ],
      "name": "addLiquidity",
      "outputs": [
        {
          "internalType": "uint256",
          "name": "amountA",
          "type": "uint256"
        },
        {
          "internalType": "uint256",
          "name": "amountB",
          "type": "uint256"
        },
        {
          "internalType": "uint256",
          "name": "liquidity",
          "type": "uint256"
        }
      ],
      "stateMutability": "nonpayable",
      "type": "function"
    },
    {
      "inputs": [
        {
          "internalType": "bytes32",
          "name": "tokenHash",
          "type": "bytes32"
        },
        {
          "internalType": "uint256",
          "name": "amountTokenDesired",
          "type": "uint256"
        },
        {
          "internalType": "uint256",
          "name": "amountTokenMin",
          "type": "uint256"
        },
        {
          "internalType": "uint256",
          "name": "amountETHMin",
          "type": "uint256"
        },
        {
          "internalType": "address",
          "name": "to",
          "type": "address"
        },
        {
          "internalType": "uint256",
          "name": "deadline",
          "type": "uint256"
        }
      ],
      "name": "addLiquidityETH",
      "outputs": [
        {
          "internalType": "uint256",
          "name": "amountToken",
          "type": "uint256"
        },
        {
          "internalType": "uint256",
          "name": "amountETH",
          "type": "uint256"
        },
        {
          "internalType": "uint256",
          "name": "liquidity",
          "type": "uint256"
        }
      ],
      "stateMutability": "payable",
      "type": "function"
    },
    {
      "inputs": [],
      "name": "factory",
      "outputs": [
        {
          "internalType": "address",
          "name": "",
          "type": "address"
        }
      ],
      "stateMutability": "view",
      "type": "function"
    },
    {
      "inputs": [
        {
          "internalType": "uint256",
          "name": "amountOut",
          "type": "uint256"
        },
        {
          "internalType": "uint256",
          "name": "reserveIn",
          "type": "uint256"
        },
        {
          "internalType": "uint256",
          "name": "reserveOut",
          "type": "uint256"
        }
      ],
      "name": "getAmountIn",
      "outputs": [
        {
          "internalType": "uint256",
          "name": "amountIn",
          "type": "uint256"
        }
      ],
      "stateMutability": "pure",
      "type": "function"
    },
    {
      "inputs": [
        {
          "internalType": "uint256",
          "name": "amountIn",
          "type": "uint256"
        },
        {
          "internalType": "uint256",
          "name": "reserveIn",
          "type": "uint256"
        },
        {
          "internalType": "uint256",
          "name": "reserveOut",
          "type": "uint256"
        }
      ],
      "name": "getAmountOut",
      "outputs": [
        {
          "internalType": "uint256",
          "name": "amountOut",
          "type": "uint256"
        }
      ],
      "stateMutability": "pure",
      "type": "function"
    },
    {
      "inputs": [
        {
          "internalType": "uint256",
          "name": "tokenAmountOut",
          "type": "uint256"
        },
        {
          "internalType": "bytes32",
          "name": "tokenHash",
          "type": "bytes32"
        }
      ],
      "name": "getBaseTokenAmountIn",
      "outputs": [
        {
          "internalType": "uint256",
          "name": "amountOut",
          "type": "uint256"
        }
      ],
      "stateMutability": "view",
      "type": "function"
    },
    {
      "inputs": [
        {
          "internalType": "uint256",
          "name": "tokenAmountIn",
          "type": "uint256"
        },
        {
          "internalType": "bytes32",
          "name": "tokenHash",
          "type": "bytes32"
        }
      ],
      "name": "getBaseTokenAmountOut",
      "outputs": [
        {
          "internalType": "uint256",
          "name": "amountOut",
          "type": "uint256"
        }
      ],
      "stateMutability": "view",
      "type": "function"
    },
    {
      "inputs": [
        {
          "internalType": "uint256",
          "name": "baseTokenAmountOut",
          "type": "uint256"
        },
        {
          "internalType": "bytes32",
          "name": "tokenHash",
          "type": "bytes32"
        }
      ],
      "name": "getTokenAmountIn",
      "outputs": [
        {
          "internalType": "uint256",
          "name": "amountOut",
          "type": "uint256"
        }
      ],
      "stateMutability": "view",
      "type": "function"
    },
    {
      "inputs": [
        {
          "internalType": "uint256",
          "name": "baseTokenAmountIn",
          "type": "uint256"
        },
        {
          "internalType": "bytes32",
          "name": "tokenHash",
          "type": "bytes32"
        }
      ],
      "name": "getTokenAmountOut",
      "outputs": [
        {
          "internalType": "uint256",
          "name": "amountOut",
          "type": "uint256"
        }
      ],
      "stateMutability": "view",
      "type": "function"
    },
    {
      "inputs": [
        {
          "internalType": "uint256",
          "name": "amountA",
          "type": "uint256"
        },
        {
          "internalType": "uint256",
          "name": "reserveA",
          "type": "uint256"
        },
        {
          "internalType": "uint256",
          "name": "reserveB",
          "type": "uint256"
        }
      ],
      "name": "quote",
      "outputs": [
        {
          "internalType": "uint256",
          "name": "amountB",
          "type": "uint256"
        }
      ],
      "stateMutability": "pure",
      "type": "function"
    },
    {
      "inputs": [
        {
          "internalType": "bytes32",
          "name": "tokenHash",
          "type": "bytes32"
        },
        {
          "internalType": "uint256",
          "name": "liquidity",
          "type": "uint256"
        },
        {
          "internalType": "uint256",
          "name": "amountAMin",
          "type": "uint256"
        },
        {
          "internalType": "uint256",
          "name": "amountBMin",
          "type": "uint256"
        },
        {
          "internalType": "address",
          "name": "to",
          "type": "address"
        },
        {
          "internalType": "uint256",
          "name": "deadline",
          "type": "uint256"
        }
      ],
      "name": "removeLiquidity",
      "outputs": [
        {
          "internalType": "uint256",
          "name": "amountA",
          "type": "uint256"
        },
        {
          "internalType": "uint256",
          "name": "amountB",
          "type": "uint256"
        }
      ],
      "stateMutability": "nonpayable",
      "type": "function"
    },
    {
      "inputs": [
        {
          "internalType": "bytes32",
          "name": "tokenHash",
          "type": "bytes32"
        },
        {
          "internalType": "uint256",
          "name": "liquidity",
          "type": "uint256"
        },
        {
          "internalType": "uint256",
          "name": "amountTokenMin",
          "type": "uint256"
        },
        {
          "internalType": "uint256",
          "name": "amountETHMin",
          "type": "uint256"
        },
        {
          "internalType": "address",
          "name": "to",
          "type": "address"
        },
        {
          "internalType": "uint256",
          "name": "deadline",
          "type": "uint256"
        }
      ],
      "name": "removeLiquidityETH",
      "outputs": [
        {
          "internalType": "uint256",
          "name": "amountToken",
          "type": "uint256"
        },
        {
          "internalType": "uint256",
          "name": "amountETH",
          "type": "uint256"
        }
      ],
      "stateMutability": "nonpayable",
      "type": "function"
    },
    {
      "inputs": [
        {
          "internalType": "bytes32",
          "name": "tokenHash",
          "type": "bytes32"
        },
        {
          "internalType": "uint256",
          "name": "liquidity",
          "type": "uint256"
        },
        {
          "internalType": "uint256",
          "name": "amountTokenMin",
          "type": "uint256"
        },
        {
          "internalType": "uint256",
          "name": "amountETHMin",
          "type": "uint256"
        },
        {
          "internalType": "address",
          "name": "to",
          "type": "address"
        },
        {
          "internalType": "uint256",
          "name": "deadline",
          "type": "uint256"
        },
        {
          "internalType": "bool",
          "name": "approveMax",
          "type": "bool"
        },
        {
          "internalType": "uint8",
          "name": "v",
          "type": "uint8"
        },
        {
          "internalType": "bytes32",
          "name": "r",
          "type": "bytes32"
        },
        {
          "internalType": "bytes32",
          "name": "s",
          "type": "bytes32"
        }
      ],
      "name": "removeLiquidityETHWithPermit",
      "outputs": [
        {
          "internalType": "uint256",
          "name": "amountToken",
          "type": "uint256"
        },
        {
          "internalType": "uint256",
          "name": "amountETH",
          "type": "uint256"
        }
      ],
      "stateMutability": "nonpayable",
      "type": "function"
    },
    {
      "inputs": [
        {
          "internalType": "bytes32",
          "name": "tokenHash",
          "type": "bytes32"
        },
        {
          "internalType": "uint256",
          "name": "liquidity",
          "type": "uint256"
        },
        {
          "internalType": "uint256",
          "name": "amountAMin",
          "type": "uint256"
        },
        {
          "internalType": "uint256",
          "name": "amountBMin",
          "type": "uint256"
        },
        {
          "internalType": "address",
          "name": "to",
          "type": "address"
        },
        {
          "internalType": "uint256",
          "name": "deadline",
          "type": "uint256"
        },
        {
          "internalType": "bool",
          "name": "approveMax",
          "type": "bool"
        },
        {
          "internalType": "uint8",
          "name": "v",
          "type": "uint8"
        },
        {
          "internalType": "bytes32",
          "name": "r",
          "type": "bytes32"
        },
        {
          "internalType": "bytes32",
          "name": "s",
          "type": "bytes32"
        }
      ],
      "name": "removeLiquidityWithPermit",
      "outputs": [
        {
          "internalType": "uint256",
          "name": "amountA",
          "type": "uint256"
        },
        {
          "internalType": "uint256",
          "name": "amountB",
          "type": "uint256"
        }
      ],
      "stateMutability": "nonpayable",
      "type": "function"
    },
    {
      "inputs": [
        {
          "internalType": "uint256",
          "name": "tokenAmountOut",
          "type": "uint256"
        },
        {
          "internalType": "uint256",
          "name": "baseTokenAmountInMax",
          "type": "uint256"
        },
        {
          "internalType": "bytes32",
          "name": "tokenHash",
          "type": "bytes32"
        },
        {
          "internalType": "address",
          "name": "to",
          "type": "address"
        },
        {
          "internalType": "uint256",
          "name": "deadline",
          "type": "uint256"
        }
      ],
      "name": "swapBaseTokensForExactTokens",
      "outputs": [
        {
          "internalType": "uint256",
          "name": "baseTokenAmountIn",
          "type": "uint256"
        }
      ],
      "stateMutability": "nonpayable",
      "type": "function"
    },
    {
      "inputs": [
        {
          "internalType": "uint256",
          "name": "tokenAmountOut",
          "type": "uint256"
        },
        {
          "internalType": "bytes32",
          "name": "tokenHash",
          "type": "bytes32"
        },
        {
          "internalType": "address",
          "name": "to",
          "type": "address"
        },
        {
          "internalType": "uint256",
          "name": "deadline",
          "type": "uint256"
        }
      ],
      "name": "swapETHForExactTokens",
      "outputs": [
        {
          "internalType": "uint256",
          "name": "ethAmountIn",
          "type": "uint256"
        }
      ],
      "stateMutability": "payable",
      "type": "function"
    },
    {
      "inputs": [
        {
          "internalType": "uint256",
          "name": "baseTokenAmountIn",
          "type": "uint256"
        },
        {
          "internalType": "uint256",
          "name": "tokenAmountOutMin",
          "type": "uint256"
        },
        {
          "internalType": "bytes32",
          "name": "tokenHash",
          "type": "bytes32"
        },
        {
          "internalType": "address",
          "name": "to",
          "type": "address"
        },
        {
          "internalType": "uint256",
          "name": "deadline",
          "type": "uint256"
        }
      ],
      "name": "swapExactBaseTokensForTokens",
      "outputs": [
        {
          "internalType": "uint256",
          "name": "tokenAmountOut",
          "type": "uint256"
        }
      ],
      "stateMutability": "nonpayable",
      "type": "function"
    },
    {
      "inputs": [
        {
          "internalType": "uint256",
          "name": "tokenAmountOutMin",
          "type": "uint256"
        },
        {
          "internalType": "bytes32",
          "name": "tokenHash",
          "type": "bytes32"
        },
        {
          "internalType": "address",
          "name": "to",
          "type": "address"
        },
        {
          "internalType": "uint256",
          "name": "deadline",
          "type": "uint256"
        }
      ],
      "name": "swapExactETHForTokens",
      "outputs": [
        {
          "internalType": "uint256",
          "name": "tokenAmountOut",
          "type": "uint256"
        }
      ],
      "stateMutability": "payable",
      "type": "function"
    },
    {
      "inputs": [
        {
          "internalType": "uint256",
          "name": "tokenAmountIn",
          "type": "uint256"
        },
        {
          "internalType": "uint256",
          "name": "baseTokenAmountOutMin",
          "type": "uint256"
        },
        {
          "internalType": "bytes32",
          "name": "tokenHash",
          "type": "bytes32"
        },
        {
          "internalType": "address",
          "name": "to",
          "type": "address"
        },
        {
          "internalType": "uint256",
          "name": "deadline",
          "type": "uint256"
        }
      ],
      "name": "swapExactTokensForBaseTokens",
      "outputs": [
        {
          "internalType": "uint256",
          "name": "baseTokenAmountOut",
          "type": "uint256"
        }
      ],
      "stateMutability": "nonpayable",
      "type": "function"
    },
    {
      "inputs": [
        {
          "internalType": "uint256",
          "name": "tokenAmountIn",
          "type": "uint256"
        },
        {
          "internalType": "uint256",
          "name": "ethAmountOutMin",
          "type": "uint256"
        },
        {
          "internalType": "bytes32",
          "name": "tokenHash",
          "type": "bytes32"
        },
        {
          "internalType": "address",
          "name": "to",
          "type": "address"
        },
        {
          "internalType": "uint256",
          "name": "deadline",
          "type": "uint256"
        }
      ],
      "name": "swapExactTokensForETH",
      "outputs": [
        {
          "internalType": "uint256",
          "name": "ethAmountOut",
          "type": "uint256"
        }
      ],
      "stateMutability": "nonpayable",
      "type": "function"
    },
    {
      "inputs": [
        {
          "internalType": "uint256",
          "name": "baseTokenAmountOut",
          "type": "uint256"
        },
        {
          "internalType": "uint256",
          "name": "tokenAmountInMax",
          "type": "uint256"
        },
        {
          "internalType": "bytes32",
          "name": "tokenHash",
          "type": "bytes32"
        },
        {
          "internalType": "address",
          "name": "to",
          "type": "address"
        },
        {
          "internalType": "uint256",
          "name": "deadline",
          "type": "uint256"
        }
      ],
      "name": "swapTokensForExactBaseTokens",
      "outputs": [
        {
          "internalType": "uint256",
          "name": "tokenAmountIn",
          "type": "uint256"
        }
      ],
      "stateMutability": "nonpayable",
      "type": "function"
    },
    {
      "inputs": [
        {
          "internalType": "uint256",
          "name": "ethAmountOut",
          "type": "uint256"
        },
        {
          "internalType": "uint256",
          "name": "tokenAmountInMax",
          "type": "uint256"
        },
        {
          "internalType": "bytes32",
          "name": "tokenHash",
          "type": "bytes32"
        },
        {
          "internalType": "address",
          "name": "to",
          "type": "address"
        },
        {
          "internalType": "uint256",
          "name": "deadline",
          "type": "uint256"
        }
      ],
      "name": "swapTokensForExactETH",
      "outputs": [
        {
          "internalType": "uint256",
          "name": "tokenAmountIn",
          "type": "uint256"
        }
      ],
      "stateMutability": "nonpayable",
      "type": "function"
    }
  ],
  "bytecode": "0x60a060405234801561001057600080fd5b5060405161405d38038061405d8339818101604052602081101561003357600080fd5b5051606081901b6001600160601b0319166080526001600160a01b0316613f3d6101206000398061081852806108c252806109545280610b435280610bed5280610d725280610e205280610fa6528061105052806111d6528061127952806113df5280611489528061169b528061179c5280611a975280611b415280611bd35280611dcf5280611e79528061207952806121725280612215528061229c528061245952806125075280612674528061269b528061273c52806128ee528061299c5280612b255280612bc85280612c61528061315f52806135ab528061376c528061380c5250613f3d6000f3fe6080604052600436106101755760003560e01c8063878d4b92116100cb578063b2f994391161007f578063e41fe22911610059578063e41fe229146106a7578063ec74d34a14610718578063ef2ced501461076357610175565b8063b2f99439146105d5578063c45a015514610646578063d5e8d1fa1461067757610175565b80639350dd31116100b05780639350dd31146104fa578063a26c00c71461056f578063ad615dec1461059f57610175565b8063878d4b92146104925780638cc2d272146104ca57610175565b806333a3e9d81161012d578063602e581811610107578063602e5818146103c057806362b89e571461041157806385f8c2591461045c57610175565b806333a3e9d8146102ee5780634ee93a95146103585780635797af201461039057610175565b806317ddf6221161015e57806317ddf6221461020d57806318e525b7146102585780631e35f810146102a357610175565b8063054d50d41461017a5780631536f7af146101c2575b600080fd5b34801561018657600080fd5b506101b06004803603606081101561019d57600080fd5b50803590602081013590604001356107a7565b60408051918252519081900360200190f35b3480156101ce57600080fd5b506101b0600480360360a08110156101e557600080fd5b508035906020810135906040810135906001600160a01b0360608201351690608001356107bc565b34801561021957600080fd5b506101b0600480360360a081101561023057600080fd5b508035906020810135906040810135906001600160a01b036060820135169060800135610ae7565b34801561026457600080fd5b506101b0600480360360a081101561027b57600080fd5b508035906020810135906040810135906001600160a01b036060820135169060800135610d16565b3480156102af57600080fd5b506101b0600480360360a08110156102c657600080fd5b508035906020810135906040810135906001600160a01b036060820135169060800135610f4a565b3480156102fa57600080fd5b5061033f600480360360c081101561031157600080fd5b508035906020810135906040810135906060810135906001600160a01b036080820135169060a00135611179565b6040805192835260208301919091528051918290030190f35b6101b06004803603608081101561036e57600080fd5b508035906020810135906001600160a01b036040820135169060600135611383565b34801561039c57600080fd5b506101b0600480360360408110156103b357600080fd5b5080359060200135611696565b3480156103cc57600080fd5b5061033f600480360360c08110156103e357600080fd5b508035906020810135906040810135906060810135906001600160a01b036080820135169060a0013561173f565b34801561041d57600080fd5b506101b0600480360360a081101561043457600080fd5b508035906020810135906040810135906001600160a01b036060820135169060800135611a3b565b34801561046857600080fd5b506101b06004803603606081101561047f57600080fd5b5080359060208101359060400135611d66565b6101b0600480360360808110156104a857600080fd5b508035906020810135906001600160a01b036040820135169060600135611d73565b3480156104d657600080fd5b506101b0600480360360408110156104ed57600080fd5b5080359060200135612074565b34801561050657600080fd5b50610551600480360360e081101561051d57600080fd5b508035906020810135906040810135906060810135906080810135906001600160a01b0360a0820135169060c00135612113565b60408051938452602084019290925282820152519081900360600190f35b34801561057b57600080fd5b506101b06004803603604081101561059257600080fd5b5080359060200135612454565b3480156105ab57600080fd5b506101b0600480360360608110156105c257600080fd5b50803590602081013590604001356124f3565b3480156105e157600080fd5b5061033f60048036036101408110156105f957600080fd5b508035906020810135906040810135906060810135906001600160a01b036080820135169060a08101359060c081013515159060ff60e08201351690610100810135906101200135612500565b34801561065257600080fd5b5061065b612672565b604080516001600160a01b039092168252519081900360200190f35b34801561068357600080fd5b506101b06004803603604081101561069a57600080fd5b5080359060200135612696565b3480156106b357600080fd5b5061033f60048036036101408110156106cb57600080fd5b508035906020810135906040810135906060810135906001600160a01b036080820135169060a08101359060c081013515159060ff60e08201351690610100810135906101200135612735565b34801561072457600080fd5b506101b0600480360360a081101561073b57600080fd5b508035906020810135906040810135906001600160a01b036060820135169060800135612892565b610551600480360360c081101561077957600080fd5b508035906020810135906040810135906060810135906001600160a01b036080820135169060a00135612ac6565b60006107b4848484612ec0565b949350505050565b60008142811015610814576040805162461bcd60e51b815260206004820152601860248201527f556e69737761705632526f757465723a20455850495245440000000000000000604482015290519081900360640190fd5b60007f00000000000000000000000000000000000000000000000000000000000000006001600160a01b031663c55dae636040518163ffffffff1660e01b815260040160206040518083038186803b15801561086f57600080fd5b505afa158015610883573d6000803e3d6000fd5b505050506040513d602081101561089957600080fd5b50516040805163b8e5303d60e01b81526004810189905290519192506000916001600160a01b037f0000000000000000000000000000000000000000000000000000000000000000169163b8e5303d916024808301926020929190829003018186803b15801561090857600080fd5b505afa15801561091c573d6000803e3d6000fd5b505050506040513d602081101561093257600080fd5b50516040805163e09d894d60e01b815290519192506000916001600160a01b037f0000000000000000000000000000000000000000000000000000000000000000169163e09d894d916004808301926020929190829003018186803b15801561099a57600080fd5b505afa1580156109ae573d6000803e3d6000fd5b505050506040513d60208110156109c457600080fd5b505190506109d2828b612f98565b945088851015610a135760405162461bcd60e51b815260040180806020018281038252602f815260200180613ed9602f913960400191505060405180910390fd5b610a20818933858e612fbe565b610a2b858930613151565b826001600160a01b0316632e1a7d4d866040518263ffffffff1660e01b815260040180828152602001915050600060405180830381600087803b158015610a7157600080fd5b505af1158015610a85573d6000803e3d6000fd5b50505050610a938786613307565b60408051338152602081018a9052808201879052606081018c905290517fa4b548a4389f35e850a725a8d38c3d4031500bbfa603b1e8c1e8cd79a526f7359181900360800190a15050505095945050505050565b60008142811015610b3f576040805162461bcd60e51b815260206004820152601860248201527f556e69737761705632526f757465723a20455850495245440000000000000000604482015290519081900360640190fd5b60007f00000000000000000000000000000000000000000000000000000000000000006001600160a01b031663c55dae636040518163ffffffff1660e01b815260040160206040518083038186803b158015610b9a57600080fd5b505afa158015610bae573d6000803e3d6000fd5b505050506040513d6020811015610bc457600080fd5b50516040805163b8e5303d60e01b81526004810189905290519192506000916001600160a01b037f0000000000000000000000000000000000000000000000000000000000000000169163b8e5303d916024808301926020929190829003018186803b158015610c3357600080fd5b505afa158015610c47573d6000803e3d6000fd5b505050506040513d6020811015610c5d57600080fd5b50519050610c6b818a6133ff565b935087841115610cac5760405162461bcd60e51b8152600401808060200182810382526032815260200180613ce76032913960400191505060405180910390fd5b610cb88233838761341c565b610cc38988886135a7565b6040805133815260208101899052808201869052606081018b905290517fc4d5ecb1c39f525414af6c436b95ebf8a3ac513d7a420c8c4701fa6a1f8ce74d9181900360800190a150505095945050505050565b60008142811015610d6e576040805162461bcd60e51b815260206004820152601860248201527f556e69737761705632526f757465723a20455850495245440000000000000000604482015290519081900360640190fd5b60007f00000000000000000000000000000000000000000000000000000000000000006001600160a01b031663b8e5303d876040518263ffffffff1660e01b81526004018082815260200191505060206040518083038186803b158015610dd457600080fd5b505afa158015610de8573d6000803e3d6000fd5b505050506040513d6020811015610dfe57600080fd5b50516040805163e09d894d60e01b815290519192506000916001600160a01b037f0000000000000000000000000000000000000000000000000000000000000000169163e09d894d916004808301926020929190829003018186803b158015610e6657600080fd5b505afa158015610e7a573d6000803e3d6000fd5b505050506040513d6020811015610e9057600080fd5b50519050610e9e828a612f98565b935087841015610edf5760405162461bcd60e51b8152600401808060200182810382526036815260200180613c586036913960400191505060405180910390fd5b610eec818833858d612fbe565b610ef7848888613151565b6040805133815260208101899052808201869052606081018b905290517feb98bfa5b4238f236ef7c73a71968bf2f4baf43252216e2a9eaf7ae4069fb1689181900360800190a150505095945050505050565b60008142811015610fa2576040805162461bcd60e51b815260206004820152601860248201527f556e69737761705632526f757465723a20455850495245440000000000000000604482015290519081900360640190fd5b60007f00000000000000000000000000000000000000000000000000000000000000006001600160a01b031663c55dae636040518163ffffffff1660e01b815260040160206040518083038186803b158015610ffd57600080fd5b505afa158015611011573d6000803e3d6000fd5b505050506040513d602081101561102757600080fd5b50516040805163b8e5303d60e01b81526004810189905290519192506000916001600160a01b037f0000000000000000000000000000000000000000000000000000000000000000169163b8e5303d916024808301926020929190829003018186803b15801561109657600080fd5b505afa1580156110aa573d6000803e3d6000fd5b505050506040513d60208110156110c057600080fd5b505190506110ce818a613657565b93508784101561110f5760405162461bcd60e51b8152600401808060200182810382526031815260200180613dbc6031913960400191505060405180910390fd5b61111b8233838c61341c565b6111268488886135a7565b60408051338152602081018990528082018b90526060810186905290517f62b82f821e7778a952ef95154d8a11bab72d31e6c829958fae47d3b266353d4b9181900360800190a150505095945050505050565b60008082428110156111d2576040805162461bcd60e51b815260206004820152601860248201527f556e69737761705632526f757465723a20455850495245440000000000000000604482015290519081900360640190fd5b60007f00000000000000000000000000000000000000000000000000000000000000006001600160a01b031663c55dae636040518163ffffffff1660e01b815260040160206040518083038186803b15801561122d57600080fd5b505afa158015611241573d6000803e3d6000fd5b505050506040513d602081101561125757600080fd5b50516040805163e09d894d60e01b815290519192506000916001600160a01b037f0000000000000000000000000000000000000000000000000000000000000000169163e09d894d916004808301926020929190829003018186803b1580156112bf57600080fd5b505afa1580156112d3573d6000803e3d6000fd5b505050506040513d60208110156112e957600080fd5b505190506112fb8b8b8b8b308b61173f565b909550935061130d818c308a89612fbe565b816001600160a01b0316632e1a7d4d856040518263ffffffff1660e01b815260040180828152602001915050600060405180830381600087803b15801561135357600080fd5b505af1158015611367573d6000803e3d6000fd5b505050506113758785613307565b505050965096945050505050565b600081428110156113db576040805162461bcd60e51b815260206004820152601860248201527f556e69737761705632526f757465723a20455850495245440000000000000000604482015290519081900360640190fd5b60007f00000000000000000000000000000000000000000000000000000000000000006001600160a01b031663c55dae636040518163ffffffff1660e01b815260040160206040518083038186803b15801561143657600080fd5b505afa15801561144a573d6000803e3d6000fd5b505050506040513d602081101561146057600080fd5b50516040805163b8e5303d60e01b81526004810189905290519192506000916001600160a01b037f0000000000000000000000000000000000000000000000000000000000000000169163b8e5303d916024808301926020929190829003018186803b1580156114cf57600080fd5b505afa1580156114e3573d6000803e3d6000fd5b505050506040513d60208110156114f957600080fd5b5051905061150781896133ff565b9350348411156115485760405162461bcd60e51b8152600401808060200182810382526027815260200180613e126027913960400191505060405180910390fd5b816001600160a01b031663d0e30db0856040518263ffffffff1660e01b81526004016000604051808303818588803b15801561158357600080fd5b505af1158015611597573d6000803e3d6000fd5b5050505050816001600160a01b031663a9059cbb82866040518363ffffffff1660e01b815260040180836001600160a01b0316815260200182815260200192505050602060405180830381600087803b1580156115f357600080fd5b505af1158015611607573d6000803e3d6000fd5b505050506040513d602081101561161d57600080fd5b505161162557fe5b6116308888886135a7565b833411156116445761164433853403613307565b6040805133815260208101899052808201869052606081018a905290517fdc4e2da3656b4e95b9e177561e430e7cd2de2ec1ea7b365a5aab625fe485bb5c9181900360800190a1505050949350505050565b6000807f00000000000000000000000000000000000000000000000000000000000000006001600160a01b031663b8e5303d846040518263ffffffff1660e01b81526004018082815260200191505060206040518083038186803b1580156116fd57600080fd5b505afa158015611711573d6000803e3d6000fd5b505050506040513d602081101561172757600080fd5b5051905061173581856133ff565b9150505b92915050565b6000808242811015611798576040805162461bcd60e51b815260206004820152601860248201527f556e69737761705632526f757465723a20455850495245440000000000000000604482015290519081900360640190fd5b60007f00000000000000000000000000000000000000000000000000000000000000006001600160a01b031663b8e5303d8b6040518263ffffffff1660e01b81526004018082815260200191505060206040518083038186803b1580156117fe57600080fd5b505afa158015611812573d6000803e3d6000fd5b505050506040513d602081101561182857600080fd5b5051604080517f23b872dd0000000000000000000000000000000000000000000000000000000081523360048201526001600160a01b03831660248201819052604482018d9052915192935090916323b872dd916064808201926020929091908290030181600087803b15801561189e57600080fd5b505af11580156118b2573d6000803e3d6000fd5b505050506040513d60208110156118c857600080fd5b5050604080517f89afcb440000000000000000000000000000000000000000000000000000000081526001600160a01b0388811660048301528251908416926389afcb4492602480820193918290030181600087803b15801561192a57600080fd5b505af115801561193e573d6000803e3d6000fd5b505050506040513d604081101561195457600080fd5b5080516020909101519094509250878410156119a15760405162461bcd60e51b8152600401808060200182810382526026815260200180613e396026913960400191505060405180910390fd5b868310156119e05760405162461bcd60e51b8152600401808060200182810382526026815260200180613d4d6026913960400191505060405180910390fd5b60408051338152602081018c90528082018b9052606081018590526080810186905290517fdcd2a7a2ca607e210edca7c07bebf4592a7fc452d24305ca55ecdff503421fb09181900360a00190a15050965096945050505050565b60008142811015611a93576040805162461bcd60e51b815260206004820152601860248201527f556e69737761705632526f757465723a20455850495245440000000000000000604482015290519081900360640190fd5b60007f00000000000000000000000000000000000000000000000000000000000000006001600160a01b031663c55dae636040518163ffffffff1660e01b815260040160206040518083038186803b158015611aee57600080fd5b505afa158015611b02573d6000803e3d6000fd5b505050506040513d6020811015611b1857600080fd5b50516040805163b8e5303d60e01b81526004810189905290519192506000916001600160a01b037f0000000000000000000000000000000000000000000000000000000000000000169163b8e5303d916024808301926020929190829003018186803b158015611b8757600080fd5b505afa158015611b9b573d6000803e3d6000fd5b505050506040513d6020811015611bb157600080fd5b50516040805163e09d894d60e01b815290519192506000916001600160a01b037f0000000000000000000000000000000000000000000000000000000000000000169163e09d894d916004808301926020929190829003018186803b158015611c1957600080fd5b505afa158015611c2d573d6000803e3d6000fd5b505050506040513d6020811015611c4357600080fd5b50519050611c51828b613674565b945088851115611c925760405162461bcd60e51b815260040180806020018281038252602d815260200180613c8e602d913960400191505060405180910390fd5b611c9f8189338589612fbe565b611caa8a8930613151565b826001600160a01b0316632e1a7d4d8b6040518263ffffffff1660e01b815260040180828152602001915050600060405180830381600087803b158015611cf057600080fd5b505af1158015611d04573d6000803e3d6000fd5b50505050611d12878b613307565b60408051338152602081018a90528082018c90526060810187905290517ffd0b9d809c2d16f4a5612f043f58f0e7a8200e07615c2e4c97fbc32051f609969181900360800190a15050505095945050505050565b60006107b484848461368d565b60008142811015611dcb576040805162461bcd60e51b815260206004820152601860248201527f556e69737761705632526f757465723a20455850495245440000000000000000604482015290519081900360640190fd5b60007f00000000000000000000000000000000000000000000000000000000000000006001600160a01b031663c55dae636040518163ffffffff1660e01b815260040160206040518083038186803b158015611e2657600080fd5b505afa158015611e3a573d6000803e3d6000fd5b505050506040513d6020811015611e5057600080fd5b50516040805163b8e5303d60e01b81526004810189905290519192506000916001600160a01b037f0000000000000000000000000000000000000000000000000000000000000000169163b8e5303d916024808301926020929190829003018186803b158015611ebf57600080fd5b505afa158015611ed3573d6000803e3d6000fd5b505050506040513d6020811015611ee957600080fd5b5051905034611ef88282613657565b945088851015611f395760405162461bcd60e51b815260040180806020018281038252602b815260200180613e5f602b913960400191505060405180910390fd5b826001600160a01b031663d0e30db0826040518263ffffffff1660e01b81526004016000604051808303818588803b158015611f7457600080fd5b505af1158015611f88573d6000803e3d6000fd5b5050505050826001600160a01b031663a9059cbb83836040518363ffffffff1660e01b815260040180836001600160a01b0316815260200182815260200192505050602060405180830381600087803b158015611fe457600080fd5b505af1158015611ff8573d6000803e3d6000fd5b505050506040513d602081101561200e57600080fd5b505161201657fe5b6120218589896135a7565b60408051338152602081018a90528082018390526060810187905290517f31aca20ac8dabb167d48294233205e20f4fe47ccc5fe0dea37de3e57004e19359181900360800190a150505050949350505050565b6000807f00000000000000000000000000000000000000000000000000000000000000006001600160a01b031663b8e5303d846040518263ffffffff1660e01b81526004018082815260200191505060206040518083038186803b1580156120db57600080fd5b505afa1580156120ef573d6000803e3d6000fd5b505050506040513d602081101561210557600080fd5b505190506117358185612f98565b6000806000834281101561216e576040805162461bcd60e51b815260206004820152601860248201527f556e69737761705632526f757465723a20455850495245440000000000000000604482015290519081900360640190fd5b60007f00000000000000000000000000000000000000000000000000000000000000006001600160a01b031663c55dae636040518163ffffffff1660e01b815260040160206040518083038186803b1580156121c957600080fd5b505afa1580156121dd573d6000803e3d6000fd5b505050506040513d60208110156121f357600080fd5b50516040805163e09d894d60e01b815290519192506000916001600160a01b037f0000000000000000000000000000000000000000000000000000000000000000169163e09d894d916004808301926020929190829003018186803b15801561225b57600080fd5b505afa15801561226f573d6000803e3d6000fd5b505050506040513d602081101561228557600080fd5b8101908080519060200190929190505050905060007f00000000000000000000000000000000000000000000000000000000000000006001600160a01b031663b8e5303d8f6040518263ffffffff1660e01b81526004018082815260200191505060206040518083038186803b1580156122fe57600080fd5b505afa158015612312573d6000803e3d6000fd5b505050506040513d602081101561232857600080fd5b505190506123398e8e8e8e8e613765565b909750955061234b828f33848b612fbe565b6123578333838961341c565b806001600160a01b0316636a6278428a6040518263ffffffff1660e01b815260040180826001600160a01b03168152602001915050602060405180830381600087803b1580156123a657600080fd5b505af11580156123ba573d6000803e3d6000fd5b505050506040513d60208110156123d057600080fd5b810190808051906020019092919050505094507fdfdd9dbcc558b79525f53ba7faeaa725e94f45e8795c3152c0e8353bb73025b7338f87898b60405180866001600160a01b031681526020018581526020018481526020018381526020018281526020019550505050505060405180910390a1505050509750975097945050505050565b6000807f00000000000000000000000000000000000000000000000000000000000000006001600160a01b031663b8e5303d846040518263ffffffff1660e01b81526004018082815260200191505060206040518083038186803b1580156124bb57600080fd5b505afa1580156124cf573d6000803e3d6000fd5b505050506040513d60208110156124e557600080fd5b505190506117358185613674565b60006107b4848484613998565b60008060007f00000000000000000000000000000000000000000000000000000000000000006001600160a01b031663b8e5303d8e6040518263ffffffff1660e01b81526004018082815260200191505060206040518083038186803b15801561256957600080fd5b505afa15801561257d573d6000803e3d6000fd5b505050506040513d602081101561259357600080fd5b505190506000876125a4578c6125a8565b6000195b604080517fd505accf00000000000000000000000000000000000000000000000000000000815233600482015230602482015260448101839052606481018c905260ff8a16608482015260a4810189905260c4810188905290519192506001600160a01b0384169163d505accf9160e48082019260009290919082900301818387803b15801561263757600080fd5b505af115801561264b573d6000803e3d6000fd5b5050505061265d8e8e8e8e8e8e61173f565b909f909e509c50505050505050505050505050565b7f000000000000000000000000000000000000000000000000000000000000000081565b6000807f00000000000000000000000000000000000000000000000000000000000000006001600160a01b031663b8e5303d846040518263ffffffff1660e01b81526004018082815260200191505060206040518083038186803b1580156126fd57600080fd5b505afa158015612711573d6000803e3d6000fd5b505050506040513d602081101561272757600080fd5b505190506117358185613657565b60008060007f00000000000000000000000000000000000000000000000000000000000000006001600160a01b031663b8e5303d8e6040518263ffffffff1660e01b81526004018082815260200191505060206040518083038186803b15801561279e57600080fd5b505afa1580156127b2573d6000803e3d6000fd5b505050506040513d60208110156127c857600080fd5b505190506000876127d9578c6127dd565b6000195b604080517fd505accf00000000000000000000000000000000000000000000000000000000815233600482015230602482015260448101839052606481018c905260ff8a16608482015260a4810189905260c4810188905290519192506001600160a01b0384169163d505accf9160e48082019260009290919082900301818387803b15801561286c57600080fd5b505af1158015612880573d6000803e3d6000fd5b5050505061265d8e8e8e8e8e8e611179565b600081428110156128ea576040805162461bcd60e51b815260206004820152601860248201527f556e69737761705632526f757465723a20455850495245440000000000000000604482015290519081900360640190fd5b60007f00000000000000000000000000000000000000000000000000000000000000006001600160a01b031663b8e5303d876040518263ffffffff1660e01b81526004018082815260200191505060206040518083038186803b15801561295057600080fd5b505afa158015612964573d6000803e3d6000fd5b505050506040513d602081101561297a57600080fd5b50516040805163e09d894d60e01b815290519192506000916001600160a01b037f0000000000000000000000000000000000000000000000000000000000000000169163e09d894d916004808301926020929190829003018186803b1580156129e257600080fd5b505afa1580156129f6573d6000803e3d6000fd5b505050506040513d6020811015612a0c57600080fd5b50519050612a1a828a613674565b935087841115612a5b5760405162461bcd60e51b815260040180806020018281038252602d815260200180613c8e602d913960400191505060405180910390fd5b612a688188338588612fbe565b612a73898888613151565b60408051338152602081018990528082018b90526060810186905290517f108b746a57815b4a14712eea75c468efca63239839d772a4c964b21fef993c139181900360800190a150505095945050505050565b60008060008342811015612b21576040805162461bcd60e51b815260206004820152601860248201527f556e69737761705632526f757465723a20455850495245440000000000000000604482015290519081900360640190fd5b60007f00000000000000000000000000000000000000000000000000000000000000006001600160a01b031663c55dae636040518163ffffffff1660e01b815260040160206040518083038186803b158015612b7c57600080fd5b505afa158015612b90573d6000803e3d6000fd5b505050506040513d6020811015612ba657600080fd5b50516040805163e09d894d60e01b815290519192506000916001600160a01b037f0000000000000000000000000000000000000000000000000000000000000000169163e09d894d916004808301926020929190829003018186803b158015612c0e57600080fd5b505afa158015612c22573d6000803e3d6000fd5b505050506040513d6020811015612c3857600080fd5b50516040805163b8e5303d60e01b8152600481018f905290519192506000916001600160a01b037f0000000000000000000000000000000000000000000000000000000000000000169163b8e5303d916024808301926020929190829003018186803b158015612ca757600080fd5b505afa158015612cbb573d6000803e3d6000fd5b505050506040513d6020811015612cd157600080fd5b50519050612ce28d8d348e8e613765565b9097509550612cf4828e33848b612fbe565b826001600160a01b031663d0e30db0876040518263ffffffff1660e01b81526004016000604051808303818588803b158015612d2f57600080fd5b505af1158015612d43573d6000803e3d6000fd5b5050505050826001600160a01b031663a9059cbb82886040518363ffffffff1660e01b815260040180836001600160a01b0316815260200182815260200192505050602060405180830381600087803b158015612d9f57600080fd5b505af1158015612db3573d6000803e3d6000fd5b505050506040513d6020811015612dc957600080fd5b5051612dd157fe5b806001600160a01b0316636a6278428a6040518263ffffffff1660e01b815260040180826001600160a01b03168152602001915050602060405180830381600087803b158015612e2057600080fd5b505af1158015612e34573d6000803e3d6000fd5b505050506040513d6020811015612e4a57600080fd5b5051945034861015612e6257612e6233873403613307565b60408051338152602081018f9052808201879052606081018990526080810188905290517fdfdd9dbcc558b79525f53ba7faeaa725e94f45e8795c3152c0e8353bb73025b79181900360a00190a15050505096509650969350505050565b6000808411612f005760405162461bcd60e51b815260040180806020018281038252602b815260200180613eae602b913960400191505060405180910390fd5b600083118015612f105750600082115b612f4b5760405162461bcd60e51b8152600401808060200182810382526028815260200180613d736028913960400191505060405180910390fd5b6000612f59856103e5613a3e565b90506000612f678285613a3e565b90506000612f8183612f7b886103e8613a3e565b90613a9e565b9050808281612f8c57fe5b04979650505050505050565b6000806000612fa685613af8565b91509150612fb5848383612ec0565b95945050505050565b604080516001600160a01b03858116602483015284811660448301526064820187905260848083018590528351808403909101815260a490920183526020820180517bffffffffffffffffffffffffffffffffffffffffffffffffffffffff167f7fe683810000000000000000000000000000000000000000000000000000000017815292518251600094606094938b169392918291908083835b602083106130785780518252601f199092019160209182019101613059565b6001836020036101000a0380198251168184511680821785525050505050509050019150506000604051808303816000865af19150503d80600081146130da576040519150601f19603f3d011682016040523d82523d6000602084013e6130df565b606091505b509150915081801561310d57508051158061310d575080806020019051602081101561310a57600080fd5b50515b6131485760405162461bcd60e51b8152600401808060200182810382526024815260200180613e8a6024913960400191505060405180910390fd5b50505050505050565b6000806000859150915060007f00000000000000000000000000000000000000000000000000000000000000006001600160a01b031663b8e5303d866040518263ffffffff1660e01b81526004018082815260200191505060206040518083038186803b1580156131c157600080fd5b505afa1580156131d5573d6000803e3d6000fd5b505050506040513d60208110156131eb57600080fd5b505190506001600160a01b03811663022c0d9f8484876000805b506040519080825280601f01601f191660200182016040528015613230576020820181803683370190505b506040518563ffffffff1660e01b815260040180858152602001848152602001836001600160a01b0316815260200180602001828103825283818151815260200191508051906020019080838360005b83811015613298578181015183820152602001613280565b50505050905090810190601f1680156132c55780820380516001836020036101000a031916815260200191505b5095505050505050600060405180830381600087803b1580156132e757600080fd5b505af11580156132fb573d6000803e3d6000fd5b50505050505050505050565b604080516000808252602082019092526001600160a01b0384169083906040518082805190602001908083835b602083106133535780518252601f199092019160209182019101613334565b6001836020036101000a03801982511681845116808217855250505050505090500191505060006040518083038185875af1925050503d80600081146133b5576040519150601f19603f3d011682016040523d82523d6000602084013e6133ba565b606091505b50509050806133fa5760405162461bcd60e51b8152600401808060200182810382526034815260200180613d196034913960400191505060405180910390fd5b505050565b600080600061340d85613af8565b91509150612fb584828461368d565b604080516001600160a01b0385811660248301528481166044830152606480830185905283518084039091018152608490920183526020820180517bffffffffffffffffffffffffffffffffffffffffffffffffffffffff167f23b872dd0000000000000000000000000000000000000000000000000000000017815292518251600094606094938a169392918291908083835b602083106134cf5780518252601f1990920191602091820191016134b0565b6001836020036101000a0380198251168184511680821785525050505050509050019150506000604051808303816000865af19150503d8060008114613531576040519150601f19603f3d011682016040523d82523d6000602084013e613536565b606091505b5091509150818015613564575080511580613564575080806020019051602081101561356157600080fd5b50515b61359f5760405162461bcd60e51b8152600401808060200182810382526024815260200180613e8a6024913960400191505060405180910390fd5b505050505050565b60007f00000000000000000000000000000000000000000000000000000000000000006001600160a01b031663b8e5303d846040518263ffffffff1660e01b81526004018082815260200191505060206040518083038186803b15801561360d57600080fd5b505afa158015613621573d6000803e3d6000fd5b505050506040513d602081101561363757600080fd5b505190508360006001600160a01b03831663022c0d9f8383878180613205565b600080600061366585613af8565b91509150612fb5848284612ec0565b600080600061368285613af8565b91509150612fb58483835b60008084116136cd5760405162461bcd60e51b815260040180806020018281038252602c815260200180613cbb602c913960400191505060405180910390fd5b6000831180156136dd5750600082115b6137185760405162461bcd60e51b8152600401808060200182810382526028815260200180613d736028913960400191505060405180910390fd5b60006137306103e861372a8688613a3e565b90613a3e565b905060006137446103e561372a8689613b83565b905061375b600182848161375457fe5b0490613a9e565b9695505050505050565b60008060007f00000000000000000000000000000000000000000000000000000000000000006001600160a01b031663b8e5303d896040518263ffffffff1660e01b81526004018082815260200191505060206040518083038186803b1580156137ce57600080fd5b505afa1580156137e2573d6000803e3d6000fd5b505050506040513d60208110156137f857600080fd5b505190506001600160a01b03811661389d577f00000000000000000000000000000000000000000000000000000000000000006001600160a01b031663ed25a5a2896040518263ffffffff1660e01b815260040180828152602001915050602060405180830381600087803b15801561387057600080fd5b505af1158015613884573d6000803e3d6000fd5b505050506040513d602081101561389a57600080fd5b50505b6000806138a983613af8565b915091508160001480156138bb575080155b156138cb5788945087935061398b565b60006138d88a8484613998565b905088811161392b57868110156139205760405162461bcd60e51b8152600401808060200182810382526026815260200180613d4d6026913960400191505060405180910390fd5b899550935083613989565b60006139388a8486613998565b90508a81111561394457fe5b888110156139835760405162461bcd60e51b8152600401808060200182810382526026815260200180613e396026913960400191505060405180910390fd5b95508894505b505b5050509550959350505050565b60008084116139d85760405162461bcd60e51b8152600401808060200182810382526025815260200180613ded6025913960400191505060405180910390fd5b6000831180156139e85750600082115b613a235760405162461bcd60e51b8152600401808060200182810382526028815260200180613d736028913960400191505060405180910390fd5b82613a2e8584613a3e565b81613a3557fe5b04949350505050565b600082613a4d57506000611739565b82820282848281613a5a57fe5b0414613a975760405162461bcd60e51b8152600401808060200182810382526021815260200180613d9b6021913960400191505060405180910390fd5b9392505050565b600082820183811015613a97576040805162461bcd60e51b815260206004820152601b60248201527f536166654d6174683a206164646974696f6e206f766572666c6f770000000000604482015290519081900360640190fd5b600080826001600160a01b0316630902f1ac6040518163ffffffff1660e01b815260040160606040518083038186803b158015613b3457600080fd5b505afa158015613b48573d6000803e3d6000fd5b505050506040513d6060811015613b5e57600080fd5b5080516020909101516dffffffffffffffffffffffffffff9182169591169350915050565b6000613a9783836040518060400160405280601e81526020017f536166654d6174683a207375627472616374696f6e206f766572666c6f77000081525060008184841115613c4f5760405162461bcd60e51b81526004018080602001828103825283818151815260200191508051906020019080838360005b83811015613c14578181015183820152602001613bfc565b50505050905090810190601f168015613c415780820380516001836020036101000a031916815260200191505b509250505060405180910390fd5b50505090039056fe556e69737761705632526f757465723a20494e53554646494349454e545f4f55545055545f414d4f554e545f424153455f544f4b454e556e69737761705632526f757465723a204558434553534956455f494e5055545f414d4f554e545f544f4b454e556e697377617056324c6962726172793a20494e53554646494349454e545f4f55545055545f414d4f554e54556e69737761705632526f757465723a204558434553534956455f494e5055545f414d4f554e545f424153455f544f4b454e5472616e7366657248656c7065723a3a736166655472616e736665724554483a20455448207472616e73666572206661696c6564556e69737761705632526f757465723a20494e53554646494349454e545f425f414d4f554e54556e697377617056324c6962726172793a20494e53554646494349454e545f4c4951554944495459536166654d6174683a206d756c7469706c69636174696f6e206f766572666c6f77556e69737761705632526f757465723a20494e53554646494349454e545f4f55545055545f414d4f554e545f544f4b454e556e697377617056324c6962726172793a20494e53554646494349454e545f414d4f554e54556e69737761705632526f757465723a204558434553534956455f494e5055545f414d4f554e54556e69737761705632526f757465723a20494e53554646494349454e545f415f414d4f554e54556e69737761705632526f757465723a20494e53554646494349454e545f4f55545055545f414d4f554e545472616e7366657248656c7065723a205452414e534645525f46524f4d5f4641494c4544556e697377617056324c6962726172793a20494e53554646494349454e545f494e5055545f414d4f554e54556e69737761705632526f757465723a20494e53554646494349454e545f4f55545055545f414d4f554e545f455448a264697066735822122041ac496a3515227977423cafb19ec021066fe453ae2b9efd2708ab2ca736652a64736f6c634300060c0033",
  "linkReferences": {},
  "deployedLinkReferences": {}
}