{
  "_format": "hh-sol-artifact-1",
  "contractName": "UniswapV2Factory",
  "sourceName": "src/uniswap/factory/UniswapV2Factory.sol",
  "abi": [
    {
      "inputs": [
        {
          "internalType": "address",
          "name": "_feeToSetter",
          "type": "address"
        },
        {
          "internalType": "address",
          "name": "_baseToken",
          "type": "address"
        },
        {
          "internalType": "address",
          "name": "_dispenser",
          "type": "address"
        }
      ],
      "stateMutability": "nonpayable",
      "type": "constructor"
    },
    {
      "anonymous": false,
      "inputs": [
        {
          "indexed": true,
          "internalType": "address",
          "name": "sender",
          "type": "address"
        },
        {
          "indexed": false,
          "internalType": "bytes32",
          "name": "tokenHash",
          "type": "bytes32"
        },
        {
          "indexed": true,
          "internalType": "address",
          "name": "baseToken",
          "type": "address"
        },
        {
          "indexed": false,
          "internalType": "address",
          "name": "pair",
          "type": "address"
        },
        {
          "indexed": false,
          "internalType": "uint256",
          "name": "allPairsLength",
          "type": "uint256"
        }
      ],
      "name": "PairCreated",
      "type": "event"
    },
    {
      "inputs": [
        {
          "internalType": "uint256",
          "name": "",
          "type": "uint256"
        }
      ],
      "name": "allPairs",
      "outputs": [
        {
          "internalType": "address",
          "name": "",
          "type": "address"
        }
      ],
      "stateMutability": "view",
      "type": "function"
    },
    {
      "inputs": [],
      "name": "allPairsLength",
      "outputs": [
        {
          "internalType": "uint256",
          "name": "",
          "type": "uint256"
        }
      ],
      "stateMutability": "view",
      "type": "function"
    },
    {
      "inputs": [],
      "name": "baseToken",
      "outputs": [
        {
          "internalType": "address",
          "name": "",
          "type": "address"
        }
      ],
      "stateMutability": "view",
      "type": "function"
    },
    {
      "inputs": [
        {
          "internalType": "bytes32",
          "name": "tokenHash",
          "type": "bytes32"
        }
      ],
      "name": "createPair",
      "outputs": [
        {
          "internalType": "address",
          "name": "pair",
          "type": "address"
        }
      ],
      "stateMutability": "nonpayable",
      "type": "function"
    },
    {
      "inputs": [],
      "name": "dispenser",
      "outputs": [
        {
          "internalType": "address",
          "name": "",
          "type": "address"
        }
      ],
      "stateMutability": "view",
      "type": "function"
    },
    {
      "inputs": [],
      "name": "feeTo",
      "outputs": [
        {
          "internalType": "address",
          "name": "",
          "type": "address"
        }
      ],
      "stateMutability": "view",
      "type": "function"
    },
    {
      "inputs": [],
      "name": "feeToSetter",
      "outputs": [
        {
          "internalType": "address",
          "name": "",
          "type": "address"
        }
      ],
      "stateMutability": "view",
      "type": "function"
    },
    {
      "inputs": [
        {
          "internalType": "bytes32",
          "name": "",
          "type": "bytes32"
        }
      ],
      "name": "getPair",
      "outputs": [
        {
          "internalType": "address",
          "name": "",
          "type": "address"
        }
      ],
      "stateMutability": "view",
      "type": "function"
    },
    {
      "inputs": [
        {
          "internalType": "address",
          "name": "_feeTo",
          "type": "address"
        }
      ],
      "name": "setFeeTo",
      "outputs": [],
      "stateMutability": "nonpayable",
      "type": "function"
    },
    {
      "inputs": [
        {
          "internalType": "address",
          "name": "_feeToSetter",
          "type": "address"
        }
      ],
      "name": "setFeeToSetter",
      "outputs": [],
      "stateMutability": "nonpayable",
      "type": "function"
    }
  ],
  "bytecode": "0x60c060405234801561001057600080fd5b5060405161305f38038061305f8339818101604052606081101561003357600080fd5b5080516020820151604090920151600180546001600160a01b0319166001600160a01b03938416179055606083811b6001600160601b03199081166080529082901b1660a0529181169116612fb56100aa600039806102d852806103ea5250806102b4528061040b52806105245250612fb56000f3fe608060405234801561001057600080fd5b50600436106100be5760003560e01c8063b8e5303d11610076578063e09d894d1161005b578063e09d894d14610173578063ed25a5a21461017b578063f46901ed14610198576100be565b8063b8e5303d1461014e578063c55dae631461016b576100be565b80631e3dd18b116100a75780631e3dd18b146100ef578063574f2ba31461010c578063a2e74af614610126576100be565b8063017e7e58146100c3578063094b7415146100e7575b600080fd5b6100cb6101be565b604080516001600160a01b039092168252519081900360200190f35b6100cb6101cd565b6100cb6004803603602081101561010557600080fd5b50356101dc565b610114610203565b60408051918252519081900360200190f35b61014c6004803603602081101561013c57600080fd5b50356001600160a01b0316610209565b005b6100cb6004803603602081101561016457600080fd5b5035610297565b6100cb6102b2565b6100cb6102d6565b6100cb6004803603602081101561019157600080fd5b50356102fa565b61014c600480360360208110156101ae57600080fd5b50356001600160a01b031661057b565b6000546001600160a01b031681565b6001546001600160a01b031681565b600381815481106101e957fe5b6000918252602090912001546001600160a01b0316905081565b60035490565b6001546001600160a01b03163314610268576040805162461bcd60e51b815260206004820152601460248201527f556e697377617056323a20464f5242494444454e000000000000000000000000604482015290519081900360640190fd5b6001805473ffffffffffffffffffffffffffffffffffffffff19166001600160a01b0392909216919091179055565b6002602052600090815260409020546001600160a01b031681565b7f000000000000000000000000000000000000000000000000000000000000000081565b7f000000000000000000000000000000000000000000000000000000000000000081565b6000818152600260205260408120546001600160a01b031615610364576040805162461bcd60e51b815260206004820152601660248201527f556e697377617056323a20504149525f45584953545300000000000000000000604482015290519081900360640190fd5b60606040518060200161037690610609565b7fffffffffffffffffffffffffffffffffffffffffffffffffffffffffffffffe082820381018352601f9091011660408181526020828101879052815180840382018152928201909152815191810191909120825192935091829184016000f59250826001600160a01b03166388b117b3857f00000000000000000000000000000000000000000000000000000000000000007f00000000000000000000000000000000000000000000000000000000000000006040518463ffffffff1660e01b815260040180848152602001836001600160a01b03168152602001826001600160a01b031681526020019350505050600060405180830381600087803b15801561048057600080fd5b505af1158015610494573d6000803e3d6000fd5b505050600085815260026020908152604080832080546001600160a01b03808a1673ffffffffffffffffffffffffffffffffffffffff19928316811790935560038054600181018255968190527fc2575a0e9e593c00f959f8c92f12db2869c3395a3b0502d05e2516446f71f85b90960180549092168317909155935482518a81529384019190915282820152517f0000000000000000000000000000000000000000000000000000000000000000909216925033917f4347922e9520a790addae2eb379f88c90ab93fa57a96a51ece62cbc91197f22b9181900360600190a35050919050565b6001546001600160a01b031633146105da576040805162461bcd60e51b815260206004820152601460248201527f556e697377617056323a20464f5242494444454e000000000000000000000000604482015290519081900360640190fd5b6000805473ffffffffffffffffffffffffffffffffffffffff19166001600160a01b0392909216919091179055565b612969806106178339019056fe60806040526001600d5534801561001557600080fd5b50604080518082018252600881526704d454d45535741560c41b6020918201528151808301835260018152603160f81b9082015281517f8b73c3c69bb8fe3d512ecc4cf759cc79239f7b179b0ffacaa9a75d522b39400f818301527f7022a4b2c6640203335af24fd14af2677c67106798ae3138dd4378cee46dbb7c818401527fc89efdaa54c0f20c7adf612882df0950f5a951637e0307cdcb4c672f298b8bc660608201524660808201523060a0808301919091528351808303909101815260c09091019092528151910120600355600580546001600160a01b03191633179055612863806101066000396000f3fe608060405234801561001057600080fd5b50600436106101e55760003560e01c806388b117b31161010f578063c5700a02116100a2578063dd62ed3e11610071578063dd62ed3e146105dd578063e09d894d1461060b578063f5298aca14610613578063fff6cae91461065e576101e5565b8063c5700a021461055b578063cbcb31711461057c578063cca4947314610584578063d505accf1461058c576101e5565b8063ba9a7a56116100de578063ba9a7a5614610501578063bc25cf7714610509578063c45a01551461052f578063c55dae6314610553576101e5565b806388b117b31461047557806395d89b41146104a9578063a9059cbb146104b1578063adb5a665146104dd576101e5565b806330adf81f116101875780636a627842116101565780636a627842146103fb57806370a08231146104215780637464fc3d146104475780637ecebe001461044f576101e5565b806330adf81f146103c5578063313ce567146103cd5780633644e515146103eb578063431140a2146103f3576101e5565b8063095ea7b3116101c3578063095ea7b31461032d5780630dd0fd871461036d57806318160ddd1461038757806323b872dd1461038f576101e5565b8063022c0d9f146101ea57806306fdde03146102785780630902f1ac146102f5575b600080fd5b6102766004803603608081101561020057600080fd5b8135916020810135916001600160a01b03604083013516919081019060808101606082013564010000000081111561023757600080fd5b82018360208201111561024957600080fd5b8035906020019184600183028401116401000000008311171561026b57600080fd5b509092509050610666565b005b610280610b8a565b6040805160208082528351818301528351919283929083019185019080838360005b838110156102ba5781810151838201526020016102a2565b50505050905090810190601f1680156102e75780820380516001836020036101000a031916815260200191505b509250505060405180910390f35b6102fd610bc3565b604080516001600160701b03948516815292909316602083015263ffffffff168183015290519081900360600190f35b6103596004803603604081101561034357600080fd5b506001600160a01b038135169060200135610bed565b604080519115158252519081900360200190f35b610375610c04565b60408051918252519081900360200190f35b610375610c0a565b610359600480360360608110156103a557600080fd5b506001600160a01b03813581169160208101359091169060400135610c10565b610375610cc2565b6103d5610ce6565b6040805160ff9092168252519081900360200190f35b610375610ceb565b610375610cf1565b6103756004803603602081101561041157600080fd5b50356001600160a01b0316610cf7565b6103756004803603602081101561043757600080fd5b50356001600160a01b0316610fe9565b610375610ffb565b6103756004803603602081101561046557600080fd5b50356001600160a01b0316611001565b6102766004803603606081101561048b57600080fd5b508035906001600160a01b0360208201358116916040013516611013565b6102806110be565b610359600480360360408110156104c757600080fd5b506001600160a01b0381351690602001356110f7565b6104e5611104565b604080516001600160701b039092168252519081900360200190f35b61037561111a565b6102766004803603602081101561051f57600080fd5b50356001600160a01b0316611120565b61053761129a565b604080516001600160a01b039092168252519081900360200190f35b6105376112a9565b6105636112b8565b6040805163ffffffff9092168252519081900360200190f35b6104e56112cb565b6103756112da565b610276600480360360e08110156105a257600080fd5b506001600160a01b03813581169160208101359091169060408101359060608101359060ff6080820135169060a08101359060c001356112e0565b610375600480360360408110156105f357600080fd5b506001600160a01b0381358116916020013516611508565b610537611525565b6106456004803603606081101561062957600080fd5b506001600160a01b038135169060208101359060400135611534565b6040805192835260208301919091528051918290030190f35b610276611a38565b600d546001146106bd576040805162461bcd60e51b815260206004820152601160248201527f556e697377617056323a204c4f434b4544000000000000000000000000000000604482015290519081900360640190fd5b6000600d55841515806106d05750600084115b61070b5760405162461bcd60e51b81526004018080602001828103825260258152602001806127046025913960400191505060405180910390fd5b600080610716610bc3565b5091509150816001600160701b03168710801561073b5750806001600160701b031686105b6107765760405162461bcd60e51b815260040180806020018281038252602181526020018061274d6021913960400191505060405180910390fd5b60085460075460009182916001600160a01b03898116911614156107e1576040805162461bcd60e51b815260206004820152601560248201527f556e697377617056323a20494e56414c49445f544f0000000000000000000000604482015290519081900360640190fd5b89156107f2576107f281898c611bb0565b881561080f5760075461080f906001600160a01b0316898b611d40565b85156108c157876001600160a01b03166310d1e85c338c8c8b8b6040518663ffffffff1660e01b815260040180866001600160a01b03168152602001858152602001848152602001806020018281038252848482818152602001925080828437600081840152601f19601f8201169050808301925050509650505050505050600060405180830381600087803b1580156108a857600080fd5b505af11580156108bc573d6000803e3d6000fd5b505050505b600654604080516326985b5f60e11b81523060048201526024810184905290516001600160a01b0390921691634d30b6be91604480820192602092909190829003018186803b15801561091357600080fd5b505afa158015610927573d6000803e3d6000fd5b505050506040513d602081101561093d57600080fd5b5051600754604080516370a0823160e01b815230600482015290519295506001600160a01b03909116916370a0823191602480820192602092909190829003018186803b15801561098d57600080fd5b505afa1580156109a1573d6000803e3d6000fd5b505050506040513d60208110156109b757600080fd5b50519150600090506001600160701b0385168a900383116109d95760006109e8565b89856001600160701b03160383035b9050600089856001600160701b0316038311610a05576000610a14565b89856001600160701b03160383035b90506000821180610a255750600081115b610a605760405162461bcd60e51b81526004018080602001828103825260248152602001806127296024913960400191505060405180910390fd5b6000610a82610a70846003611ed6565b610a7c876103e8611ed6565b90611f36565b90506000610a94610a70846003611ed6565b9050610ab9620f4240610ab36001600160701b038b8116908b16611ed6565b90611ed6565b610ac38383611ed6565b1015610b16576040805162461bcd60e51b815260206004820152600c60248201527f556e697377617056323a204b0000000000000000000000000000000000000000604482015290519081900360640190fd5b5050610b2484848888611f78565b60408051838152602081018390528082018d9052606081018c905290516001600160a01b038b169133917fd78ad95fa46c994b6551d0da85fc275fe613ce37657fb8d5e3d130840159d8229181900360800190a350506001600d55505050505050505050565b6040518060400160405280600881526020017f4d454d455357415000000000000000000000000000000000000000000000000081525081565b6009546001600160701b0380821692600160701b830490911691600160e01b900463ffffffff1690565b6000610bfa338484612160565b5060015b92915050565b600a5481565b60005481565b6001600160a01b03831660009081526002602090815260408083203384529091528120547fffffffffffffffffffffffffffffffffffffffffffffffffffffffffffffffff14610cad576001600160a01b0384166000908152600260209081526040808320338452909152902054610c889083611f36565b6001600160a01b03851660009081526002602090815260408083203384529091529020555b610cb88484846121c2565b5060019392505050565b7f6e71edae12b1b97f4d1f60370fef10105fa2faae0126114a169c64845d6126c981565b601281565b60035481565b600b5481565b6000600d54600114610d50576040805162461bcd60e51b815260206004820152601160248201527f556e697377617056323a204c4f434b4544000000000000000000000000000000604482015290519081900360640190fd5b6000600d81905580610d60610bc3565b50600654600854604080516326985b5f60e11b81523060048201526024810192909252519395509193506000926001600160a01b0390911691634d30b6be916044808301926020929190829003018186803b158015610dbe57600080fd5b505afa158015610dd2573d6000803e3d6000fd5b505050506040513d6020811015610de857600080fd5b5051600754604080516370a0823160e01b815230600482015290519293506000926001600160a01b03909216916370a0823191602480820192602092909190829003018186803b158015610e3b57600080fd5b505afa158015610e4f573d6000803e3d6000fd5b505050506040513d6020811015610e6557600080fd5b505190506000610e7e836001600160701b038716611f36565b90506000610e95836001600160701b038716611f36565b90506000610ea38787612270565b60005490915080610eda57610ec66103e8610a7c610ec18787611ed6565b6123b0565b9850610ed560006103e8612402565b610f1d565b610f1a6001600160701b038916610ef18684611ed6565b81610ef857fe5b046001600160701b038916610f0d8685611ed6565b81610f1457fe5b0461248c565b98505b60008911610f5c5760405162461bcd60e51b81526004018080602001828103825260288152602001806127966028913960400191505060405180910390fd5b610f668a8a612402565b610f7286868a8a611f78565b8115610f9c57600954610f98906001600160701b0380821691600160701b900416611ed6565b600c555b6040805185815260208101859052815133927f4c209b5fc8ad50758f13e2e1088ba56a560dff690a1c6fef26394f4c03821c4f928290030190a250506001600d5550949695505050505050565b60016020526000908152604090205481565b600c5481565b60046020526000908152604090205481565b6005546001600160a01b03163314611072576040805162461bcd60e51b815260206004820152601460248201527f556e697377617056323a20464f5242494444454e000000000000000000000000604482015290519081900360640190fd5b600892909255600680546001600160a01b039283167fffffffffffffffffffffffff00000000000000000000000000000000000000009182161790915560078054929093169116179055565b6040518060400160405280600b81526020017f4d454d45535741502d4c5000000000000000000000000000000000000000000081525081565b6000610bfa3384846121c2565b600954600160701b90046001600160701b031681565b6103e881565b600d54600114611177576040805162461bcd60e51b815260206004820152601160248201527f556e697377617056323a204c4f434b4544000000000000000000000000000000604482015290519081900360640190fd5b6000600d55600854600954600654604080516326985b5f60e11b8152306004820152602481018590529051611223938593879361121e936001600160701b03909316926001600160a01b0390921691634d30b6be91604480820192602092909190829003018186803b1580156111ec57600080fd5b505afa158015611200573d6000803e3d6000fd5b505050506040513d602081101561121657600080fd5b505190611f36565b611bb0565b600754600954604080516370a0823160e01b81523060048201529051611291936001600160a01b031692869261128c92600160701b9092046001600160701b03169185916370a08231916024808301926020929190829003018186803b1580156111ec57600080fd5b611d40565b50506001600d55565b6005546001600160a01b031681565b6007546001600160a01b031681565b600954600160e01b900463ffffffff1681565b6009546001600160701b031681565b60085481565b42841015611335576040805162461bcd60e51b815260206004820152601260248201527f556e697377617056323a20455850495245440000000000000000000000000000604482015290519081900360640190fd5b6003546001600160a01b0380891660008181526004602090815260408083208054600180820190925582517f6e71edae12b1b97f4d1f60370fef10105fa2faae0126114a169c64845d6126c98186015280840196909652958d166060860152608085018c905260a085019590955260c08085018b90528151808603909101815260e0850182528051908301207f19010000000000000000000000000000000000000000000000000000000000006101008601526101028501969096526101228085019690965280518085039096018652610142840180825286519683019690962095839052610162840180825286905260ff89166101828501526101a284018890526101c28401879052519193926101e280820193601f1981019281900390910190855afa15801561146b573d6000803e3d6000fd5b5050604051601f1901519150506001600160a01b038116158015906114a15750886001600160a01b0316816001600160a01b0316145b6114f2576040805162461bcd60e51b815260206004820152601c60248201527f556e697377617056323a20494e56414c49445f5349474e415455524500000000604482015290519081900360640190fd5b6114fd898989612160565b505050505050505050565b600260209081526000928352604080842090915290825290205481565b6006546001600160a01b031681565b600080600d5460011461158e576040805162461bcd60e51b815260206004820152601160248201527f556e697377617056323a204c4f434b4544000000000000000000000000000000604482015290519081900360640190fd5b6000600d8190558061159e610bc3565b50600854600654604080516326985b5f60e11b815230600482015260248101849052905194965092945090926000926001600160a01b0390921691634d30b6be916044808301926020929190829003018186803b1580156115fe57600080fd5b505afa158015611612573d6000803e3d6000fd5b505050506040513d602081101561162857600080fd5b5051600754604080516370a0823160e01b815230600482015290519293506000926001600160a01b03909216916370a0823191602480820192602092909190829003018186803b15801561167b57600080fd5b505afa15801561168f573d6000803e3d6000fd5b505050506040513d60208110156116a557600080fd5b5051306000908152600160205260408120549192506116c48787612270565b600080549192508c15611751576116eb866116e58f610ab3866103e8611f36565b906124a2565b905083811461172b5760405162461bcd60e51b815260040180806020018281038252602a8152602001806127be602a913960400191505060405180910390fd5b8c9a50858b1461174857611743826116e58388611ed6565b61174a565b845b99506117f4565b8b156117d15761176b856116e58e610ab3866103e8611f36565b90508381146117ab5760405162461bcd60e51b815260040180806020018281038252602a8152602001806127be602a913960400191505060405180910390fd5b8b9950848a146117c8576117c3826116e58389611ed6565b6117ca565b855b9a506117f4565b50826117e1826116e58389611ed6565b9a506117f1826116e58388611ed6565b99505b858b1480156118025750848a145b1561182257611813826103e8611f36565b905061182260006103e86124e4565b60008b118015611832575060008a115b61186d5760405162461bcd60e51b815260040180806020018281038252602881526020018061276e6028913960400191505060405180910390fd5b61187730826124e4565b611882878f8d611bb0565b600754611899906001600160a01b03168f8c611d40565b600654600854604080516326985b5f60e11b81523060048201526024810192909252516001600160a01b0390921691634d30b6be91604480820192602092909190829003018186803b1580156118ee57600080fd5b505afa158015611902573d6000803e3d6000fd5b505050506040513d602081101561191857600080fd5b5051600754604080516370a0823160e01b815230600482015290519298506001600160a01b03909116916370a0823191602480820192602092909190829003018186803b15801561196857600080fd5b505afa15801561197c573d6000803e3d6000fd5b505050506040513d602081101561199257600080fd5b505194506119a286868b8b611f78565b82156119cc576009546119c8906001600160701b0380821691600160701b900416611ed6565b600c555b8d6001600160a01b0316336001600160a01b03167fdccd412f0b1252819cb1fd330b93224ca42612892bb3f4f789976e6d819364968d8d604051808381526020018281526020019250505060405180910390a35050505050505050506001600d81905550935093915050565b600d54600114611a8f576040805162461bcd60e51b815260206004820152601160248201527f556e697377617056323a204c4f434b4544000000000000000000000000000000604482015290519081900360640190fd5b6000600d55600654600854604080516326985b5f60e11b8152306004820152602481019290925251611ba9926001600160a01b031691634d30b6be916044808301926020929190829003018186803b158015611aea57600080fd5b505afa158015611afe573d6000803e3d6000fd5b505050506040513d6020811015611b1457600080fd5b5051600754604080516370a0823160e01b815230600482015290516001600160a01b03909216916370a0823191602480820192602092909190829003018186803b158015611b6157600080fd5b505afa158015611b75573d6000803e3d6000fd5b505050506040513d6020811015611b8b57600080fd5b50516009546001600160701b0380821691600160701b900416611f78565b6001600d55565b600654604080513060248201526001600160a01b0385811660448301526064820187905260848083018690528351808403909101815260a490920183526020820180516001600160e01b03167f7fe6838100000000000000000000000000000000000000000000000000000000178152925182516000956060959316939282918083835b60208310611c535780518252601f199092019160209182019101611c34565b6001836020036101000a0380198251168184511680821785525050505050509050019150506000604051808303816000865af19150503d8060008114611cb5576040519150601f19603f3d011682016040523d82523d6000602084013e611cba565b606091505b5091509150818015611ce8575080511580611ce85750808060200190516020811015611ce557600080fd5b50515b611d39576040805162461bcd60e51b815260206004820181905260248201527f556e697377617056323a20544f4b454e5f5452414e534645525f4641494c4544604482015290519081900360640190fd5b5050505050565b604080518082018252601981527f7472616e7366657228616464726573732c75696e74323536290000000000000060209182015281516001600160a01b0385811660248301526044808301869052845180840390910181526064909201845291810180516001600160e01b03167fa9059cbb000000000000000000000000000000000000000000000000000000001781529251815160009460609489169392918291908083835b60208310611e065780518252601f199092019160209182019101611de7565b6001836020036101000a0380198251168184511680821785525050505050509050019150506000604051808303816000865af19150503d8060008114611e68576040519150601f19603f3d011682016040523d82523d6000602084013e611e6d565b606091505b5091509150818015611e9b575080511580611e9b5750808060200190516020811015611e9857600080fd5b50515b611d395760405162461bcd60e51b81526004018080602001828103825260258152602001806127e86025913960400191505060405180910390fd5b600082611ee557506000610bfe565b82820282848281611ef257fe5b0414611f2f5760405162461bcd60e51b815260040180806020018281038252602181526020018061280d6021913960400191505060405180910390fd5b9392505050565b6000611f2f83836040518060400160405280601e81526020017f536166654d6174683a207375627472616374696f6e206f766572666c6f770000815250612576565b6001600160701b038411801590611f9657506001600160701b038311155b611fe7576040805162461bcd60e51b815260206004820152601360248201527f556e697377617056323a204f564552464c4f5700000000000000000000000000604482015290519081900360640190fd5b60095463ffffffff42811691600160e01b9004811682039081161580159061201757506001600160701b03841615155b801561202b57506001600160701b03831615155b15612096578063ffffffff16612053856120448661260d565b6001600160e01b03169061261f565b600a80546001600160e01b03929092169290920201905563ffffffff811661207e846120448761260d565b600b80546001600160e01b0392909216929092020190555b600980547fffffffffffffffffffffffffffffffffffff0000000000000000000000000000166001600160701b03888116919091177fffffffff0000000000000000000000000000ffffffffffffffffffffffffffff16600160701b8883168102919091176001600160e01b0316600160e01b63ffffffff871602179283905560408051848416815291909304909116602082015281517f1c411e9a96e071241c2f21f7726b17ae89e3cab4c78be50e062b03a9fffbbad1929181900390910190a1505050505050565b6001600160a01b03808416600081815260026020908152604080832094871680845294825291829020859055815185815291517f8c5be1e5ebec7d5bd14f71427d1e84f3dd0314c0f7b2291e5b200ac8c7c3b9259281900390910190a3505050565b6001600160a01b0383166000908152600160205260409020546121e59082611f36565b6001600160a01b0380851660009081526001602052604080822093909355908416815220546122149082612644565b6001600160a01b0380841660008181526001602090815260409182902094909455805185815290519193928716927fddf252ad1be2c89b69c2b068fc378daa952ba7f163c4a11628f55a4df523b3ef92918290030190a3505050565b600080600560009054906101000a90046001600160a01b03166001600160a01b031663017e7e586040518163ffffffff1660e01b815260040160206040518083038186803b1580156122c157600080fd5b505afa1580156122d5573d6000803e3d6000fd5b505050506040513d60208110156122eb57600080fd5b5051600c546001600160a01b03821615801594509192509061239c578015612397576000612328610ec16001600160701b03888116908816611ed6565b90506000612335836123b0565b90508082111561239457600061235761234e8484611f36565b60005490611ed6565b905060006123708361236a866005611ed6565b90612644565b9050600081838161237d57fe5b0490508015612390576123908782612402565b5050505b50505b6123a8565b80156123a8576000600c555b505092915050565b600060038211156123f3575080600160028204015b818110156123ed578091506002818285816123dc57fe5b0401816123e557fe5b0490506123c5565b506123fd565b81156123fd575060015b919050565b60005461240f9082612644565b60009081556001600160a01b0383168152600160205260409020546124349082612644565b6001600160a01b03831660008181526001602090815260408083209490945583518581529351929391927fddf252ad1be2c89b69c2b068fc378daa952ba7f163c4a11628f55a4df523b3ef9281900390910190a35050565b600081831061249b5781611f2f565b5090919050565b6000611f2f83836040518060400160405280601a81526020017f536166654d6174683a206469766973696f6e206279207a65726f00000000000081525061269e565b6001600160a01b0382166000908152600160205260409020546125079082611f36565b6001600160a01b0383166000908152600160205260408120919091555461252e9082611f36565b60009081556040805183815290516001600160a01b038516917fddf252ad1be2c89b69c2b068fc378daa952ba7f163c4a11628f55a4df523b3ef919081900360200190a35050565b600081848411156126055760405162461bcd60e51b81526004018080602001828103825283818151815260200191508051906020019080838360005b838110156125ca5781810151838201526020016125b2565b50505050905090810190601f1680156125f75780820380516001836020036101000a031916815260200191505b509250505060405180910390fd5b505050900390565b6001600160701b0316600160701b0290565b60006001600160701b0382166001600160e01b0384168161263c57fe5b049392505050565b600082820183811015611f2f576040805162461bcd60e51b815260206004820152601b60248201527f536166654d6174683a206164646974696f6e206f766572666c6f770000000000604482015290519081900360640190fd5b600081836126ed5760405162461bcd60e51b81526020600482018181528351602484015283519092839260449091019190850190808383600083156125ca5781810151838201526020016125b2565b5060008385816126f957fe5b049594505050505056fe556e697377617056323a20494e53554646494349454e545f4f55545055545f414d4f554e54556e697377617056323a20494e53554646494349454e545f494e5055545f414d4f554e54556e697377617056323a20494e53554646494349454e545f4c4951554944495459556e697377617056323a20494e53554646494349454e545f4c49515549444954595f4255524e4544556e697377617056323a20494e53554646494349454e545f4c49515549444954595f4d494e544544556e697377617056323a20494e53554646494349454e545f4c49515549444954595f50524f5649444544556e697377617056323a20424153455f544f4b454e5f5452414e534645525f4641494c4544536166654d6174683a206d756c7469706c69636174696f6e206f766572666c6f77a2646970667358221220b2010a7b0a7ee7a6be8a0335ed9e63baec8df0aa35ec4d2e81a4ed58e33f8b8964736f6c634300060c0033a2646970667358221220d1c3821c0a99a770c8d20ab9fdf5500dbd812ed677f78f1829bb3c8a5fd26bcd64736f6c634300060c0033",
  "linkReferences": {},
  "deployedLinkReferences": {}
}